:020000040000FA
:10000000B0220020E5020000ED0200001502000011
:10001000F1020000F3020000F50200000000000001
:10002000000000000000000000000000F7020000D7
:10003000F902000000000000FB020000FD020000C9
:100040001F060000FF02000051090000FF0200002F
:10005000FF020000FF02000001040000FF02000098
:10006000FF020000FF020000FF020000FF0200008C
:10007000FF020000FF020000FF020000FF0200007C
:10008000FF0200002D060000FF020000FF0200003A
:1000900051060000FF020000FF020000FF02000006
:1000A000FF020000FF020000FF020000FF0200004C
:1000B000FF020000FF02000000000000000000003E
:1000C000FF020000FF020000FF020000FF0200002C
:1000D000FF020000FF020000FF020000000000001D
:1000E0000000000000000000000000000000000010
:1000F0000000000000000000000000000000000000
:1001000000000000000000000000000000000000EF
:1001100000000000000000000000000000000000DF
:1001200000000000000000000000000000000000CF
:1001300000000000000000000000000000000000BF
:1001400000000000000000000000000000000000AF
:10015000000000000000000000000000000000009F
:10016000000000000000000000000000000000008F
:10017000000000000000000000000000000000007F
:10018000000000000000000000000000000000006F
:10019000000000000000000000000000000000005F
:1001A000000000000000000000000000000000004F
:1001B000000000000000000000000000000000003F
:1001C000000000000000000000000000000000002F
:1001D000000000000000000000000000000000001F
:1001E000000000000000000000000000000000000F
:1001F00000000000000000000000000000000000FF
:10020000DFF80CD000F0EAF8004800474510000085
:10021000B0220020094B1EF0040F1CBFEFF3098031
:100220001847EFF308800649064A884201D89042F1
:1002300002D88D464FF00000184700007D050000F1
:10024000B0220020B002002030B4044654E8000F71
:100250000D4644E80053002BF8D1156030BC7047C0
:1002600030B4044654E8000F40EA010544E8005366
:10027000002BF7D1156030BC704730B4044654E809
:10028000000F00EA010544E80053002BF7D1156088
:1002900030BC704730B4044654E8000F80EA0105D2
:1002A00044E80053002BF7D1156030BC704730B4E0
:1002B000044654E8000F00EB010544E80053002B0E
:1002C000F7D1156030BC704730B4044654E8000FD5
:1002D000A0EB010544E80053002BF7D1156030BCBA
:1002E000704700000648804706480047FEE7FEE7E3
:1002F000FEE7FEE7FEE7FEE7FEE7FEE7FEE7FEE7D6
:1003000055060000010200002DE9F05F05460020BF
:1003100092469B4688460646814640241BE0284676
:1003200041464746224600F048F853465A46C01A0E
:10033000914110D311461846224600F02FF82D1A8D
:1003400067EB01084F4622460120002100F026F805
:1003500017EB00094E41201EA4F10104DFDC4846E2
:1003600031462A464346BDE8F09F40EA01039B0719
:1003700003D009E008C9121F08C0042AFAD203E01A
:1003800011F8013B00F8013B521EF9D27047421CA4
:1003900010F8011B0029FBD1801A7047202A04DBCA
:1003A000203A00FA02F1002070479140C2F1200388
:1003B00020FA03F3194390407047202A04DB203AC7
:1003C00021FA02F00021704721FA02F3D040C2F175
:1003D000200291400843194670470000064C074D23
:1003E00006E0E06840F0010394E807009847103405
:1003F000AC42F6D3FFF708FF042E0000242E0000C5
:100400002DE9F04700268CB0DFF86891B0464FF434
:100410008075012437460696284601F025FC38B140
:10042000D9F80403204203D0284601F013FC2643E8
:100430002D1D64007F1CADB2082FEDD34FF4BE74A8
:10044000204601F011FC48B1204601F003FC46F0C3
:10045000004606AA0121002001F0C4FB464D16F01B
:10046000FF0F15D00127002437420DD009EB84017E
:10047000D1F81005D1F81015C0F3042055F8242048
:10048000C1F3014102B190477F00641C082CEBD3FB
:10049000002E6BDA4FF0FF30CDE90880002634469D
:1004A000281910F8507F90F9000027F0C008401C70
:1004B00048D009A9404600F029FE78B34FEA9719C1
:1004C000404600F061FC55F820701FB1B9F1030FF0
:1004D00003D00FE0B9F1030F34D108A84FEAD801D7
:1004E00008F00702435C4FF0010C0CFA02FC43EAEF
:1004F0000C03435404A8CDF8108001F005FB0499C7
:1005000000EB8100D0F8000706A9C0F3014A40467D
:1005100000F0FCFD18B1BAF1020F03D012E0BAF1FD
:10052000030F0FD1B9F1030F08D1BAF1020F1BD09D
:100530000221404601F0A7FA761CF6B217B14946EF
:100540004046B847641C042CAAD3002E0ED06A463D
:100550000121002001F046FB06990098884205D051
:1005600006900898099099E70321E2E70CB0BDE8EE
:10057000F087000000600040080100200449086086
:1005800004490968C90700D000BE00F005F8000062
:100590003C000020F0ED00E0BFF34F8F05480168FC
:1005A000054A01F4E06111430160BFF34F8F00BFC2
:1005B000FDE700000CED00E00400FA0500F01F026A
:1005C000012191404009800000F1E020C0F8801234
:1005D000704700F01F02012191404009800000F1A6
:1005E000E020C0F80011704700F01F020121914087
:1005F0004009800000F1E020C0F800127047490770
:10060000090E002806DA00F00F0000F1E02080F863
:10061000141D704700F1E02080F80014704710B5F9
:1006200000F052FEBDE8104000F0D0BE07480021A7
:10063000C0F84011C0F84411C0F84811C0F84C117E
:10064000C0F80011C0F8041102F08AB9001001408E
:1006500002F0D8B8F0B5AE480023021D017801259C
:10066000101D4FF0805406290BD11678360708D19B
:100670000678C6F30316032E06D0042E04D0052EEA
:1006800002D0062907D00EE0B4F82463A14FC6F3C8
:1006900004263E6002E01678360704D10678C6F3D9
:1006A0000316032E02D0062904D00FE09B4F9A4E6A
:1006B0007E670EE01678360708D10678C6F3031673
:1006C000032E06D0042E04D0052E02D0062907D012
:1006D0000EE0D4F84462924FC6F342363E6002E028
:1006E0001678360704D10678C6F30316032E02D017
:1006F000062906D011E08B4E376827F080773760E7
:100700000EE01678360708D10678C6F30316032ED6
:1007100006D0042E04D0052E02D006290AD011E0FE
:100720004FF08046C6F80C31C6F810317C4E361FAB
:10073000336002E01678360704D10678C6F3031654
:10074000032E02D0062905D00CE0754F032664372E
:100750003E600AE01678360704D10678C6F3031621
:10076000032E02D006290DD014E06F4F05263E60FF
:100770006D4E783635606C4E083633603F263F1D2F
:100780003E6002E01678360704D10678C6F30316F9
:10079000052E02D0062957D062E0644E3668644FB9
:1007A0003E60624E361D36683F1D3E605F4E083625
:1007B00036683F1D3E605D4E0C3636683F1D3E601C
:1007C0005A4E103636683F1D3E60584E1436366815
:1007D0003F1D3E60554E18363668554F20373E60F7
:1007E000524E1C3636683F1D3E60504E20363668ED
:1007F0003F1D3E604D4E243636683F1D3E604B4ED9
:10080000283636683F1D3E60484E2C3636683F1D00
:100810003E60464E30363668454F40373E60434E68
:10082000343636683F1D3E60404E383636683F1DD0
:100830003E603E4E3C3636683F1D3E603B4E403685
:1008400036683F1D3E6002E01678360708D106780C
:10085000C6F30316032E06D0042E04D0052E02D0B4
:10086000062907D019E0D4F85812324A01F04F0196
:10087000116002E0117809070FD10078C0F303106E
:10088000032803D0042801D0052806D12A4801688E
:10089000C90702D06FF00101016022487438016875
:1008A00041F470010160BFF34F8FBFF36F8F4FF0C2
:1008B0001021D1F80002002803DBD1F8040200283F
:1008C00022DA1E4A15601E480468002CFCD015244C
:1008D000C1F800420568002DFCD0C1F8044201684F
:1008E0000029FCD0136001680029FCD0BFF34F8FB2
:1008F0000C48F0380168134A01F4E06111430160CB
:10090000BFF34F8F00BFFDE710490F480860F0BDEF
:10091000E00F00F0403501400DF0ADBA00C00740D7
:100920003C050040FCED00E01056004004040010BF
:1009300020C50040E40E00400004004004E50140F2
:1009400000E401400400FA050090D00340000020BC
:100950000448017F04480029024901D002F051B93E
:1009600002F0C0B8600100200020004002E008C88A
:10097000121F08C1002AFAD170477047002001E019
:1009800001C1121F002AFBD170470000034B1B68F6
:10099000DB0700D000BE00F00FB80000F0ED00E073
:1009A0000EB5ADF80010CDE901206A46002144F2F1
:1009B0000100FFF7EBFF0EBD08B501238DF80030F5
:1009C0009DF80030144B186059609A606FF48041B4
:1009D000401807D001280FD1DA60D86800889861E4
:1009E000D86807E01A61186980685861186900883A
:1009F000986118694068D861186858689868D8681C
:100A0000186958699869D86972B600BF9DF80000E6
:100A10000028FBD162B608BD80010020074B9B78FF
:100A200023B12AB120B10068037C1BB108207047B4
:100A3000072070474174426100207047A0010020E8
:100A400070B501F0D3FD104800240B2104704470F0
:100A50000E4D817014206C602C706C70FFF7AEFD31
:100A600007211420FFF7CBFD1420FFF7B2FD084843
:100A7000046007211120FFF7C2FD0548001F006830
:100A8000A860002070BD0000A0010020240000200C
:100A9000081501402DE9F843DFF8709099F802300D
:100AA0005BB350B3052902D20720BDE8F883436940
:100AB0001BB3437C012B22D0002704460025884627
:100AC0001646284600F036F8684602F013F9C0B121
:100AD000012101700E4944600968C0E90218C0E9AB
:100AE00004769DF8000089F80100002000F050F81D
:100AF0001420FFF779FD2846D7E70820D5E70F46F1
:100B0000DBE70425002000F043F8F4E7A001002013
:100B1000041501400649897839B130B1416921B1E4
:100B200000210174022101F0FBBE08207047000083
:100B3000A001002010B501F0C5FC012803D004A1DC
:100B40001D2000F0B9F8BDE8104000F04FB80000DB
:100B50002E2E5C2E2E5C2E2E5C2E2E5C2E2E5C2ECF
:100B60002E5C636F6D706F6E656E74735C6C696222
:100B70007261726965735C7574696C5C6170705FD9
:100B80007574696C5F706C6174666F726D2E630052
:100B900010B501F097FC012803D004A12B2000F030
:100BA0008BF8BDE8104000F029B800002E2E5C2E16
:100BB0002E5C2E2E5C2E2E5C2E2E5C2E2E5C636FF9
:100BC0006D706F6E656E74735C6C69627261726970
:100BD00065735C7574696C5C6170705F7574696C69
:100BE0005F706C6174666F726D2E630072B602483E
:100BF0000168491C016070473800002003490868FB
:100C0000401E086000D162B6704700003800002026
:100C100070B5054608680C46411C04D000F0C4FFBE
:100C2000206800F026FF6068411C02D0002100F01F
:100C300017FF28791F4901EB40102968007F002821
:100C4000A069C1F8240523D0607D227D2968104366
:100C5000C1F86C05D4E900122868C0F80C15C0F87A
:100C6000142522E0A068411C02D0002100F0F8FE0B
:100C7000E068411C04D000F097FFE06800F0F9FE46
:100C8000D4E902122868C0F80825C0F8101570BD14
:100C9000607D217D2A680843C2F86C05D4E9001202
:100CA0002868C0F81425C0F80C15207D0128D9D07B
:100CB00070BD0000600100201CB56A46ADF8000060
:100CC0000191002144F20200FFF760FE1CBD00000C
:100CD0007CB50024064E25460022305D0323009596
:100CE0001146019500F08AFE641C042CF4D37CBDEF
:100CF000B42D000010B50446042803D305A11E201E
:100D0000FFF7DAFF0F480121005DBDE8104000F059
:100D100055BF00002E2E5C2E2E5C2E2E5C2E2E5CDF
:100D20002E2E5C2E2E5C636F6D706F6E656E74730D
:100D30005C626F617264735C626F617264732E6374
:100D400000000000B02D00007CB50024084E2546B0
:100D50000122305D009500231146019500F04EFE02
:100D6000641C042CF4D3BDE87C4000F003B8000000
:100D7000B02D000010B500242046FFF7BBFF641C17
:100D8000042CF9D310BD00000249084490F930004A
:100D9000704700000801002070B5084C050009D01C
:100DA00010342168002907D0086820604968284667
:100DB0008847F6E70834F4E770BD0000F40000202F
:100DC0002DE9F05F26484168F1B3DFF898B00E686E
:100DD0008146DBF8004087688078E11B21F07F4581
:100DE000ED1CB0B9DFF880804FF48030C8F84403C0
:100DF000C8F804031120FFF7E1FB1120FFF7E9FB1E
:100E00004FF0010AC8F800A02F2000F097F989F8E8
:100E100002A0B54200D23546124BE8193C3320F00F
:100E20007F401860DBF800105A46091B21F07F4113
:100E3000001B20F07F40C91C81420FD91068186048
:100E40002F2000F07BF900E004E0BDE8F05F112006
:100E5000FFF7CABBBDE8F05F01F0C8BBBDE8F09F7B
:100E60002400002004150140001001400E4910B577
:100E70000A784C780023A24212D0521CD2B20A70D7
:100E8000022A00D10B70084A0B780C3252F823204A
:100E900002608868104420F07F408860012010BD07
:100EA0000360002010BD000024000020826812684A
:100EB000D268002A00D010477047000070B50E4677
:100EC0000446007918494FF4A27501EB4010017FE8
:100ED0002068A1B14FF4887101F0EEFA4FF49071DF
:100EE000206801F0E9FA4FF49271206801F0E4FA09
:100EF0002946206801F0E0FA0C49206809E04FF427
:100F00008E7101F0C8FA2946206801F0C4FA084938
:100F10002068C0F80413206800F02AFA3146BDE8C2
:100F2000704000F0FDB900006001002010030200D5
:100F3000800002000268134602E08A4204D0126870
:100F4000002AFAD10B600160704700002DE9F047DC
:100F5000394E002780463D46DFF8E090D6F804A0E1
:100F600057E003D00446D0F81C8035E099F8002003
:100F700002EB4201521CD2B289F8002009EBC101F8
:100F800099F80230091D9A4201D189F80050486849
:100F90000A780446012A12D0022A02D0032A3BD141
:100FA00008E001F08DFC00B10127257434E00574E0
:100FB000C06900E070680028F9D170602CE0207CE6
:100FC00050BB88686060C868A0600869E0604869D4
:100FD000A061F07800B165606268B168184B501A82
:100FE00020F07F40984202D2A168084406E0881AA7
:100FF000A16820F07F40814202D9081A206000E0F9
:10100000256065600120A56020742046E56101F03F
:1010100039FCB8F10000A4D199F8001099F801004A
:101020008142A3D117B97168514502D00120BDE8B2
:10103000F0870020FBE7000024000020A001002032
:10104000FFFF7F001CB500F0BFF818B129A24421B2
:10105000FFF7A6FC002000F097F918B125A2462161
:10106000FFF79EFC002000F0D1F8FFF7E9FC18B173
:1010700020A24A21FFF794FCFFF766FEFFF728FE47
:10108000204AA2F1200101F1340001F05DF818B10D
:1010900018A25021FFF784FC1B48FFF778F902469D
:1010A0004FF0FF300090174800231749143001F02B
:1010B00065F918B10FA25921FFF772FC4FF47A7449
:1010C000002510480023012201A91430009401F0EA
:1010D000CFF80028F5D10B480023012201A91430D4
:1010E000009501F04BF907480021143000F0B4FFDF
:1010F000E7E700002E2E5C2E2E5C2E2E5C6D6169C3
:101100006E2E6300442D000000000020C20800F095
:1011100007030120895C98400840704700F1804037
:101120000068002800D00120704708B500F1804019
:10113000002101600068009008BD000000283ED03A
:101140001F49204A096800BF00BF00BF00BF00BFA1
:1011500000BF00BF00BF91422FD000BF00BF00BF43
:1011600000BF00BF00BF00BF00BF00BF00BF00BF87
:1011700000BF00BF00BF00BF00BF00BF00BF00BF77
:1011800000BF00BF00BF00BF00BF00BF00BF00BF67
:1011900000BF00BF00BF00BF00BF00BF00BF00BF57
:1011A00000BF00BF00BF00BF00BF00BF00BF00BF47
:1011B00000BF00BF00BF00BF00BF0138C3D17047F0
:1011C000400000200024F40070B50E4C002520786B
:1011D00008B1852513E00021A16061602161E16013
:1011E0004FF0E020D0F80001012610F0010F03D1EC
:1011F0000721002000F094F8034806602670284676
:1012000070BD0000F40000201805004070B51C4CB3
:101210000546207818B91BA1D520FFF74DFDA07811
:1012200038B115B16968012088470020FFF782FCBA
:1012300015E00020FFF77EFC25B11148294610304B
:10124000FFF778FEE06850B94FF48270FFF76DFF4A
:1012500002204107C1F804031A4901200860E06830
:10126000401CE0600020FFF793FCE068002805D1F7
:10127000BDE8704003A1F120FFF71EBD70BD000066
:10128000F40000202E2E5C2E2E5C2E2E5C2E2E5C6A
:101290002E2E5C2E2E5C636F6D706F6E656E747398
:1012A0005C647269766572735F6E72665C636C6FA4
:1012B000636B5C6E72665F6472765F636C6F636BA8
:1012C0002E630000080000402DE9F0414FF48077C4
:1012D0003846FFF723FF0124104EA50748B13846D2
:1012E000FFF723FF0120C5F8080374700020FFF703
:1012F00053FD4FF482773846FFF710FF00280BD0DC
:101300003846FFF712FF0220C5F80803B470BDE8A5
:10131000F0410120FFF740BDBDE8F081F40000205E
:1013200070B50D460446082903D31049FE20FFF787
:10133000C3FC6807000E002C06DA04F00F0101F16F
:10134000E02181F8140D03E004F1E02181F80004AC
:1013500004F01F01012088406109890001F1E021AA
:10136000C1F88002C1F8000170BD0000C02D00006E
:10137000000B40B270470121B1EB507F01D1012039
:10138000704700207047000070B50D4C217809B1FE
:10139000852070BD00B90B480B49007800F00100B2
:1013A00008604FF0E020D0F80001012510F0010F97
:1013B00003D107210020FFF7B3FF2570002070BD87
:1013C00018000020BC2D00007805004070B54FF0DB
:1013D0008040D0F804531B4C68070DD54FF484703F
:1013E00000F0D0FC40B1606820B917A140F2411074
:1013F000FFF762FC60688047A8060ED54FF48A703C
:1014000000F0C0FC48B1A06820B90FA140F249101B
:10141000FFF752FCA16800208847680611D54FF4F9
:101420008C7000F0AFFC00280BD0A06820B906A19A
:101430004FF4A870FFF740FCA168BDE870400120A0
:10144000084770BD180000202E2E5C2E2E5C2E2E1C
:101450005C2E2E5C2E2E5C2E2E5C636F6D706F6E7C
:10146000656E74735C647269766572735F6E7266C2
:101470005C706F7765725C6E72665F6472765F70C7
:101480006F7765722E6300002DE9F04190460D00E4
:10149000064603D118A1EA20FFF70EFC3079264F4B
:1014A00007EB4014E07E10B10820BDE8F081687FB2
:1014B000207729463046FFF7ABFB5FEA0800606003
:1014C0002969216003D0297F3046FFF7F7FC307986
:1014D00007EB4010007F0028306801D0082100E0B1
:1014E0000421C0F800150020E0752076A0750121C8
:1014F000E176A076D9E700002E2E5C2E2E5C2E2EF3
:101500005C2E2E5C2E2E5C2E2E5C636F6D706F6ECB
:10151000656E74735C647269766572735F6E726611
:101520005C756172745C6E72665F6472765F756121
:1015300072742E6300000000600100202DE9F0416C
:1015400005460079304E174606EB40148846E07E8B
:10155000012804D02DA140F22F20FFF7ADFB27B9C1
:101560002AA14FF40C70FFF7A7FB287906EB401077
:10157000007F18B14046FFF7FEFE80B1626800238D
:101580004FF404704FF4017172B12A7906EB4212E4
:10159000127F002A2A6805D0C2F8080304E0102050
:1015A000BDE8F081C2F80813E27DB2B1227E7AB1C3
:1015B00062685AB12A7906EB4212127F1AB1296881
:1015C000C1F8040302E02868C0F804131120E7E71B
:1015D000C4F810800123277605E0E7750020C4F8E1
:1015E0000C806076207628793A4606EB401041461A
:1015F000007F0028284603D0BDE8F04100F0CCB8B9
:10160000BDE8F04100F074B8600100202E2E5C2E81
:101610002E5C2E2E5C2E2E5C2E2E5C2E2E5C636F8E
:101620006D706F6E656E74735C64726976657273EB
:101630005F6E72665C756172745C6E72665F647216
:10164000765F756172742E63000000000179084AAC
:1016500002EB411101220B7F01680BB14A60704718
:101660004FF40173C1F8083300684260704700000E
:101670006001002070B5044600790C4D05EB401068
:10168000017F31B1BDE8704009A14FF42370FFF72D
:1016900013BB807E002807D1204600F0EAFF2179A5
:1016A000012005EB4111887670BD0000600100202B
:1016B0002E2E5C2E2E5C2E2E5C2E2E5C2E2E5C2E64
:1016C0002E5C636F6D706F6E656E74735C647269AF
:1016D000766572735F6E72665C756172745C6E7251
:1016E000665F6472765F756172742E63000000003D
:1016F0002DE9F05F04460079264901EB4015A87EEC
:10170000184302D1204600F0B4FF68680028206822
:1017100006D04FF40171C0F804130020BDE8F09F1B
:101720004FF4A276314600F0B6FEB1464FF4927AFD
:101730004FF4847B5146206800F0A8FE06465946C7
:10174000206800F0A3FE80464946206800F09EFE17
:10175000074648EA07003043ECD056EA070007D1B5
:101760002946206800F060FFE87D697E8842E1D864
:101770000020E8750EB10320D0E70FB10F20CDE7B0
:10178000A97E01200029216801D00860C5E74860D2
:10179000C3E70000600100202DE9F05F89460446A0
:1017A0004FF488759A46904600260068294600F056
:1017B00083FE4FF4A2773946206800F07DFE206852
:1017C000C0F83495C0F838852068BAF1000F14D0FD
:1017D000D0F8001241F02001C0F800122179DFF8A2
:1017E000648008EB4110406850B120684FF40471E8
:1017F000C0F804133046BDE8F09F01210160EDE719
:10180000AA46B9464FF4927B5146206800F04FFE3D
:1018100007464946206800F04AFE054659462068BA
:1018200000F045FE014647EA05000843ECD0237965
:10183000002208EB4310C27501B10326002DD9D058
:101840000F26D7E7600100200179074A006802EB04
:101850004111097F11B1D0F8100101E0D0F8080161
:10186000002800D001207047600100202DE9F047DA
:101870000E460179DFF82881044608EB411517462A
:10188000E87E012804D047A14FF4B970FFF714FA9D
:1018900027B944A140F27310FFF70EFA26B941A10F
:1018A0004FF4BA70FFF708FA217908EB4110007F76
:1018B00018B13046FFF75FFD30B1204600F092F8D6
:1018C00020B11120BDE8F0871020FBE7AF7500279D
:1018D000AE60AF8221793E4608EB41154FF001081A
:1018E000287F0028206825D04FF49079494600F0E1
:1018F000E3FD4FF4AC7A5146206800F0DDFD20682E
:10190000A97DAA68C0F84425C0F848152068C0F829
:1019100008806868F0B94946206800F0C8FD804634
:101920005146206800F0C3FD58EA0001F3D058BBCF
:10193000AF750FE04FF48E7A514600F0ACFD206891
:10194000C0F808802946206801F044F869684FF41F
:10195000807089B13046B5E75146206800F096FDA9
:1019600010B9A88A4845F7D1A88A484505D0294624
:10197000206801F02FF800E08146A88AA97D8842FE
:10198000EAD3A88A484501D10F26D1E751462068FD
:1019900000F07CFD0028F9D02068C0F80C80C7E773
:1019A000600100202E2E5C2E2E5C2E2E5C2E2E5CD6
:1019B0002E2E5C2E2E5C636F6D706F6E656E747371
:1019C0005C647269766572735F6E72665C75617273
:1019D000745C6E72665F6472765F756172742E639A
:1019E000000000000079044901EB4010807D0028D0
:1019F00000D0012070470000600100202DE9FF4168
:101A00001C46DDE90A7815460E46684600F054F893
:101A100046EA450141EA840141EA072242EA0841D7
:101A2000009A00EB8200C0F80017BDE8FF812DE9A5
:101A3000FF411C46DDE90A7815460E46684600F06F
:101A40008BF846EA450141EA840141EA072242EA6D
:101A50000841009A00EB8200C0F80017BDE8FF8142
:101A60001CB500220B46009211460192FFF7DFFFE2
:101A70001CBD1CB5002100910B46012201911146AD
:101A8000FFF7D5FF1CBD13B50C46684600F03CF8C7
:101A9000009900EB8101D1F8002722F44032C1F80F
:101AA0000027009900EB8100D0F8001741EA0441BB
:101AB000C0F800171CBD000010B50068202804D332
:101AC00003A14FF4D570FFF7F7F84FF0A04010BD19
:101AD0002E2E5C2E2E5C2E2E5C2E2E5C2E2E5C2E40
:101AE0002E5C636F6D706F6E656E74735C6472698B
:101AF000766572735F6E72665C68616C5C6E72664E
:101B00005F6770696F2E680010B50068202804D3E5
:101B100003A14FF4D570FFF7CFF84FF0A04010BDF0
:101B20002E2E5C2E2E5C2E2E5C2E2E5C2E2E5C2EEF
:101B30002E5C636F6D706F6E656E74735C6472693A
:101B4000766572735F6E72665C68616C5C6E7266FD
:101B50005F6770696F2E680010B50068202804D395
:101B600003A14FF4D570FFF7A7F84FF0A04010BDC8
:101B70002E2E5C2E2E5C2E2E5C2E2E5C2E2E5C2E9F
:101B80002E5C636F6D706F6E656E74735C647269EA
:101B9000766572735F6E72665C68616C5C6E7266AD
:101BA0005F6770696F2E680001B56846FFF7D4FF64
:101BB000009A01219140C0F8081508BD38B50124EC
:101BC0000090684631B1FFF777FF00998C40C0F86C
:101BD000084538BDFFF770FF00998C40C0F80C45F0
:101BE00038BD0000F8B504460B4866181546006875
:101BF0000090012E04D909A140F2C220FFF75CF841
:101C0000694605E051F82400D0F81005641C01C5B0
:101C1000A642F7D8F8BD0000B82D00002E2E5C2E8D
:101C20002E5C2E2E5C2E2E5C2E2E5C2E2E5C636F78
:101C30006D706F6E656E74735C64726976657273D5
:101C40005F6E72665C68616C5C6E72665F6770691D
:101C50006F2E6800034908B5084400210160006840
:101C6000009008BD0060004002494058012800D0A3
:101C7000002070470060004010B5040003D104A1AB
:101C80004020FFF719F800202060BFF35F8F10BDE0
:101C90002E2E5C2E2E5C2E2E5C2E2E5C2E2E5C2E7E
:101CA0002E5C636F6D706F6E656E74735C6C6962D1
:101CB0007261726965735C6D757465785C6E72666D
:101CC0005F6D74782E68000038B5040003D107A159
:101CD0004820FEF7F1FF204601216A46FEF7B4FADC
:101CE00008B1002038BD012038BD00002E2E5C2E2A
:101CF0002E5C2E2E5C2E2E5C2E2E5C2E2E5C636FA8
:101D00006D706F6E656E74735C6C6962726172691E
:101D100065735C6D757465785C6E72665F6D747802
:101D20002E68000010B5040003D108A15120FEF771
:101D3000C3FF2068012803D004A15220FEF7BCFF96
:101D400000202060BFF35F8F10BD00002E2E5C2EA0
:101D50002E5C2E2E5C2E2E5C2E2E5C2E2E5C636F47
:101D60006D706F6E656E74735C6C696272617269BE
:101D700065735C6D757465785C6E72665F6D7478A2
:101D80002E68000000F180410868002210B1012097
:101D90000A6070471046704710B5040004D105A1D1
:101DA00040F29910FEF788FF204600F023F9A16861
:101DB000081A10BD2E2E5C2E2E5C2E2E5C2E2E5C54
:101DC0002E2E5C2E2E5C636F6D706F6E656E74735D
:101DD0005C6C69627261726965735C717565756569
:101DE0005C6E72665F71756575652E63000000003C
:101DF00070B514460E46050003D112A1FC20FEF773
:101E00005BFF1EB90FA1FD20FEF756FF4FF000004B
:101E1000002C12D0FEF78EFE287C78B12846FFF702
:101E2000BBFF844200D3044622463146284600F0D8
:101E300095FB0020FEF7ACFE204670BDA868A042CE
:101E4000F2D8F0E72E2E5C2E2E5C2E2E5C2E2E5C11
:101E50002E2E5C2E2E5C636F6D706F6E656E7473CC
:101E60005C6C69627261726965735C7175657565D8
:101E70005C6E72665F71756575652E6300000000AB
:101E800010B5040004D107A140F29110FEF714FF31
:101E9000216808684968884201D1012010BD0020EE
:101EA00010BD00002E2E5C2E2E5C2E2E5C2E2E5C85
:101EB0002E2E5C2E2E5C636F6D706F6E656E74736C
:101EC0005C6C69627261726965735C717565756578
:101ED0005C6E72665F71756575652E63000000004B
:101EE00070B50C46050003D105491020FEF7E4FE4D
:101EF000A868A04201D9601C70BD002070BD000020
:101F0000B41D000070B514460D46060004D110A1A2
:101F10004FF4B170FEF7D0FE25B90DA140F2631069
:101F2000FEF7CAFE4FF00000002C10D0FEF702FEB4
:101F3000304600F007FB844200D30446224629467F
:101F4000304600F0CCFA0020FEF722FE204670BD9D
:101F50002E2E5C2E2E5C2E2E5C2E2E5C2E2E5C2EBB
:101F60002E5C636F6D706F6E656E74735C6C69620E
:101F70007261726965735C71756575655C6E7266B8
:101F80005F71756575652E630000000010B5040073
:101F900004D109A14FF4BC70FEF78EFE0020FEF7BD
:101FA000C9FD20680021016041608160BDE81040EA
:101FB0000846FEF7EDBD00002E2E5C2E2E5C2E2E68
:101FC0005C2E2E5C2E2E5C2E2E5C636F6D706F6E01
:101FD000656E74735C6C69627261726965735C7161
:101FE000756575655C6E72665F71756575652E6386
:101FF0000000000010B5040004D108A14FF4C27025
:10200000FEF75AFE0020FEF795FD204600F09AFAF2
:1020100004460020FEF7BCFD204610BD2E2E5C2E8F
:102020002E5C2E2E5C2E2E5C2E2E5C2E2E5C636F74
:102030006D706F6E656E74735C6C696272617269EB
:1020400065735C71756575655C6E72665F717565EB
:1020500075652E6300000000F8B50D46040004D13C
:102060002AA140F2D510FEF727FEA068016821B131
:10207000027B920703D40820F8BD8020F8BD0978C0
:1020800081B3001DFFF720FE88B100200090681C7E
:102090000FD06B462A462046E16800F08DFB060013
:1020A00007D0A068001DFFF73DFE3046F8BD1120A7
:1020B000F8BDA068006840684068FFF7E1FE18B10D
:1020C0002046FFF78FFC58B10026204600F06AFB3F
:1020D0009DF800000028ECD09DF8000018B108E041
:1020E0000126F9E70FE06D1C03D0E0680068FEF7F9
:1020F00011FDA068001DFFF715FE26B99DF8000030
:1021000008B10D20F8BD0020F8BD00002E2E5C2E79
:102110002E5C2E2E5C2E2E5C2E2E5C2E2E5C636F83
:102120006D706F6E656E74735C6C696272617269FA
:1021300065735C73657269616C5C6E72665F736512
:102140007269616C2E63000070B588B015460E464A
:10215000040001D006B11DB935A19A20FEF7ACFDEF
:10216000A068006810B1852008B070BD287838B12B
:10217000686808B1A86818B92DA1A420FEF79CFDD5
:10218000202231466846FEF7F0F8049428780228A9
:1021900027D000208DF81D00287820B3334A6946E7
:1021A0002046FFF771F90028DED1A0680560686855
:1021B00040B14068FFF7EAFEA06800684068006828
:1021C000FFF7E4FEA0680830FFF756FDA068001D89
:1021D000FFF752FDA168032008730098401C04D04B
:1021E00006E00120D6E70022D9E7A06801210173AB
:1021F0000198401CA06814D000680078022807D01D
:102200002046FFF737FAA068006800780028ABD0B6
:10221000A06800688068427A41682046FFF78EF91E
:10222000A2E7017B21F00101017300209CE700007F
:102230002E2E5C2E2E5C2E2E5C2E2E5C2E2E5C2ED8
:102240002E5C636F6D706F6E656E74735C6C69622B
:102250007261726965735C73657269616C5C6E72E0
:10226000665F73657269616C2E630000112A00005D
:102270002DE9F8439946DDF8208016460F46050003
:1022800004D12FA14FF4BF70FEF716FDA8680168B6
:10229000D9B1017BC9071AD0D6B30830FFF714FDB6
:1022A000B8B100200090B8F1FF3F14D06B46424611
:1022B0002846296900F080FA04000CD0A86808308C
:1022C000FFF730FD2046BDE8F8838020FBE70820BB
:1022D000F9E71120F7E7344622463946284600F050
:1022E000D8F9241A074409D09DF8000088B1A868DD
:1022F0000068007810B12846FFF7A8F9B9F1000F7F
:1023000002D0311BC9F800109DF8000028B10BE085
:1023100014E0284600F046FADEE7B8F1FF3F03D0AC
:1023200028690068FEF7F6FBA8680830FFF7FAFC9A
:1023300024B19DF8000008B10D20C4E70020C2E7D9
:102340002E2E5C2E2E5C2E2E5C2E2E5C2E2E5C2EC7
:102350002E5C636F6D706F6E656E74735C6C69621A
:102360007261726965735C73657269616C5C6E72CF
:10237000665F73657269616C2E6300002DE9F84336
:102380009946DDF8208017460D46060004D130A19D
:1023900040F22710FEF790FCB068016829B1027B7B
:1023A000920704D40820BDE8F8838020FBE7EFB350
:1023B00001220024B2EB557F02D00978022915D002
:1023C000001DFFF781FC98B10094B8F1FF3F11D0D8
:1023D0006B4642463046F16800F0EEF9040009D041
:1023E000B068001DFFF79EFC2046DCE71020DAE70E
:1023F0001120D8E73C4622462946304600F074F9C1
:10240000241A054406D0304600F0CCF99DF80000AF
:102410000028F0D0B9F1000F02D0391BC9F8001024
:102420009DF8000040B9B8F1FF3F00E00EE003D096
:10243000F0680068FEF76EFBB068001DFFF772FCE5
:1024400024B19DF8000008B10D20ACE70020AAE7F8
:102450002E2E5C2E2E5C2E2E5C2E2E5C2E2E5C2EB6
:102460002E5C636F6D706F6E656E74735C6C696209
:102470007261726965735C73657269616C5C6E72BE
:10248000665F73657269616C2E63000040580028B6
:1024900000D00120704708B50022425040580090FB
:1024A00008BDD0F80403084000D001207047405810
:1024B000002800D00120704708B500224250405843
:1024C000009008BDEFF30580C005C00D01D00120CC
:1024D0007047EFF3148040F30000401C70472DE973
:1024E000F041044600681746884605684068854202
:1024F00001D8461B02E0A068461B761CE2686068B3
:10250000B74205FB02010CD87A434046FDF72DFF88
:10251000A168E819884200D9002021680860BDE858
:10252000F08102FB06F52A464046FDF71EFFE268F1
:10253000BE1B724308EB05006168FDF716FF2068BB
:102540000660ECE701680A684968914201D3881A7D
:1025500070478068801A0844401C70472DE9F04796
:10256000164689460446FFF717FC80462068A16896
:10257000426840688F1A6168E2687F1C00FB0210A5
:10258000BE420FD872434946FDF7EFFE206841680E
:10259000A2683144914202D84168314400E00021F0
:1025A000416018E002FB07F52A464946FDF7DDFECB
:1025B000E268F71B7A4309EB05016068FDF7D5FE79
:1025C00020684760B04506D2206841682046FFF782
:1025D00087FC216808602046FFF7B4FF21688A68FD
:1025E000824200D28860BDE8F087000070B5012605
:1025F00070044FF0E0210025C1F88001084C401024
:10260000C4F84803C4F8080366602F20FEF796FD5F
:10261000A660044C2F20A560FEF790FDA57070BD4C
:10262000001001402400002070B50546C87D0C460E
:1026300000284FF4847128460AD0FFF72CFFD5F804
:102640001805627EE1688854607E401C607670BD2B
:10265000FFF721FFD5F8180570BD1FB501238DF8D0
:1026600000308DF808100192D0E9001268469047BA
:102670001FBD10B5044600684FF49271FFF70BFFC1
:102680004FF484712068FFF706FF20680121016084
:1026900010BD2DE9F041074680680E4600680178BC
:1026A00031B1406831460068BDE8F041FFF72ABC0F
:1026B000FF2A01D2154600E0FF252C4607E0012243
:1026C00031463846FEF73AFF38B9641E761C384664
:1026D000FFF7BAF808B1002CF1D1281BBDE8F08152
:1026E00001210170704700002DE9F0410546806826
:1026F0000068037863B1436884685E683046FFF71A
:1027000077FB07462846FFF76DF9002825D10FE033
:10271000FF2A00D3FF221446D2B22846FFF7A6F8BC
:1027200018B10FA14420FEF7C7FA2046BDE8F0819A
:10273000227A30462168FFF7E5FB060003D108A1A5
:102740005320FEF7B9FAF2B228462168FFF78EF857
:1027500018B103A15520FEF7AFFA3846E6E70000AE
:102760002E2E5C2E2E5C2E2E5C2E2E5C2E2E5C2EA3
:102770002E5C636F6D706F6E656E74735C6C6962F6
:102780007261726965735C73657269616C5C6E72AB
:10279000665F73657269616C2E63000020BF40BF85
:1027A00020BF7047806800680178002903D0006965
:1027B000002800D00047704770B50E46510CD0037A
:1027C0004FF4FA7280181D4641F1000152000023B7
:1027D000FDF79AFD0446052803D201202870002049
:1027E00070BD074A00213046FEF718F90028F7D1DE
:1027F0002A4621463068BDE87040FEF74BB900001C
:10280000E12600002DE9F84F1D4C00256846D4E96B
:1028100001A6FEF72BFB002738B30023009A61685E
:102820001CE0D1F800C00846944503D9ACEB020285
:102830000A6015E0A2EB0C0263440760D0F80CC0FC
:10284000C1698146BCF1000F08D006EB030828F0EF
:102850007F48C0E9018CC9F81C5005460029E0D129
:1028600028466160FEF772FB03E02846FEF76EFB28
:1028700010B15046FEF7A4FAE770BDE8F88F0000EB
:10288000240000200D4B10B5596831B102680C6866
:10289000A24204D8A21A0A60C161586010BD0B465A
:1028A00003E00B46C969121B21B10C689442F8D3AE
:1028B000A41A0C600260C161D86110BD2400002020
:1028C0002DE9F041144E77683D462C4603E08442E2
:1028D00004D02546E469002CF9D11BE0D4B1A5420F
:1028E0000BD1F869706040B90C4901208860002163
:1028F000B160F0702F20FEF721FC2168E069E861EB
:1029000010B10268114401607068874202D0012052
:10291000BDE8F0810020FBE724000020001001400A
:10292000F8B5064600240D462046FEF703F9684632
:1029300000F0E0F968B10570084946609DF80000B4
:1029400048700020FEF724F91420FDF74DFE2046C4
:10295000F8BD04240020FEF71BF9F8E7A0010020D1
:102960002DE9F041194D6C68002C2CD01848002737
:102970000068A968B846401A20F07F462068B04237
:102980000CD82146361A0744E469087C20B181F846
:102990001080886949698847002CEFD129786878C8
:1029A000814206D1401CC0B26870022801D185F86E
:1029B0000180064869780C3040F82170BDE8F0418C
:1029C0001420FDF711BEBDE8F081000024000020B6
:1029D0000415014070B50C4605464FF48E71FFF7A3
:1029E0005AFDA18AA068415CA08A401CA082C5F85B
:1029F0001C1570BD1FB500228DF800208DF8081041
:102A0000816801918275D0E90012684690471FBD28
:102A100070B5054600780C4638B3012803D002286B
:102A200040D102210BE0A0682A7A696800684068FA
:102A30000068FFF7DDF9297A814205D90321204694
:102A4000BDE87040FEF732BA01212046FEF72EFAAB
:102A5000A06800688068427A41682046FEF76EFDF3
:102A600000281FD010A1762018E0A06800684168F7
:102A7000856820464E680021FEF718FA2A7A30460B
:102A80002968FFF73FFA00280CD0C2B22046296817
:102A9000FEF7ECFE002805D003A18D20BDE87040B4
:102AA000FEF70AB970BD00002E2E5C2E2E5C2E2E75
:102AB0005C2E2E5C2E2E5C2E2E5C636F6D706F6E06
:102AC000656E74735C6C69627261726965735C7364
:102AD000657269616C5C6E72665F73657269616C68
:102AE0002E6300002DE9FF470C4605464FF40071A8
:102AF000FFF7D7FC01274FF40178002618B34FF4F5
:102B0000927949462846FFF7C1FCE0B1494628467C
:102B1000FFF7C1FCC5F80883A07E00B96F600220F2
:102B20008DF80000D5F88004C5F880040390E07D9E
:102B30008DF80800E0680190E6752676D4E9001269
:102B40006846904727E004212846FFF7AAFC10B307
:102B50004FF484712846FFF799FCE0B121462846DE
:102B6000FFF762FDE07D617E884214D1207E38B19E
:102B7000617EE268E0752069E0602676667607E0AF
:102B8000A07E00B96F60C5F80883E675617EE268D3
:102B90002046FFF762FD4FF48E7841462846FFF746
:102BA00075FC88B1A08AA17D884204D221462846BE
:102BB000FFF710FF08E041462846FFF76CFCA17DB7
:102BC00011B12046FFF716FF4FF4A2784146284680
:102BD000FFF75CFC002812D041462846FFF75BFC5B
:102BE000A07E00B12F60E07D002808D0E675617EF0
:102BF000E26804B02046BDE8F047FFF72EBDBDE80F
:102C0000FF872DE9FF410C464FF492770546394680
:102C1000FFF74DFC0026C0B139462846FFF74CFCB3
:102C200002208DF80000D5F88004C5F880040390D8
:102C3000D5F83C058DF80800E0680190E675267629
:102C4000D4E900126846904724E04FF4887739466B
:102C50002846FFF72CFCE8B139462846FFF72CFC44
:102C6000D5F83C05C1B2E07D884213D1207E60B129
:102C7000E268D5F8000220F02000C5F80002207EAE
:102C8000E0752069E060267601E0E675E26820469E
:102C9000FFF7E3FC4FF4A27739462846FFF707FC1D
:102CA00068B139462846FFF707FCE07D38B1E67584
:102CB000D5F83C05E268C1B22046FFF7CEFC4FF4E0
:102CC000907631462846FFF7F2FB00280FD03146B8
:102CD0002846FFF7F1FBA07D002808D0D5F84C0569
:102CE00004B0C1B22046BDE8F041FFF783BEBDE8A5
:102CF000FF8100000A494A788B78521CD2B2934275
:102D000000D100220B78934201D10020704702705D
:102D1000487800EB400001EBC000001D7047000048
:102D2000A0010020060000000800000007000000CD
:102D30000500000000000000010000000000D601B6
:102D40000700000001000000942D00009C2D0000F1
:102D5000000000009D27000000200040000000004F
:102D6000E4000020AC2D0000A82D0000A8000020E9
:102D7000840000202000000001000000010000008D
:102D8000D8000020B4000020200000000100000056
:102D9000010000006C2D0000802D000014000020B8
:102DA0001500002001010000440000206400002004
:102DB000111213140D0E0F1000000050000000003F
:102DC0002E2E5C2E2E5C2E2E5C2E2E5C2E2E5C2E3D
:102DD0002E5C636F6D706F6E656E74735C64726988
:102DE000766572735F6E72665C636F6D6D6F6E5C3D
:102DF0006E72665F6472765F636F6D6D6F6E2E6369
:102E000000000000242E000000000020440000000C
:102E10006C090000682E0000440000206C220000B5
:102E20007C09000048656C6C6F206E72665F73658C
:102E30007269616C210A0D000000000000000000B2
:102E40000000000000000000000000000000000082
:102E50000000000000000000000000000000000072
:082E6000000000000090D00307
:0400000500000201F4
:00000001FF
