:020000040000FA
:10000000C0230020150200001D0200001F02000096
:100010002102000023020000250200000000000071
:1000200000000000000000000000000027020000A7
:1000300029020000000000002B0200002D02000039
:100040002F0200001D0300002F0200002F020000FD
:100050002F0200002F0200002F0200002F020000DC
:100060002F0200002F0200002F0200002F020000CC
:100070002F0200002F0200002F0200002F020000BC
:100080002F0200002F0200002F0200002F020000AC
:10009000790300002F0200002F0200002F02000051
:1000A0002F0200002F020000CD0600002F020000EA
:1000B0002F0200002F0200000000000000000000DE
:1000C0002F0200002F0200002F0200002F0200006C
:1000D0002F0200002F0200002F020000000000008D
:1000E0000000000000000000000000000000000010
:1000F0000000000000000000000000000000000000
:1001000000000000000000000000000000000000EF
:1001100000000000000000000000000000000000DF
:1001200000000000000000000000000000000000CF
:1001300000000000000000000000000000000000BF
:1001400000000000000000000000000000000000AF
:10015000000000000000000000000000000000009F
:10016000000000000000000000000000000000008F
:10017000000000000000000000000000000000007F
:10018000000000000000000000000000000000006F
:10019000000000000000000000000000000000005F
:1001A000000000000000000000000000000000004F
:1001B000000000000000000000000000000000003F
:1001C000000000000000000000000000000000002F
:1001D000000000000000000000000000000000001F
:1001E000000000000000000000000000000000000F
:1001F00000000000000000000000000000000000FF
:10020000DFF80CD000F03CF800480047250900005A
:10021000C02300200648804706480047FEE7FEE767
:10022000FEE7FEE7FEE7FEE7FEE7FEE7FEE7FEE7A6
:10023000D10300000102000040EA01039B0703D044
:1002400009E008C9121F08C0042AFAD203E011F815
:10025000013B00F8013B521EF9D27047D2B201E0D7
:1002600000F8012B491EFBD270470022F6E710B5BB
:1002700013460A4604461946FFF7F0FF204610BD14
:10028000064C074D06E0E06840F0010394E80700E3
:1002900098471034AC42F6D3FFF7B6FF6017000062
:1002A0008017000000F01F020121914040098000EA
:1002B00000F1E020C0F88012704700F01F02012119
:1002C00091404009800000F1E020C0F880117047A3
:1002D00000F01F02012191404009800000F1E02060
:1002E000C0F80011704700F01F0201219140400941
:1002F000800000F1E020C0F8001270474907090EA5
:10030000002806DA00F00F0000F1E02080F8141D4C
:10031000704700F1E02080F80014704770B5144C6D
:10032000D4F80001002628B1D4F80403C00701D096
:10033000C4F80061D4F80C010E4D40B1D4F80403A8
:10034000000704D5C4F80C61286900B18047D4F8CF
:10035000100100280BD0D4F80403C00607D5C4F858
:100360001061E868002802D0BDE87040004770BD09
:1003700000100040040000207CB5144C606A01901D
:100380002078002821D00120FFF797FF656800261C
:1003900066600120FFF79CFFE169002915D0E8079E
:1003A00003D08DF8006068468847A80705D501206E
:1003B0008DF80000E16968468847680705D5022086
:1003C0008DF80000E169684688477CBD0400002084
:1003D000F0B5AE480023021D01780125101D4FF035
:1003E000805406290BD11678360708D10678C6F353
:1003F0000316032E06D0042E04D0052E02D00629A3
:1004000007D00EE0B4F82463A14FC6F304263E6083
:1004100002E01678360704D10678C6F30316032ED9
:1004200002D0062904D00FE09B4F9A4E7E670EE063
:100430001678360708D10678C6F30316032E06D0C1
:10044000042E04D0052E02D0062907D00EE0D4F8E1
:100450004462924FC6F342363E6002E01678360799
:1004600004D10678C6F30316032E02D0062906D05F
:1004700011E08B4E376827F0807737600EE01678F2
:10048000360708D10678C6F30316032E06D0042ECD
:1004900004D0052E02D006290AD011E04FF0804684
:1004A000C6F80C31C6F810317C4E361F336002E0BE
:1004B0001678360704D10678C6F30316032E02D049
:1004C000062905D00CE0754F032664373E600AE02C
:1004D0001678360704D10678C6F30316032E02D029
:1004E00006290DD014E06F4F05263E606D4E78361C
:1004F00035606C4E083633603F263F1D3E6002E09B
:100500001678360704D10678C6F30316052E02D0F6
:10051000062957D062E0644E3668644F3E60624EF2
:10052000361D36683F1D3E605F4E083636683F1DFB
:100530003E605D4E0C3636683F1D3E605A4E1036AA
:1005400036683F1D3E60584E143636683F1D3E608B
:10055000554E18363668554F20373E60524E1C3681
:1005600036683F1D3E60504E203636683F1D3E6067
:100570004D4E243636683F1D3E604B4E2836366859
:100580003F1D3E60484E2C3636683F1D3E60464E4D
:1005900030363668454F40373E60434E3436366815
:1005A0003F1D3E60404E383636683F1D3E603E4E31
:1005B0003C3636683F1D3E603B4E403636683F1D38
:1005C0003E6002E01678360708D10678C6F30316B7
:1005D000032E06D0042E04D0052E02D0062907D003
:1005E00019E0D4F85812324A01F04F01116002E0CC
:1005F000117809070FD10078C0F30310032803D046
:10060000042801D0052806D12A480168C90702D06C
:100610006FF00101016022487438016841F47001F3
:100620000160BFF34F8FBFF36F8F4FF01021D1F8F0
:100630000002002803DBD1F80402002822DA1E4A57
:1006400015601E480468002CFCD01524C1F8004237
:100650000568002DFCD0C1F8044201680029FCD0D7
:10066000136001680029FCD0BFF34F8F0C48F038AD
:100670000168134A01F4E06111430160BFF34F8F39
:1006800000BFFDE710490F480860F0BDE00F00F023
:10069000403501400DF0ADBA00C007403C050040B8
:1006A000FCED00E0105600400404001020C500409E
:1006B000E40E00400004004004E5014000E4014075
:1006C0000400FA050090D0034C0000200748D0F841
:1006D0004011002909D00021C0F840110448407899
:1006E000032802D1034901200861704700A001409E
:1006F000040000200010004002E008C8121F08C1DA
:10070000002AFAD170477047002001E001C1121F92
:10071000002AFBD17047006890FAA0F000BA00BA36
:100720007047000009480068C00700D000BEBFF352
:100730004F8F0648E4380168054A01F4E06111432F
:100740000160BFF34F8F00BFFDE70000F0ED00E058
:100750000400FA050EB500210091CDE901106A46AA
:1007600044F20100FFF7DEFF0EBD000006480168FD
:1007700021F0010101600548016821F0010141F00B
:1007800080710160002070475016004074170040CF
:100790000249085C012100F034BC00005817000039
:1007A0007CB50024084E25460122305D00950023CB
:1007B0001146019500F008FC641C042CF4D3BDE83C
:1007C0007C4000F003B800005817000010B500246A
:1007D0002046FFF7DDFF641C042CF9D310BD006830
:1007E00090FAA0F000BA704770B50F4D0F4CA86892
:1007F000C4F800020E486969C07C88470E490D485C
:1008000008600021C4F8101101202061D4F81021E3
:10081000002AFBD0C4F81011A96841F00401C4F803
:100820000012606070BD0000040000200010004055
:100830009C0000207E030020041500404FF0804003
:100840000021C0F800110121C0F80010D0F80011FB
:100850000029FBD07047000010B51CA08AB00068CA
:1008600008901BA01BA100680990D1E90001CDE907
:100870000601182219496846FFF7DEFC00208DF8B2
:10088000140003208DF813000124154801908DF801
:1008900008408DF80140684600F00EF9002812D19A
:1008A00008A800F043FA00280DD109A800F06CFA5E
:1008B000002808D1082106A800F0ACFA002802D1CF
:1008C0000848047000200AB010BD0000E7E7E7E721
:1008D000C2C2C2C2E7C2C3C4C5C6C7C8401700006F
:1008E000B90900005000002010B50D4C0120207007
:1008F0006070A070E070FFF753FF2178112000F0C6
:1009000075FB6178122000F071FBA178132000F0D4
:100910006DFBE178BDE81040142000F067BB0000DB
:1009200000000020FFF7E0FFFFF796FF08B1FFF798
:1009300011FFFFF783FF00F0B1FA08B1FFF70AFFDC
:100940000A480178427841EA42018278C0789200F0
:1009500042EAC00001430648417100F0DFFA08B1E5
:10096000FFF7F8FE20BF40BF20BFFBE700000020DC
:100970005000002070B50C494FF4705008600B4CCB
:100980000025657000F01EFD20210948FFF76DFC71
:10099000E56214202563FFF790FC06490320C1F8A7
:1009A0000002002070BD000008F501400400002096
:1009B000A00300200010004010B5007800285ED091
:1009C000012814D002285AD12D4800F06BF90028D4
:1009D000FAD02B482B4C407900F00F0001280AD0A8
:1009E000022810D004283AD0082813D13FE0BDE8EF
:1009F000104000F049B8207818B100212170112072
:100A000006E00121FAE7607838B300216170122016
:100A100000F0ECFA2178112000F0E8FA6178122059
:100A200000F0E4FAA178132000F0E0FAE178142055
:100A300000F0DCFA12480121253801702178627833
:100A4000E37841EA4201A278920042EAC3021143EC
:100A50004171BDE8104000F061BA0121D6E7A078ED
:100A600018B10021A1701320D2E70121FAE7E07844
:100A700018B10021E1701420CAE70121FAE710BD86
:100A80007500002000000020094810B5007860B112
:100A90000120FFF712FC07480021816201624162D8
:100AA0000120FFF715FC002010BD082010BD00003C
:100AB00004000020DC0100202DE9F04105007DD07C
:100AC000694C207818B1FFF755FF002877D1686886
:100AD000E061182229466548FFF7AEFB00256560F6
:100AE00020216348FFF7C1FBE562256300F0AEFDFE
:100AF00000287DD05F494FF0E7300860091D4FF0B6
:100B000043300860091D5C480860091D5B480860A7
:100B100000F058FC55490020183101F5947200BFCF
:100B200000EB800303EB40130B4442F82030401CE1
:100B30000828F5DB5249002001F5947200EB800390
:100B400003EB40130B4442F82030401C0828F5DB2F
:100B50004C48042606604B48083805604A4840F275
:100B60000221C0F800124A4A48491160111D08606C
:100B7000DFF81881091D08F10408C1F80080001D84
:100B8000091D0860091D434808604048F038091DE8
:100B900008604048001D091D0860091D3E480860A6
:100BA000324F787C00F007010120FFF7A7FBB87CEB
:100BB00000F007011420FFF7A1FB01E04FE04CE03B
:100BC0001420FFF785FBA0780127E8B3A068294926
:100BD00040F04000A0600220443108602F4903200B
:100BE00008602E48083006602C490520383100E0A6
:100BF00037E008602A4E40F20110C6F8000227488C
:100C0000001F05603804C6F80403F76005211A20A8
:100C1000FFF774FB1A20FFF75BFB1D490839C1F889
:100C20000080081D066019481949283010390860ED
:100C3000174A311D0C3A11601549183908601848D7
:100C40000C30091D086000E004E011494FF46070A9
:100C50005C390860657027700020BDE8F0810E20C7
:100C6000FBE70720F9E70000040000209C000020BB
:100C7000A00300201C150040E743C323A363E31334
:100C80000802002010A5004000A000400011004014
:100C900060F5014040A100400010004008A501405F
:100CA00000A0014070B505461E48007880B385B3AA
:100CB0001D4CA06A70B30120FFF7FFFA606A54F878
:100CC00020100A782A7054F820104978697054F876
:100CD00020108978A97054F820100979297154F8E6
:100CE0002010C978E97054F82010681D491DFFF7DD
:100CF000A3FA606A401C6062082801D30020606289
:100D0000A06A401EA0620120FFF7E2FA002070BD39
:100D100001E002E003E00820F9E70E20F7E70520F4
:100D2000F5E70000040000203003002070B5134EEA
:100D30000446707808B1112070BDCCB10F48343032
:100D4000407C052816D04FF07F452046FFF7E3FC96
:100D5000284204D10A48006810F0FF0F0CD0206828
:100D60007063012000F02EFCBDE87040FFF7FEBC70
:100D70000E2070BD034DE8E7072070BD0400002081
:100D8000241500400000FFFF70B51F4D0446687831
:100D900008B1112070BD84B31B483430407C052855
:100DA0002DD04FF07F462046FFF7B5FC30421BD1D7
:100DB0001649086810F47F4F23D0086810F47F0F9D
:100DC0001FD00868000E1CD0091D0868000E18D03E
:100DD000086810F47F0F14D0086810F47F4F10D00B
:100DE000086810F0FF0F0CD02068A863022000F004
:100DF000E9FBBDE87040FFF7B9BC0E2070BD044EA2
:100E0000D1E7072070BD0000040000202415004039
:100E10000000FFFF70B50C461D49497809B111204B
:100E200070BDB0B1092C31D2194D3435697C05291A
:100E300011D04FF07F412CB1164A12680A4201D1FD
:100E400002781AB3134A121D12680A420BD101210B
:100E500007E00E2070BD1049EDE7425CB2B1491CBD
:100E6000C9B2A142F9D30146094822463C30FFF7F6
:100E7000E3F9C4F10801FF202C74C840A8740420D1
:100E800000F0A0FBBDE87040FFF770BC072070BD0C
:100E9000040000201C1500400000FFFF70B51A4838
:100EA000417809B1112070BD184C4FF0FF31C4F8E2
:100EB00008130025C4F810511549C160816841F03C
:100EC0000401C4F800121021C4F804130421417075
:100ED0000D48104A3430817C11600E49C07C28399D
:100EE0000860091F0C48086001209434FFF7DAF904
:100EF0000120FFF7EDF925676567E567012044F8F4
:100F0000900C002070BD0000040000200010004084
:100F100019100000301500407E0300202DE9F0413B
:100F2000264F0546387840B155B1287868B1202859
:100F30000BD8234E317829B109E00820BDE8F081B3
:100F40000E20FBE7F17C884201D90920F6E71D4C11
:100F5000A06A082801D30420F0E76878082801D3A4
:100F60000720EBE70120FFF7A8F9206A2522294690
:100F700054F82000FFF760F910486A782C30815C43
:100F8000491C01F003018154206A54F82020401CC0
:100F900008281171206201D300202062A06A401C41
:100FA000A0620120FFF794F9707828B9307C18B955
:100FB000787808B900F060FA0020BFE7040000204C
:100FC0009C000020DC01002070B541EA4201DDE90F
:100FD00004564FF0A04441EA830141EA052104EBA5
:100FE000800041EA0641C0F8001770BD01224FF0B1
:100FF000A043824011B1C3F808257047C3F80C25FF
:10100000704701224FF0A043824011B1C3F8082578
:101010007047C3F80C2570472DE9F05F5548002252
:101020000127006818B15448806A082803D3BDE836
:10103000F05FFFF7D9BBDFF83C9109F10809D9F857
:1010400000004D49703101EB800609F104010C6884
:10105000494B35884E33AC42587805D1B478B4EB5F
:10106000500F01D1012200274008B07008689A464D
:1010700030804248424C017D19B19AF80110C907ED
:1010800010D0A1683F4B41F00801C3F800123C4961
:10109000394D007849694FF0000B2C35B8B3012861
:1010A00047D102E0FFF7A0FB4EE03748836AB3F177
:1010B000000E2DD0436A50F823C09CF80180D9F867
:1010C00000C0E04524D196F803C0BCF1010F0DD15A
:1010D00062B95B1C4362082B01D3C0F824B0AEF1A7
:1010E00001028262626842F0010262600122F270D3
:1010F000426A50F82200A06100788847A169087808
:10110000287011F8052BA81CFFF796F806E009E0F7
:1011100086F803B00020884785F800B09AF80100EF
:10112000687006E0002088479AF80000287085F86B
:1011300001B005206070D9F8000014490860134818
:10114000283805601248E060002F10D0B178D9F837
:101150000000C0B200F044F9002808D0606840F0F8
:1011600004006060BDE8F05F1420FFF7BCB8BDE884
:10117000F09F000000140040300300209C0000207D
:101180000400002000100040DC0100202C1500406D
:101190009511000010B5094C0949A06840F0040001
:1011A000C1F8000207486169C07C884707490648C2
:1011B00008600748E0600420607010BD0400002053
:1011C000001000409C0000207E0300200415004019
:1011D0001910000070B5164C164AA068C2F800023B
:1011E000A06A15490860154B091D98898238086066
:1011F0001348012140F80C1F0021C0F83411C0F839
:101200003811104D4FF4E050286050142D1D286007
:10121000C2F80C11187810B96169002088470B4991
:10122000094808600A48E0600320607070BD000053
:10123000040000200010004040A500409C00002059
:1012400000A0004004F501407E030020041500408A
:101250009112000010B50C4C606840F00100606015
:1012600000F096F90948806A30B11420FFF73BF886
:10127000BDE8104000F000B900206070BDE81040EB
:101280001420FFF730B8000004000020DC0100202B
:101290002DE9F047414A4FF4E05010604049D1F841
:1012A0000C31DFF8009100273F4CB9F80E004E14C6
:1012B000DFF8F8800125E3B33D4B1B68CBB36560D5
:1012C0001660D8F8041041F00101C8F80410D8F8ED
:1012D0002010401A401CC8F8240000F059F999F871
:1012E000000088B109F2E220017869B14078410834
:1012F00030480068C0B200F073F828B1D8F8040094
:1013000040F00400C8F804002B48806A50B199F8F6
:101310001000012806D01420FEF7E5FFBDE8F047D5
:1013200000F0AAB888F80170BDE8F0471420FEF775
:10133000DABFD8F820C0BCF1010CC8F820C00BD22D
:1013400065601660401CC8F82400D8F8040040F01E
:101350000200C8F80400E5E7D8F808000F4640F09E
:101360000802C1F80022D8F81800D8F81410007844
:10137000884710481149283801601148C8F80C0006
:10138000022088F8010025600448001F0660D4F898
:101390004401002800D03D60BDE8F08708F5014019
:1013A000001000409C00002000A00040040000202D
:1013B000001400402C150040DC0100205C030020DC
:1013C000D51100000549002008624862886201F5D5
:1013D000AA7108624862886270470000DC01002040
:1013E0002DE9F041224C07468846A06A08283DD2E4
:1013F000A4F5257120460A780026006A01F2E2254C
:10140000012A03D04A7842B1C97C02E02978202918
:101410002CD854F82020117002E054F820100E70DF
:1014200054F82000A91C10F8052BFEF705FF206AD0
:1014300054F820104F700F49096854F8202091701B
:1014400054F8202082F80480697854F8202041F371
:101450000001491C401CD1702062082800D326627C
:10146000A06A401CA0620120BDE8F0810020FBE7DB
:1014700030030020481500402DE9F05F3E4C4FF04E
:101480000108C4F824803D48DFF8F4A0A0F5A07757
:10149000416A3C4D4FF0000B50F82110A1613878A3
:1014A00007F5307610B1012844D10DE00878616964
:1014B0008847A1690879307086F801B011F8052BCA
:1014C000B01CFEF7B9FE18E0C87828B3387D18B311
:1014D000002081460878307008794006000E707050
:1014E000CA78DAB100221043707011F8052BB01CD5
:1014F000FEF7A2FEB9F1000F12D0A06840F008007C
:10150000C5F800021120C5F80403F8892062022002
:10151000C4F80CA060700DE00120DAE70122E2E7D8
:10152000A068C5F800021020C5F804031648E06062
:1015300084F80180A069154A4178116040784446DA
:1015400008FA00F0111D08600B48104934302439A6
:10155000C07C0860081F06600120FEF7A3FE012082
:10156000FEF7B6FEC5F804B1C5F808B1C5F810B16C
:101570002C60BDE8F09F000004000020DC0100208A
:10158000D511000000100040551200002C1500403D
:1015900010B50B4CA06A002811D00120FEF78DFE7B
:1015A000A06A401EA062606A401C6062082801D3E5
:1015B00000206062BDE810400120FEF789BE10BD2A
:1015C000DC01002010B50446C00704D00F48FFF727
:1015D000A2F80F490860A00706D50C48001DFFF7C8
:1015E0009AF80B49091D086060070DD507480830B7
:1015F000FFF7F5F806490831086004480C30FFF79A
:10160000EEF803490C31086010BD000038000020DE
:101610001C1500400A48017A0A4801600A4849B18D
:10162000012905D0032909D0042901D000207047E1
:10163000302100E040218162012070474921FAE712
:101640009C000020101500400400002070B500F040
:1016500041F8FFF7DFFF194C194922787AB1012AC6
:101660000BD000220240607AB8B1164B1D1F012832
:101670000ED0022807D0002513E0134A00E0134AD9
:101680004A610122EEE74FF6FF761E60104B03E041
:10169000FF261E6040F207132B600A4B083B1860C0
:1016A000012549691540E07C8847A089872801D336
:1016B000012000E00020284070BD00009C000020B8
:1016C000040000203C15004015170000E91600003A
:1016D0002110010002480349807A08607047000029
:1016E0009C0000200C150040084A07491160084979
:1016F000497C491E090441EA0021014341F0807000
:10170000111D086070470000000101001415004021
:101710003800002007490648086007480749407C10
:10172000401E41EA00400349091D0860704700005F
:1017300006000300141500403800002020000001BE
:10174000010000000000000001020000FA00030098
:101750000001022000000000111213140D0E0F10E2
:10176000801700000000002050000000F806000074
:10177000D017000050000020702300000807000070
:101780000000000000000100000000001301000044
:101790000000000000000000000000000000000049
:1017A0000000000000000000000000000000000039
:1017B0000000000000000000E7E7E7E7C2C2C2C285
:1017C000E7C2C3C4C5C6C7C80805FF020090D0035E
:0400000500000201F4
:00000001FF
