:020000040000FA
:10000000602600204D030000550300005703000048
:10001000590300005B0300005D03000000000000C6
:100020000000000000000000000000005F0300006E
:10003000610300000000000063030000650300008E
:1000400067030000670300007108000067030000F9
:100050006703000067030000F5030000670300006A
:1000600067030000670300006703000067030000E8
:1000700067030000670300006703000067030000D8
:100080006703000067030000AD0500006703000080
:1000900067030000670300006703000067030000B8
:1000A00067030000670300006703000067030000A8
:1000B000670300006703000000000000000000006C
:1000C0006703000067030000670300006703000088
:1000D0006703000067030000670300006703000078
:1000E00067030000670300006703000000000000D2
:1000F000000000006703000000000000670300002C
:1001000000000000000000000000000000000000EF
:1001100000000000000000000000000000000000DF
:1001200000000000000000000000000000000000CF
:1001300000000000000000000000000000000000BF
:1001400000000000000000000000000000000000AF
:10015000000000000000000000000000000000009F
:10016000000000000000000000000000000000008F
:10017000000000000000000000000000000000007F
:10018000000000000000000000000000000000006F
:10019000000000000000000000000000000000005F
:1001A000000000000000000000000000000000004F
:1001B000000000000000000000000000000000003F
:1001C000000000000000000000000000000000002F
:1001D000000000000000000000000000000000001F
:1001E000000000000000000000000000000000000F
:1001F00000000000000000000000000000000000FF
:10020000DFF80CD000F0E4F800480047FD0D0000D6
:100210006026002030B4044654E8000F0D4644E840
:100220000053002BF8D1156030BC704730B4044641
:1002300054E8000F40EA010544E80053002BF7D1D1
:10024000156030BC704730B4044654E8000F00EA33
:10025000010544E80053002BF7D1156030BC70470E
:1002600030B4044654E8000F80EA010544E8005326
:10027000002BF7D1156030BC704730B4044654E809
:10028000000F00EB010544E80053002BF7D1156087
:1002900030BC704730B4044654E8000FA0EB0105B1
:1002A00044E80053002BF7D1156030BC70470000C4
:1002B00030B4044654E8000F0D4644E80053002BC8
:1002C000F8D1156030BC704730B4044654E8000FD4
:1002D00040EA010544E80053002BF7D1156030BC1B
:1002E000704730B4044654E8000F00EA010544E8C2
:1002F0000053002BF7D1156030BC704730B4044672
:1003000054E8000F80EA010544E80053002BF7D1C0
:10031000156030BC704730B4044654E8000F00EB61
:10032000010544E80053002BF7D1156030BC70473D
:1003300030B4044654E8000FA0EB010544E8005334
:10034000002BF7D1156030BC70470000064880478D
:1003500006480047FEE7FEE7FEE7FEE7FEE7FEE7AA
:10036000FEE7FEE7FEE7FEE7690600000102000087
:1003700000487047DC27000040EA01039B0703D0D8
:1003800009E008C9121F08C0042AFAD203E011F8D4
:10039000013B00F8013B521EF9D27047D2B201E096
:1003A00000F8012B491EFBD270470022F6E710B57A
:1003B00013460A4604461946FFF7F0FF204610BDD3
:1003C000421C10F8011B0029FBD1801A7047000065
:1003D000064C074D06E0E06840F0010394E8070092
:1003E00098471034AC42F6D3FFF70EFF6C2800009C
:1003F0008C2800002DE9F04F00258DB0DFF8A48196
:10040000A94605954FF4807601242F46069530467F
:1004100001F0D2FA38B1D8F80403204203D03046B4
:1004200001F0C0FA2543361D64007F1CB6B2082FC8
:10043000EDD34FF4BE74204601F0BEFA48B1204619
:1004400001F0B0FA45F0004505AA0221002001F0B4
:1004500093FA554E15F0FF0F15D0012700242F42B7
:100460000DD008EB8401D1F81005D1F81015C0F3B8
:10047000052056F82420C1F3014102B190477F00C6
:10048000641C082CEBD3002D4DDA0020CDF824900D
:10049000411E4FF0010A0DF1140B07ADCDF8289065
:1004A00045F82010401C0228FAD300BF96F854707B
:1004B0004FF0000878B227F0C004401C33D007A9E1
:1004C000204600F0ACFD00282DD04FEA97192046B9
:1004D00000F014FB56F820701FB1B9F1030F03D0E0
:1004E0000CE0B9F1030F1ED109A8E10804F00702DE
:1004F000435C0AFA02FC43EA0C03435402A8029448
:1005000001F0FEF9029900EB8100D0F8000705A97F
:10051000C0F301400290204600F081FD00280298BF
:1005200004D0022804D00DB0BDE8F08F0328FAD122
:10053000B9F1030F08D1029802282CD002212046DD
:1005400001F0BBF94FF0010817B149462046B84702
:10055000B8F1000FE7D001AA0221002001F00CFA47
:1005600000205A460DF1040152F8204051F8203085
:10057000A34212D0002009AB51F8204042F820409D
:1005800053F8204045F82040401C0228F4D3B8F12D
:10059000000F8BD1C7E70321D1E7401C0228E3D32A
:1005A000C1E7000000600040C40000202DE9F843CE
:1005B0002A48DFF8A4804FF480720168284E002595
:1005C00089B1D8F8041311F0010F0CD00560006850
:1005D0000090244862F30F040068726860F31744C7
:1005E0003946204690471D484FF48271001D02682D
:1005F000BAB1D8F8042312F0020F12D005600068D7
:100600000090184861F30F040C30006860F31F4439
:1006100014483C300068726860F30F073946204682
:1006200090470E484FF48472083041460368002B0F
:1006300010D0D1F8041311F0040F0BD0056000683E
:100640000090204662F30F00726801B03946BDE8A1
:10065000F0431047BDE8F88300200140002101402D
:10066000180000200C25014030B54FF080500022CA
:10067000D0F830110123082902D1D0F8344114B147
:10068000082909D00BE04FF08041C1F80C21C1F8D6
:10069000102168490A6005E0D0F8344114B10829F6
:1006A00057D059E064490968644C21606249091DCA
:1006B0000968241D2160604908310968241D2160F2
:1006C0005D490C310968241D21605B4910310968BE
:1006D000241D2160584914310968241D21605649A0
:1006E00018310968554C2034216053491C31096880
:1006F000241D2160504920310968241D21604E4984
:1007000024310968241D21604B4928310968241DC2
:10071000216049492C310968241D21604649303146
:100720000968464C40342160434934310968241D2E
:100730002160414938310968241D21603E493C311E
:100740000968241D21603C4940310968241D21604D
:1007500005E0D0F8344114B1082904D006E0394C42
:100760003749216005E0D0F8344114B1082904D09C
:1007700006E0354CFB21216005E0D0F8344114B18E
:10078000082908D00AE090F858423048016864F31C
:100790000301016005E0D0F8344114B1082905D007
:1007A0000EE02B494FF40070086002E0D0F83401ED
:1007B00030B928480168C90702D06FF00101016013
:1007C0002548016841F470010160BFF34F8FBFF30A
:1007D0006F8F4FF01021D1F80002002803DBD1F811
:1007E0000402002822DA1D4C23601D480368002BF8
:1007F000FCD01223C1F800320568002DFCD0C1F8EE
:10080000043201680029FCD0226001680029FCD074
:10081000BFF34F8F10487C380168124A01F4E06141
:1008200011430160BFF34F8F00BFFDE70F490E4832
:10083000086030BD380500400404001020C50040A9
:10084000488103008C56004018F50040E40E00403B
:10085000409602400004004088ED00E004E50140BD
:1008600000E401400400FA050090D0038400002059
:100870000448017F04480029024901D001F059BE13
:1008800001F0C8BD1C0100200020004002E008C8A3
:10089000121F08C1002AFAD170477047002001E0FA
:1008A00001C1121F002AFBD170470000134C012127
:1008B000208801EB004012A101F038FA01F0F8FAAB
:1008C00001F05EF90028FBD10F480068C00700D096
:1008D00000BE2088032101EB00400CA101F026FAA4
:1008E000BFF34F8F0848E43801680D4A01F4E06116
:1008F00011430160BFF34F8F00BFFDE7B800002038
:10090000466174616C000000F0ED00E048697420FD
:100910007765616B2068616E646C65720000000031
:100920000400FA050EB500210091CDE901106A46D8
:1009300044F20100FFF7BAFF0EBD00F003B800F06B
:1009400009B8000072B602480168491C016070478E
:100950002000002003490868401E086000D162B6EC
:10096000704700002000002070B5054608680C465E
:10097000411C04D000F0F5FF206800F094FF60688F
:10098000411C02D0002100F085FF28791F4901EBAE
:1009900040102968007F0028A069C1F8240523D0F1
:1009A000607D227D29681043C1F86C05D4E90012EE
:1009B0002868C0F80C15C0F8142522E0A068411C76
:1009C00002D0002100F066FFE068411C04D000F076
:1009D000C8FFE06800F067FFD4E902122868C0F899
:1009E0000825C0F8101570BD607D217D2A68084378
:1009F000C2F86C05D4E900122868C0F81425C0F8C4
:100A00000C15207D0128D9D070BD00001C010020EC
:100A10002DE9F041861C0C4601270020FFF78DFFD1
:100A20000F4801682160D0E90012891A82680446E3
:100A3000511AB51C07E000BF00F098F9D4E9000195
:100A4000401AA168091A491C8D42F5D82068304423
:100A500020600020FFF773FF3846BDE8F0810000FA
:100A60003C02002030B482680468531C8360A154A7
:100A7000D0E901128A4202D330BC00F0C4BD30BCC0
:100A800070470000034803C8814201D1012070472C
:100A9000002070473C02002005494FF0FF32082833
:100AA00041F8202002D3084480F84C207047000011
:100AB000C4000020F0B54FF0FF3512B10023082626
:100AC00001E0082309260C4C05E000BF54F8237010
:100AD0007F1C04D05B1CB342F8D32846F0BD261817
:100AE0005DB286F8245044F82310002AF5D1E118AD
:100AF00081F84C00F1E70000C400002002490844DE
:100B000090F9240070470000C40000202DE9F04156
:100B1000154C051E03DD607828B16D1E03E002DA76
:100B2000607800B16D1C6068104E012748B13088B4
:100B3000626807EB00400EA101F0FCF80020FFF70F
:100B4000F1FEA068A8420AD03088A36807EB0040F5
:100B50002A4614A101F0F5F80020FFF7E3FE00207B
:100B60006070BDE8F081000000000020B8000020A7
:100B70006D5F61636364626C726561642077617349
:100B800020657870656374656420746F2068617691
:100B9000652076616C7565203020627574206973FC
:100BA000202575006D5F6163637265616420736801
:100BB0006F756C64206265202564206275742069FD
:100BC000732025640000000010B51E4C60680028EA
:100BD00006DD607820B16068401E60601A4813E04E
:100BE0006068002807DA607828B16068401C60609F
:100BF0001548001D08E0A06850B1607840B1A068B9
:100C0000401EA060104808302178405C207001E050
:100C1000002060702078C0074FF01E0002D000F066
:100C20006FFB01E000F012FB207880074FF01F00FF
:100C300003D5BDE8104000F063BBBDE8104000F0F4
:100C400005BB00000C000020D82600002DE9FC5F49
:100C50000E008346DDE90C47C6F100009846924637
:100C6000814600D40846012503E000BF90FBFAF05E
:100C70006D1C5045FADAA84500D9454624B1002E2E
:100C800001DB780700D5641EB80702D5B8F1000F64
:100C90000AD0F80708D13CB1A54205D22021584618
:100CA000641EFFF7DFFEF6E7002E02DA4E462D2126
:100CB00002E0780703D52B215846FFF7D3FE07F053
:100CC000030002280BD1B8F1000F08D13CB1A542B6
:100CD00005D230215846641EFFF7C4FEF6E7CDE981
:100CE0000047434652463146584601F09BFCBDE85A
:100CF000FC9F000070B50E460446007918494FF479
:100D0000A27501EB4010017F2068A1B14FF48871FA
:100D100001F0C2F94FF49071206801F0BDF94FF471
:100D20009271206801F0B8F92946206801F0B4F901
:100D30000C49206809E04FF48E7101F09CF92946B6
:100D4000206801F098F908492068C0F80413206869
:100D500000F094F93146BDE8704000F073B900002E
:100D60001C01002010030200800002002DE9FE4358
:100D7000214DD5E9014704EA070005EB800605F59A
:100D800083600C3600F0F8F805F21440804600F05D
:100D9000F3F80AE0C0F3891101EB9050641C04449D
:100DA00004EA070005EB80060C3630688107F1D0B5
:100DB0000020694604EA070205EB8202641CD2683F
:100DC00041F82020401C0228F4D3009800F00300D2
:100DD000022800980AD0C0F383100444404600F073
:100DE000C5F8002800D06C60BDE8FE83032101EB4C
:100DF000905004EB9004F1E73C020020022401250E
:100E0000002000F0FDFF08B1FFF78CFD00F0AAFE06
:100E10001F49002000F09EFA08B1FFF783FD1D482E
:100E20004FF00A080068C0B201F0ECF91A4F032134
:100E3000388801EB004019A100F078FF1D4E4FF0FB
:100E4000000BB9464FF0130A05FB04F7384601F0D2
:100E500003FA00F06FFA00E020BF30780028FBD0E2
:100E6000B9F800104AEA014013A100F05FFF86F8CC
:100E700000B03846FFF74AFE641C4445E4D901241B
:100E8000D5F1000500F07CFE0028FBD1DCE7000076
:100E9000E521000004250140B800002051444543ED
:100EA0002074657374696E6720737461727465640D
:100EB00000000000000000202A0000002DE9F0479B
:100EC000C7880446181D16468946B0FBF7F1B0FBEB
:100ED000F7F207FB12009A193A44D21CB2FBF7F260
:100EE000DDF820A001E02468491E0029FBD13D1A4D
:100EF0008846B54216D818E0BAF1000F05D021187F
:100F000009EB08002A46091D04E0204409EB08010A
:100F10002A46001DFFF730FA00202468761BA844FB
:100F2000B74201D9354600E03D46002EE4D1BDE888
:100F3000F087000030B50B46024600F08FFF63B12A
:100F40000021094C0CE000BF01EB410304EB8303DB
:100F500015685B88AB4202D11160002030BD491C8E
:100F60008142F1D3052030BD8800002008B5002162
:100F70006A46FFF7B6F908BD08B501216A46FFF7D2
:100F8000A3F9009808BD70B5044600252846FFF770
:100F9000D4FC21686268086890420ED9401E08603F
:100FA0000178238AE26801FB0325227A2168101A5E
:100FB000C0B20A79824200D208710020FFF7BFFC5C
:100FC000284670BD70B505460C460020FFF7B5FCFD
:100FD000E868298A201AB0FBF1F12A681068431CDE
:100FE00013600170BDE870400020FFF7A8BC10B589
:100FF00030B1017A42680368891AC9B21A6006E002
:101000000E2010BD03681A68541C1C601170491E24
:10101000C9B2F7D2006800210171084610BDC208AC
:1010200000F007030120895C98400840704700F0F9
:101030001F02012191404009800000F1E020C0F82A
:10104000801170474907090E002806DA00F00F02E8
:1010500002F1E02282F8141D03E000F1E02282F8A0
:10106000001400F01F02012191404009800000F1AE
:10107000E020C0F88012C0F800117047000B40B2A9
:10108000704700002DE9F0410E46804601F00AF855
:10109000204D0028404616D0FFF730FD284490F838
:1010A0004C008009032802D001280AD003E0404602
:1010B00000F042FC28B103214046BDE8F04100F0B9
:1010C000FCBB0221F8E700F0F9FF002820D04046E1
:1010D000FFF714FD0446104F4FF4807007EB8401B6
:1010E00000EB8400D1F8102580B242F00102C1F873
:1010F000102500F057FC002E0AD04046FFF7FEFCFA
:1011000055F82000002803D00120A040C7F80403B0
:10111000BDE8F081C4000020006000402DE9FC41E2
:10112000DFF8AC80044608EB0400002790F92400A7
:101130001346C0170E46401C01D0082744E0F27841
:1011400019462046FFF7B6FC0546401C3BD0B07858
:1011500068B16846009400F0D3FB009900EB810071
:10116000D0F8001721F00201C0F8001707E00021B5
:101170007378204600910A46019100F03DFBF0781B
:10118000C0B11448317800EB8500D0F81025124B1F
:101190001A40C0F810254FF47C524FF4403302EA55
:1011A000042203EA01410A43D0F810150A43C0F8AB
:1011B000102509E008EB0500327810F84C1F41EAD1
:1011C0008211017000E004273846BDE8FC81000070
:1011D000C400002000600040FFC0FCFF70B5144D4B
:1011E00095F8550008B1082070BD0020411E2A184E
:1011F000401CC0B282F824103028F8D300242046C6
:10120000FFF74AFC641CE4B2092CF8D3072106203E
:10121000FFF718FF4FF4BE7000F0C4FB05494FF014
:101220000040C1F80403012085F85500002070BD7E
:10123000C400002000600040034890F855000028DA
:1012400000D0012070470000C400002000F04DBB1A
:101250002DE9FC41044627480D462044002690F91C
:101260002410491C01D008263EE0A978002751B37C
:10127000012200212046FFF71DFC411C21D08300E4
:101280001D482A7818446978D0F81035DFF86CC00A
:1012900003EA0C03C0F81035D0F810354FF47C5C2D
:1012A0000CEA042C43EA0C034FF4403C0CEA0242E3
:1012B0004FF4801C0CEA01510A431343C0F8103567
:1012C00004E0042610E0FE2180F82410687801284C
:1012D00020460CD000F009FB012220460097002395
:1012E0001146019700F088FA3046BDE8FC8100F015
:1012F0002EFBF1E7C400002000600040FFC0ECFFBF
:1013000000F025BB0121B1EB507F01D101207047D6
:1013100000207047044901200860044A0021116040
:101320000349087070470000042001400025014077
:10133000180000200449012008600449086004499D
:101340000220087070470000002501400020014085
:101350001800002070B5294D0446287808B10820EF
:1013600070BD04B9264C79B369602649607808607D
:101370000021E06800F07CFA0021606800F078FA53
:101380000021A06800F074FA1E4BD4E90121183343
:10139000E0681A601A1D1160191F08601949206958
:1013A000383108601749207D091F08601649D1F8B7
:1013B000000240F00100C1F800021248627D2030B6
:1013C000012622B1066004E0FFE7072070BD00227D
:1013D000026022780420082A03D00A4808300260FC
:1013E0000620A27D0AB140F00100C1F80403E17DAE
:1013F0001220FFF727FE2E70002070BD180000207D
:10140000F026000008250140002001402DE9F041B0
:1014100005460079164F904607EB40140E46E07ED5
:1014200010B10820BDE8F081707F20772846FFF7D3
:101430009BFA5FEA080060603169216003D0317F68
:101440002846FFF757FC287907EB4010007F00285B
:10145000286801D0082100E00421C0F80015002010
:10146000E0752076A0750121E176A076DAE700002C
:101470001C0100202DE9F047054600793F4E9046BB
:1014800006EB40140F46207F18B10846FFF73AFFDD
:1014900030B1284600F074F820B11120BDE8F08783
:1014A0001020FBE784F81680A7600027A782287920
:1014B0004FF0010806EB40143E46207F00282868C4
:1014C00025D04FF49079494600F0E6FD4FF4AC7A10
:1014D0005146286800F0E0FD2868A17DA268C0F8A8
:1014E0004425C0F848152868C0F808806068F0B93D
:1014F0004946286800F0CBFD80465146286800F038
:10150000C6FD58EA0001F3D058BBA7750FE04FF4B1
:101510008E7A514600F0AFFD2868C0F80880214659
:10152000286800F02BFF61684FF4807089B1304665
:10153000B4E75146286800F099FD10B9A08A4845E3
:10154000F7D1A08A484505D02146286800F016FF4B
:1015500000E08146A08AA17D8842EAD3A08A48455E
:1015600001D10F26D1E75146286800F07FFD002801
:10157000F9D02868C0F80C80C7E700001C010020E3
:101580000079044901EB4010807D002800D0012043
:10159000704700001C01002070B504460079114915
:1015A000002601EB401520682A7FC0F800656868B6
:1015B00088B1207901EB4010007F0028206801D01D
:1015C000094901E008498C39C0F808132068FFF781
:1015D00055FDFFF72CFD204600F07CFDEE766E6099
:1015E00070BD00001C010020100302000FB408B5FC
:1015F0000399002904D004AA00926A4600F00FF86B
:1016000001B05DF814FB10B582680446002A05D0CD
:10161000D4E90403216898470020A06010BD2DE99B
:10162000FC4791460C00804676D014F8011B39B176
:1016300025290ED04046FFF715FA20780028F4D16E
:1016400098F80C00002867D04046BDE8FC47FFF73B
:10165000DABF0020012221782B291BD02D2902D0AE
:10166000302908D102E040F0010001E040F0020022
:10167000641C002AEFD100252A290ED02178A1F17F
:1016800030020A2A11D205EB850201EB4205641CE7
:10169000303DF1E740F00400EAE7D9F800100B1DF7
:1016A000C9F800300968641C0D44217800232E29F4
:1016B0000BD114F8011FA1F130020A2A05D203EB65
:1016C000830201EB4203303BF3E76C290DD068291C
:1016D0000BD0692921D00BDC252918D0582931D00D
:1016E00063290ED0642915D117E014F8011FECE727
:1016F000702969D0732932D075291BD0782909D176
:1017000020E0D9F80000011DC9F80010017840461A
:10171000FFF7A8F9641C90E76CE0D9F800100A1DE7
:10172000C9F800200968CDE900500A224046FFF7B9
:101730008DFAEFE7D9F800100A1DC9F800200968F2
:101740000A2206E0D9F800100A1DC9F8002009682D
:101750001022CDE90050404600F064FFDAE7D9F8E6
:10176000001000270A1DC9F800200E68C00705D127
:1017700012E04046761C7F1CFFF774F9317800298F
:10178000F7D104E0202140466D1EFFF76BF9BD4202
:10179000C0D9002DF6D1BDE74EB13046FEF710FEA0
:1017A000074604E0202140466D1EFFF75BF9BD426D
:1017B00006D9002DF6D103E04046761CFFF752F91A
:1017C00031780029F8D1A5E7D9F80000011DC9F842
:1017D0000010056830214046FFF744F97821404663
:1017E000FFF740F908200021CDE90001034610224F
:1017F0002946B0E7BDE8FC872DE9FF411C46DDE93D
:101800000A7815460E46684600F07AF846EA450121
:1018100041EA840141EA072242EA0841009A00EBCA
:101820008200C0F80017BDE8FF812DE9FF411C468A
:10183000DDE90A7815460E46684600F06FF846EA7C
:10184000450141EA840141EA072242EA0841009A3F
:1018500000EB8200C0F80017BDE8FF811CB5002135
:1018600000910B4601220191FFF7DFFF1CBD000034
:10187000202802D24FF0A04202E0054A00F01F00EB
:10188000002302EB800043EA8101C0F80017704793
:10189000000300501CB500220B4600921146019235
:1018A000FFF7C3FF1CBD1CB5002100910B460122B0
:1018B00001911146FFF7B9FF1CBD13B50C466846F0
:1018C00000F01EF8009900EB8101D1F8002722F406
:1018D0004032C1F80027009900EB8100D0F80017D2
:1018E00041EA0441C0F800171CBD01B5684600F08C
:1018F00007F8009A01219140C0F80C1508BD0000BE
:101900000168202902D24FF0A040704701F01F016A
:101910000160014870470000000300500168202961
:1019200002D24FF0A040704701F01F010160014852
:10193000704700000003005001B56846FFF7E0FF64
:10194000D0F810050099C84000F0010008BD01B5AD
:101950006846FFF7D5FF009A01219140C0F80815AD
:1019600008BD01B56846FFF7D9FF009A01219140F3
:10197000C0F8081508BD00001CB5094C0144D4E9A5
:101980000034CDE900346C4606E000BF54F8203046
:10199000D3F81035401C08C28142F7D81CBD0000A6
:1019A000E8260000034908B50844002101600068EA
:1019B000009008BD0060004002494058012800D056
:1019C000002070470060004070B5184A0024D2F82B
:1019D0001034194609E00D7AA54205D1641C0A2C81
:1019E000F7DB4FF0FF341FE049680029F3D1611C99
:1019F0001AD00472D2F8101431B149684160D2F89B
:101A00001014486000250BE00021C2F8100441606A
:101A1000F8E700231A462946204600F029FA6D1CF3
:101A200000F01CFAA842F4D8204670BD3C02002009
:101A3000F0B595B01C4615460F4608461A9E00F0B4
:101A4000EFFA182109A8FEF7B0FC0E96CDE909546B
:101A50000023082203A9384600F0FCFA05980690F6
:101A60000498ADF81C0000208DF82000039808268B
:101A700000F00300012802D002281DD03CE00398AA
:101A80003346850AC0F3C2008DF81E0003980FA9E3
:101A9000C0F380008DF81F000398C0F38314A200E8
:101AA000384600F0D7FA09A8009006AB22460FA9E5
:101AB000284600F011FA1FE00398840DC0F3C2001D
:101AC0008DF81E000398C0F380008DF81F00082CCD
:101AD00001D2254600E0082533462A460FA938469C
:101AE00000F0B8FA2E44641B09AB06AA29460FA8D9
:101AF00000F030F9002CEAD1384600F09AFA15B01F
:101B0000F0BD7047012000F05DBC000010B5044836
:101B1000FFF742FDBDE81040002000F053BC00007C
:101B20002800002008B5034A00924023024AFFF72C
:101B30007FFF08BDBD2200003C010020084A0129AA
:101B400002EBC00005D0022903D0032903D00429E9
:101B500003D000207047007970474079704700003B
:101B60008C28000010B5FFF7CDFF04210348FFF7D4
:101B70002BFF02490120487210BD000030000020F8
:101B80002DE9FE4FFEF77EFF10B10020BDE8FE8F6D
:101B900063480021C0F81414D0E9014604EA0601A4
:101BA00000EB81014FF000090AE000BFC1F3891288
:101BB00002EB9151641C0C4404EA060100EB810124
:101BC000C9688A07F2D000216A46804604EA060006
:101BD00008EB8000641CC06842F82100491C0229FF
:101BE000F4D3009800F00300022800981CD0C0F342
:101BF0008311062900D3062161F389100090C0F3F8
:101C00008310801C8100474800F0C1F9070075D09F
:101C100000F006FA4B4608226946384600F020FAE2
:101C200009F10809002557E0810D50228A46B2EBE0
:101C3000905F00D850210D4665F39F500090083109
:101C4000384800F0A4F9070058D000F0E9F94B46F5
:101C500008226946384600F003FA04EA0601701AC1
:101C60008000001D09F1080B854220D92C4E0C364E
:101C700030B1C2B208EB8101281A91460C3104E060
:101C80003146EAB2002691463046C5B25B46384638
:101C900000F0E6F90BEB090326B12A463146384637
:101CA00000F0DEF90AF1030004EB90041AE008EBFF
:101CB00081015B462A4638460C31F1E704EA06000A
:101CC00008EB80014B46042238460C31641C00F0BE
:101CD000C7F909F104096D1C0098C0F38310A842EC
:101CE000ECD85FB11048FFF741F9D8F810544646D8
:101CF00005B140B1384600F09CF97460FEF7C2FEB1
:101D000080F0010042E7687A012804D12A68284659
:101D10003946126890476D68002DF4D1EAE700005B
:101D20003C020020442700005006002000231A46F1
:101D300000F0D8BA08B5012300926A4600F0D2FA42
:101D400008BD1CB5CDE9002302236A4600F0CAFA9B
:101D50001CBD00002DE9F0470E4680461C46924609
:101D600008293ED894F80C9000202073194610469C
:101D700000F00AFA0025B54206D218F805201AA18B
:101D80002046FFF733FC03E019A12046FFF72EFCA5
:101D90006D1C082DEFD317A12046FFF727FC002567
:101DA000B54210D218F80570FEF7E2FA0068C05D7F
:101DB00010F03E0F01D03A4600E02E220EA1204640
:101DC000FFF714FC03E00DA12046FFF70FFC6D1C8C
:101DD000082DE5D301222146504600F0B7F984F8DA
:101DE0000C90BDE8F087000020253032780000001C
:101DF000202020007C00000025630000200000005F
:101E0000114810B5FF218160002101604160C0F8D8
:101E10001814C0F8141480F81C140C4800F007F9CA
:101E200000280FD10A480B490B4B401AC10800206B
:101E300005E000BF00EB400223F82200401C88426E
:101E4000F8D3002010BD00003C0200204427000011
:101E5000B42800008C2800008800002002480349B4
:101E6000401AC00870470000B42800008C28000009
:101E70001FB51146002443B901A8FFF75BF820B94C
:101E80000348019900EBC100847904B0204610BDDD
:101E90008C28000013B56846FFF74CF808B1002005
:101EA0001CBD0248009950F831001CBD8C28000070
:101EB00070B508480125D0F8104480F81C5405E09E
:101EC000657221682046496888476468002CF7D10C
:101ED00070BD00003C0200202DE9FF4781460C9DAB
:101EE00000200C462F7B2873984616462946184634
:101EF00000F04AF9072E42D2DFE806F004090F1677
:101F00001F2A360049462846FFF770FB37E049464E
:101F100028462268FFF76AFB31E0D4E900234946EE
:101F20002846FFF763FB2AE0A0680090D4E900236D
:101F300049462846FFF75AFB21E0D4E90201CDE9E2
:101F40000001D4E9002349462846FFF74FFB16E07D
:101F500004F1080007C88DE80700D4E900234946CA
:101F60002846FFF743FB0AE004F108000FC88DE89C
:101F70000F00D4E9002349462846FFF737FB00222B
:101F80002946404600F0E2F82F73BDE8FF872DE9AF
:101F9000F041058A80462D1F4819C01CB0FBF5F0A2
:101FA000C6B24046FEF7EFFF041E19D00020207194
:101FB00001206071E58000272546761EC4F8008068
:101FC0000BE04046FEF7DFFF60B16179491C6171AB
:101FD000286005467F1CC0F80080B742F1D3204638
:101FE000BDE8F081204600F002F80020F8E72DE976
:101FF000F041457901466B1E002201E00968521C40
:102000009A42FBD30F680146002605E038460C686B
:10201000FEF7D8FF2146761CAE42F7D3BDE8F0812B
:1020200008B501216A46001DFEF727F908BDFEF735
:10203000DEBF38B50446001D01216A46FEF72AF9C5
:10204000009810F0FF0F04D12046BDE83840FFF79C
:10205000CEBF38BD38B501240094FEF72FFF38BD40
:1020600038B500240094FEF729FF38BD40580028F9
:1020700000D00120704708B500224250405800901F
:1020800008BDD0F80403084000D001207047405834
:10209000002800D00120704708B500224250405867
:1020A000009008BD0449084490F92400082801DB89
:1020B0000120704700207047C400002004490844F4
:1020C00090F92400082801D20120704700207047B1
:1020D000C400002070B5034600791B4901EB401095
:1020E0001968027F4FF0FF30002AD1F80C25D1F893
:1020F0001465D1F80855D1F8104504D0C1F80C0585
:10210000C1F8140503E0C1F81405C1F80C051968FD
:10211000C1F80805C1F81005501C02D01046FFF7A1
:102120009DFB701C02D03046FFF798FB601C02D06C
:102130002046FFF793FB681C04D02846BDE870409A
:10214000FFF78CBB70BD00001C01002010B50C46D1
:10215000C17949B11AB109A12046FFF747FA2046D3
:10216000BDE81040FFF74FBA007A0028F3D00448CA
:1021700004A102682046FFF739FAECE70D0A0000D7
:10218000600000202573000070B50446C0790D463C
:1021900000281CD1207A50B1A179A088FFF7CEFC8D
:1021A0000B4951F820200BA12846FFF71FFAA08801
:1021B0000021FFF76FFE03460549A079143951F855
:1021C00020202846BDE8704003A1FFF70FBA70BD7C
:1021D00060000020257300003C25733E2025733AE3
:1021E0002000000082B2B2F5827F08D18AB2044991
:1021F0004A600014886001200870FFF78BB87047B0
:10220000000000201CB504461148C0680090002062
:10221000019003208DF80100FFF70EF808B9FEF7D2
:10222000DDFF14B902208DF800000A4A69461D201E
:10223000FEF774FF01211D20FEF724FF01A91F20D6
:10224000FFF706F801A91E20FFF702F81CBD0000E9
:10225000D8260000C90B0000002100F001B80000E2
:10226000024A506091600120507070470C000020BD
:1022700070B50546C87D0C4600284FF48471284689
:102280000AD0FFF7F8FED5F81805627EE168885499
:10229000607E401C607670BDFFF7EDFED5F8180536
:1022A00070BD1FB501238DF800308DF80810019224
:1022B000D0E90012684690471FBD000010B5084CD9
:1022C0000020D2B22070201DFFF7D4F808B1FEF72D
:1022D00029FB6078002802D021780029FAD010BDAF
:1022E000240000202DE9F843DFF88C800446914655
:1022F00098F81C04D8F808500F461E46002838D11C
:1023000069461846FEF784FB002832D00098C44680
:1023100000EA050108EB810252F80C1F21F00301CD
:10232000491C401C1160E30602D541F0040101E0A4
:1023300021F0040164F3C50166F3891167F39F215D
:10234000116000EA0501220C0CEB8101401CCA60FF
:10235000009000200BE000BF009959F8203001EAFE
:1023600005020CEB8202491CD360401C0091B04274
:10237000F2D3BDE8F88300003C02002070B50C46A3
:1023800005464FF48E71FFF776FEA18AA068415C86
:10239000A08A401CA082C5F81C1570BD1FB5002284
:1023A0008DF800208DF80810816801918275D0E9C0
:1023B0000012684690471FBD014901200870704710
:1023C0002400002010B588B0044620220E4968463B
:1023D000FDF7D2FF06200090C01F019002900390ED
:1023E0004FF0EB7006900CB1084A00E000226946FD
:1023F0000748FFF70BF808B1FEF794FA0448001FEE
:10240000447008B010BD000024270000B92300006C
:10241000280000202DE9FF470C4605464FF40071C7
:10242000FFF72FFE01274FF40178002618B34FF471
:10243000927949462846FFF719FEE0B149462846F9
:10244000FFF719FEC5F80883A07E00B96F6002206F
:102450008DF80000D5F88004C5F880040390E07D75
:102460008DF80800E0680190E6752676D4E9001240
:102470006846904727E004212846FFF702FE10B384
:102480004FF484712846FFF7F1FDE0B1214628465C
:10249000FFF7EEFEE07D617E884214D1207E38B1E8
:1024A000617EE268E0752069E0602676667607E086
:1024B000A07E00B96F60C5F80883E675617EE268AA
:1024C0002046FFF7EEFE4FF48E7841462846FFF790
:1024D000CDFD88B1A08AA17D884204D2214628463C
:1024E000FFF74CFF08E041462846FFF7C4FDA17DF9
:1024F00011B12046FFF752FF4FF4A278414628461B
:10250000FFF7B4FD002812D041462846FFF7B3FD7F
:10251000A07E00B12F60E07D002808D0E675617EC6
:10252000E26804B02046BDE8F047FFF7BABEBDE858
:10253000FF872DE9FF410C464FF492770546394657
:10254000FFF7A5FD0026C0B139462846FFF7A4FDD8
:1025500002208DF80000D5F88004C5F880040390AF
:10256000D5F83C058DF80800E0680190E675267600
:10257000D4E900126846904724E04FF48877394642
:102580002846FFF784FDE8B139462846FFF784FD69
:10259000D5F83C05C1B2E07D884213D1207E60B100
:1025A000E268D5F8000220F02000C5F80002207E85
:1025B000E0752069E060267601E0E675E268204675
:1025C000FFF76FFE4FF4A27739462846FFF75FFD0D
:1025D00068B139462846FFF75FFDE07D38B1E67502
:1025E000D5F83C05E268C1B22046FFF75AFE4FF429
:1025F000907631462846FFF74AFD00280FD0314635
:102600002846FFF749FDA07D002808D0D5F84C05E5
:1026100004B0C1B22046BDE8F041FFF7BFBEBDE83F
:10262000FF8100002DE9F05F8346DDE90A4A994603
:1026300090460D460846012703E000BFB0FBF8F0C6
:102640007F1C4045FAD2B94500D94F465FEACA70AF
:1026500012D18CB15FEA8A7002D5B9F1000F01D0B6
:10266000202607E0302605E031465846641EFEF776
:10267000F9F90CB1A742F7D35FF00106B9F1010FE8
:1026800002D9A9F1010903E0B5FBF6F0404502D3F8
:1026900006FB08F6F2E7DFF83C9000BFB5FBF6F06A
:1026A00000FB165519F800105846FEF7DBF9B6FB8B
:1026B000F8F6002EF2D15FEACA7009D0002C07D0DC
:1026C000A74205D220215846641EFEF7CBF9F5E754
:1026D000BDE8F09F0827000001030002020003018B
:1026E000030201000200000100000050000300503E
:1026F0000007000003000000040000001C000000B0
:1027000032000000010000073031323334353637F3
:102710003839414243444546251B00000D1B00004B
:10272000031B0000FFFFFFFFFFFFFFFFFFFFFFFF97
:10273000FFFFFFFF00000000000000000000D601C6
:1027400007010000440000203C000020440000205D
:102750007C01002018000000004040404040404004
:102760004040414141414140404040404040404064
:102770004040404040404040400502020202020208
:102780000202020202020202022020202020202057
:10279000202020020202020202029090909090906B
:1027A0001010101010101010101010101010101029
:1027B000101010100202020202028888888888889D
:1027C0000808080808080808080808080808080889
:1027D0000808080802020202400000005927000011
:1027E0007761726E696E67006465627567000000EC
:1027F0001B5B313B33306D001B5B306D0000000014
:102800001B5B313B33316D001B5B313B33326D0061
:102810001B5B313B33336D001B5B313B33346D004D
:102820001B5B313B33356D001B5B313B33366D0039
:102830001B5B313B33376D00696E666F0000000033
:102840006572726F720000006770696F74650000D6
:10285000716465630000000075617274000000001F
:1028600062616C6C6F63000061707000B4280000DE
:1028700000000020C40000008C080000782900003F
:10288000C40000209C2500009C080000482800008F
:102890000000000050280000000000005828000040
:1028A0000000000060280000000000006828000010
:1028B0000000030000010000000000000000000014
:1028C0000000000000000000000000000000000008
:1028D0000000000000000000000000000020004098
:1028E00000000000182700000000000000000000A9
:1028F00000000000000000000000000000000000D8
:102900000000000040280000E027000038280000F8
:10291000E8270000F8270000F0270000002800004A
:1029200008280000102800001828000020280000B7
:1029300028280000302800000090D003000000008C
:102940000000000000000000000000000000000087
:102950000000000000000000000000000000000077
:102960000000000000000000000000000000000067
:0829700000000000000000005F
:0400000500000201F4
:00000001FF
