:020000040000FA
:1000000060200020150200001D0200001F020000F9
:100010002102000023020000250200000000000071
:1000200000000000000000000000000027020000A7
:1000300029020000000000002B0200002D02000039
:100040002F0200002F0200002F0200002F020000EC
:100050002F0200002F0200005D0200002F020000AE
:100060002F0200002F0200002F0200002F020000CC
:100070002F0200002F0200002F0200002F020000BC
:100080002F0200002F0200002F0200002F020000AC
:100090002F0200002F0200002F0200002F0200009C
:1000A0002F0200002F0200002F0200002F0200008C
:1000B0002F0200002F0200000000000000000000DE
:1000C0002F0200002F0200002F0200002F0200006C
:1000D0002F0200002F0200002F0200002F0200005C
:1000E0002F0200002F0200002F020000000000007D
:1000F000000000002F020000000000002F0200009E
:1001000000000000000000000000000000000000EF
:1001100000000000000000000000000000000000DF
:1001200000000000000000000000000000000000CF
:1001300000000000000000000000000000000000BF
:1001400000000000000000000000000000000000AF
:10015000000000000000000000000000000000009F
:10016000000000000000000000000000000000008F
:10017000000000000000000000000000000000007F
:10018000000000000000000000000000000000006F
:10019000000000000000000000000000000000005F
:1001A000000000000000000000000000000000004F
:1001B000000000000000000000000000000000003F
:1001C000000000000000000000000000000000002F
:1001D000000000000000000000000000000000001F
:1001E000000000000000000000000000000000000F
:1001F00000000000000000000000000000000000FF
:10020000DFF80CD000F018F80048004701070000A4
:10021000602000200648804706480047FEE7FEE7CA
:10022000FEE7FEE7FEE7FEE7FEE7FEE7FEE7FEE7A6
:100230001504000001020000064C074D06E0E068CE
:1002400040F0010394E8070098471034AC42F6D31D
:10025000FFF7DAFF680B0000880B00002DE9F04F74
:1002600000258DB0DFF8A481A94605954FF480766E
:1002700001242F460695304600F050FC38B1D8F8DE
:100280000403204203D0304600F03EFC2543361DD7
:1002900064007F1CB6B2082FEDD34FF4BE74204625
:1002A00000F03CFC48B1204600F02EFC45F0004533
:1002B00005AA0221002000F011FC554E15F0FF0F99
:1002C00015D0012700242F420DD008EB8401D1F86E
:1002D0001005D1F81015C0F3052056F82420C1F3FD
:1002E000014102B190477F00641C082CEBD3002D24
:1002F0004DDA0020CDF82490411E4FF0010A0DF197
:10030000140B07ADCDF8289045F82010401C0228AA
:10031000FAD300BF96F854704FF0000878B227F077
:10032000C004401C33D007A9204600F00FFA002873
:100330002DD04FEA9719204600F0D6F956F82070D4
:100340001FB1B9F1030F03D00CE0B9F1030F1ED1B7
:1003500009A8E10804F00702435C0AFA02FC43EA38
:100360000C03435402A8029400F094FB029900EBA2
:100370008100D0F8000705A9C0F301400290204693
:1003800000F0E4F90028029804D0022804D00DB04F
:10039000BDE8F08F0328FAD1B9F1030F08D1029814
:1003A00002282CD00221204600F051FB4FF001081A
:1003B00017B149462046B847B8F1000FE7D001AA67
:1003C0000221002000F08AFB00205A460DF10401B2
:1003D00052F8204051F82030A34212D0002009AB3F
:1003E00051F8204042F8204053F8204045F8204082
:1003F000401C0228F4D3B8F1000F8BD1C7E70321CA
:10040000D1E7401C0228E3D3C1E7000000600040B0
:100410000400002030B54FF080500022D0F8301199
:100420000123082902D1D0F8344114B1082909D098
:100430000BE04FF08041C1F80C21C1F81021684950
:100440000A6005E0D0F8344114B1082957D059E0CA
:1004500064490968644C21606249091D0968241DCA
:100460002160604908310968241D21605D490C3113
:100470000968241D21605B4910310968241D216031
:10048000584914310968241D2160564918310968FA
:10049000554C2034216053491C310968241D2160CA
:1004A000504920310968241D21604E4924310968D2
:1004B000241D21604B4928310968241D21604949C8
:1004C0002C310968241D2160464930310968464CA9
:1004D00040342160434934310968241D2160414979
:1004E00038310968241D21603E493C310968241DCA
:1004F00021603C4940310968241D216005E0D0F8A5
:10050000344114B1082904D006E0394C3749216040
:1005100005E0D0F8344114B1082904D006E0354C88
:10052000FB21216005E0D0F8344114B1082908D03E
:100530000AE090F858423048016864F30301016012
:1005400005E0D0F8344114B1082905D00EE02B495C
:100550004FF40070086002E0D0F8340130B9284848
:100560000168C90702D06FF00101016025480168E8
:1005700041F470010160BFF34F8FBFF36F8F4FF0F5
:100580001021D1F80002002803DBD1F80402002872
:1005900022DA1D4C23601D480368002BFCD0122377
:1005A000C1F800320568002DFCD0C1F804320168A2
:1005B0000029FCD0226001680029FCD0BFF34F8FD6
:1005C00010487C380168124A01F4E061114301606F
:1005D000BFF34F8F00BFFDE70F490E48086030BDE5
:1005E000380500400404001020C500404881030085
:1005F0008C56004018F50040E40E00404096024042
:100600000004004088ED00E004E5014000E4014002
:100610000400FA050090D0030000002002E008C8A2
:10062000121F08C1002AFAD170477047002001E06C
:1006300001C1121F002AFBD1704700000948006861
:10064000C00700D000BEBFF34F8F0648E4380168F2
:10065000054A01F4E06111430160BFF34F8F00BF11
:10066000FDE70000F0ED00E00400FA050EB5002102
:100670000091CDE901106A4644F20100FFF7DEFF68
:100680000EBD000005494FF0FF32082841F8202038
:1006900002D3084480F84C2070470000040000207A
:1006A000F0B54FF0FF3512B10023082601E0082312
:1006B00009260C4C05E000BF54F823707F1C04D0C1
:1006C0005B1CB342F8D32846F0BD26185DB286F80D
:1006D000245044F82310002AF5D1E11881F84C0089
:1006E000F1E70000040000200249084490F92400CA
:1006F00070470000040000200D2000F07DB90000CC
:100700001CB500F0F3F808B1FFF7B0FF002001902E
:1007100001A90D2000F018F908B1FFF7A7FF09485B
:10072000094A69460068009003208DF801000B20FB
:1007300000F07CF808B1FFF799FF01210B2000F0D1
:1007400029F8FEE75C0B0000F9060000C20800F083
:1007500007030120895C9840084070474907090E4B
:10076000002806DA00F00F0202F1E02282F8141DE0
:1007700003E000F1E02282F8001400F01F020121E2
:1007800091404009800000F1E020C0F88012C0F8DC
:10079000001170472DE9F0410E46804600F0C6F981
:1007A000204D0028404616D0FFF79EFF284490F8C1
:1007B0004C008009032802D001280AD003E04046FB
:1007C00000F076F928B103214046BDE8F04100F081
:1007D0003EB90221F8E700F0B5F9002820D04046E4
:1007E000FFF782FF0446104F4FF4807007EB84013F
:1007F00000EB8400D1F8102580B242F00102C1F86C
:10080000102500F081F9002E0AD04046FFF76CFF5A
:1008100055F82000002803D00120A040C7F80403A9
:10082000BDE8F08104000020006000402DE9FC419B
:10083000DFF8AC80044608EB0400002790F92400A0
:100840001346C0170E46401C01D0082744E0F2783A
:1008500019462046FFF724FF0546401C3BD0B078E0
:1008600068B16846009400F015F9009900EB81002A
:10087000D0F8001721F00201C0F8001707E00021AE
:100880007378204600910A46019100F0C7F8F0788D
:10089000C0B11448317800EB8500D0F81025124B18
:1008A0001A40C0F810254FF47C524FF4403302EA4E
:1008B000042203EA01410A43D0F810150A43C0F8A4
:1008C000102509E008EB0500327810F84C1F41EACA
:1008D0008211017000E004273846BDE8FC81000069
:1008E0000400002000600040FFC0FCFF70B5144D04
:1008F00095F8550008B1082070BD0020411E2A1847
:10090000401CC0B282F824103028F8D300242046BE
:10091000FFF7B8FE641CE4B2092CF8D307210620C7
:10092000FFF71CFF4FF4BE7000F0EEF805494FF0E2
:100930000040C1F80403012085F85500002070BD77
:1009400004000020006000402DE9FC4104462748D7
:100950000D462044002690F92410491C01D0082699
:100960003EE0A978002751B3012200212046FFF77D
:1009700097FE411C21D083001D482A7818446978CD
:10098000D0F81035DFF86CC003EA0C03C0F810355E
:10099000D0F810354FF47C5C0CEA042C43EA0C03CD
:1009A0004FF4403C0CEA02424FF4801C0CEA015127
:1009B0000A431343C0F8103504E0042610E0FE217A
:1009C00080F824106878012820460CD000F057F8F1
:1009D00001222046009700231146019700F01EF8DF
:1009E0003046BDE8FC8100F06EF8F1E7040000201D
:1009F00000600040FFC0ECFF08B50090684600F0C2
:100A000049F8D0F80425009B0121994021EA02030E
:100A1000C0F808351140C0F80C1508BD2DE9FF419C
:100A20001C46DDE90A7815460E46684600F032F8A5
:100A300046EA450141EA840141EA072242EA0841C7
:100A4000009A00EB8200C0F80017BDE8FF8113B5E3
:100A50000C46684600F01EF8009900EB8101D1F8C1
:100A6000002722F44032C1F80027009900EB8100F2
:100A7000D0F8001741EA0441C0F800171CBD01B5C9
:100A8000684600F007F8009A01219140C0F80C1563
:100A900008BD00000168202902D24FF0A040704735
:100AA00001F01F0101600148704700000003005081
:100AB00001B56846FFF7EEFFD0F810050099C84071
:100AC00000F0010008BD01B56846FFF7E3FF009A9A
:100AD00001219140C0F8081508BD00001CB5094C63
:100AE0000144D4E90034CDE900346C4606E000BF8F
:100AF00054F82030D3F81035401C08C28142F7D892
:100B00001CBD0000600B0000034908B5084400212B
:100B100001600068009008BD006000400249405834
:100B2000012800D0002070470060004004490844BC
:100B300090F92400082801DB01207047002070474D
:100B4000040000200449084490F92400082801D238
:100B500001207047002070470400002003000001BE
:100B60000000005000030050880B0000000000202F
:100B7000040000001C0600008C0B00000400002094
:0C0B80005C2000002C0600000090D00358
:0400000500000201F4
:00000001FF
