:020000040000FA
:10000000182600204D030000550300005703000090
:10001000590300005B0300005D03000000000000C6
:100020000000000000000000000000005F0300006E
:10003000610300000000000063030000650300008E
:1000400067030000670300002D070000670300003E
:1000500067030000670300006703000067030000F8
:10006000F106000005070000190700006703000003
:1000700067030000670300006703000067030000D8
:1000800067030000670300006703000067030000C8
:1000900067030000670300006703000067030000B8
:1000A00067030000670300006703000067030000A8
:1000B000670300006703000000000000000000006C
:1000C0006703000067030000670300006703000088
:1000D00067030000670300006703000000000000E2
:1000E0000000000000000000000000000000000010
:1000F0000000000000000000000000000000000000
:1001000000000000000000000000000000000000EF
:1001100000000000000000000000000000000000DF
:1001200000000000000000000000000000000000CF
:1001300000000000000000000000000000000000BF
:1001400000000000000000000000000000000000AF
:10015000000000000000000000000000000000009F
:10016000000000000000000000000000000000008F
:10017000000000000000000000000000000000007F
:10018000000000000000000000000000000000006F
:10019000000000000000000000000000000000005F
:1001A000000000000000000000000000000000004F
:1001B000000000000000000000000000000000003F
:1001C000000000000000000000000000000000002F
:1001D000000000000000000000000000000000001F
:1001E000000000000000000000000000000000000F
:1001F00000000000000000000000000000000000FF
:10020000DFF80CD000F0E4F8004800477D0B000058
:100210001826002030B4044654E8000F0D4644E888
:100220000053002BF8D1156030BC704730B4044641
:1002300054E8000F40EA010544E80053002BF7D1D1
:10024000156030BC704730B4044654E8000F00EA33
:10025000010544E80053002BF7D1156030BC70470E
:1002600030B4044654E8000F80EA010544E8005326
:10027000002BF7D1156030BC704730B4044654E809
:10028000000F00EB010544E80053002BF7D1156087
:1002900030BC704730B4044654E8000FA0EB0105B1
:1002A00044E80053002BF7D1156030BC70470000C4
:1002B00030B4044654E8000F0D4644E80053002BC8
:1002C000F8D1156030BC704730B4044654E8000FD4
:1002D00040EA010544E80053002BF7D1156030BC1B
:1002E000704730B4044654E8000F00EA010544E8C2
:1002F0000053002BF7D1156030BC704730B4044672
:1003000054E8000F80EA010544E80053002BF7D1C0
:10031000156030BC704730B4044654E8000F00EB61
:10032000010544E80053002BF7D1156030BC70473D
:1003300030B4044654E8000FA0EB010544E8005334
:10034000002BF7D1156030BC70470000064880478D
:1003500006480047FEE7FEE7FEE7FEE7FEE7FEE7AA
:10036000FEE7FEE7FEE7FEE7F503000001020000FE
:1003700000487047FC22000040EA01039B0703D0BD
:1003800009E008C9121F08C0042AFAD203E011F8D4
:10039000013B00F8013B521EF9D27047D2B201E096
:1003A00000F8012B491EFBD270470022F6E710B57A
:1003B00013460A4604461946FFF7F0FF204610BDD3
:1003C000421C10F8011B0029FBD1801A7047000065
:1003D000064C074D06E0E06840F0010394E8070092
:1003E00098471034AC42F6D3FFF70EFF8823000085
:1003F000A8230000F0B5AE480023021D01780125B6
:10040000101D4FF0805406290BD11678360708D1FD
:100410000678C6F30316032E06D0042E04D0052E4C
:1004200002D0062907D00EE0B4F82463A14FC6F32A
:1004300004263E6002E01678360704D10678C6F33B
:100440000316032E02D0062904D00FE09B4F9A4ECC
:100450007E670EE01678360708D10678C6F30316D5
:10046000032E06D0042E04D0052E02D0062907D074
:100470000EE0D4F84462924FC6F342363E6002E08A
:100480001678360704D10678C6F30316032E02D079
:10049000062906D011E08B4E376827F08077376049
:1004A0000EE01678360708D10678C6F30316032E39
:1004B00006D0042E04D0052E02D006290AD011E061
:1004C0004FF08046C6F80C31C6F810317C4E361F0E
:1004D000336002E01678360704D10678C6F30316B7
:1004E000032E02D0062905D00CE0754F0326643791
:1004F0003E600AE01678360704D10678C6F3031684
:10050000032E02D006290DD014E06F4F05263E6061
:100510006D4E783635606C4E083633603F263F1D91
:100520003E6002E01678360704D10678C6F303165B
:10053000052E02D0062957D062E0644E3668644F1B
:100540003E60624E361D36683F1D3E605F4E083687
:1005500036683F1D3E605D4E0C3636683F1D3E607E
:100560005A4E103636683F1D3E60584E1436366877
:100570003F1D3E60554E18363668554F20373E6059
:10058000524E1C3636683F1D3E60504E203636684F
:100590003F1D3E604D4E243636683F1D3E604B4E3B
:1005A000283636683F1D3E60484E2C3636683F1D63
:1005B0003E60464E30363668454F40373E60434ECB
:1005C000343636683F1D3E60404E383636683F1D33
:1005D0003E603E4E3C3636683F1D3E603B4E4036E8
:1005E00036683F1D3E6002E01678360708D106786F
:1005F000C6F30316032E06D0042E04D0052E02D017
:10060000062907D019E0D4F85812324A01F04F01F8
:10061000116002E0117809070FD10078C0F30310D0
:10062000032803D0042801D0052806D12A480168F0
:10063000C90702D06FF001010160224874380168D7
:1006400041F470010160BFF34F8FBFF36F8F4FF024
:100650001021D1F80002002803DBD1F804020028A1
:1006600022DA1E4A15601E480468002CFCD01524AE
:10067000C1F800420568002DFCD0C1F804420168B1
:100680000029FCD0136001680029FCD0BFF34F8F14
:100690000C48F0380168134A01F4E061114301602D
:1006A000BFF34F8F00BFFDE710490F480860F0BD52
:1006B000E00F00F0403501400DF0ADBA00C007403A
:1006C0003C050040FCED00E0105600400404001022
:1006D00020C50040E40E00400004004004E5014055
:1006E00000E401400400FA050090D00370000020EF
:1006F00004220249024800F0C5B90000B000002001
:100700000080004004220249024800F0BBB900000A
:10071000BC0000200090004004220249024800F082
:10072000B1B90000C800002000A000400448017FCB
:1007300004480029024901D001F08BBC01F0FABB4A
:10074000D40000200020004002E008C8121F08C1A9
:10075000002AFAD170477047002001E001C1121F42
:10076000002AFBD170470000134C0121208801EBC7
:10077000004012A101F08CF801F044F900F0B2FF42
:100780000028FBD10F480068C00700D000BE2088B9
:10079000032101EB00400CA101F07AF8BFF34F8F69
:1007A0000848E43801680D4A01F4E0611143016032
:1007B000BFF34F8F00BFFDE7A400002046617461C6
:1007C0006C000000F0ED00E0486974207765616B13
:1007D0002068616E646C6572000000000400FA0518
:1007E0000EB500210091CDE901106A4644F20100E6
:1007F000FFF7BAFF0EBD00F003B800F009B8000023
:1008000072B602480168491C016070470C00002064
:1008100003490868401E086000D162B670470000B6
:100820000C0000202DE9F041064608680C46411CEA
:100830004FF0A0474FF0010506D005FA00F1C7F8C8
:100840000815206800F068FE6068411C02D0002195
:1008500000F059FE3079204901EB4010A169007F7A
:1008600000283068C0F8241525D0607D227D3168CD
:100870001043C1F86C05D4E900123068C0F80C15BB
:10088000C0F8142524E0A068411C02D0002100F02B
:100890003AFEE068411C05D08540C7F80855E0687D
:1008A00000F03AFED4E902123068C0F80825C0F81A
:1008B0001015BDE8F081607D217D32680843C2F8E3
:1008C0006C05D4E900123068C0F81425C0F80C1586
:1008D000207D0128D7D0ECE7D40000202DE9F0419D
:1008E000861C0C4601270020FFF785FF0F48016892
:1008F0002160D0E90012891A82680446511AB51C99
:1009000007E000BF00F0F2F8D4E90001401AA16846
:10091000091A491C8D42F5D8206830442060002017
:10092000FFF76BFF3846BDE8F0810000F4010020BE
:1009300030B482680468531C8360A154D0E901126A
:100940008A4202D330BC00F0CABC30BC7047000001
:10095000034803C8814201D101207047002070473D
:10096000F40100202DE9FC5F0E008346DDE90C4711
:10097000C6F1000098469246814600D408460125FB
:1009800003E000BF90FBFAF06D1C5045FADAA84571
:1009900000D9454624B1002E01DB780700D5641E3E
:1009A000B80702D5B8F1000F0AD0F80708D13CB15A
:1009B000A54205D220215846641EFFF7B9FFF6E78D
:1009C000002E02DA4E462D2102E0780703D52B21B6
:1009D0005846FFF7ADFF07F0030002280BD1B8F12E
:1009E000000F08D13CB1A54205D230215846641E03
:1009F000FFF79EFFF6E7CDE90047434652463146F2
:100A0000584601F09FFBBDE8FC9F000070B50E4604
:100A10000446007918494FF4A27501EB4010017F9C
:100A20002068A1B14FF4887101F0E0F84FF49071A3
:100A3000206801F0DBF84FF49271206801F0D6F8DD
:100A40002946206801F0D2F80C49206809E04FF4EB
:100A50008E7101F0BAF82946206801F0B6F808490D
:100A60002068C0F80413206800F02FFA3146BDE872
:100A7000704000F00EBA0000D40000201003020005
:100A8000800002002DE9F8430025164688460446FA
:100A90002F4614E04FF4A07000EB85004FF4803136
:100AA0002258A9404AB1D4F804230A4205D027505D
:100AB00021580091D8E9002190476D1CEDB2B54254
:100AC000E8D3BDE8F8830000012181400348406875
:100AD000014201D00120704700207047040000202F
:100AE00001218140080300D0012070472DE9FE4319
:100AF000214DD5E9014704EA070005EB800605F51D
:100B000083600C3600F020F905F21440804600F0B6
:100B10001BF90AE0C0F3891101EB9050641C0444F6
:100B200004EA070005EB80060C3630688107F1D037
:100B30000020694604EA070205EB8202641CD268C1
:100B400041F82020401C0228F4D3009800F0030054
:100B5000022800980AD0C0F383100444404600F0F5
:100B6000EDF8002800D06C60BDE8FE83032101EBA6
:100B7000905004EB9004F1E7F40100200EB53A4CDC
:100B800001253A4AD4E90601CDE900018DF801506A
:100B90006946204600F05EFA08B1FFF721FED4E96D
:100BA0000801CDE90101304809268DF804602F4A7B
:100BB00001A9083000F04EFA08B1FFF711FE002736
:100BC000294801234FF6FF7239460830009700F09C
:100BD00027FAD4E90A01CDE9010123488DF8046020
:100BE000224A01A9103000F035FA08B1FFF7F8FDEC
:100BF0001D48012347F6FF7200211030009700F0D6
:100C00000FFA01F053F8002000F0A4FE08B1FFF73E
:100C1000E7FD00F059FD4FF080408567124800F075
:100C2000F1F91148083000F0EDF90F48103000F0EC
:100C3000E9F90F4D0F4C032600210B4800F0C2F9D3
:100C4000024628880CA106EB004000F025FE06486D
:100C500000F0FBF9204600F0CBF800BF00F042FDA9
:100C60000028FBD1E8E70000F8210000991E0000F1
:100C7000A4000020A086010043757272656E742086
:100C8000636F756E743A2025640000002DE9F0470B
:100C9000C7880446181D16468946B0FBF7F1B0FB1D
:100CA000F7F207FB12009A193A44D21CB2FBF7F292
:100CB000DDF820A001E02468491E0029FBD13D1A7F
:100CC0008846B54216D818E0BAF1000F05D02118B1
:100CD00009EB08002A46091D04E0204409EB08013D
:100CE0002A46001DFFF748FB00202468761BA84415
:100CF000B74201D9354600E03D46002EE4D1BDE8BB
:100D0000F087000030B50B46024600F051FE63B19B
:100D10000021094C0CE000BF01EB410304EB83030D
:100D200015685B88AB4202D11160002030BD491CC0
:100D30008142F1D3052030BD7400002008B50021A8
:100D40006A46FFF7CEFA08BD08B501216A46FFF7EB
:100D5000BBFA009808BD70B5044600252846FFF789
:100D60004AFD21686268086890420ED9401E0860FA
:100D70000178238AE26801FB0325227A2168101A90
:100D8000C0B20A79824200D208710020FFF735FD17
:100D9000284670BD70B505460C460020FFF72BFDB8
:100DA000E868298A201AB0FBF1F12A681068431C10
:100DB00013600170BDE870400020FFF71EBD10B544
:100DC00030B1017A42680368891AC9B21A6006E034
:100DD0000E2010BD03681A68541C1C601170491E57
:100DE000C9B2F7D2006800210171084610BD0000A9
:100DF00000283ED01F49204A096800BF00BF00BF3D
:100E000000BF00BF00BF00BF00BF91422FD000BF96
:100E100000BF00BF00BF00BF00BF00BF00BF00BFDA
:100E200000BF00BF00BF00BF00BF00BF00BF00BFCA
:100E300000BF00BF00BF00BF00BF00BF00BF00BFBA
:100E400000BF00BF00BF00BF00BF00BF00BF00BFAA
:100E500000BF00BF00BF00BF00BF00BF00BF00BF9A
:100E600000BF00BF00BF00BF00BF00BF00BF013810
:100E7000C3D17047700000200024F40000F01F026E
:100E8000012191404009800000F1E020C0F880116C
:100E900070474907090E002806DA00F00F0202F138
:100EA000E02282F8141D03E000F1E02282F8001431
:100EB00000F01F02012191404009800000F1E02074
:100EC000C0F88012C0F800117047000B40B27047A4
:100ED0000121B1EB507F01D1012070470020704704
:100EE0002DE9F0470427144E814600244FF00108F5
:100EF0000020FFF780FC08FA04F5354203D02046B5
:100F0000FFF7E2FD58B10020FFF777FC27B104F1AD
:100F10000104AE43E4B2EBD13846BDE8F08707499F
:100F200008FA04F000274A681043486089F8004036
:100F30003846FFF762FCEFE7FFFF0F0004000020D8
:100F40002DE9F04114460D00074612D08CB1002661
:100F5000FFF7C6FD78B13846FFF7B6FD68B108481F
:100F600000EBC700C0F81055C0F814453046BDE886
:100F7000F0810E20FBE70726F8E70826F6E70000D9
:100F800000F0014070B5044601260025A640FFF799
:100F9000A7FD18B12046FFF797FD18B1024806607B
:100FA000284670BD0825FBE704F501400448017898
:100FB00009B18520704701210170002070470000B1
:100FC0000400002010B5402202EB81020368D2B277
:100FD00001249C5000684FF4A86202EB8101405844
:100FE00010BD30B54FF4803405688C4013B1C5F89E
:100FF000044301E0C5F80843006800EB8100C0F835
:10100000402530BD016801220A600079034A00EBE7
:10101000400002EB8000022101727047B000002006
:10102000F0B40468049E40F20115D4F800728D40BB
:10103000AF43C4F800720468D4F800521D43C4F8EA
:1010400000523346F0BCFFF7CCBF0068012181603D
:1010500070470000F8B504460D460079204900EBC2
:10106000400001EB8006307A08B10820F8BD3AB1A3
:10107000326068687060002003464FF4A07709E092
:101080000720F8BD226807EB800153505158401CDF
:10109000C0B2009161798142F4D82068E978000BF0
:1010A00040B2FFF7F6FE20686978D0F8042561F3B6
:1010B0000102C0F804252068A978D0F8082561F35A
:1010C0000102C0F8082520682978D0F8102561F3BE
:1010D0000302C0F81025012030720020F8BD000086
:1010E000B00000202DE9F04105460079164F9046EA
:1010F00007EB40140E46E07E10B10820BDE8F081F9
:10110000707F20772846FFF78DFB5FEA080060605C
:101110003169216003D0317F2846FFF777FC2879B9
:1011200007EB4010007F0028286801D0082100E06C
:101130000421C0F800150020E0752076A07501217B
:10114000E176A076DAE70000D40000202DE9F04730
:10115000054600793F4E904606EB40140F46207F2F
:1011600018B10846FFF7B4FE30B1284600F074F815
:1011700020B11120BDE8F0871020FBE784F816802D
:10118000A7600027A78228794FF0010806EB4014DA
:101190003E46207F0028286825D04FF490794946A4
:1011A00000F024FD4FF4AC7A5146286800F01EFD93
:1011B0002868A17DA268C0F84425C0F848152868B1
:1011C000C0F808806068F0B94946286800F009FD59
:1011D00080465146286800F004FD58EA0001F3D02B
:1011E00058BBA7750FE04FF48E7A514600F0EDFC26
:1011F0002868C0F808802146286800F04EFE616823
:101200004FF4807089B13046B4E75146286800F049
:10121000D7FC10B9A08A4845F7D1A08A484505D027
:101220002146286800F039FE00E08146A08AA17DB1
:101230008842EAD3A08A484501D10F26D1E751461A
:10124000286800F0BDFC0028F9D02868C0F80C80A0
:10125000C7E70000D40000200079044901EB4010EA
:10126000807D002800D0012070470000D4000020BD
:1012700070B5044600791149002601EB401520683D
:101280002A7FC0F80065686888B1207901EB4010BA
:10129000007F0028206801D0094901E008498C3905
:1012A000C0F808132068FFF710FEFFF7E7FD20469F
:1012B00000F0A2FCEE766E6070BD0000D40000204D
:1012C000100302000FB408B50399002904D004AA42
:1012D00000926A4600F00FF801B05DF814FB10B5FB
:1012E00082680446002A05D0D4E90403216898479F
:1012F0000020A06010BD2DE9FC4791460C008046FF
:1013000076D014F8011B39B125290ED04046FFF7DD
:101310000FFB20780028F4D198F80C00002867D043
:101320004046BDE8FC47FFF7DABF002001222178E4
:101330002B291BD02D2902D0302908D102E040F002
:10134000010001E040F00200641C002AEFD10025FA
:101350002A290ED02178A1F130020A2A11D205EBF8
:10136000850201EB4205641C303DF1E740F00400CA
:10137000EAE7D9F800100B1DC9F800300968641CB1
:101380000D44217800232E290BD114F8011FA1F15F
:1013900030020A2A05D203EB830201EB4203303B01
:1013A000F3E76C290DD068290BD0692921D00BDC1B
:1013B000252918D0582931D063290ED0642915D198
:1013C00017E014F8011FECE7702969D0732932D0B7
:1013D00075291BD0782909D120E0D9F80000011D1A
:1013E000C9F8001001784046FFF7A2FA641C90E7A4
:1013F0006CE0D9F800100A1DC9F800200968CDE991
:1014000000500A224046FFF7ADFAEFE7D9F8001086
:101410000A1DC9F8002009680A2206E0D9F8001060
:101420000A1DC9F8002009681022CDE90050404685
:1014300000F088FEDAE7D9F8001000270A1DC9F885
:1014400000200E68C00705D112E04046761C7F1CC4
:10145000FFF76EFA31780029F7D104E020214046E9
:101460006D1EFFF765FABD42C0D9002DF6D1BDE76C
:101470004EB13046FEF7A4FF074604E02021404667
:101480006D1EFFF755FABD4206D9002DF6D103E0D7
:101490004046761CFFF74CFA31780029F8D1A5E7D1
:1014A000D9F80000011DC9F8001005683021404638
:1014B000FFF73EFA78214046FFF73AFA082000216C
:1014C000CDE90001034610222946B0E7BDE8FC87BC
:1014D00070B541EA4201DDE904564FF0A04441EA0B
:1014E000830141EA052104EB800041EA0641C0F88E
:1014F000001770BD1CB5002100910B46012201911F
:10150000FFF7E6FF1CBD1CB500220B4600921146FA
:101510000192FFF7DDFF1CBD1CB5002100910B46B9
:10152000012201911146FFF7D3FF1CBD70B5184A87
:101530000024D2F81034194609E00D7AA54205D1ED
:10154000641C0A2CF7DB4FF0FF341FE049680029C8
:10155000F3D1611C1AD00472D2F8101431B1496869
:101560004160D2F81014486000250BE00021C2F859
:1015700010044160F8E700231A462946204600F08F
:1015800021FA6D1C00F014FAA842F4D8204670BD70
:10159000F4010020F0B595B01C4615460F460846EC
:1015A0001A9E00F0E7FA182109A8FEF7FEFE0E9633
:1015B000CDE909540023082203A9384600F0F4FAC3
:1015C000059806900498ADF81C0000208DF82000C6
:1015D0000398082600F00300012802D002281DD03D
:1015E0003CE003983346850AC0F3C2008DF81E0024
:1015F00003980FA9C0F380008DF81F000398C0F373
:101600008314A200384600F0CFFA09A8009006AB78
:1016100022460FA9284600F009FA1FE00398840D1E
:10162000C0F3C2008DF81E000398C0F380008DF84F
:101630001F00082C01D2254600E0082533462A4623
:101640000FA9384600F0B0FA2E44641B09AB06AA75
:1016500029460FA800F028F9002CEAD1384600F0FE
:1016600092FA15B0F0BD7047012000F03BBC0000BD
:1016700010B50448FFF7FCFDBDE81040002000F065
:1016800031BC00001400002008B5034A009240233A
:10169000024AFFF77FFF08BDD91D0000F4000020BB
:1016A000084A012902EBC00005D0022903D0032912
:1016B00003D0042903D00020704700797047407997
:1016C00070470000A823000010B5FFF7CDFF0421EC
:1016D0000348FFF72BFF02490120487210BD0000AC
:1016E0001C0000202DE9FE4FFFF732F910B1002059
:1016F000BDE8FE8F63480021C0F81414D0E901460C
:1017000004EA060100EB81014FF000090AE000BF86
:10171000C1F3891202EB9151641C0C4404EA0601E6
:1017200000EB8101C9688A07F2D000216A46804631
:1017300004EA060008EB8000641CC06842F821003F
:10174000491C0229F4D3009800F0030002280098F5
:101750001CD0C0F38311062900D3062161F3891040
:101760000090C0F38310801C8100474800F0B9F955
:10177000070075D000F0FEF94B460822694638464E
:1017800000F018FA09F10809002557E0810D5022F0
:101790008A46B2EB905F00D850210D4665F39F500A
:1017A00000900831384800F09CF9070058D000F04C
:1017B000E1F94B4608226946384600F0FBF904EA95
:1017C0000601701A8000001D09F1080B854220D91E
:1017D0002C4E0C3630B1C2B208EB8101281A91466A
:1017E0000C3104E03146EAB2002691463046C5B2DB
:1017F0005B46384600F0DEF90BEB090326B12A46BA
:101800003146384600F0D6F90AF1030004EB9004A3
:101810001AE008EB81015B462A4638460C31F1E7B5
:1018200004EA060008EB80014B46042238460C31DE
:10183000641C00F0BFF909F104096D1C0098C0F3A5
:101840008310A842ECD85FB11048FFF777FAD8F8B8
:101850001054464605B140B1384600F094F9746022
:10186000FFF776F880F0010042E7687A012804D19A
:101870002A6828463946126890476D68002DF4D1D1
:10188000EAE70000F40100206422000008060020BE
:1018900000231A4600F0B4BA08B5012300926A4644
:1018A00000F0AEFA08BD00002DE9F0470E46804674
:1018B0001C46924608293ED894F80C9000202073CC
:1018C0001946104600F034FA0025B54206D218F841
:1018D00005201AA12046FFF7F5FC03E019A12046D8
:1018E000FFF7F0FC6D1C082DEFD317A12046FFF782
:1018F000E9FC0025B54210D218F80570FEF738FD56
:101900000068C05D10F03E0F01D03A4600E02E2284
:101910000EA12046FFF7D6FC03E00DA12046FFF7FD
:10192000D1FC6D1C082DE5D301222146504600F064
:101930009FF984F80C90BDE8F08700002025303234
:1019400078000000202020007C00000025630000BB
:1019500020000000114810B5FF21816000210160C6
:101960004160C0F81814C0F8141480F81C140C4816
:1019700000F007F900280FD10A480B490B4B401A19
:10198000C108002005E000BF00EB400223F8220060
:10199000401C8842F8D3002010BD0000F401002054
:1019A00064220000D0230000A8230000740000205F
:1019B00002480349401AC00870470000D0230000C5
:1019C000A82300001FB51146002443B901A8FFF762
:1019D00099F920B90348019900EBC100847904B05A
:1019E000204610BDA823000013B56846FFF78AF90A
:1019F00008B100201CBD0248009950F831001CBD00
:101A0000A823000070B508480125D0F8104480F8DC
:101A10001C5405E06572216820464968884764685F
:101A2000002CF7D170BD0000F40100202DE9FF4724
:101A300081460C9D00200C462F7B28739846164645
:101A40002946184600F074F9072E42D2DFE806F066
:101A500004090F161F2A360049462846FFF732FCB4
:101A600037E0494628462268FFF72CFC31E0D4E9EC
:101A7000002349462846FFF725FC2AE0A06800908D
:101A8000D4E9002349462846FFF71CFC21E0D4E9AD
:101A90000201CDE90001D4E9002349462846FFF7B9
:101AA00011FC16E004F1080007C88DE80700D4E92E
:101AB000002349462846FFF705FC0AE004F1080028
:101AC0000FC88DE80F00D4E9002349462846FFF7E8
:101AD000F9FB00222946404600F0CAF82F73BDE802
:101AE000FF872DE9F041058A80462D1F4819C01C4B
:101AF000B0FBF5F0C6B24046FFF72DF9041E19D031
:101B00000020207101206071E58000272546761EA7
:101B1000C4F800800BE04046FFF71DF960B1617921
:101B2000491C6171286005467F1CC0F80080B742DF
:101B3000F1D32046BDE8F081204600F002F80020F5
:101B4000F8E72DE9F041457901466B1E002201E0DE
:101B50000968521C9A42FBD30F680146002605E033
:101B600038460C68FFF716F92146761CAE42F7D3CB
:101B7000BDE8F08108B501216A46001DFEF77DFB36
:101B800008BDFFF71CB938B50446001D01216A469F
:101B9000FEF780FB009810F0FF0F04D12046BDE84F
:101BA0003840FFF7CEBF38BD38B501240094FFF7A9
:101BB0006DF838BD38B500240094FFF767F838BDDC
:101BC0004058002800D00120704708B5002242503C
:101BD0004058009008BDD0F80403084000D0012010
:101BE00070474058002800D00120704708B50022F7
:101BF00042504058009008BD70B5034600791B491B
:101C000001EB40101968027F4FF0FF30002AD1F835
:101C10000C25D1F81465D1F80855D1F8104504D039
:101C2000C1F80C05C1F8140503E0C1F81405C1F8AA
:101C30000C051968C1F80805C1F81005501C02D040
:101C40001046FFF757FC701C02D03046FFF752FCDD
:101C5000601C02D02046FFF74DFC681C04D02846CB
:101C6000BDE87040FFF746BC70BD0000D400002006
:101C700010B50C46C17949B11AB109A12046FFF748
:101C800021FB2046BDE81040FFF729BB007A002861
:101C9000F3D0044804A102682046FFF713FBECE7E9
:101CA0000D0A00004C0000202573000070B5FFF7FE
:101CB0007DF908B1FEF794FD1B48FFF711F908B153
:101CC000FEF78EFD194D184C05F108002A680168D1
:101CD000207801F5A071121DFFF732F908B1FEF767
:101CE0007FFD1148401CFFF7FBF808B1FEF778FDB7
:101CF0000E482A6810300168607801F5A071FFF77E
:101D00001FF908B1FEF76CFD2078FFF73BF908B129
:101D1000FEF766FD6078FFF735F9002803D0BDE8CF
:101D20007040FEF75DBD70BD00000020F82100008E
:101D300070B50446C0790D4600281CD1207A50B1F8
:101D4000A179A088FFF7ACFC0B4951F820200BA12A
:101D50002846FFF7B7FAA0880021FFF745FE0346A3
:101D60000549A079143951F820202846BDE8704073
:101D700003A1FFF7A7BA70BD4C0000202573000037
:101D80003C25733E2025733A2000000070B50546BF
:101D9000C87D0C4600284FF4847128460AD0FFF70E
:101DA00014FFD5F81805627EE1688854607E401CF7
:101DB000607670BDFFF709FFD5F8180570BD1FB537
:101DC00001238DF800308DF808100192D0E900123F
:101DD000684690471FBD000010B5084C0020D2B2E5
:101DE0002070201DFFF7B2F908B1FEF7F9FC60780A
:101DF000002802D021780029FAD010BD1000002060
:101E00002DE9F843DFF88C800446914698F81C04CD
:101E1000D8F808500F461E46002838D169461846A3
:101E2000FEF75CFD002832D00098C44600EA0501A8
:101E300008EB810252F80C1F21F00301491C401CE1
:101E40001160E30602D541F0040101E021F0040134
:101E500064F3C50166F3891167F39F21116000EAFD
:101E60000501220C0CEB8101401CCA60009000208F
:101E70000BE000BF009959F8203001EA05020CEB95
:101E80008202491CD360401C0091B042F2D3BDE8ED
:101E9000F8830000F4010020704770B50C46054639
:101EA0004FF48E71FFF791FEA18AA068415CA08A71
:101EB000401CA082C5F81C1570BD1FB500228DF80E
:101EC00000208DF80810816801918275D0E9001218
:101ED000684690471FBD0000014901200870704707
:101EE0001000002010B588B0044620220E49684634
:101EF000FEF742FA06200090C01F01900290039066
:101F00004FF0EB7006900CB1084A00E000226946E1
:101F10000748FFF7E7F808B1FEF762FC0448001F26
:101F2000447008B010BD000044220000D91E00001B
:101F3000140000202DE9FF470C4605464FF40071C0
:101F4000FFF749FE01274FF40178002618B34FF43C
:101F5000927949462846FFF733FEE0B149462846C4
:101F6000FFF733FEC5F80883A07E00B96F6002203A
:101F70008DF80000D5F88004C5F880040390E07D5A
:101F80008DF80800E0680190E6752676D4E9001225
:101F90006846904727E004212846FFF71CFE10B34F
:101FA0004FF484712846FFF70BFEE0B12146284626
:101FB000FFF7ECFEE07D617E884214D1207E38B1CF
:101FC000617EE268E0752069E0602676667607E06B
:101FD000A07E00B96F60C5F80883E675617EE2688F
:101FE0002046FFF7ECFE4FF48E7841462846FFF777
:101FF000E7FD88B1A08AA17D884204D22146284607
:10200000FFF74BFF08E041462846FFF7DEFDA17DC4
:1020100011B12046FFF751FF4FF4A2784146284600
:10202000FFF7CEFD002812D041462846FFF7CDFD30
:10203000A07E00B12F60E07D002808D0E675617EAB
:10204000E26804B02046BDE8F047FFF7B8BEBDE83F
:10205000FF872DE9FF410C464FF49277054639463C
:10206000FFF7BFFD0026C0B139462846FFF7BEFD89
:1020700002208DF80000D5F88004C5F88004039094
:10208000D5F83C058DF80800E0680190E6752676E5
:10209000D4E900126846904724E04FF48877394627
:1020A0002846FFF79EFDE8B139462846FFF79EFD1A
:1020B000D5F83C05C1B2E07D884213D1207E60B1E5
:1020C000E268D5F8000220F02000C5F80002207E6A
:1020D000E0752069E060267601E0E675E26820465A
:1020E000FFF76DFE4FF4A27739462846FFF779FDDA
:1020F00068B139462846FFF779FDE07D38B1E675CD
:10210000D5F83C05E268C1B22046FFF758FE4FF40F
:10211000907631462846FFF764FD00280FD03146FF
:102120002846FFF763FDA07D002808D0D5F84C05B0
:1021300004B0C1B22046BDE8F041FFF7BEBEBDE825
:10214000FF8100002DE9F05F8346DDE90A4A9946E8
:1021500090460D460846012703E000BFB0FBF8F0AB
:102160007F1C4045FAD2B94500D94F465FEACA7094
:1021700012D18CB15FEA8A7002D5B9F1000F01D09B
:10218000202607E0302605E031465846641EFEF75B
:10219000CFFB0CB1A742F7D35FF00106B9F1010FF5
:1021A00002D9A9F1010903E0B5FBF6F0404502D3DD
:1021B00006FB08F6F2E7DFF83C9000BFB5FBF6F04F
:1021C00000FB165519F800105846FEF7B1FBB6FB98
:1021D000F8F6002EF2D15FEACA7009D0002C07D0C1
:1021E000A74205D220215846641EFEF7A1FBF5E761
:1021F000BDE8F09F2822000000800040000400009D
:10220000009000400104000000A000400204000013
:1022100000000007000000000000000700000000B0
:10222000000000070000000030313233343536370B
:102230003839414243444546891600007116000072
:1022400067160000FFFFFFFFFFFFFFFFFFFFFFFF1D
:10225000FFFFFFFF00000000000000000000D601AB
:10226000070100003000002028000020300000207E
:102270003401002018000000004040404040404031
:102280004040414141414140404040404040404049
:1022900040404040404040404005020202020202ED
:1022A000020202020202020202202020202020203C
:1022B0002020200202020202020290909090909050
:1022C000101010101010101010101010101010100E
:1022D0001010101002020202020288888888888882
:1022E000080808080808080808080808080808086E
:1022F00008080808020202024000000079220000DB
:102300007761726E696E67006465627567000000D0
:102310001B5B313B33306D001B5B306D00000000F8
:102320001B5B313B33316D001B5B313B33326D0046
:102330001B5B313B33336D001B5B313B33346D0032
:102340001B5B313B33356D001B5B313B33366D001E
:102350001B5B313B33376D00696E666F0000000018
:102360006572726F720000007070690074696D654B
:1023700072000000756172740000000062616C6C94
:102380006F63000061707000D02300000000002027
:10239000B00000004807000080240000B0000020CA
:1023A00068250000580700006823000000000000B6
:1023B0006C230000000000007423000000000000F7
:1023C0007C230000000000008423000000000300C4
:1023D00000000000000000000000000000000000FD
:1023E0000000000000200040000000003822000033
:1023F00000000000000000000000000000000000DD
:102400000000000000000000000000006023000049
:1024100000230000582300000823000018230000B8
:102420001023000020230000282300003023000098
:102430003823000040230000482300005023000000
:102440000090D00300000000000000000000000029
:10245000000000000000000000000000000000007C
:10246000000000000000000000000000000000006C
:10247000000000000000000000000000000000005C
:0400000500000201F4
:00000001FF
