:020000040000FA
:10000000A83F0020810300008903000015020000C2
:100010008D0300008F03000091030000000000002A
:10002000000000000000000000000000930300003A
:1000300095030000000000009703000099030000F2
:10004000F90700009B030000C10B00009B030000A8
:100050009B030000B50400009B0300009B0300000D
:100060009B0300009B0300009B0300009B03000018
:100070009B0300009B0300009B0300009B03000008
:100080009B0300009B0300009B0300009B030000F8
:100090009B0300009B0300009B0300009B030000E8
:1000A0009B0300009B0300009B030000AD0B0000BE
:1000B0009B0300009B030000000000000000000004
:1000C0009B0300009B0300009B0300009B030000B8
:1000D0009B0300009B0300009B0300000000000046
:1000E0000000000000000000000000000000000010
:1000F0000000000000000000000000000000000000
:1001000000000000000000000000000000000000EF
:1001100000000000000000000000000000000000DF
:1001200000000000000000000000000000000000CF
:1001300000000000000000000000000000000000BF
:1001400000000000000000000000000000000000AF
:10015000000000000000000000000000000000009F
:10016000000000000000000000000000000000008F
:10017000000000000000000000000000000000007F
:10018000000000000000000000000000000000006F
:10019000000000000000000000000000000000005F
:1001A000000000000000000000000000000000004F
:1001B000000000000000000000000000000000003F
:1001C000000000000000000000000000000000002F
:1001D000000000000000000000000000000000001F
:1001E000000000000000000000000000000000000F
:1001F00000000000000000000000000000000000FF
:10020000DFF80CD000F014F900480047991B0000FB
:10021000A83F0020094B1EF0040F1CBFEFF309801C
:100220001847EFF308800649064A884201D89042F1
:1002300002D88D464FF0000018470000550400001A
:10024000A83F0020A81F002030B4044654E8000F47
:100250000D4644E80053002BF8D1156030BC7047C0
:1002600030B4044654E8000F40EA010544E8005366
:10027000002BF7D1156030BC704730B4044654E809
:10028000000F00EA010544E80053002BF7D1156088
:1002900030BC704730B4044654E8000F80EA0105D2
:1002A00044E80053002BF7D1156030BC704730B4E0
:1002B000044654E8000F00EB010544E80053002B0E
:1002C000F7D1156030BC704730B4044654E8000FD5
:1002D000A0EB010544E80053002BF7D1156030BCBA
:1002E0007047000030B4044654E8000F0D4644E85F
:1002F0000053002BF8D1156030BC704730B4044671
:1003000054E8000F40EA010544E80053002BF7D100
:10031000156030BC704730B4044654E8000F00EA62
:10032000010544E80053002BF7D1156030BC70473D
:1003300030B4044654E8000F80EA010544E8005355
:10034000002BF7D1156030BC704730B4044654E838
:10035000000F00EB010544E80053002BF7D11560B6
:1003600030BC704730B4044654E8000FA0EB0105E0
:1003700044E80053002BF7D1156030BC70470000F3
:100380000648804706480047FEE7FEE7FEE7FEE72F
:10039000FEE7FEE7FEE7FEE7FEE7FEE7B108000046
:1003A0000102000000487047D038000040EA010315
:1003B0009B0703D009E008C9121F08C0042AFAD21B
:1003C00003E011F8013B00F8013B521EF9D27047DF
:1003D000D2B201E000F8012B491EFBD27047002287
:1003E000F6E710B513460A4604461946FFF7F0FF34
:1003F000204610BD421C10F8011B0029FBD1801AB9
:10040000704730B504460020034600E05B1C934271
:1004100003D2E05CCD5C401BF8D030BD034611F840
:10042000012B00F8012B002AF9D118467047000073
:10043000064C074D06E0E06840F0010394E8070031
:1004400098471034AC42F6D3FFF7DEFE6C3900005B
:100450008C3900000446826908480121008801EBBC
:10046000004007A102F006FD02F0BAFD02F028FCF0
:100470000028FBD1204600F00BF80000C00000204F
:10048000486172646661756C742050433A25780047
:10049000BFF34F8F05480168054A01F4E06111433D
:1004A0000160BFF34F8F00BFFDE700000CED00E0DF
:1004B0000400FA052DE9F84FDFF8D482D8F80401DA
:1004C0000025B44C012688B1D8F8000380070DD56B
:1004D000B14802F06BFE607838B904F1200001F0F9
:1004E0007FFFAE48C6600660A5616670D8F8180147
:1004F000DFF8ACB2DFF8AC924FF0100A00287BD0E6
:10050000D8F80003400677D5A64814300068C0F339
:10051000C800801E0090A048143002F047FE9BF8EF
:1005200000105846E0291ED00178890765D501786A
:10053000E279C1F3C00121B1437803F00F03934284
:1005400064D1027802F0F202C22A13D0E378F222D8
:100550001BB1037832EA03030ED0007800F0E60006
:10056000022826D052E08F488C30016841F001010A
:1005700001604BE0A67049E0E5702079D8B32571A1
:1005800085480C3002F012FEC8F804A32169C9F8AE
:100590000010616940F6FF7000EAC10181480C302B
:1005A000016080490320091F0860C8F80C6065716C
:1005B0002CE0784809300270162241B1017841F0F0
:1005C00008010170E17941708270032101E04270FD
:1005D0000221C9F8000040F6FF7000EAC10171482D
:1005E0000C3001606F480221001F0160C8F80C60E8
:1005F0006671C8F804A309E013E00078502803D11D
:1006000026704020C8F80803C8F81C60E76827B1C6
:10061000634A0221009BE069B8475F48083002F056
:10062000C5FDD8F8100160B3D8F80003C00628D57E
:1006300059480C3002F0BAFDC8F808A3A07860B1A0
:1006400058488C30016821F001010160C8F8286029
:100650004020C8F80803A5700CE0C9F800B0514963
:100660004FF48070091D0860C8F81C604FF4886062
:10067000C8F80403E76827B100231A460321E0699C
:10068000B847D8F84C0168B3D8F80003000329D55F
:100690004148483002F08AFD3F48143002F086FDA0
:1006A0003D48243002F082FDC9F800B03D494FF4C6
:1006B0008070091D0860C8F81C604FF48860C8F895
:1006C000040339490D200860374908390860E76894
:1006D00027B100231A461946E069B847E57025712D
:1006E00025616561D8F8280138B3D8F800034005C2
:1006F00023D52D4F38682848243002F057FDE57087
:100700002079C0B12571657123480C3002F04EFD8F
:10071000C8F804A32169C9F80010616940F6FF70A8
:1007200000EAC1011F480C3001601E490320091F67
:100730000860C8F80C600D203860D8F81C01A0B122
:10074000D8F80003000610D5174F083FD7F80090DF
:100750001148183002F02AFD5FEAC97003D02078F2
:1007600008B13E6025700D203860D8F80C010028D3
:100770000CD0D8F80003000708D50748083002F06D
:1007800015FD6079002801D06571E670BDE8F88F2D
:10079000005000406C0000200451004000B00140B7
:1007A000841A0020105500400C54004000F01F0235
:1007B000012191404009800000F1E020C0F8801242
:1007C000704700F01F02012191404009800000F1B4
:1007D000E020C0F8001170474907090E002806DA2A
:1007E00000F00F0000F1E02080F8141D704700F1C8
:1007F000E02080F8001470472DE9F0414FF4807735
:10080000384601F0BCFD0124104EA50748B138461A
:1008100001F0BCFD0120C5F808037470002000F051
:10082000C3FC4FF48277384601F0A9FD00280BD0B5
:10083000384601F0ABFD0220C5F80803B470BDE8EE
:10084000F041012000F0B0BCBDE8F081101500209F
:1008500000F0C4B970B50E46144900EB400001EB3E
:10086000C0051446E86A183520B101280FD00228C7
:1008700005D113E0284600F0E5F9A04201D200249A
:1008800011E022463146284600F014FA0BE02846D3
:1008900000F0D8F9A042F4D20446F2E731462846E7
:1008A00000F0DBF90446204670BD0000841B0020E8
:1008B000F0B5AE480023021D01780125101D4FF050
:1008C000805406290BD11678360708D10678C6F36E
:1008D0000316032E06D0042E04D0052E02D00629BE
:1008E00007D00EE0B4F82463A14FC6F304263E609F
:1008F00002E01678360704D10678C6F30316032EF5
:1009000002D0062904D00FE09B4F9A4E7E670EE07E
:100910001678360708D10678C6F30316032E06D0DC
:10092000042E04D0052E02D0062907D00EE0D4F8FC
:100930004462924FC6F342363E6002E016783607B4
:1009400004D10678C6F30316032E02D0062906D07A
:1009500011E08B4E376827F0807737600EE016780D
:10096000360708D10678C6F30316032E06D0042EE8
:1009700004D0052E02D006290AD011E04FF080469F
:10098000C6F80C31C6F810317C4E361F336002E0D9
:100990001678360704D10678C6F30316032E02D064
:1009A000062905D00CE0754F032664373E600AE047
:1009B0001678360704D10678C6F30316032E02D044
:1009C00006290DD014E06F4F05263E606D4E783637
:1009D00035606C4E083633603F263F1D3E6002E0B6
:1009E0001678360704D10678C6F30316052E02D012
:1009F000062957D062E0644E3668644F3E60624E0E
:100A0000361D36683F1D3E605F4E083636683F1D16
:100A10003E605D4E0C3636683F1D3E605A4E1036C5
:100A200036683F1D3E60584E143636683F1D3E60A6
:100A3000554E18363668554F20373E60524E1C369C
:100A400036683F1D3E60504E203636683F1D3E6082
:100A50004D4E243636683F1D3E604B4E2836366874
:100A60003F1D3E60484E2C3636683F1D3E60464E68
:100A700030363668454F40373E60434E3436366830
:100A80003F1D3E60404E383636683F1D3E603E4E4C
:100A90003C3636683F1D3E603B4E403636683F1D53
:100AA0003E6002E01678360708D10678C6F30316D2
:100AB000032E06D0042E04D0052E02D0062907D01E
:100AC00019E0D4F85812324A01F04F01116002E0E7
:100AD000117809070FD10078C0F30310032803D061
:100AE000042801D0052806D12A480168C90702D088
:100AF0006FF00101016022487438016841F470010F
:100B00000160BFF34F8FBFF36F8F4FF01021D1F80B
:100B10000002002803DBD1F80402002822DA1E4A72
:100B200015601E480468002CFCD01524C1F8004252
:100B30000568002DFCD0C1F8044201680029FCD0F2
:100B4000136001680029FCD0BFF34F8F0C48F038C8
:100B50000168134A01F4E06111430160BFF34F8F54
:100B600000BFFDE710490F480860F0BDE00F00F03E
:100B7000403501400DF0ADBA00C007403C050040D3
:100B8000FCED00E0105600400404001020C50040B9
:100B9000E40E00400004004004E5014000E4014090
:100BA0000400FA050090D0039400002010B500F076
:100BB000AFFB02490020C1F8400110BD00B0014068
:100BC0000448017F04480029024901D002F0F9BC21
:100BD00002F068BC241500200020004010B5124C23
:100BE00002202061606111A0A06104F17800E06141
:100BF0004FF4007020620020A06260620BA1A1642B
:100C0000E06204F51E71E1641021A065C4E91410CE
:100C1000E06509A1E01DFFF701FC08A12046FFF7F0
:100C2000FDFB2020A07110BD841B00205465726D57
:100C3000696E616C000000005254540053454747F0
:100C4000455200000269C1688A4203D88068401A90
:100C5000104400E0501A401E70472DE9F047C46868
:100C60001746894606464FF000083069A04201D970
:100C7000051B02E0B168201A0D1AB0686D1E001B3A
:100C8000A84200D80546BD4200D33D4670682A46BA
:100C900020444946FFF78AFBB0687F1B2C44A844D8
:100CA000A944A04200D10024F460002FDDD14046C9
:100CB000BDE8F0872DE9F04104468846D4E90207F3
:100CC000C51BE168606816460844B54206D941462E
:100CD000FFF76CFBB819E060BDE8F0812A46414699
:100CE000FFF764FB761B08EB050132466068FFF7EF
:100CF0005DFBE660F0E702E008C8121F08C1002AA9
:100D0000FAD170477047002001E001C1121F002A8C
:100D1000FBD17047134C0121208801EB004012A148
:100D200002F0A4F802F05CF901F0CAFF0028FBD140
:100D30000F480068C00700D000BE2088032101EBE7
:100D400000400CA102F092F8BFF34F8F0848E4383E
:100D500001680D4A01F4E06111430160BFF34F8F58
:100D600000BFFDE7D8000020466174616C00000000
:100D7000F0ED00E0486974207765616B2068616E72
:100D8000646C6572000000000400FA050EB50021D5
:100D90000091CDE901106A4644F20100FFF7BAFF65
:100DA0000EBDC16881600020704710B58268C368BD
:100DB000934203D000F00CFA002010BD052010BDB6
:100DC00029B112B1531E134203D0092070470E20DF
:100DD00070470160838000218160C16008467047D0
:100DE00010B58268C3689A1A83889A4203D800F0C3
:100DF000F9F9002010BD042010BD2DE9F041164680
:100E0000884607000ED06EB1B868F9683468081AD1
:100E10000025844200D30446306030B15FEA080008
:100E200001D00AE00E20BDE8F0810520FBE708EBC9
:100E3000050138466D1C00F0CBF9A542F7D3002020
:100E40003460F0E72DE9F04116468846070011D0DE
:100E500086B1B868F9683468081AB9880025081A94
:100E6000401C844200D30446306030B15FEA080081
:100E700001D00BE00E20BDE8F0810420FBE700BFAD
:100E800018F8051038466D1C00F0ACF9A542F7D3F0
:100E900000203460EFE7000010B50648FFF781FF3F
:100EA000002805D10348BDE810401030FFF779BF96
:100EB00010BD00004415002070B50A4E01460A48D6
:100EC000B578FFF772FF04464DB10020B070711C79
:100ED0000122C81D01F02EFB08B1FFF757FF204685
:100EE00070BD00000400002044150020F0B5284E1D
:100EF00089B01F460D00044672603BD0A88829685F
:100F000082B22448FFF75CFF002834D1A889A96881
:100F100082B220481030FFF753FF00282BD1202247
:100F20001D496846FFF742FA60690690207C00B1CF
:100F300001208DF814008DF81C70607C00B10E202B
:100F40008DF81500E0680290A06803902068019079
:100F5000606800900E48114A6946083001F0B6FA00
:100F6000002808D1B0702068401C04D09DF81D00F6
:100F700018B106E0072009B0F0BD0548083001F0BF
:100F800031FB03490122491CC81D01F0D3FAF2E7E5
:100F900004000020441500208837000005340000BC
:100FA00010B501460B48FFF71BFF040010D10A489B
:100FB00001F062FC60B9084906480839FFF7F5FE00
:100FC00030B9054901220839034801F0CFFB044636
:100FD000204610BD541500200C00002000F002B87F
:100FE00000F008B872B602480168491C01607047F9
:100FF0001400002003490868401E086000D162B652
:1010000070470000140000202DE9F04106460868F2
:101010000C46411C4FF0A0474FF0010506D005FAE1
:1010200000F1C7F80815206801F065FD6068411CF3
:1010300002D0002101F056FD3079204901EB40102B
:10104000A169007F00283068C0F8241525D0607D94
:10105000227D31681043C1F86C05D4E90012306874
:10106000C0F80C15C0F8142524E0A068411C02D07B
:10107000002101F037FDE068411C05D08540C7F82C
:101080000855E06801F037FDD4E902123068C0F875
:101090000825C0F81015BDE8F081607D217D32681B
:1010A0000843C2F86C05D4E900123068C0F8142572
:1010B000C0F80C15207D0128D7D0ECE724150020BE
:1010C0000249085C012101F020BD000080370000CA
:1010D0000249085C002101F018BD000080370000C3
:1010E0007CB50024084E25460122305D0095002382
:1010F0001146019501F0D2FC641C042CF4D3BDE828
:101100007C4000F003B800008037000010B50024D8
:101110002046FFF7D5FF641C042CF9D310BD000056
:101120002DE9F041861C0C4601270020FFF756FFF1
:101130000F4801682160D0E90012891A82680446CC
:10114000511AB51C07E000BF00F0DEFCD4E9000135
:10115000401AA168091A491C8D42F5D8206830440C
:1011600020600020FFF73CFF3846BDE8F08100001A
:101170006416002030B482680468531C8360A15454
:10118000D0E901128A4202D330BC01F08EBB30BCE0
:1011900070470000034803C8814201D10120704715
:1011A000002070476416002070B5084C050009D077
:1011B00010342168002907D0086820604968284653
:1011C0008847F6E70834F4E770BD000010150020EA
:1011D000826883881A4003689A5C0A708168491C97
:1011E00081607047C26883881A4003689954C16857
:1011F000491CC16070470000F8B5174CA0422AD1C5
:101200000446002549B1012918D0022910D003292C
:1012100021D1BDE8F84000F066BAD4F82061002E74
:1012200019D000230095D0F824011A46012111E0BD
:10123000C4E90223BDE8F84000F0E2BA00F032FA57
:10124000D4F82061002E06D0002300951A46022112
:10125000D4F82401B047F8BD681E0020F0B5274936
:101260000B68091D0968264A0224C2F804430824B1
:10127000C2F80443234CC2F80443DAB2C3F3072490
:10128000C3F30743027082EA040583F088064470C2
:1012900075408370C5700D0A0E0C01710F0E4571FB
:1012A000867169407E40C77171400172120400214D
:1012B00042EA04221A43144B41721A604268C07910
:1012C00012BA22F0FF020243181F02600E4A4FF6C4
:1012D000FF708C3A10600D480422027282796023FC
:1012E00003EA4212084B10331A6044221B1F1A6093
:1012F000C170017101614161F0BD00005004001036
:101300000050004080000800945500406C00002010
:10131000FEB513480068134C10F0030F4FF00005A2
:1013200001D0A561FEBDA069401CA0610728F9D9C4
:101330000D480126066101F03FF8BFF35F8F0B48AF
:101340000560BFF35F8F0660E66826B100231A468A
:101350000121E069B04765706846FFF77FFFFEBD79
:101360003C5400406C00002000B00140FC5F004095
:101370001C4B012804D0022815D0032823D02DE0CF
:1013800008781872012A20D1187A042810D8197AFE
:101390001548042904D01A7A8114914001601DE097
:1013A0004FF6FF71FAE70878012A0ED1032801D918
:1013B0000720704798719879602101EA40100A4926
:1013C0009C3108600AE0012A02D94FF00C007047F6
:1013D00001D1087801E04FF00000D8714FF0000013
:1013E000704700006C0000200855004070B50C00EC
:1013F000054607D0114AD078012628B1C2E9045425
:10140000167118E00C2070BD002050710C4801F0DE
:10141000CDFE0C481021C0F804130B490D600A4A98
:1014200040F6FF710C3201EAC4011160064A032143
:10143000121F1160C660002070BD00006C0000200B
:101440001051004000500040105500403EB5194A70
:10145000D161D0606846FFF701FF16481649203079
:101460000024C0E9004100F0E7FF0546134804608E
:10147000001D0460114904200C3108600F496420EC
:101480003C3108600E480121C0F800120904C0F880
:1014900004131B20FFF78AF907211B20FFF79CF993
:1014A0001B20FFF78EF91DB1852D01D003203EBD15
:1014B00000203EBD6C0000209D31000004B50140BD
:1014C00000B00140094910B50D200860084901200D
:1014D00088600520FFF76AF907210520FFF77CF9EE
:1014E0000520FFF76EF9002010BD000004540040F5
:1014F00000500040054910B501200860012000F0AF
:101500004DFF0028FAD10249487010BD0400004088
:10151000101500202DE9FC5F0E008346DDE90C4725
:10152000C6F1000098469246814600D4084601253F
:1015300003E000BF90FBFAF06D1C5045FADAA845B5
:1015400000D9454624B1002E01DB780700D5641E82
:10155000B80702D5B8F1000F0AD0F80708D13CB19E
:10156000A54205D220215846641EFFF703FEF6E788
:10157000002E02DA4E462D2102E0780703D52B21FA
:101580005846FFF7F7FD07F0030002280BD1B8F12A
:10159000000F08D13CB1A54205D230215846641E47
:1015A000FFF7E8FDF6E7CDE90047434652463146EE
:1015B000584602F07FF8BDE8FC9F000070B50E466B
:1015C0000446007918494FF4A27501EB4010017FE1
:1015D0002068A1B14FF4887101F004FE4FF49071BE
:1015E000206801F0FFFD4FF49271206801F0FAFDD0
:1015F0002946206801F0F6FD0C49206809E04FF407
:101600008E7101F0DEFD2946206801F0DAFD0849FF
:101610002068C0F80413206800F04CFF3146BDE894
:10162000704000F02BBF00002415002010030200C2
:101630008000020038B51A4C049DA0422FD104F15D
:10164000280080E82C0020460022D0E90150012922
:101650000DD0022917D0052905D006291FD1BDE8D4
:10166000384000F0C5BCBDE8384000F003BD0C496F
:10167000002DCA630A644A648A6410D00023009271
:101680001A4601210AE04FF0FF31616284F83A20E6
:10169000002D04D0002300921A460221A84738BD2D
:1016A0000C1E002001210176002180F81E1180F817
:1016B0001F1101714171C0F82811C0F82C11704739
:1016C00081680A78120709D54978027901F00F017B
:1016D000914201D1012102E000207047002180F8F1
:1016E0001F1101207047F8B5044690F81C0100282E
:1016F0000FD000250095D4E94903D4F82061D4F82F
:101700003421052104F58E74B047A56104F8015C0D
:101710002570F8BD10B50446FFF7D2FF002807D0AA
:10172000204600F07EF92046BDE81040FFF7BABF22
:1017300010BD38B504460125FFF7C2FF002832D09E
:10174000A06801780A0700D50225490704D5415D44
:101750006279914200D16D1C217E81F001022276D6
:101760000178CB07B3EBC27F1DD1CA064FF0010150
:101770000CD50091E1684B1B4219D4E94850062171
:10178000A8472046BDE8384000F0C1B884F81B11D6
:1017900000210091E1684B1B4219D4F82401D4F8D0
:1017A00020410621A04738BD10B50446FFF788FF49
:1017B000002824D0A06804F119020078C30614D4CC
:1017C00000F00101207E814207D080F001002076E8
:1017D0002046BDE8104000F0B2B8616900290ED083
:1017E000BDE810401046FFF701BE217E00F0010069
:1017F0008842F2D02046BDE8104000F088B810BD05
:1018000010B5C16800294DD0816800294AD00978F7
:1018100001F0F002902A45D0D02A43D08A0712D591
:1018200011F0E0010BD0A02905D0C0293AD1BDE8C4
:101830001040FFF76FBFBDE81040FFF7B5BFBDE830
:101840001040FFF776BF1D292CD050292AD0E0295F
:1018500028D1044690F81E01002823D101202076CB
:1018600084F81E01A06810494078000951F8200052
:10187000801E2061A068407810F00F00207100D019
:10188000012084F81F01204600F024F894F81F017D
:1018900008B1012200E00022211DBDE81040032014
:1018A000FFF766BD10BD00000C380000024610B501
:1018B0000920074B002100BF53F82140944201D179
:1018C000084610BD491CC9B20929F5D310BD000056
:1018D0000C38000010B504460068FFF7E7FF092840
:1018E00013D040F07000A0768021E176E179A279F2
:1018F000022041EA0211217760770521617604F127
:101900001900BDE81040FFF771BD032010BD30B4D1
:10191000027E002102F0010242F0A202427690F81B
:101920001F313BB142F008014176837E04790121E9
:1019300023438376193030BC491CFFF757BD70B57F
:101940000446007E002600F00101891C617694F8AF
:101950001F21D4F82C0132B128B941F00801617679
:1019600021790126A176D4F82811761C0D1A216957
:10197000891B8D4204D9627E0D4642F010026276C8
:101980003DB1D4F834112A460144A0191930FEF7AC
:101990000DFD627E7119D00629D4D4F8300108B348
:1019A00023698B4231D9D4F83821C0F10200105C90
:1019B000621801F101015076D4F83001401EC4F8DC
:1019C000300114D022698A420DD9D4F83821C0F1EF
:1019D0000200105C62185076D4F83001401E491C99
:1019E000C4F8300103E0607E40F010006076616171
:1019F000D4F82C012844C4F82C01D4F828219042B2
:101A000009D3D4F8300118B105E042F01000EDE739
:101A1000012084F81C0104F11900BDE87040FFF7B3
:101A2000E5BC30B40021C222427690F81F2132B1C9
:101A3000CA214176837E04790121234383761930BC
:101A400030BC491CFFF7D2BC2DE9F041124C0746CF
:101A5000154694F81D010E46E0B9DDB14FF49E71B4
:101A60002046FEF7BCFC4FF4807020600220E0713D
:101A70000420A0712C6021460848C4E94867FFF79C
:101A8000E5FC28B15FF0000184F81D11BDE8F0818C
:101A90000121F9E70720F9E7681E0020F91100008D
:101AA00030B4124CA04204D119B14FF6F074A242E6
:101AB00002D9072030BC7047D0F8344154B990F8AF
:101AC0001B413CB100243BB10225C0F83051C0F8A5
:101AD000383103E00820EDE7C0F83041C0F8341198
:101AE000C0E94A2430BCFFF72ABF0000681E00206E
:101AF0000268134602E08A4204D01268002AFAD132
:101B00000B600160704700002DE9FE43214DD5E9CF
:101B1000014704EA070005EB800605F583600C36F3
:101B200000F0DAFB05F21440804600F0D5FB0AE035
:101B3000C0F3891101EB9050641C044404EA0700CF
:101B400005EB80060C3630688107F1D0002069462D
:101B500004EA070205EB8202641CD26841F82020E7
:101B6000401C0228F4D3009800F0030002280098DB
:101B70000AD0C0F383100444404600F0A7FB0028BD
:101B800000D06C60BDE8FE83032101EB905004EBB4
:101B90009004F1E7641600208AB0002001F0C8F933
:101BA00008B1FFF7F3F801F07DF8324D03212888E2
:101BB00001EB004030A101F059F9FFF791FA18222A
:101BC00033496846FEF7F2FB32484FF48064CDE9B2
:101BD000060400F58060CDE9080407232E4A06A913
:101BE0006846FFF783F908B1FFF7D0F82B49224682
:101BF00001F50060FFF7E4F828B92949224601F50C
:101C00008260FFF7DDF808B1FFF7C0F80021254832
:101C100000F040FB08B1FFF7B9F800F011FB08B184
:101C2000FFF7B4F8022405E09DF80000FFF7B8F9CB
:101C30000028F9D169461C48FFF7B7F80028F3D00F
:101C40000DE000BF18489DF800101030FFF7C8F8ED
:101C500028B1288815A104EB004001F007F9684677
:101C6000FFF72AF90028EDD001F02AF80028FBD16F
:101C7000E0E70000D80000204E4643205541525472
:101C800020546167206578616D706C65000000000C
:101C900068370000F0040020F1330000F00C002051
:101CA000F0100020BD200000F01400204E4643201C
:101CB0005458204649464F20627566666572206F0B
:101CC000766572666C6F77002DE9F047C788044629
:101CD000181D16468946B0FBF7F1B0FBF7F207FB7B
:101CE00012009A193A44D21CB2FBF7F2DDF820A098
:101CF00001E02468491E0029FBD13D1A8846B542FF
:101D000016D818E0BAF1000F05D0211809EB080029
:101D10002A46091D04E0204409EB08012A46001D5B
:101D2000FEF744FB00202468761BA844B74201D983
:101D3000354600E03D46002EE4D1BDE8F0870000C6
:101D400030B50B46024601F021F963B10021094C80
:101D50000CE000BF01EB410304EB830315685B88D3
:101D6000AB4202D11160002030BD491C8142F1D349
:101D7000052030BDA800002010B50F2209490A48EF
:101D8000FEF714FB0849A1F14C00C16041610F212D
:101D9000C161002101614A1E8161C0E9081280F819
:101DA000391010BDFA370000581E002070B50D4DD7
:101DB0000D4A00212C7800BF01EB4103D65CA642FE
:101DC0000AD113445B78834206D101EB41001044F1
:101DD00080782870002070BD491C0529ECD30820AC
:101DE00070BD00000C1E002098000020F8B51B4CB0
:101DF00004F13C052069A9680844D4E90A12FEF7F9
:101E0000D5FAA868E16A0844A860216B012923D0AB
:101E100069682A68124E401A002590420DD1361F7B
:101E200001290AD82069002241780078009501EB49
:101E30000023D4E901700421B84708483346084913
:101E4000C563056445648564606B01B00022BDE82C
:101E5000F040491FFFF724BEF8BD00000C1E002013
:101E6000DD3700002DE9F0411848174B0022C46A05
:101E7000591F052C22D3856A476AEC78AE782D79F4
:101E800004EB062400EB870604EB050CD6F81CE0F7
:101E9000F44513D84B1C71692A462144012F0DD1FA
:101EA00085696E782D7806EB0525AC4203D2AC45EA
:101EB00001D3012400E0002480F83840406BBDE8E5
:101EC000F041FFF7EDBD0000DD3700000C1E0020E3
:101ED00070B51D4C1B4D0026E06A0D2808D10D225F
:101EE00005F11201A06AFEF78CFA08B9AD1E666210
:101EF000606A401C1DD0E06A07281AD111490722E8
:101F0000091DA06AFEF77DFA10B90E4D6662AD1E7E
:101F1000606A401C0DD0E06A07280AD109490722EF
:101F20000B31A06AFEF76DFA18B90120054D606209
:101F3000AD1E2B46606BBDE8704002490022C91EF1
:101F4000FFF7AEBDDB3700000C1E0020F8B5274DB3
:101F5000254FEA6A052A2CD3686A012829D195F809
:101F6000390010B3A96AC8788B780E7900EB032486
:101F70002B6AA01998421CD82846531F0069B34207
:101F800014D12044491D521FFEF710FA3F1F012CA7
:101F90000FD828694178007801EB00230020024621
:101FA0000090D5E901400421A04702E02B6B012BF2
:101FB00009D0686B01B03B46BDE8F0400A490022F9
:101FC000491FFFF76DBD2044491D521FFEF7EEF972
:101FD000064801213C3001734460E96A641F2144D2
:101FE00006608160F8BD0000DD3700000C1E002097
:101FF00038B51E490878022814D10846D0E90A23CA
:102000000C690CB9886938B118483C30007B50B174
:10201000BDE83840FFF7EABE086B0090D1E9014007
:102020000621A04738BD022B08D3107830B950786C
:10203000A4280FD0B02811D0D62813D00B48406B5D
:1020400003B10B4B01B00A49BDE830400022C91E64
:10205000FFF726BDBDE83840FFF73ABFBDE838407E
:10206000FFF700BFBDE83840FFF770BF0C1E00202F
:10207000DB37000038B5104C94F8380068B194F89C
:102080003A0050B90020034602460090D4E90150BE
:102090000321A847012084F83A00206900280AD1CA
:1020A000A069002807D1206B0090D4E90A23A0681A
:1020B00064680521A04738BD0C1E00202DE9FC47AF
:1020C000384F914603223888DDF828801E4602EBFF
:1020D000004001292BD002293AD0062936D1324CB2
:1020E00020683044B0F5806F02D90420FEF74EFE20
:1020F0002E4D2068324628444946FEF757F920689D
:10210000B8F1010F3044206048D001282DD9401E7D
:102110002060019001AA691C05F5A050FEF792FE0F
:1021200001992268914219D1042817D01DE020A1FD
:1021300000F09CFE0020FEF7CBFFFEF7ADFE2B4823
:10214000FEF72FFE29481030FEF72BFEBDE8FC8776
:1021500027A100F08BFEFEF7D9FFF7E738880221B0
:1021600001EB00402FA100F081FE0026F020266048
:1021700000901E486A46691C1030FEF73EFE052896
:1021800000D1009600990948491C00F065F808B193
:10219000FEF7FCFD0120FEF793FFD7E70120FEF7D5
:1021A00097FFD3E7D800002000000020F0000020B7
:1021B0004E46432054616720686173206265656EF6
:1021C0002073656C65637465642E205541525420FC
:1021D0007472616E736D697373696F6E2063616E83
:1021E0002073746172742E2E2E000000F0140020F3
:1021F0004E4643206669656C64206C6F73742E20B4
:10220000446174612066726F6D205541525420778D
:10221000696C6C20626520646973636172646564D3
:102220002E2E2E004E4643205258204649464F201F
:10223000627566666572206F766572666C6F770090
:1022400010B50220FFF7B2FD08B1082010BDBDE8AF
:102250001040FFF737B9000010B508224FF6F073B1
:10226000994206D829B130B1094B1C78022C04D010
:102270000BE00C2010BD072010BD5C6B0A46014628
:1022800000232046FFF70CFC0246104610BD00005C
:102290000C1E002070B50D46040005D00020FFF78D
:1022A00085FD18B1082070BD072070BDFFF764FDE3
:1022B0000448054900F13402C0E90145BDE8704019
:1022C000FFF7C2BB0C1E00203516000008B5002128
:1022D0006A46FEF720F808BD08B501216A46FEF7F8
:1022E0000DF8009808BD70B5044600252846FEF795
:1022F00075FE21686268086890420ED9401E086029
:102300000178238AE26801FB0325227A2168101AEA
:10231000C0B20A79824200D208710020FEF760FE46
:10232000284670BD70B505460C460020FEF756FEE7
:10233000E868298A201AB0FBF1F12A681068431C6A
:1023400013600170BDE870400020FEF749BE10B573
:1023500030B1017A42680368891AC9B21A6006E08E
:102360000E2010BD03681A68541C1C601170491EB1
:10237000C9B2F7D2006800210171084610BD00F112
:1023800080400068002800D00120704708B500F1A7
:102390008040002101600068009008BD054909687F
:1023A00040F4803001F00111814201D101207047D9
:1023B000002070470C04004010B50020FEF70EFE10
:1023C00006484168491E4160406808B9FFF792F825
:1023D000BDE810400020FEF703BE000010150020ED
:1023E00070B5144D0446687838B114B161680020A6
:1023F00088470020FEF7F2FD13E00020FEF7EEFD17
:1024000024B10C4821460830FFF772FB686840B9D8
:102410004FF48070FFF7BAFF01208107C1F8040371
:1024200008606868401C6860BDE870400020FEF7E6
:10243000D7BD00001015002070B50E4C0025207887
:1024400008B1852513E00021A16061602161E16090
:102450004FF0E020D0F80001012610F0010F03D169
:102460000721002000F00AF803480660267028467D
:1024700070BD000010150020180500404907090E26
:10248000002806DA00F00F0202F1E02282F8141DA3
:1024900003E000F1E02282F8001400F01F020121A5
:1024A00091404009800000F1E020C0F88012C0F89F
:1024B00000117047000B40B270470121B1EB507F13
:1024C00001D1012070470020704700002DE9F04144
:1024D00005460079164F904607EB40140E46E07E05
:1024E00010B10820BDE8F081707F20772846FEF704
:1024F0008BFD5FEA080060603169216003D0317FA5
:102500002846FFF75BF8287907EB4010007F00288A
:10251000286801D0082100E00421C0F8001500203F
:10252000E0752076A0750121E176A076DAE700005B
:10253000241500202DE9F04105460079284E9046EB
:1025400006EB40140F46207F18B10846FFF7B5FF91
:1025500080B1626800234FF404704FF4017172B1CE
:102560002A7906EB4212127F002A2A6805D0C2F8A7
:10257000080304E01020BDE8F081C2F80813E27DF2
:10258000B2B1227E7AB162685AB12A7906EB421260
:10259000127F1AB12968C1F8040302E02868C0F864
:1025A00004131120E7E72761012384F8188005E070
:1025B00084F817800020E76060762076287942460C
:1025C00006EB40103946007F0028284603D0BDE8BE
:1025D000F04100F073B8BDE8F04100F01BB8000016
:1025E0002415002070B504460079094D05EB401014
:1025F000017F00290AD1807E002807D1204600F003
:1026000068FE2179012005EB4111887670BD00003C
:10261000241500202DE9F05F04460079264901EBDE
:102620004015A87E184302D1204600F052FE68688B
:102630000028206806D04FF40171C0F80413002070
:10264000BDE8F09F4FF4A276314600F0BAFDB146E6
:102650004FF4927A4FF4847B5146206800F0ACFD31
:1026600006465946206800F0A7FD80464946206886
:1026700000F0A2FD074648EA07003043ECD056EAD6
:10268000070007D12946206800F0FEFDE87D697E3D
:102690008842E1D80020E8750EB10320D0E70FB1E1
:1026A0000F20CDE7A97E01200029216801D0086014
:1026B000C5E74860C3E70000241500202DE9F05F5E
:1026C000894604464FF488759A469046002600686D
:1026D000294600F087FD4FF4A2773946206800F0C4
:1026E00081FD2068C0F83495C0F838852068BAF1BB
:1026F000000F14D0D0F8001241F02001C0F80012F1
:102700002179DFF8648008EB4110406850B12068FF
:102710004FF40471C0F804133046BDE8F09F012166
:102720000160EDE7AA46B9464FF4927B5146206816
:1027300000F053FD07464946206800F04EFD05466F
:102740005946206800F049FD014647EA0500084364
:10275000ECD02379002208EB4310C27501B10326A7
:10276000002DD9D00F26D7E7241500202DE9F047FA
:10277000054600793F4E904606EB40140F46207FF9
:1027800018B10846FFF799FE30B1284600F074F8FA
:1027900020B11120BDE8F0871020FBE784F81680F7
:1027A000A7600027A78228794FF0010806EB4014A4
:1027B0003E46207F0028286825D04FF4907949466E
:1027C00000F010FD4FF4AC7A5146286800F00AFD85
:1027D0002868A17DA268C0F84425C0F8481528687B
:1027E000C0F808806068F0B94946286800F0F5FC38
:1027F00080465146286800F0F0FC58EA0001F3D00A
:1028000058BBA7750FE04FF48E7A514600F0D9FC03
:102810002868C0F808802146286800F0CBFD616870
:102820004FF4807089B13046B4E75146286800F013
:10283000C3FC10B9A08A4845F7D1A08A484505D005
:102840002146286800F0B6FD00E08146A08AA17DFF
:102850008842EAD3A08A484501D10F26D1E75146E4
:10286000286800F0A9FC0028F9D02868C0F80C807E
:10287000C7E70000241500200079044901EB40104F
:10288000807D002800D00120704700002415002022
:102890000FB408B50399002904D004AA00926A462F
:1028A00000F00FF801B05DF814FB10B58268044623
:1028B000002A05D0D4E90403216898470020A060CD
:1028C00010BD2DE9FC4791460C00804676D014F8E7
:1028D000011B39B125290ED04046FEF74BFC20786C
:1028E0000028F4D198F80C00002867D04046BDE8D5
:1028F000FC47FFF7DABF0020012221782B291BD0EB
:102900002D2902D0302908D102E040F0010001E079
:1029100040F00200641C002AEFD100252A290ED0C5
:102920002178A1F130020A2A11D205EB850201EBD0
:102930004205641C303DF1E740F00400EAE7D9F8B5
:1029400000100B1DC9F800300968641C0D44217883
:1029500000232E290BD114F8011FA1F130020A2AFD
:1029600005D203EB830201EB4203303BF3E76C2912
:102970000DD068290BD0692921D00BDC252918D06E
:10298000582931D063290ED0642915D117E014F8E5
:10299000011FECE7702969D0732932D075291BD04B
:1029A000782909D120E0D9F80000011DC9F80010EC
:1029B00001784046FEF7DEFB641C90E76CE0D9F836
:1029C00000100A1DC9F800200968CDE900500A224C
:1029D0004046FEF79FFDEFE7D9F800100A1DC9F841
:1029E000002009680A2206E0D9F800100A1DC9F87B
:1029F000002009681022CDE90050404600F05AFE40
:102A0000DAE7D9F8001000270A1DC9F800200E687F
:102A1000C00705D112E04046761C7F1CFEF7AAFBDA
:102A200031780029F7D104E0202140466D1EFEF7E1
:102A3000A1FBBD42C0D9002DF6D1BDE74EB1304655
:102A4000FDF7D8FC074604E0202140466D1EFEF746
:102A500091FBBD4206D9002DF6D103E04046761C1D
:102A6000FEF788FB31780029F8D1A5E7D9F80000F6
:102A7000011DC9F80010056830214046FEF77AFBB9
:102A800078214046FEF776FB08200021CDE90001C1
:102A9000034610222946B0E7BDE8FC8770B541EA3D
:102AA0004201DDE904564FF0A04441EA830141EAC6
:102AB000052104EB800041EA0641C0F8001770BD13
:102AC00070B541EA4201DDE904564FF0A04441EA05
:102AD000830141EA052104EB800041EA0641C0F888
:102AE000001770BD1CB500220B46009211460192E2
:102AF000FFF7E6FF1CBD1CB5002100910B4601222B
:102B000001911146FFF7DCFF1CBD01224FF0A043ED
:102B1000824011B1C3F808257047C3F80C257047EF
:102B200070B5184A0024D2F81034194609E00D7A1D
:102B3000A54205D1641C0A2CF7DB4FF0FF341FE0DF
:102B400049680029F3D1611C1AD00472D2F810141C
:102B500031B149684160D2F81014486000250BE09B
:102B60000021C2F810044160F8E700231A46294604
:102B7000204600F015FA6D1C00F008FAA842F4D8BF
:102B8000204670BD641600207047FDF761BE704797
:102B900008B5034A00924023024A00F005F808BD38
:102BA000F332000064150020F0B595B01C461546C0
:102BB0000F4608461A9E00F0CBFA182109A8FDF727
:102BC0000EFC0E96CDE909540023082203A93846CD
:102BD00000F0D8FA059806900498ADF81C00002083
:102BE0008DF820000398082600F00300012802D089
:102BF00002281DD03CE003983346850AC0F3C2008A
:102C00008DF81E0003980FA9C0F380008DF81F00F7
:102C10000398C0F38314A200384600F0B3FA09A861
:102C2000009006AB22460FA9284600F0EDF91FE000
:102C30000398840DC0F3C2008DF81E000398C0F302
:102C400080008DF81F00082C01D2254600E00825E1
:102C500033462A460FA9384600F094FA2E44641BE6
:102C600009AB06AA29460FA800F00CF9002CEAD1FE
:102C7000384600F076FA15B0F0BD0000084A012988
:102C800002EBC00005D0022903D0032903D0042998
:102C900003D00020704700797047407970470000EA
:102CA0008C39000010B5FFF770FF04210348FFF7CF
:102CB00037FF02490120487210BD000018000020B3
:102CC0002DE9FE4FFEF766FA10B10020BDE8FE8F39
:102CD00063480021C0F81414D0E9014604EA060153
:102CE00000EB81014FF000090AE000BFC1F3891237
:102CF00002EB9151641C0C4404EA060100EB8101D3
:102D0000C9688A07F2D000216A46804604EA0600B4
:102D100008EB8000641CC06842F82100491C0229AD
:102D2000F4D3009800F00300022800981CD0C0F3F0
:102D30008311062900D3062161F389100090C0F3A6
:102D40008310801C8100474800F0B9F9070075D056
:102D500000F0FEF94B4608226946384600F018FAA2
:102D600009F10809002557E0810D50228A46B2EB8F
:102D7000905F00D850210D4665F39F5000900831B8
:102D8000384800F09CF9070058D000F0E1F94B46B4
:102D900008226946384600F0FBF904EA0601701A79
:102DA0008000001D09F1080B854220D92C4E0C36FD
:102DB00030B1C2B208EB8101281A91460C3104E00F
:102DC0003146EAB2002691463046C5B25B463846E7
:102DD00000F0DEF90BEB090326B12A4631463846EE
:102DE00000F0D6F90AF1030004EB90041AE008EBB6
:102DF00081015B462A4638460C31F1E704EA0600B9
:102E000008EB80014B46042238460C31641C00F06C
:102E1000BFF909F104096D1C0098C0F38310A842A2
:102E2000ECD85FB11048FFF751FAD8F81054464675
:102E300005B140B1384600F094F97460FEF7AAF984
:102E400080F0010042E7687A012804D12A68284608
:102E50003946126890476D68002DF4D1EAE700000A
:102E600064160020C4370000781A002000231A4698
:102E700000F054BA08B5012300926A4600F04EFAF9
:102E800008BD00002DE9F0470E4680461C469246DC
:102E900008293ED894F80C9000202073194610465B
:102EA00000F0C4F90025B54206D218F805201AA191
:102EB0002046FFF7EDFC03E019A12046FFF7E8FCF0
:102EC0006D1C082DEFD317A12046FFF7E1FC00256C
:102ED000B54210D218F80570FDF764FA0068C05DBD
:102EE00010F03E0F01D03A4600E02E220EA12046FF
:102EF000FFF7CEFC03E00DA12046FFF7C9FC6D1CD7
:102F0000082DE5D301222146504600F071F984F8DE
:102F10000C90BDE8F08700002025303278000000DA
:102F2000202020007C00000025630000200000001D
:102F3000114810B5FF218160002101604160C0F897
:102F40001814C0F8141480F81C140C4800F007F989
:102F500000280FD10A480B490B4B401AC10800202A
:102F600005E000BF00EB400223F82200401C88422D
:102F7000F8D3002010BD000064160020C437000004
:102F8000BC3900008C390000A80000200248034929
:102F9000401AC00870470000BC3900008C3900009E
:102FA0001FB51146002443B901A8FEF7C9FE20B998
:102FB0000348019900EBC100847904B0204610BD9C
:102FC0008C39000013B56846FEF7BAFE08B1002040
:102FD0001CBD0248009950F831001CBD8C3900001E
:102FE00070B508480125D0F8104480F81C5405E05D
:102FF000657221682046496888476468002CF7D1CB
:1030000070BD0000641600202DE9FF4781460C9D2D
:1030100000200C462F7B28739846164629461846F2
:1030200000F004F9072E42D2DFE806F004090F167B
:103030001F2A360049462846FFF72AFC37E0494652
:1030400028462268FFF724FC31E0D4E900234946F2
:103050002846FFF71DFC2AE0A0680090D4E9002371
:1030600049462846FFF714FC21E0D4E90201CDE9E6
:103070000001D4E9002349462846FFF709FC16E081
:1030800004F1080007C88DE80700D4E90023494689
:103090002846FFF7FDFB0AE004F108000FC88DE8A1
:1030A0000F00D4E9002349462846FFF7F1FB002230
:1030B0002946404600F09CF82F73BDE8FF872DE9B4
:1030C000F041058A80462D1F4819C01CB0FBF5F061
:1030D000C6B24046FFF707F9041E19D00020207140
:1030E00001206071E58000272546761EC4F8008027
:1030F0000BE04046FFF7F7F860B16179491C617158
:10310000286005467F1CC0F80080B742F1D32046F6
:10311000BDE8F081204600F002F80020F8E72DE934
:10312000F041457901466B1E002201E00968521CFE
:103130009A42FBD30F680146002605E038460C682A
:10314000FFF7F0F82146761CAE42F7D3BDE8F081D8
:1031500008B501216A46001DFDF7A9F808BDFFF773
:10316000F6B838B50446001D01216A46FDF7ACF8F3
:10317000009810F0FF0F04D12046BDE83840FFF75B
:10318000CEBF38BD38B501240094FEF79DFD38BD93
:1031900038B500240094FEF797FD38BD002802D111
:1031A00001490120086070470050004008B5002127
:1031B00001600068009008BD4058002800D0012040
:1031C000704708B5002242504058009008BDD0F822
:1031D0000403084000D0012070474058002800D068
:1031E0000120704708B5002242504058009008BDA9
:1031F00010B50C46C17949B11AB109A12046FFF7B3
:1032000047FB2046BDE81040FFF74FBB007A00287F
:10321000F3D0044804A102682046FFF739FBECE72D
:103220000D0A0000480000202573000070B5044618
:10323000C0790D4600281CD1207A50B1A179A08810
:10324000FFF71CFD0B4951F820200BA12846FFF782
:103250001FFBA0880021FFF7B5FE03460549A079B2
:10326000143951F820202846BDE8704003A1FFF72B
:103270000FBB70BD48000020257300003C25733E45
:103280002025733A2000000070B50546C87D0C4625
:1032900000284FF4847128460AD0FFF792FFD5F832
:1032A0001805627EE1688854607E401C607670BDBF
:1032B000FFF787FFD5F8180570BD1FB501238DF8FE
:1032C00000308DF808100192D0E90012684690474E
:1032D0001FBD10B5044600684FF49271FFF771FFEF
:1032E0004FF484712068FFF76CFF206801210160B2
:1032F00010BD2DE9F04114000F460DD000250A261F
:10330000791922460020FDF7A5FA0544241A08B9C8
:10331000761E01D0002CF3D1BDE8F0812DE9F843F1
:10332000DFF88C800446914698F81C04D8F80850C1
:103330000F461E46002838D169461846FDF7F0FEB4
:10334000002832D00098C44600EA050108EB81024B
:1033500052F80C1F21F00301491C401C1160E306C8
:1033600002D541F0040101E021F0040164F3C5013C
:1033700066F3891167F39F21116000EA0501220CB1
:103380000CEB8101401CCA60009000200BE000BFE4
:10339000009959F8203001EA05020CEB8202491C21
:1033A000D360401C0091B042F2D3BDE8F883000026
:1033B0006416002070B50C4605464FF48E71FFF779
:1033C00000FFA18AA068415CA08A401CA082C5F8C9
:1033D0001C1570BD1FB500228DF800208DF8081057
:1033E000816801918275D0E90012684690471FBD3F
:1033F0000178022901D0012902D14068FDF7C6BC3D
:10340000704700007CB50178244D81B301290BD0B1
:1034100002292BD18DF80010C068691C019001228F
:10342000C81DFFF787F82EE0406801781C48FDF7BB
:10343000D7FC1B4C012618B18DF80060019006E006
:10344000A068E168814205D000208DF8000069681D
:1034500068468847A068E168081AA188884207D8AA
:103460000E490122491CC81DFFF764F87CBD01E02C
:10347000AE70FBE70A4809491030FDF796FC30B101
:1034800003208DF80000696868468847EEE7034925
:10349000012201F10800FFF769F9E7E704000020C5
:1034A000441500202DE9FF470C4605464FF40071F6
:1034B000FFF78DFE01274FF40178002618B34FF473
:1034C000927949462846FFF777FEE0B149462846FB
:1034D000FFF777FEC5F80883A07E00B96F60022071
:1034E0008DF80000D5F88004C5F880040390E07DD5
:1034F0008DF80800E0680190E6752676D4E90012A0
:103500006846904727E004212846FFF760FE10B385
:103510004FF484712846FFF74FFEE0B1214628465C
:10352000FFF7B2FEE07D617E884214D1207E38B183
:10353000617EE268E0752069E0602676667607E0E5
:10354000A07E00B96F60C5F80883E675617EE26809
:103550002046FFF7B2FE4FF48E7841462846FFF72B
:103560002BFE88B1A08AA17D884204D2214628463C
:10357000FFF720FF08E041462846FFF722FEA17D25
:1035800011B12046FFF726FF4FF4A27841462846A6
:10359000FFF712FE002812D041462846FFF711FE21
:1035A000A07E00B12F60E07D002808D0E675617E26
:1035B000E26804B02046BDE8F047FFF77EBEBDE8F4
:1035C000FF872DE9FF410C464FF4927705463946B7
:1035D000FFF703FE0026C0B139462846FFF702FE7A
:1035E00002208DF80000D5F88004C5F8800403900F
:1035F000D5F83C058DF80800E0680190E675267660
:10360000D4E900126846904724E04FF488773946A1
:103610002846FFF7E2FDE8B139462846FFF7E2FD0C
:10362000D5F83C05C1B2E07D884213D1207E60B15F
:10363000E268D5F8000220F02000C5F80002207EE4
:10364000E0752069E060267601E0E675E2682046D4
:10365000FFF733FE4FF4A27739462846FFF7BDFD4A
:1036600068B139462846FFF7BDFDE07D38B1E67503
:10367000D5F83C05E268C1B22046FFF71EFE4FF4C4
:10368000907631462846FFF7A8FD00280FD0314636
:103690002846FFF7A7FDA07D002808D0D5F84C05E7
:1036A00004B0C1B22046BDE8F041FFF793BEBDE8CB
:1036B000FF8100002DE9F05F8346DDE90A4A994663
:1036C00090460D460846012703E000BFB0FBF8F026
:1036D0007F1C4045FAD2B94500D94F465FEACA700F
:1036E00012D18CB15FEA8A7002D5B9F1000F01D016
:1036F000202607E0302605E031465846641EFDF7D7
:1037000039FD0CB1A742F7D35FF00106B9F1010F03
:1037100002D9A9F1010903E0B5FBF6F0404502D357
:1037200006FB08F6F2E7DFF83C9000BFB5FBF6F0C9
:1037300000FB165519F800105846FDF71BFDB6FBA7
:10374000F8F6002EF2D15FEACA7009D0002C07D03B
:10375000A74205D220215846641EFDF70BFDF5E770
:10376000BDE8F09FA8370000080000000600000038
:1037700005000000070000000100000000E0D70184
:10378000111213140D0E0F10FFFFFFFFFFFFFFFFBD
:10379000FFFFFFFFFFFFFFFF000000000000000031
:1037A0000000D6010701000030313233343536379E
:1037B0003839414243444546912B00008F2B00008D
:1037C000892B00002C000020240000202C00002069
:1037D000A4150020180000000090006A826B000011
:1037E000A4000C02E10300A4000C02E10400A40404
:1037F0000007D276000085010100000F2000F800CC
:10380000F80406E1040000000000000010000000C1
:103810001800000020000000280000003000000018
:103820004000000060000000800000000001000077
:103830000000000000000000000000000000000088
:1038400000000000000000000000000000404040B8
:103850004040404040404141414141404040404063
:10386000404040404040404040404040400502020F
:1038700002020202020202020202020202202020CE
:10388000202020202020200202020202020290902A
:103890009090909010101010101010101010101028
:1038A000101010101010101002020202020288887C
:1038B0008888888808080808080808080808080888
:1038C0000808080808080808020202024000000070
:1038D0004D3800007761726E696E670064656275CD
:1038E000670000001B5B313B33306D001B5B306DAC
:1038F000000000001B5B313B33316D001B5B313B33
:1039000033326D001B5B313B33336D001B5B313B4E
:1039100033346D001B5B313B33356D001B5B313B3A
:1039200033366D001B5B313B33376D00696E666F5C
:10393000000000006572726F72000000636C6F63BC
:103940006B000000756172740000000068617264B1
:103950006661756C7400000062616C6C6F630000DE
:103960006170700068616C5F6E666300BC39000056
:1039700000000020F0000000F60C0000AC3A00004F
:10398000F0000020B83E0000060D00003C390000A9
:103990000000000044390000000000004C39000025
:1039A00000000300583900000000000060390000EA
:1039B0000000030064390000000000000000000067
:1039C0000000000000000000002000400000000097
:1039D00000000000B83700000000000000000000F8
:1039E00000000000000000000000000000000000D7
:1039F0000000000034390000D43800002C390000E9
:103A0000DC380000EC380000E4380000F438000036
:103A1000FC380000043900000C39000014390000A3
:103A20001C390000243900000000000000000100E3
:103A30000000000000000000000000000000000086
:103A40000000000000000000000000000000000076
:103A50000090D003020301000001010101010202F4
:103A60000104000000000000000000000000000051
:103A70000000000000000000000000000000000046
:103A80000000000000000000000000000000000036
:103A90000000000000000000000000000000000026
:0C3AA0000000000000000000000000001A
:0400000500000201F4
:00000001FF
