:020000040000FA
:10000000302D002081050000890500004D0300000F
:100010008D0500008F050000910500000000000024
:100020000000000000000000000000009305000038
:1000300095050000000000009705000099050000EC
:10004000CB0800009B050000090B00009B05000089
:100050009B0500009B050000650600009B05000055
:100060009B0500009B0500009B0500009B05000010
:100070009B0500009B0500009B0500009B05000000
:100080009B050000D90800009B0500009B050000AF
:10009000FD0800009B0500009B0500009B0500007B
:1000A0009B0500009B0500009B0500009B050000D0
:1000B0009B0500009B050000000000000000000000
:1000C0009B0500009B0500009B0500009B050000B0
:1000D0009B0500009B0500009B050000250B000010
:1000E0009B0500009B0500009B0500000000000030
:1000F000000000009B050000000000009B050000C0
:1001000000000000000000000000000000000000EF
:1001100000000000000000000000000000000000DF
:1001200000000000000000000000000000000000CF
:1001300000000000000000000000000000000000BF
:1001400000000000000000000000000000000000AF
:10015000000000000000000000000000000000009F
:10016000000000000000000000000000000000008F
:10017000000000000000000000000000000000007F
:10018000000000000000000000000000000000006F
:10019000000000000000000000000000000000005F
:1001A000000000000000000000000000000000004F
:1001B000000000000000000000000000000000003F
:1001C000000000000000000000000000000000002F
:1001D000000000000000000000000000000000001F
:1001E000000000000000000000000000000000000F
:1001F00000000000000000000000000000000000FF
:10020000DFF80CD000F0FEF9004800470D22000096
:10021000302D002030B4044654E8000F0D4644E869
:100220000053002BF8D1156030BC704730B4044641
:1002300054E8000F40EA010544E80053002BF7D1D1
:10024000156030BC704730B4044654E8000F00EA33
:10025000010544E80053002BF7D1156030BC70470E
:1002600030B4044654E8000F80EA010544E8005326
:10027000002BF7D1156030BC704730B4044654E809
:10028000000F00EB010544E80053002BF7D1156087
:1002900030BC704730B4044654E8000FA0EB0105B1
:1002A00044E80053002BF7D1156030BC70470000C4
:1002B00030B4044654E8000F0D4644E80053002BC8
:1002C000F8D1156030BC704730B4044654E8000FD4
:1002D00040EA010544E80053002BF7D1156030BC1B
:1002E000704730B4044654E8000F00EA010544E8C2
:1002F0000053002BF7D1156030BC704730B4044672
:1003000054E8000F80EA010544E80053002BF7D1C0
:10031000156030BC704730B4044654E8000F00EB61
:10032000010544E80053002BF7D1156030BC70473D
:1003300030B4044654E8000FA0EB010544E8005334
:10034000002BF7D1156030BC70470000094B1EF040
:10035000040F1CBFEFF309801847EFF3088006492C
:10036000064A884201D8904202D88D464FF00000DC
:100370001847000029080000302D0020300D002013
:1003800030B450E8012F93B2C48923448489A34236
:1003900028BF1B1B0489A34202BFBFF32F8F00207D
:1003A00007E0C3EA020340E80134002CE9D14FF032
:1003B00001000A6030BC704750E8012FC2EA0242D7
:1003C00040E801210029F7D1704730B450E8022FEE
:1003D0001FFAA2F3C488A34202BFBFF32F8F0020ED
:1003E0000DE0C48923448489A34228BF1B1BC2EAB1
:1003F000034340E80234002CE8D14FF001000A60CA
:1004000030BC704750E8022FC2EA224240E8022185
:100410000029F7D17047034653E8022FD988B2EB81
:10042000324F4FF0000017BF92B241EA014142EA59
:10043000014104E05A68B2EB324F08BF012043E8A3
:100440000212002AE8D1704730B4044654E8000F85
:100450000D4644E80053002BF8D1156030BC7047BE
:1004600030B4044654E8000F40EA010544E8005364
:10047000002BF7D1156030BC704730B4044654E807
:10048000000F00EA010544E80053002BF7D1156086
:1004900030BC704730B4044654E8000F80EA0105D0
:1004A00044E80053002BF7D1156030BC704730B4DE
:1004B000044654E8000F00EB010544E80053002B0C
:1004C000F7D1156030BC704730B4044654E8000FD3
:1004D000A0EB010544E80053002BF7D1156030BCB8
:1004E0007047000030B4044654E8000F0D4644E85D
:1004F0000053002BF8D1156030BC704730B404466F
:1005000054E8000F40EA010544E80053002BF7D1FE
:10051000156030BC704730B4044654E8000F00EA60
:10052000010544E80053002BF7D1156030BC70473B
:1005300030B4044654E8000F80EA010544E8005353
:10054000002BF7D1156030BC704730B4044654E836
:10055000000F00EB010544E80053002BF7D11560B4
:1005600030BC704730B4044654E8000FA0EB0105DE
:1005700044E80053002BF7D1156030BC70470000F1
:100580000648804706480047FEE7FEE7FEE7FEE72D
:10059000FEE7FEE7FEE7FEE7FEE7FEE701090000F3
:1005A0000102000000487047D451000040EA0103F6
:1005B0009B0703D009E008C9121F08C0042AFAD219
:1005C00003E011F8013B00F8013B521EF9D27047DD
:1005D000D2B201E000F8012B491EFBD27047002285
:1005E000F6E710B513460A4604461946FFF7F0FF32
:1005F000204610BD421C10F8011B0029FBD1801AB7
:1006000070470000064C074D06E0E06840F001032B
:1006100094E8070098471034AC42F6D3FFF7F4FD96
:10062000785200009852000030B58C1810F8012B59
:1006300012F00F0301D110F8013B120906D110F896
:10064000012B03E010F8015B01F8015B5B1EF9D19F
:1006500001E001F8013B521EFBD1A142E6D300208C
:1006600030BD00002DE9F04F00268FB0DFF8B081DB
:10067000B14602964FF4807501243746039628460A
:1006800002F05AFF38B1D8F80403204203D02846BC
:1006900002F048FF26432D1D64007F1CADB2082FD9
:1006A000EDD34FF4BE74204602F046FF48B1204619
:1006B00002F038FF46F0004602AA0221002002F0B4
:1006C0001BFF584C16F0FF0F15D0012700253742AD
:1006D0000DD008EB8501D1F81005D1F81015C0F345
:1006E000052054F82520C1F3014102B190477F0055
:1006F0006D1C082DEBD3002E7DDA0020CDF828905C
:10070000411E0DF1080B08AACDF82C9042F82010DC
:10071000401C91460228F9D300252E46A01910F856
:10072000607F90F9000027F0C008401C49D008A95C
:10073000404601F0E3FE88B34FEA971A404601F0C5
:1007400047F954F820701FB1BAF1030F03D00FE03E
:10075000BAF1030F35D10AA84FEAD80208F007030F
:10076000815C4FF0010C0CFA03FC41EA0C0181544E
:1007700006A8CDF8188002F085FE069900EB8100EE
:10078000D0F8000702A9C0F301400690404601F0EE
:10079000B5FE0028069802D0022802D011E00328F6
:1007A0000FD1BAF1030F08D10698022832D00221E6
:1007B000404602F041FE6D1CEDB217B15146404675
:1007C000B847761C042EA9D3002D20D004AA0221FC
:1007D000002002F091FE00205A4604A952F8206041
:1007E00051F82030B34217D000200AAE4FEA090377
:1007F00051F8207000E00AE042F8207056F82070AE
:1008000043F82070401C0228F2D3002D84D10FB091
:10081000BDE8F08F0321CBE7401C0228DED3F6E7CA
:10082000006000404004002004468269084801211D
:10083000008801EB004007A103F03CF803F0F0F85A
:1008400002F05EFF0028FBD1204600F00BF800000C
:1008500020010020486172646661756C7420504309
:100860003A257800BFF34F8F05480168054A01F427
:10087000E06111430160BFF34F8F00BFFDE700004F
:100880000CED00E00400FA0500F01F020121914088
:100890004009800000F1E020C0F88012704700F0AD
:1008A0001F02012191404009800000F1E020C0F8C2
:1008B0000011704700F01F020121914040098000A3
:1008C00000F1E020C0F80012704710B501F0E4FE1E
:1008D000BDE8104001F076BF07480021C0F8401184
:1008E000C0F84411C0F84811C0F84C11C0F800110C
:1008F000C0F8041103F058BE0010014003F0C6BD5B
:1009000030B54FF080500022D0F830110123082973
:1009100002D1D0F8344114B1082909D00BE04FF0CE
:100920008041C1F80C21C1F8102168490A6005E036
:10093000D0F8344114B1082957D059E06449096806
:10094000644C21606249091D0968241D21606049C9
:1009500008310968241D21605D490C310968241D96
:1009600021605B4910310968241D21605849143108
:100970000968241D2160564918310968554C2034F6
:10098000216053491C310968241D216050492031E0
:100990000968241D21604E4924310968241D216005
:1009A0004B4928310968241D216049492C310968C7
:1009B000241D2160464930310968464C403421608D
:1009C000434934310968241D21604149383109689F
:1009D000241D21603E493C310968241D21603C49A9
:1009E00040310968241D216005E0D0F8344114B17C
:1009F000082904D006E0394C3749216005E0D0F8D9
:100A0000344114B1082904D006E0354CFB212160A3
:100A100005E0D0F8344114B1082908D00AE090F874
:100A200058423048016864F30301016005E0D0F8E2
:100A3000344114B1082905D00EE02B494FF4007061
:100A4000086002E0D0F8340130B928480168C907CD
:100A500002D06FF0010101602548016841F4700186
:100A60000160BFF34F8FBFF36F8F4FF01021D1F8AC
:100A70000002002803DBD1F80402002822DA1D4C12
:100A800023601D480368002BFCD01223C1F80032FC
:100A90000568002DFCD0C1F8043201680029FCD0A3
:100AA000226001680029FCD0BFF34F8F10487C38CA
:100AB0000168124A01F4E06111430160BFF34F8FF6
:100AC00000BFFDE70F490E48086030BD3805004003
:100AD0000404001020C50040488103008C560040EB
:100AE00018F50040E40E004040960240000400402B
:100AF00088ED00E004E5014000E401400400FA054F
:100B00000090D003EC0000200448017F0448002935
:100B1000024901D003F05DBE03F0CCBDA804002063
:100B2000002000402DE9F05F5448D0F80453002421
:100B30002E464FF0010913E096FAA6F0B0FA80F7BE
:100B4000B80000F58070804603F0EEF828B140460A
:100B500003F0F2F809FA07F0044309FA07F08643B4
:100B6000002EE9D102F048F9002869D0444AD07833
:100B7000F0BBA00264D5434940F2A978C1F80080D7
:100B8000081D036813F0FF0C02D0036803EA0C0C85
:100B900040F2AA7AC1F800A0036813F0FF0301D065
:100BA0000668334040F2AB7BC1F800B0066816F02F
:100BB000FF0601D007683E4040F2AC770F6007683F
:100BC00017EA0C0709D0D2F810C04CEA070CC2F89B
:100BD00010C0C1F800800760076840F2AD770F6071
:100BE00007681F4009D0136943EA0743136100E017
:100BF00026E0C1F800A00760036840F2AE730B6006
:100C0000036833400BD0DE0701D044F40004DE0655
:100C100001D544F00104C1F800B003600068106918
:100C200030F0011102D005F080710C4310F0011F6B
:100C300006D0690504D520F0011044F480641061E9
:100C4000C4F3C05624F400044F46DFF83C8009E0AA
:100C500094FAA4F0B0FA80F558F82500804707FA16
:100C600005F08443002CF3D103F0F4FE002E03D0F2
:100C7000BDE8F05F01F05AB8BDE8F09F0070024097
:100C800060000020007802405050000002E008C8D8
:100C9000121F08C1002AFAD170477047002001E0F6
:100CA00001C1121F002AFBD170470000134C012123
:100CB000208801EB004012A102F0F8FD02F0B0FE26
:100CC00002F01EFD0028FBD10F480068C00700D0CD
:100CD00000BE2088032101EB00400CA102F0E6FDDC
:100CE000BFF34F8F0848E43801680D4A01F4E06112
:100CF00011430160BFF34F8F00BFFDE738010020B3
:100D0000466174616C000000F0ED00E048697420F9
:100D10007765616B2068616E646C6572000000002D
:100D20000400FA050EB500210091CDE901106A46D4
:100D300044F20100FFF7BAFF0EBD000070B5054692
:100D40000548446805E02946204600F049FE206831
:100D50000468002CF7D170BD1000002070B5084960
:100D6000054606204C6807E02946204600F038FE7C
:100D7000062803D121680C68002CF5D170BD000055
:100D80001000002010B500F0BFFEBDE8104002F0DA
:100D90001FB83EB514460D4600F0B6FE0021009582
:100DA000CDE90141694600F0A5F83EBD3EB51446C7
:100DB0000D4600F0A9FE00210095CDE901416946EC
:100DC00000F098F83EBD0000F8B5044600250FE09D
:100DD000002705E0007800F039FA08B11120F8BDCD
:100DE0003946781CC7B2304600F05EF80028F1D1D1
:100DF0002946681CC5B2204600F05FF80600E7D11E
:100E000000250DE0002703E00078214600F023FADA
:100E10003946781CC7B2304600F046F80028F3D1B6
:100E20002946681CC5B2204600F047F80600E9D103
:100E3000074800E0086801680029FBD10460054804
:100E40006946406900906068026820469047F8BD96
:100E500014000020184F00002DE9F04116464268AA
:100E60000D461C46526819469047020014D00021D6
:100E70000B4627680EE0501890F801C0AC4507D12A
:100E80009E4203D101782160BDE8F0815B1CDBB29A
:100E9000007801448F42EED80020F5E70148406811
:100EA000704700001000002042788A4201D80020DC
:100EB00070478278104408447047027A8A4201D809
:100EC0000020704701EB4101093008447047027A65
:100ED0008A4201D80020704701EB410109300844E3
:100EE0007047000002484078002800D00120704779
:100EF00010000020044A127822F08002052A01D056
:100F00000820704701F0FABE240000202DE9F843C4
:100F10003B4C0E46814691F800C006250323022172
:100F2000207800220127BCF10B0F44D2DFE80CF03F
:100F30004306080B431E352325272F0023703AE074
:100F400040F080000FE02E480021001D6A46FFF7A8
:100F50007AF928B12B480760BFF36F8FBFF34F8F2B
:100F6000207800F07F002070002524E0484600F043
:100F700079F805461FE02770F6E72270F4E722486B
:100F80002170006810F0010FEED02370ECE700062E
:100F900001D58220E7E72170E6E71949F0780831AA
:100FA0000B682BB10A6049689847050006D000E03D
:100FB0000E2502F047F82846BDE8F88303F0DCFC74
:100FC00010B102F002F8F6E7B0780028F3D10F482C
:100FD0000078082810D10D48001D007800070BD1BB
:100FE0000A480830007810F0F00F05D107480C309F
:100FF000007810F0F00FDED001F0E4FFDBE7000036
:10100000240000205C70024038040040E00F00F033
:10101000024A0146D2E9000210470000780300208E
:1010200070B50C46054601F0C7FFA84201D010205C
:1010300070BD0348D4E90012C0E90212002070BD5F
:1010400024000020064A127822F08002052A05D0EA
:10105000042A03D0032A01D00820704701F04EBEB5
:10106000240000203EB5054605208DF8000003242D
:101070000DF1010001F0BEFF9DF8012012F01F00EC
:1010800006D0012823D002282ED003283DD11AE013
:10109000130628466946C2F3411303D51BB903F072
:1010A000ABF808E02BB10624C2F3411002280AD0A5
:1010B0002BE003F0DBF804469DF80120062CC2F378
:1010C0004110F3D020E06846FFF748FE1BE09DF892
:1010D0000500694600F0DEF904001AD0062C14D190
:1010E000684600F05BFA0EE09DF8050040B18028EC
:1010F00006D0694600F08EF804000AD0062C04D110
:10110000684600F051F804461CB101F09BFF2046F0
:101110003EBD03F031FC10B101F057FFF7E701F0DD
:1011200051FFF4E7FEB5C08814460E46A04201D236
:10113000054600E01546844207D2802001F0ACFD50
:10114000B4FBF0F100FB114068B100200096CDE93E
:101150000150002000F0C6FA69468020FFF772FFB8
:10116000040002D006E00120F0E705498020FFF7E7
:1011700057FF0446002000F0B7FA2046FEBD0000ED
:10118000444F000008B14021016001487047000051
:10119000DC03002001480078704700002400002094
:1011A00001F0A8BC01F0C0BCF8B5044645798078D0
:1011B00020B1012817D0032818D10DE06846FFF7A9
:1011C000E1FF0646284601F07FFD308002223146CD
:1011D000601CFFF7A7FFF8BDB4F8030030B928463C
:1011E00001F066FD14E0B4F8030008B10620F8BD74
:1011F000284602F019FD012803D00121284602F0FB
:101200001FFD05F00F00082802D2284601F05EFD00
:101210000020F8BD10B50C4600F00AF8006828B1AF
:1012200041680A682146BDE810401047102010BDF3
:10123000010600F00F0001D5034901E002494831E1
:1012400001EBC000704700003003002010B5FFF72D
:10125000EFFF006810BD10B50C46FFF7E9FF046012
:101260001CB161680968416010BD0021FBE7000006
:1012700038B50B4D04466946E86901F0B4F800281A
:101280000CD0216801606946E86901F0CDF801469B
:1012900004480268002A01D02046904738BD00006B
:1012A000184F0000C003002070B50178694E054654
:1012B000062978D005DC77D2DFE801F07785A887AA
:1012C00095B164488039052900787BD2DFE801F0C8
:1012D0004B0332555D00604D012400BF55F83400CA
:1012E00018B144F0800001F055FC641CE4B2092CF4
:1012F000F4D3594D0124483555F8340010B1204637
:1013000001F048FC641CE4B2092CF5D35348FFF704
:101310007FFE5248FFF712FD092003F065FDB0681B
:1013200018B94D489030007A00B1012001F08EFECE
:10133000012067E001F0AEFE002003F07BF8474893
:10134000401CFFF7FBFC4548401CFFF761FE0A20EC
:1013500003F04AFD307800F0ABF9002832D0BDE848
:10136000704001F037B9052803D0062803D00728BC
:1013700028D1022046E0082044E0032822D101F0D1
:10138000A7FE00281ED004203CE0032805D101F070
:101390009FFE10B1042003F04DF801F0E1FE00289B
:1013A00010D006202EE03FE00CE0002003F01CFDF2
:1013B000B46805E02946204600F012FB2068446826
:1013C000002CF7D170BD022000E0052003F032F8B8
:1013D000032003F009FD2846FFF71AFE2846BDE862
:1013E0007040FFF7ABBC032003F0FEFC1B48801CE1
:1013F000FFF70EFE1948801CFFF7A0FC3078062886
:10140000B7D10720BDE8704003F014B8032003F003
:1014100011F8022003F0E8FC2846FFF78FFC28466D
:10142000BDE87040FFF7F4BDA878FFF701FFD0E9F1
:1014300000322946184690470028C3D0A8780107F3
:10144000C0D000F00F010829BCD2BDE8704001F007
:101450002FBC00001000002030030020294F0000A6
:10146000FFF706BF38B5074C6946E06900F0D1FFC9
:10147000002806D0FFF718FF6946E06900F0BEFFBC
:10148000012038BD184F00000148FFF7F1BE0000F1
:10149000184F00002DE9F04107461048884644687F
:1014A00016E0267A00250FE029462046FFF705FDC5
:1014B0000078B84206D16068414602682046BDE81F
:1014C000F04110476D1CEDB2B542EDD320680468C1
:1014D000002CE6D11020BDE8F081000010000020B3
:1014E0002DE9F843284E0446042384222549F06957
:1014F00000F066FF10B10320BDE8F88301F0AAF800
:10150000224801F007FD0028F6D12148B4B194E843
:101510000E00143080E80E001E490020087048605C
:1015200088601B4848217C38FFF759F81848482143
:101530003438FFF754F8184D002411E006F120016B
:101540000EC9E6E7002703E000782946FFF783FE8F
:101550003946781CC7B24046FFF7A6FC0028F3D1F5
:101560002146641CE4B22846FFF7A7FC5FEA0008A6
:10157000E8D170680090686869460268284690471C
:10158000BAE70000AC020020184F00006114000010
:10159000AC03002010000020784F000038B504464E
:1015A000807808B1062038BD6846FFF7EBFD01469C
:1015B000002008800222601CFFF7B4FD38BD2DE931
:1015C000F04100240F468046067A25460AE0294667
:1015D0004046FFF772FC044600787979884203D0D0
:1015E0006D1CEDB2B542F2D314B16778002519E055
:1015F0000620BDE8F08129462046FFF755FC064647
:10160000007802F011FB012803D03078012102F0AC
:1016100017FB307800F00F01082901D201F056FBCA
:101620006D1CEDB2BD42E6D30020E2E7064A127817
:1016300022F08002052A05D0042A03D0032A01D013
:101640000820704701F0ECBA24000020074803E0AE
:10165000016811F0010F07D00168C1F340010029B2
:10166000F6D00348FFF704BE70470000380400407E
:101670001D4F0000034808B5806800906846FFF7DA
:10168000F7FD08BD184F0000074918B1052803D31E
:101690000020704708687047044A105C0028FAD0A0
:1016A00051F82000704700003C0000200850000066
:1016B000092808D2DFE800F0070705070705050538
:1016C00005000120704700207047092808D2DFE894
:1016D00000F0070705070707070705000120704707
:1016E0000020704700F002B800F008B872B6024857
:1016F0000168491C016070478800002003490868A0
:10170000401E086000D162B67047000088000020CB
:1017100070B5054608680C46411C04D001F0CEFEA9
:10172000206801F07FFE6068411C02D0002101F0BA
:1017300070FE28791F4901EB40102968007F0028BE
:10174000A069C1F8240523D0607D227D296810435B
:10175000C1F86C05D4E900122868C0F80C15C0F86F
:10176000142522E0A068411C02D0002101F051FEA6
:10177000E068411C04D001F0A1FEE06801F052FED7
:10178000D4E902122868C0F80825C0F8101570BD09
:10179000607D217D2A680843C2F86C05D4E90012F7
:1017A0002868C0F81425C0F80C15207D0128D9D070
:1017B00070BD0000A804002010B50A7800240B2A90
:1017C00014D2DFE802F01314141413060A141414CC
:1017D000140002F001FC044609E08978090601D5ED
:1017E000022100E0012103F0F9FA00E0062420467E
:1017F00010BD42690A6000697047000030B5026898
:10180000044685B08878507208799072C878D07292
:101810008879107348795073B1F80700D08101209E
:1018200002F8080F487800F01F00022801D10320B9
:10183000107000200190029002F108000090D08802
:1018400001900020FFF74EFF69460020FFF7FAFBEA
:10185000050008D1074803A90068CDE9030400206A
:10186000FFF7DEFB05460020FFF73EFF05B02846E8
:1018700030BD0000F850000010B518B9084600212E
:1018800003F0ACFA002010BD102802D31038C0B20B
:10189000704740F0800070477CB50024064E254616
:1018A0000022305D032300951146019501F076FD7D
:1018B000641C042CF4D37CBD144F0000094908B506
:1018C000085C0090684601F0CFFDD0F80425009B2D
:1018D0000121994021EA0203C0F808351140C0F8FF
:1018E0000C1508BD104F00000249085C012101F0F1
:1018F000EFBD0000104F00000249085C002101F01C
:10190000E7BD0000104F00007CB50024084E2546BE
:101910000122305D009500231146019501F03EFD46
:10192000641C042CF4D3BDE87C4000F003B8000034
:10193000104F000010B500242046FFF7D5FF641CAF
:10194000042CF9D310BD00002DE9F041861C0C4693
:1019500001270020FFF7C6FE0F4801682160D0E98B
:101960000012891A82680446511AB51C07E000BFAC
:1019700000F004FCD4E90001401AA168091A491CCE
:101980008D42F5D82068304420600020FFF7ACFE7F
:101990003846BDE8F08100000C09002030B48268B0
:1019A0000468531C8360A154D0E901128A4202D317
:1019B00030BC01F0FABB30BC70470000034803C8DC
:1019C000814201D101207047002070470C0900209E
:1019D0000249084490F9300070470000400400209C
:1019E000426812681047000070B5084C050009D025
:1019F00010342168002907D008682060496828460B
:101A00008847F6E70834F4E770BD00002C04002096
:101A10002DE9F05F26484168F1B3DFF898B00E6811
:101A20008146DBF8004087688078E11B21F07F4524
:101A3000ED1CB0B9DFF880804FF48030C8F8440363
:101A4000C8F804031120FEF71FFF1120FEF727FF3F
:101A50004FF0010AC8F800A02F2000F075FD89F8AA
:101A600002A0B54200D23546124BE8193C3320F0B3
:101A70007F401860DBF800105A46091B21F07F41B7
:101A8000001B20F07F40C91C81420FD910681860EC
:101A90002F2000F059FD00E004E0BDE8F05F1120C8
:101AA000FEF708BFBDE8F05F02F03CBABDE8F09F6A
:101AB0007400002004150140001001400E4910B5CB
:101AC0000A784C780023A24212D0521CD2B20A707B
:101AD000022A00D10B70084A0B780C3252F82320EE
:101AE00002608868104420F07F408860012010BDAB
:101AF0000360002010BD0000740000206FEA006148
:101B0000C90F61F31F10704710B50121FFF7DFF90E
:101B10004178002901D8002001E08178084400784C
:101B200010BD00000106044900D5903100F00F00FF
:101B300001EB001070470000C8040020704700004F
:101B40000C4910B50020C8708020FFF7EBFF817BA7
:101B500003290ED0006800280BD18020FFF7CEFFAC
:101B6000012181400348C943BDE810400C3000F01A
:101B700073BC10BD60000020812002F08FB882206D
:101B800002F08CB8832002F089B8842002F086B875
:101B9000852002F083B8862002F080B8872002F00A
:101BA0007DB8000038B5104D00208824E87020462C
:101BB000FFF7B8FF817B032914D00068002811D1FA
:101BC0002046FFF79BFF01218140C94305F10C002E
:101BD00000F042FC0548806800908DF8024069687A
:101BE0006846884738BD0000600000201C50000097
:101BF00038B50F4C0020E070FFF794FF817B03297C
:101C000001D0006818B1BDE8384001F0DEB900200D
:101C1000FFF774FF012181400548C9430C3000F0F3
:101C20001BFC0448C068009061686846884738BD5E
:101C3000600000201C500000012002F04DB802207E
:101C400002F04AB8032002F047B8042002F044B87A
:101C5000052002F041B8062002F03EB8072002F04D
:101C60003BB8000038B5104D00200824E87020462D
:101C7000FFF758FF817B032914D00068002811D199
:101C80002046FFF73BFF01218140C94305F10C00CD
:101C900000F0E2FB0548406900908DF80240696859
:101CA0006846884738BD0000600000201C500000D6
:101CB00070B5154804680460BFF36F8FBFF34F8F92
:101CC000BFF36F8FBFF34F8F01F096F838B10F4914
:101CD000086920F0011200F0011014430861012688
:101CE0006CB194FAA4F0B0FA80F52846FFF7CCFD69
:101CF00006FA05F18C43294602F0F4FFF0E7BDE84F
:101D0000704002F0A7BE00006C740240600000202A
:101D100010B5054CA078FFF7F1FE0146A078BDE8AC
:101D2000104002F0DFBF000060000020F8B51E4840
:101D3000D0F8001221F00401C0F800121B4800681E
:101D40001B4DC6B2A878FFF7D9FE012404FA00F1B2
:101D50002889EA68C04380B21043014202D0A878C3
:101D600002F03EFF06F08000A8700020FFF7C6FEDC
:101D700004FA00F68020FFF7C1FE04FA00F00643E3
:101D80000B48F1430C3000F067FB8020FFF7B6FEF4
:101D90008440A86804430748AC60006A0090696802
:101DA00068468847F8BD0000007002408074024019
:101DB000600000201C50000038B5002000900B4847
:101DC0000068ADF802008820FFF798FE012505FAAB
:101DD00000F40820FFF792FE054985402C438868EF
:101DE00004438C6049686846884738BD20750240C6
:101DF0006000002070B50B4804680460BFF36F8F6B
:101E0000BFF34F8F012609E094FAA4F0B0FA80F5F1
:101E10002846FFF739FD06FA05F08443002CF3D17C
:101E200070BD000068740240F8B51848056828467F
:101E300001F08EFFBFF36F8FBFF34F8F144E154C21
:101E4000E80506D501206070706A009061686846F8
:101E50008847A8054FF0000705D56770B06A009065
:101E600061686846884768050ED5607800280BD001
:101E70006770094901200860582001F07BFFF06A73
:101E80000090616868468847F8BD00000074024011
:101E90001C500000600000200875024038B5064C58
:101EA00000206070A07002F0FDFE044840680090C1
:101EB00061686846884738BD600000201C500000FB
:101EC000054910B501200860012000F02FFB002813
:101ED000FAD10249487010BD040000402C040020D3
:101EE00010B5174A69B101291CD152681549164825
:101EF000FEF75CFF002815D1BDE810400220FFF777
:101F0000DDBC006810F8081F69B1012911D0022951
:101F100008D0032906D14178012903D1806820F037
:101F20007F40906010BD41780129FBD1517801724A
:101F300010BD41780129FBD1007A507010BD00001E
:101F400000000020EC010020E84E00002DE9FC5FBD
:101F50000E008346DDE90C47C6F100009846924624
:101F6000814600D40846012503E000BF90FBFAF04B
:101F70006D1C5045FADAA84500D9454624B1002E1B
:101F800001DB780700D5641EB80702D5B8F1000F51
:101F90000AD0F80708D13CB1A54205D22021584605
:101FA000641EFFF7FBFCF6E7002E02DA4E462D21F9
:101FB00002E0780703D52B215846FFF7EFFC07F026
:101FC000030002280BD1B8F1000F08D13CB1A542A3
:101FD00005D230215846641EFFF7E0FCF6E7CDE954
:101FE0000047434652463146584602F06BFCBDE876
:101FF000FC9F000070B50E460446007918494FF466
:10200000A27501EB4010017F2068A1B14FF48871E7
:1020100001F004FE4FF49071206801F0FFFD4FF4D1
:102020009271206801F0FAFD2946206801F0F6FD62
:102030000C49206809E04FF48E7101F0DEFD29465D
:10204000206801F0DAFD08492068C0F80413206810
:1020500000F085FB3146BDE8704000F054BB000045
:10206000A80400201003020080000200026813464A
:1020700002E08A4204D01268002AFAD10B600160A3
:10208000704700002DE9F047394E002780463D4655
:10209000DFF8E090D6F804A057E003D00446D0F86B
:1020A0001C8035E099F8002002EB4201521CD2B2AC
:1020B00089F8002009EBC10199F80230091D9A4204
:1020C00001D189F8005048680A780446012A12D0E4
:1020D000022A02D0032A3BD108E002F035FA00B10F
:1020E0000127257434E00574C06900E07068002899
:1020F000F9D170602CE0207C50BB88686060C868B3
:10210000A0600869E0604869A061F07800B165608E
:102110006268B168184B501A20F07F40984202D292
:10212000A168084406E0881AA16820F07F40814237
:1021300002D9081A206000E0256065600120A560D2
:1021400020742046E56102F0E1F9B8F10000A4D165
:1021500099F8001099F801008142A3D117B971686C
:10216000514502D00120BDE8F0870020FBE70000C8
:102170007400002000070020FFFF7F002DE9FE43D0
:10218000214DD5E9014704EA070005EB800605F576
:1021900083600C3600F059F905F21440804600F0D7
:1021A00054F90AE0C0F3891101EB9050641C044417
:1021B00004EA070005EB80060C3630688107F1D091
:1021C0000020694604EA070205EB8202641CD2681B
:1021D00041F82020401C0228F4D3009800F00300AE
:1021E000022800980AD0C0F383100444404600F04F
:1021F00026F9002800D06C60BDE8FE83032101EBC6
:10220000905004EB9004F1E70C09002000F022FA52
:1022100008B1FEF787FD002000F0ACFA08B1FEF728
:1022200081FD002001F0A4FB08B1FEF77BFD01F069
:1022300059FA1D480321008801EB00401BA101F061
:1022400035FBFFF761FBFFF727FB1B48FFF748F95A
:1022500008B1FEF767FD18483838FEF7B5FD08B13C
:10226000FEF760FD14481C38FEF7AEFD08B1FEF71E
:1022700059FD114800243C3800F0ECFA08B1FEF793
:1022800051FD0E4DFFF7EEF80028FBD1287884426F
:1022900006D0041E02D0FFF7D9F901E0FFF7EAF9F2
:1022A00001F02EFA20BFEDE73801002048656C6C84
:1022B0006F20555342210000044F00000000002011
:1022C0002DE9F047C7880446181D16468946B0FB1D
:1022D000F7F1B0FBF7F207FB12009A193A44D21C4F
:1022E000B2FBF7F2DDF820A001E02468491E0029C6
:1022F000FBD13D1A8846B54216D818E0BAF1000F56
:1023000005D0211809EB08002A46091D04E02044E5
:1023100009EB08012A46001DFEF748F90020246851
:10232000761BA844B74201D9354600E03D46002E51
:10233000E4D1BDE8F087000021B1022914D10320C7
:10234000FFF7BCBA00680F4910F8082F6AB1012ADC
:1023500011D0022A08D0032A06D14278012A03D1DB
:10236000806820F07F40C86070474278012AFBD126
:102370008978017270474278012AFBD1007A88700F
:10238000704700000000002030B50B46024601F007
:102390001DFB63B10021094C0CE000BF01EB4103C0
:1023A00004EB830315685B88AB4202D11160002007
:1023B00030BD491C8142F1D3052030BDF000002022
:1023C00010B531B1B2FBF3F403FB14241CB10920A6
:1023D00010BD0E2010BD016000214160816082812E
:1023E000C381084610BD70B50C460546FDF7C8FF11
:1023F000002802D021882868084470BD10B50A88DA
:1024000049888A4203D1FDF7FDFF012010BD00205D
:1024100010BD70B50C460546FDF7D7FF002802D069
:1024200061882868084470BD10B50A8849888A42C6
:1024300003D1FDF7C1FF012010BD002010BD08B57C
:1024400000216A46FEF767F808BD08B501216A4613
:10245000FEF754F8009808BD08B56A46FDF741FF3D
:10246000009808BD70B5044600252846FFF73AF9E4
:1024700021686268086890420ED9401E08600178A1
:10248000238AE26801FB0325227A2168101AC0B270
:102490000A79824200D208710020FFF725F9284608
:1024A00070BD70B505460C460020FFF71BF9E868C3
:1024B000298A201AB0FBF1F12A681068431C1360C6
:1024C0000170BDE870400020FFF70EB910B530B1C3
:1024D000017A42680368891AC9B21A6006E00E20C0
:1024E00010BD03681A68541C1C601170491EC9B2E3
:1024F000F7D2006800210171084610BDC20800F043
:1025000007030120895C98400840704700F1804033
:102510000068002800D00120704708B500F1804015
:10252000002101600068009008BD000005490968AD
:1025300040F4803001F00111814201D10120704747
:10254000002070470C04004000283ED01F49204A5C
:10255000096800BF00BF00BF00BF00BF00BF00BFD1
:1025600000BF91422FD000BF00BF00BF00BF00BF1F
:1025700000BF00BF00BF00BF00BF00BF00BF00BF63
:1025800000BF00BF00BF00BF00BF00BF00BF00BF53
:1025900000BF00BF00BF00BF00BF00BF00BF00BF43
:1025A00000BF00BF00BF00BF00BF00BF00BF00BF33
:1025B00000BF00BF00BF00BF00BF00BF00BF00BF23
:1025C00000BF00BF00BF0138C3D17047EC0000203E
:1025D0000024F40010B50020FFF784F80648416895
:1025E000491E4160406808B9FFF76AFCBDE8104029
:1025F0000020FFF779B800002C04002070B5144DBE
:102600000446687838B114B161680020884700201A
:10261000FFF768F813E00020FFF764F824B10C48D6
:1026200021460830FFF722FD686840B94FF48070FA
:10263000FFF773FF01208107C1F804030860686891
:10264000401C6860BDE870400020FFF74DB80000F6
:102650002C04002070B50E4C0025207808B185258B
:1026600013E00021A16061602161E1604FF0E02092
:10267000D0F80001012610F0010F03D1072100203E
:1026800000F041F8034806602670284670BD00003F
:102690002C040020180500402DE9F0414FF480770C
:1026A0003846FFF733FF0124104EA50748B13846DE
:1026B000FFF733FF0120C5F8080374700020FFF70F
:1026C00093F94FF482773846FFF720FF00280BD0AC
:1026D0003846FFF722FF0220C5F80803B470BDE8B2
:1026E000F0410120FFF780B9BDE8F0812C04002003
:1026F00000F01F02012191404009800000F1E0201C
:10270000C0F8801170474907090E002806DA00F06A
:102710000F0202F1E02282F8141D03E000F1E02232
:1027200082F8001400F01F0201219140400980004E
:1027300000F1E020C0F88012C0F800117047410994
:10274000890001F1E021D1F8001100F01F02012001
:102750009040014201D00120704700207047000BDB
:1027600040B270470121B1EB507F01D10120704789
:102770000020704770B5104C217809B1852070BDDC
:1027800000B90E480E4A0178C1F3400111600C49AE
:102790000078083900F0010008604FF0E020D0F820
:1027A0000001012510F0010F03D107210020FFF7E0
:1027B000AAFF2570002070BD5000002018500000B6
:1027C0008005004070B54FF08040D0F80443204DA4
:1027D000600706D54FF4847001F000FA08B168680C
:1027E0008047A00607D54FF48A7001F0F7F910B1C1
:1027F000A96800208847600607D54FF48C7001F067
:10280000EDF910B1A96801208847200607D54FF4DB
:102810008E7001F0E3F910B1E96800208847E00507
:1028200007D54FF4907001F0D9F910B1E968012093
:102830008847A0050AD54FF4927001F0CFF900281F
:1028400004D0E968BDE870400220084770BD000070
:102850005000002000B5024600F00EF8106838B1B4
:102860000449C8604FF080414FF46070C1F8040320
:10287000002000BD500000204FF080414FF46070F8
:10288000C1F8080301490020C860704750000020CB
:102890004FF0E02291699369CB1A23F07F43834282
:1028A000F9D3704701460448044A0068B0FBF2F0CF
:1028B0004843FFF7EDBF0000EC00002040420F004E
:1028C0004FF0E0206FF07F414161052101617047C9
:1028D0002DE9F04105460079164F904607EB40146C
:1028E0000E46E07E10B10820BDE8F081707F2077B1
:1028F0002846FEF70DFF5FEA08006060316921603D
:1029000003D0317F2846FFF775FB287907EB40108D
:10291000007F0028286801D0082100E00421C0F8C9
:1029200000150020E0752076A0750121E176A076E3
:10293000DAE70000A80400202DE9F04705460079F9
:102940003F4E904606EB40140F46207F18B10846D4
:10295000FFF708FF30B1284600F074F820B11120CD
:10296000BDE8F0871020FBE784F81680A7600027F9
:10297000A78228794FF0010806EB40143E46207FDD
:102980000028286825D04FF49079494601F046F98F
:102990004FF4AC7A5146286801F040F92868A17DCF
:1029A000A268C0F84425C0F848152868C0F8088017
:1029B0006068F0B94946286801F02BF98046514615
:1029C000286801F026F958EA0001F3D058BBA77532
:1029D0000FE04FF48E7A514601F00FF92868C0F8E5
:1029E00008802146286801F019FE61684FF4807064
:1029F00089B13046B4E75146286801F0F9F810B9BA
:102A0000A08A4845F7D1A08A484505D021462868C4
:102A100001F004FE00E08146A08AA17D8842EAD34D
:102A2000A08A484501D10F26D1E75146286801F018
:102A3000DFF80028F9D02868C0F80C80C7E700004C
:102A4000A80400200079044901EB4010807D002893
:102A500000D0012070470000A804002070B5044693
:102A600000791149002601EB401520682A7FC0F843
:102A70000065686888B1207901EB4010007F00286C
:102A8000206801D0094901E008498C39C0F80813D1
:102A90002068FFF764FEFFF72BFE204601F076F971
:102AA000EE766E6070BD0000A804002010030200E6
:102AB00003490248C1F80403704700000414800170
:102AC0000070024030B54C689C4204D2002545603D
:102AD0000968016007E043600D68E41A05604C6016
:102AE0000868184408609A4202D10CB1012030BD38
:102AF000002030BD10B500F0CDFA0849D1F804032C
:102B0000C1F80803064800210160BFF36F8FBFF3CF
:102B10004F8F0448C1700121017010BD0070024048
:102B2000007502406000002010B54FF4006420469C
:102B300001F00EF9134901200860BFF36F8FBFF356
:102B40004F8F114801680905FCD5204601F000F9B6
:102B50000E4940F2E37008604020091D0860BFF391
:102B60006F8FBFF34F8F074980201C3108600848E2
:102B700040F2FF1181600021C160C17081700221AB
:102B8000017010BD007502400074024000780240E0
:102B900060000020FEB5044600F00F0601064FF06D
:102BA000010505FA06F001D51A4901E01949091D88
:102BB0000A6802430A60BFF36F8FBFF34F8F20464E
:102BC00000F08EF81449C1F80403200721D0200634
:102BD0001FD40020FEF786FD2046FEF78FFF8540BC
:102BE0000E4881680D4385602046FEF79BFF054631
:102BF000082E07D2002000900190029069462046DE
:102C000000F07CF80320A873BDE8FE400020FEF72A
:102C10006BBDFEBD107502400070024060000020D8
:102C20002DE9F0410E460746FEF768FF05460020F5
:102C3000FEF758FD174C380704D1A078874201D021
:102C4000102421E02089E168C04380B208430121BB
:102C500001FA05F5284201D0112415E0384601F0AB
:102C600007F808B10F240FE03846FEF75BFF00219C
:102C7000816032680260726842608173E068054377
:102C8000E5600C4602F04EF80020FEF72DFD2046D0
:102C9000BDE8F0816000002010B5FEF743FF808999
:102CA00010BD10B50C46FEF73DFF848110BD00003D
:102CB000044940F480700860BFF36F8FBFF34F8FFB
:102CC000704700001875024000F0D2BF0349086049
:102CD000BFF36F8FBFF34F8F70470000187502402E
:102CE000010601D5044901E00349093100F00F0054
:102CF000095C012088407047DC5000002DE9F04756
:102D00000D460646FEF7FAFE80460020FEF7EAFC76
:102D1000284C300704D1A078864201D0102439E035
:102D20002089E168C04380B24FF00109084309FAE5
:102D300008F7384201D011242CE0304600F098FF0B
:102D400008B10F2426E03046FEF7ECFE06F00F0136
:102D5000330601EB41014FF0000225D5164B03EB82
:102D600081012B68B9EB537F2B7A4FEAC37302D1F1
:102D7000B3B1124B01E0ABB1114B036068CD81E8F8
:102D80006800C0E901128273E0680743E76000242D
:102D900001F0C8FF0020FEF7A7FC2046BDE8F08741
:102DA000084BEAE7084BE8E7034B6C3303EB810180
:102DB000064BE2E760000020E8050020DD2E000061
:102DC000752E0000B92E0000392E0000C52A000023
:102DD00000F00F00082805D305480068C10300D59E
:102DE00000207047034901EB8000D0F8A004704731
:102DF000C0740240007002400C480078082810D1CE
:102E00000A48001D007800070BD1084808300078F8
:102E100010F0F00F05D105480C30007810F0F00FDD
:102E200001D000207047012070470000E00F00F043
:102E300000487047C00600202DE9F0414D680C4E57
:102E400007460C46954200D915462A463046216869
:102E5000FDF7ACFBC7E900656068401B6060206857
:102E6000284420606068002800D00120BDE8F0817F
:102E7000C00600202DE9F0414C680E4F06460D4675
:102E8000944200D9144634B1224638462968FDF7E9
:102E90008DFB376001E00020306074606868001BC3
:102EA000686028682044286014B10120BDE8F081E2
:102EB0000020FBE7C00600204B68934200D9134670
:102EC0000A68C0E900234868C01A486008681844C6
:102ED00008604868002800D0012070474B68934282
:102EE00000D91346002B0ED0D1F80020C0E90023F2
:102EF0004868A0EB0300486008681844086005D0E3
:102F00004FF0010070474FF00002EFE74FF0000074
:102F1000704700002DE9F0410446FFF76DFF08B14E
:102F2000FFF7CEFC2CB11E49087820B10820BDE87F
:102F3000F0810720FBE74C60012000240870460266
:102F40004FEA040544F0800707F00F00082801D37A
:102F5000314600E040213846FFF7A3FE3846FEF731
:102F6000E1FD8573641C0560E4B28560092CE9D33A
:102F70005FF0000404F00F00082801D3314600E0A0
:102F800040212046FFF78DFE2046FEF7CBFD8573DE
:102F9000641C0560E4B28560092CEBD30020C6E711
:102FA0006000002003480078022801D30120704708
:102FB00000207047600000200148807870470000C2
:102FC00060000020502000F0D5BE10B5FFF714FFC0
:102FD00058B1EFF3108472B64C2000F0CBFE4C20B9
:102FE00000F0C8FE84F3108810BDBDE810404C20EE
:102FF00000F0C0BE00210160416011490968017004
:103000000F49091D096841700D49083109680C4ACA
:103010000C32126841EA02214180094910310968E5
:10302000074A1432126841EA0221818004491831AA
:103030000968034A1C32126841EA0221C1807047C4
:1030400080740240542000F095BE00000C4A10B578
:10305000002151700B4C10B9FFF7CEFE00B10A4CA5
:103060000A48C0F8044307212720FFF74CFB084912
:1030700001200860BFF36F8FBFF34F8F10BD0000BA
:10308000600000200714C0030714E0030070024032
:103090000475024010B52720FFF751FB002810D01F
:1030A00001F000FE074900200860BFF36F8FBFF3F7
:1030B0004F8F05498020C1F8800148170349C1F8A6
:1030C000080310BD0475024004E000E000700240F7
:1030D00010B500242046FEF705FB0C48407878B177
:1030E00001F0E0FD0A480168890509D40949012277
:1030F0000A600068800502D50020086000E0012415
:103100000020FEF7F1FA204610BD0000600000200C
:10311000007402402C75024003490248C1F80803BC
:103120007047000004148001007002403EB5044660
:10313000FEF7E4FC014601208840084989680842FE
:103140000BD004F00F00082807D200200090019057
:10315000029069462046FFF7D1FD3EBD6000002089
:1031600010B500242046FEF7BDFA0748407830B17C
:1031700000F0F8FD18B10549002008600124002086
:10318000FEF7B2FA204610BD600000202C75024008
:103190000FB408B50399002904D004AA00926A4626
:1031A00000F00FF801B05DF814FB10B5826804461A
:1031B000002A05D0D4E90403216898470020A060C4
:1031C00010BD2DE9FC4791460C00804676D014F8DE
:1031D000011B39B125290ED04046FEF7DFFB2078D0
:1031E0000028F4D198F80C00002867D04046BDE8CC
:1031F000FC47FFF7DABF0020012221782B291BD0E2
:103200002D2902D0302908D102E040F0010001E070
:1032100040F00200641C002AEFD100252A290ED0BC
:103220002178A1F130020A2A11D205EB850201EBC7
:103230004205641C303DF1E740F00400EAE7D9F8AC
:1032400000100B1DC9F800300968641C0D4421787A
:1032500000232E290BD114F8011FA1F130020A2AF4
:1032600005D203EB830201EB4203303BF3E76C2909
:103270000DD068290BD0692921D00BDC252918D065
:10328000582931D063290ED0642915D117E014F8DC
:10329000011FECE7702969D0732932D075291BD042
:1032A000782909D120E0D9F80000011DC9F80010E3
:1032B00001784046FEF772FB641C90E76CE0D9F899
:1032C00000100A1DC9F800200968CDE900500A2243
:1032D0004046FEF73BFEEFE7D9F800100A1DC9F89B
:1032E000002009680A2206E0D9F800100A1DC9F872
:1032F000002009681022CDE90050404601F0E2FAB2
:10330000DAE7D9F8001000270A1DC9F800200E6876
:10331000C00705D112E04046761C7F1CFEF73EFB3D
:1033200031780029F7D104E0202140466D1EFEF7D8
:1033300035FBBD42C0D9002DF6D1BDE74EB13046B8
:10334000FDF758F9074604E0202140466D1EFEF7C0
:1033500025FBBD4206D9002DF6D103E04046761C80
:10336000FEF71CFB31780029F8D1A5E7D9F8000059
:10337000011DC9F80010056830214046FEF70EFB1C
:1033800078214046FEF70AFB08200021CDE9000124
:10339000034610222946B0E7BDE8FC872DE9FF412E
:1033A0001C46DDE90A7815460E46684600F05CF8D2
:1033B00046EA450141EA840141EA072242EA08411E
:1033C000009A00EB8200C0F80017BDE8FF812DE9EC
:1033D000FF411C46DDE90A7815460E46684600F0B6
:1033E0005FF846EA450141EA840141EA072242EAE0
:1033F0000841009A00EB8200C0F80017BDE8FF8189
:103400001CB5002100910B4601220191FFF7DFFF5F
:103410001CBD1CB500220B46009211460192FFF71D
:10342000D6FF1CBD1CB5002100910B460122019165
:103430001146FFF7CCFF1CBD13B50C46684600F0E3
:1034400021F8009900EB8101D1F8002722F44032E5
:10345000C1F80027009900EB8100D0F8001741EA7D
:103460000441C0F800171CBD0168202902D24FF0AA
:10347000A040704701F01F01016001487047000043
:10348000000300500168202902D24FF0A04070478D
:1034900001F01F0101600148704700000003005067
:1034A0000168202902D24FF0A040704701F01F01AF
:1034B00001600148704700000003005001B56846F4
:1034C000FFF7EEFF009A01219140C0F8081508BDF2
:1034D00038B501240090684631B1FFF7C5FF009967
:1034E0008C40C0F8084538BDFFF7BEFF00998C40FE
:1034F000C0F80C4538BD00001CB5094C0144D4E9A6
:103500000034CDE900346C4606E000BF54F82030AA
:10351000D3F81035401C08C28142F7D81CBD00000A
:1035200010500000034908B50844002101600068FC
:10353000009008BD0060004002494058012800D0BA
:10354000002070470060004070B5184A0024D2F88F
:103550001034194609E00D7AA54205D1641C0A2CE5
:10356000F7DB4FF0FF341FE049680029F3D1611CFD
:103570001AD00472D2F8101431B149684160D2F8FF
:103580001014486000250BE00021C2F810044160CF
:10359000F8E700231A462946204600F021FA6D1C60
:1035A00000F014FAA842F4D8204670BD0C0900209F
:1035B000F0B595B01C4615460F4608461A9E00F019
:1035C000E7FA182109A8FDF70AF80E96CDE9095483
:1035D0000023082203A9384600F0F4FA0598069063
:1035E0000498ADF81C0000208DF8200003980826F0
:1035F00000F00300012802D002281DD03CE003980F
:103600003346850AC0F3C2008DF81E0003980FA947
:10361000C0F380008DF81F000398C0F38314A2004C
:10362000384600F0CFFA09A8009006AB22460FA951
:10363000284600F009FA1FE00398840DC0F3C20089
:103640008DF81E000398C0F380008DF81F00082C31
:1036500001D2254600E0082533462A460FA9384600
:1036600000F0B0FA2E44641B09AB06AA29460FA845
:1036700000F028F9002CEAD1384600F092FA15B093
:10368000F0BD7047012000F0EDBF000010B5044808
:10369000FFF7E4F9BDE81040002000F0E3BF0000B0
:1036A0009000002008B5034A00924023024AFFF729
:1036B0007FFF08BDAD3F00000C080020084A01292B
:1036C00002EBC00005D0022903D0032903D004294E
:1036D00003D00020704700797047407970470000A0
:1036E0009852000010B5FFF7CDFF04210348FFF703
:1036F0002BFF02490120487210BD000098000020F5
:103700002DE9FE4FFEF75AF910B10020BDE8FE8FFB
:1037100063480021C0F81414D0E9014604EA060108
:1037200000EB81014FF000090AE000BFC1F38912EC
:1037300002EB9151641C0C4404EA060100EB810188
:10374000C9688A07F2D000216A46804604EA06006A
:1037500008EB8000641CC06842F82100491C022963
:10376000F4D3009800F00300022800981CD0C0F3A6
:103770008311062900D3062161F389100090C0F35C
:103780008310801C8100474800F0B9F9070075D00C
:1037900000F0FEF94B4608226946384600F018FA58
:1037A00009F10809002557E0810D50228A46B2EB45
:1037B000905F00D850210D4665F39F50009008316E
:1037C000384800F09CF9070058D000F0E1F94B466A
:1037D00008226946384600F0FBF904EA0601701A2F
:1037E0008000001D09F1080B854220D92C4E0C36B3
:1037F00030B1C2B208EB8101281A91460C3104E0C5
:103800003146EAB2002691463046C5B25B4638469C
:1038100000F0DEF90BEB090326B12A4631463846A3
:1038200000F0D6F90AF1030004EB90041AE008EB6B
:1038300081015B462A4638460C31F1E704EA06006E
:1038400008EB80014B46042238460C31641C00F022
:10385000BFF909F104096D1C0098C0F38310A84258
:10386000ECD85FB11048FEF7EAFDD8F81054464690
:1038700005B140B1384600F094F97460FEF79EF847
:1038800080F0010042E7687A012804D12A682846BE
:103890003946126890476D68002DF4D1EAE70000C0
:1038A0000C0900203C510000200D002000231A4686
:1038B00000F074BD08B5012300926A4600F06EFD69
:1038C00008BD00002DE9F0470E4680461C46924692
:1038D00008293ED894F80C90002020731946104611
:1038E00000F0F2FA0025B54206D218F805201AA118
:1038F0002046FFF74DFC03E019A12046FFF748FCE6
:103900006D1C082DEFD317A12046FFF741FC0025C1
:10391000B54210D218F80570FCF744FE0068C05D8F
:1039200010F03E0F01D03A4600E02E220EA12046B4
:10393000FFF72EFC03E00DA12046FFF729FC6D1CCC
:10394000082DE5D301222146504600F05BFA84F8A9
:103950000C90BDE8F0870000202530327800000090
:10396000202020007C0000002563000020000000D3
:10397000114810B5FF218160002101604160C0F84D
:103980001814C0F8141480F81C140C4800F007F93F
:1039900000280FD10A480B490B4B401AC1080020E0
:1039A00005E000BF00EB400223F82200401C8842E3
:1039B000F8D3002010BD00000C0900203C5100008D
:1039C000D052000098520000F00000200248034945
:1039D000401AC00870470000D05200009852000002
:1039E0001FB51146002443B901A8FEF7CDFC20B94C
:1039F0000348019900EBC100847904B0204610BD52
:103A00009852000013B56846FEF7BEFC08B10020CE
:103A10001CBD0248009950F831001CBD98520000AE
:103A200070B508480125D0F8104480F81C5405E012
:103A3000657221682046496888476468002CF7D180
:103A400070BD00000C0900202DE9FF4781460C9D48
:103A500000200C462F7B28739846164629461846A8
:103A600000F032FA072E42D2DFE806F004090F1602
:103A70001F2A360049462846FFF78AFB37E04946A9
:103A800028462268FFF784FB31E0D4E90023494649
:103A90002846FFF77DFB2AE0A0680090D4E90023C8
:103AA00049462846FFF774FB21E0D4E90201CDE93D
:103AB0000001D4E9002349462846FFF769FB16E0D8
:103AC00004F1080007C88DE80700D4E9002349463F
:103AD0002846FFF75DFB0AE004F108000FC88DE8F7
:103AE0000F00D4E9002349462846FFF751FB002286
:103AF0002946404600F086F92F73BDE8FF872DE97F
:103B0000F041058A80462D1F4819C01CB0FBF5F016
:103B1000C6B24046FEF7A6FC041E19D00020207154
:103B200001206071E58000272546761EC4F80080DC
:103B30000BE04046FEF796FC60B16179491C61716B
:103B4000286005467F1CC0F80080B742F1D32046AC
:103B5000BDE8F081204600F002F80020F8E72DE9EA
:103B6000F041457901466B1E002201E00968521CB4
:103B70009A42FBD30F680146002605E038460C68E0
:103B8000FEF78FFC2146761CAE42F7D3BDE8F081EC
:103B900008B501216A46001DFCF789FC08BDFEF747
:103BA00095BC38B50446001D01216A46FCF78CFC23
:103BB000009810F0FF0F04D12046BDE83840FFF711
:103BC000CEBF38BD38B501240094FEF779FB38BD6F
:103BD00038B500240094FEF773FB38BD00F1804136
:103BE0000868002210B101200A6070471046704733
:103BF0004058002800D00120704708B500224250EC
:103C00004058009008BDD0F80403084000D00120BF
:103C100070474058002800D00120704708B50022A6
:103C200042504058009008BD10B5002100F008F83F
:103C300002480068C0F3012010BD00000C7502406E
:103C400040EA012003490860BFF36F8FBFF34F8F35
:103C5000704700000C75024040EA012003490860EB
:103C6000BFF36F8FBFF34F8F704700000C7502409A
:103C700000F00F0108290DD2020607494FEA007033
:103C800001EB906002D5D0F8200401E0D0F84404A4
:103C9000012800D0002070470070024010B50D4987
:103CA00004460020C8702046FDF73CFF817B0329B5
:103CB0000ED0006800280BD12046FDF71FFF012120
:103CC00081400448C943BDE810400C30FEF7C4BB36
:103CD00010BD00006000002038B5114C05460020E2
:103CE000E0702846FDF71EFF817B032913D0006892
:103CF00088B92846FDF702FF01218140C94304F13C
:103D00000C00FEF7A9FB0748006900908DF80250EF
:103D1000616868468847BDE8384000F09BBE0000F7
:103D2000600000201C50000002494058002800D0CC
:103D300001207047007002400449084400210160DE
:103D4000BFF36F8FBFF34F8F7047000000700240CA
:103D500003490860BFF36F8FBFF34F8F70470000B8
:103D60000074024002480068002800D0012070471B
:103D70002C7502400449084401210160BFF36F8F94
:103D8000BFF34F8F704700000070024070B50346CC
:103D900000791B4901EB40101968027F4FF0FF309A
:103DA000002AD1F80C25D1F81465D1F80855D1F8BE
:103DB000104504D0C1F80C05C1F8140503E0C1F8A2
:103DC0001405C1F80C051968C1F80805C1F81005FB
:103DD000501C02D01046FFF713FB701C02D0304677
:103DE000FFF70EFB601C02D02046FFF709FB681CA2
:103DF00004D02846BDE87040FFF702BB70BD00004C
:103E0000A804002010B50C46C17949B11AB109A126
:103E10002046FFF7BDF92046BDE81040FFF7C5B9C1
:103E2000007A0028F3D0044804A102682046FFF776
:103E3000AFF9ECE70D0A0000C80000202573000070
:103E4000124910B50988032202EB014258B1104C07
:103E5000012814D0022805D110460EA1FFF726FD37
:103E60000120207010BD10460DA1FFF71FFDFFF7C8
:103E700099F80028F6D1BDE81040FDF793B9104637
:103E80000CA1FFF713FD0020EBE700003801002034
:103E900000000020555342207265616479000000E3
:103EA00055534220706F7765722064657465637442
:103EB0006564000055534220706F7765722072650B
:103EC0006D6F76656400000070B50446C0790D46DC
:103ED00000281CD1207A50B1A179A088FFF7EEFB11
:103EE0000B4951F820200BA12846FFF751F9A08873
:103EF0000021FFF787FD03460549A079143951F8E1
:103F000020202846BDE8704003A1FFF741B970BDED
:103F1000C8000020257300003C25733E2025733A1D
:103F20002000000070B5012670044FF0E02100254C
:103F3000C1F88001084C4010C4F84803C4F80803D5
:103F400066602F20FEF700FBA660044C2F20A560C2
:103F5000FEF7FAFAA57070BD001001407400002051
:103F600070B50546C87D0C4600284FF4847128467C
:103F70000AD0FFF742FED5F81805627EE168885442
:103F8000607E401C607670BDFFF737FED5F81805DF
:103F900070BD1FB501238DF800308DF80810019217
:103FA000D0E90012684690471FBD000010B5084CCC
:103FB0000020D2B22070201DFEF7BEFC08B1FCF735
:103FC000B1FE6078002802D021780029FAD010BD17
:103FD0008C000020002070472DE9F8434A784FF00C
:103FE00006091406C2F3411354D5002213B1012B64
:103FF0007DD121E00C46056889780835062902D074
:104000000A297AD109E00092E27821796B46FCF71F
:1040100023FF010071D0009A09E06846FDF7B2F86D
:10402000014695F8480000B1012008700122601C8B
:10403000FDF778F8BDE8F8830D468978822909D024
:1040400004DC042906D0812965D103E0832901D04D
:10405000852960D1046861722979A172E978E172D9
:10406000A979217369796173B5F80710E18104F8C2
:10407000082F697801F01F01022900D12170002169
:1040800000F0ACFEE28804F10801681CBDE8F843CA
:10409000FDF748B813B1012B3DD130E0044600686C
:1040A0000D4600F1080888780B2826D10020277AD1
:1040B00006460AE031462046FCF709FF0178B5F8CC
:1040C0000520914203D0761CF6B2BE42F2D378B1FD
:1040D000407818B1B5F8030001280CD05FF000015A
:1040E00088F8481029462046BDE8F84301E012E070
:1040F00003E0FDF764BA0121F2E748469AE78A78BF
:10410000062A08D2DFE802F0070303030303BDE831
:10411000F843FDF773BB06208CE700002DE9FC4156
:1041200008790C46012804D0022805D003285CD168
:104130004DE012222E4952E0B4F80700092800D9B8
:104140000920804609260027FCF7A8FE05460BE05B
:104150006868694642682846904700980644287A6D
:104160003844C7B228680568002DF1D101A8FDF7D1
:1041700009F81F49054642461231FCF717FA2F711C
:104180006E80FCF7AFFE18B1E87940F02000E871CE
:10419000FCF784FE0146174880E82201B4F80710B6
:1041A000C1600020FDF79EFA114980200839FDF713
:1041B0003DFA040005D10E4980201039FCF730FF8C
:1041C00004460020FDF790FA2046BDE8FC81E07827
:1041D000B4F80510FDF758FA010006D00A7802B0CD
:1041E000601CBDE8F041FCF79DBF0620EDE7000034
:1041F000544F00001C04002038B58C781A4A002364
:1042000024B1062C15D0082C23D116E00C466846A4
:10421000FCF7B8FF01460380007840F00100087009
:1042200052785208D20702D040F0020008700222F1
:1042300016E0BDE83840FFF771BF0C466846FCF752
:10424000A1FF0146107820F08000052803D0042843
:1042500004D0062038BD0120087000E00B70012258
:10426000601CFCF75FFF38BD2400002030B4174A03
:104270008C7853780A2C1ED2DFE804F01D191D1229
:104280001D051D1D1D241078032806D0042804D008
:10429000052802D0082030BC7047042010700FE0C1
:1042A000B1F80300012806D143F0020007E0B1F89D
:1042B0000300012801D00620EDE723F00200507032
:1042C0000020E8E730BC00F003B800002400002024
:1042D0002DE9F05F2F4A1078052804D0042802D079
:1042E0000820BDE8F09FC87818B1012804D0072045
:1042F000F7E74FF0040A44E04FF0050AFCF7CEFD63
:1043000006463CE096F808B0002534E0307AA84232
:1043100001D8002004E006F1090005EB450108443E
:10432000814690F80180002421E099F80110484668
:10433000A14201D8002703E0817801EB09000719A9
:1043400000213878FFF788FC13480068C0F301208B
:10435000012803D038780121FFF77EFC387800F07F
:104360000F01082901D2FEF7B1FC641CE4B24445F8
:10437000DBD36D1CEDB25D45C8D330680668002EF6
:10438000C0D104480278524501D080F800A0002036
:10439000A7E70000240000200C7502402DE9F84337
:1043A000DFF88C800446914698F81C04D8F8085031
:1043B0000F461E46002838D169461846FDF7C4FA54
:1043C000002832D00098C44600EA050108EB8102BB
:1043D00052F80C1F21F00301491C401C1160E30638
:1043E00002D541F0040101E021F0040164F3C501AC
:1043F00066F3891167F39F21116000EA0501220C21
:104400000CEB8101401CCA60009000200BE000BF53
:10441000009959F8203001EA05020CEB8202491C90
:10442000D360401C0091B042F2D3BDE8F883000095
:104430000C09002070B50546FDF73AF9124C064606
:104440002078FDF735F986420AD02846FDF730F985
:1044500020B104F10C00FEF7D1F801E0FEF7BAF844
:104460002846FDF732F906462078FDF72EF98642F8
:1044700008D02846FDF729F910B1FEF719FB01E035
:10448000FEF74AFE257070BD100000202DE9F84FA0
:104490001D4C00256846D4E901A6FDF70FFB002757
:1044A00038B30023009A61681CE0D1F800C00846C8
:1044B000944503D9ACEB02020A6015E0A2EB0C02B2
:1044C00063440760D0F80CC0C1698146BCF1000F9D
:1044D00008D006EB030828F07F48C0E9018CC9F832
:1044E0001C5005460029E0D128466160FDF7CAFD51
:1044F00003E02846FDF7C6FD10B15046FDF788FAE7
:10450000E770BDE8F88F0000740000200D4B10B577
:10451000596831B102680C68A24204D8A21A0A6034
:10452000C161586010BD0B4603E00B46C969121B00
:1045300021B10C689442F8D3A41A0C600260C161E6
:10454000D86110BD740000202DE9F041144E776849
:104550003D462C4603E0844204D02546E469002C05
:10456000F9D11BE0D4B1A5420BD1F869706040B914
:104570000C49012088600021B160F0702F20FDF708
:10458000E3FF2168E069E86110B10268114401604D
:104590007068874202D00120BDE8F0810020FBE76F
:1045A00074000020001001402DE9F041194D6C68A5
:1045B000002C2CD0184800270068A968B846401A7B
:1045C00020F07F462068B0420CD82146361A0744B6
:1045D000E469087C20B181F81080886949698847BE
:1045E000002CEFD129786878814206D1401CC0B2F6
:1045F0006870022801D185F80180064869780C307E
:1046000040F82170BDE8F0411420FCF753B9BDE833
:10461000F0810000740000200415014070B50C46C4
:1046200005464FF48E71FFF7E8FAA18AA068415C55
:10463000A08A401CA082C5F81C1570BD1FB50022C1
:104640008DF800208DF80810816801918275D0E9FD
:104650000012684690471FBD01490120087070474D
:104660008C00002010B588B0044620220E49684610
:10467000FBF79CFF06200090C01F01900290039062
:104680004FF0EB7006900CB1084A00E0002269463A
:104690000748FEF71DF908B1FCF744FB0448001F6A
:1046A000447008B010BD00001C51000059460000C5
:1046B000900000202DE9FF470C4605464FF400719D
:1046C000FFF7A1FA01274FF40178002618B34FF441
:1046D000927949462846FFF78BFAE0B149462846C9
:1046E000FFF78BFAC5F80883A07E00B96F6002203F
:1046F0008DF80000D5F88004C5F880040390E07DB3
:104700008DF80800E0680190E6752676D4E900127D
:104710006846904727E004212846FFF774FA10B353
:104720004FF484712846FFF763FAE0B1214628462A
:10473000FFF716FCE07D617E884214D1207E38B1FF
:10474000617EE268E0752069E0602676667607E0C3
:10475000A07E00B96F60C5F80883E675617EE268E7
:104760002046FFF716FC4FF48E7841462846FFF7A7
:104770003FFA88B1A08AA17D884204D2214628460A
:10478000FFF74CFF08E041462846FFF736FAA17DC7
:1047900011B12046FFF752FF4FF4A2784146284658
:1047A000FFF726FA002812D041462846FFF725FADF
:1047B000A07E00B12F60E07D002808D0E675617E04
:1047C000E26804B02046BDE8F047FFF7E2BBBDE871
:1047D000FF872DE9FF410C464FF492770546394695
:1047E000FFF717FA0026C0B139462846FFF716FA38
:1047F00002208DF80000D5F88004C5F880040390ED
:10480000D5F83C058DF80800E0680190E67526763D
:10481000D4E900126846904724E04FF4887739467F
:104820002846FFF7F6F9E8B139462846FFF7F6F9CA
:10483000D5F83C05C1B2E07D884213D1207E60B13D
:10484000E268D5F8000220F02000C5F80002207EC2
:10485000E0752069E060267601E0E675E2682046B2
:10486000FFF797FB4FF4A27739462846FFF7D1F9B7
:1048700068B139462846FFF7D1F9E07D38B1E675D1
:10488000D5F83C05E268C1B22046FFF782FB4FF441
:10489000907631462846FFF7BCF900280FD0314604
:1048A0002846FFF7BBF9A07D002808D0D5F84C05B5
:1048B00004B0C1B22046BDE8F041FFF7BFBEBDE87D
:1048C000FF8100002DE9F05F8346DDE90A4A994641
:1048D00090460D460846012703E000BFB0FBF8F004
:1048E0007F1C4045FAD2B94500D94F465FEACA70ED
:1048F00012D18CB15FEA8A7002D5B9F1000F01D0F4
:10490000202607E0302605E031465846641EFDF7B4
:1049100045F80CB1A742F7D35FF00106B9F1010FDA
:1049200002D9A9F1010903E0B5FBF6F0404502D335
:1049300006FB08F6F2E7DFF83C9000BFB5FBF6F0A7
:1049400000FB165519F800105846FDF727F8B6FB7E
:10495000F8F6002EF2D15FEACA7009D0002C07D019
:10496000A74205D220215846641EFDF717F8F5E747
:10497000BDE8F09F0051000002480068002800D008
:10498000012070472C0000202DE9F05F07464868A1
:1049900092464FF001080C4658B1FEF749FA00263E
:1049A000FEF746FAE56883465046554537D9054631
:1049B00035E04FF00008C7F80080C7F8048033E006
:1049C000A068C0B1A84200D9284681460BEB06007A
:1049D0004A466168FBF7EAFDA168A5EB0905A1EB72
:1049E0000900A060E1684E44A1EB0900E060616845
:1049F00001EB09006060E06810B1A06878B902E0DE
:104A00004FF000080BE0206888B141684A6804F163
:104A10000801904760602068006800682060002DF1
:104A2000CED100BFC7E900B64046BDE8F09F0020E8
:104A30006060002EF6D05645F4D28046F2E70106BB
:104A400001D5042100E0282100F00F0001EB8000D7
:104A5000FFF790B92DE9FE4F5B4EF078002848D162
:104A60008246DFF868814FF0010B3EE090FAA0F03B
:104A7000B0FA80F08146FCF707FF0446FDF752F8D4
:104A80000546200610D5D5E90031AA8901A8984726
:104A900088BBC5F800A0802C31D1D8F8001241F0B5
:104AA0000401C8F800122AE02046FEF791F90090B0
:104AB000D5E900710346AA8901A8B8470199D9B17F
:104AC000029A00998A4217D20220A8730BFA09F0C1
:104AD000C1433D480C30FDF7BFFC3D48006B0090E2
:104AE0008DF80240716868468847D6E90210084090
:104AF000BCD1BDE8FE8F02E008B9C5F800A086F879
:104B000003B0B1680BFA09F08143B160A86802995B
:104B100022060844A860DDE9011004F00F020ED55A
:104B2000082A03D32B4A1160111D0DE002EB82020B
:104B300008EB8202C2F80016C2F804060EE0082A4A
:104B400004D3254A1160111D086007E002EB8202C0
:104B500008EB8202C2F80017C2F80407FEF74CF90E
:104B600068B34FF482752846FFF7E6F82046FFF752
:104B700066FF0220FDF796FE2846FFF7D5F80028CD
:104B8000F1D01E20FDF78EFE144E02E00220FDF74C
:104B900089FE30688006F9D50120FDF783FE2006E6
:104BA00002D50B499C3101E00949AE3104F00F00F8
:104BB00031F81000FFF7B8F80028D4D099E7204664
:104BC000FFF73DFF95E70000600000200070024005
:104BD0001C500000A0760240A0770240747402408E
:104BE0002DE9F84307460020FCF77CFD3846FCF72A
:104BF00099FF06463806294D4FF000084FF003098B
:104C00004FF0010438461ED4FCF778FFE96804FA37
:104C100000F0884303D03846FEF788FA10E03846A3
:104C2000C6F80080FCF76AFFE96804FA00F08143E7
:104C30003846E960FCF762FF8440A868A043A8609A
:104C400086F80E9024E0FCF759FFD5E9022104FA1A
:104C500000F061EA020108421AD03846FCF74EFF24
:104C6000E96804FA00F081433846E960FCF746FF42
:104C70008440A8680443AC600948C6F8008086F800
:104C80000E90006800908DF8027069686846884749
:104C9000BDE8F8430020FCF727BD000060000020BD
:104CA0001C5000002DE9F0410D4EB068040CF06876
:104CB0002404044301270BE094FAA4F0B0FA80F531
:104CC0002846FCF7E1FDFFF78BFF07FA05F0844368
:104CD000002CF1D140F2FF10B060BDE8F08100007F
:104CE00060000020012238B58A400C490C468B68D0
:104CF00013438B606168E468094B050602EA04020D
:104D000003D5002A09D19A6902E0002A05D1DA699F
:104D100000928DF802006846884738BD6000002088
:104D20001C50000002498020C1F8000270470000BA
:104D300004E000E010B5032829D003DC60B10228AC
:104D40002CD105E0092824D00A2827D1FCF728FA1D
:104D5000BDE81040FCF7EEBDFCF71CFA05281DD19C
:104D60000F48FCF70FF802000E48426016D00E49BB
:104D70000B48FCF70EF8002810D00C4801210088E1
:104D8000BDE8104001EB004009A1FEF78FBD0020F7
:104D900000E00120BDE81040FCF7AEBD10BD0000F2
:104DA000CC4E000000000020EC0100203801002063
:104DB00043616E6E6F742073746172742052582058
:104DC0007472616E736665722066726F6D206865BD
:104DD000616470686F6E650D0A0000008269002AC8
:104DE00000D010477047000002494968002900D0F0
:104DF00008477047C00300200904000000010100BB
:104E00000009240100012B0001010C240201010111
:104E10000002030000000D2406020102010001004F
:104E20000100000924030302030002000904010039
:104E30000001020000090401010101020000072431
:104E400001010001000B2402030202100180BB00DB
:104E50000725010000000009050801C0000100004D
:104E600009040200000101000009240100012B00D7
:104E700001030C24020101020002030000000D24C2
:104E800006020102010001000100000924030301E0
:104E900001000200090403000001020000090403EC
:104EA000010101020000072401030001000B24029C
:104EB000010202100180BB0007250100000000096B
:104EC000058801C000010000413E000044010020AF
:104ED000F05000000200000001010308F84D00003E
:104EE00068000000E11E000098010020F050000062
:104EF0000202000003010388604E00006800000009
:104F00003923000000000000354D000001000000C2
:104F10000D0E0F100B0C1819800000000781000007
:104F2000820000008300000084090A0307000000DB
:104F300008000000CC03002000000000000000007A
:104F400000000000D53F000000000000894900007B
:104F50001C040020120100020000004015190E522E
:104F600000010102030109020000000100C0FA0073
:104F70000D0F00000000000034000020704F000002
:104F80000100020300800000040309002A034E0010
:104F90006F00720064006900630020005300650028
:104FA0006D00690063006F006E00640075006300AF
:104FB00074006F0072002A036E0052004600350034
:104FC00032002000550053004200200041007500CF
:104FD000640069006F002000440065006D006F00F0
:104FE0001A03300030003000300030003000300054
:104FF000300030003000300030000E0355007300E8
:10500000650072002000310000010203040000006E
:1050100000000050000300500000000006000003E4
:10502000010000000600000006000000060000006D
:105030000600000006000000060000010500000058
:10504000020000000300000004000000060000024F
:105050009D1E0000F51D0000411B0000791B000093
:105060007F1B0000851B00008B1B0000911B0000B4
:10507000971B00009D1B0000111D0000A51B0000D8
:10508000F11B0000391C00003F1C0000451C000003
:105090004B1C0000511C0000571C00005D1C000050
:1050A000651C0000B91D0000291E00002D1D000018
:1050B000B11C00003D1B000008010C01100114018F
:1050C00018011C01200124012C0130013401380198
:1050D0003C014001440148014C0150010203040518
:1050E000060708090B0C0D0E0F1011121314000007
:1050F000B9170000F3170000791800000000000045
:1051000030313233343536373839414243444546FD
:10511000A53600008D36000083360000FFFFFFFF3C
:10512000FFFFFFFFFFFFFFFFFFFFFFFF000000008B
:10513000000000000000D60107010000AC000020C4
:10514000A4000020AC0000204C0800201800000043
:10515000004040404040404040404141414141408A
:10516000404040404040404040404040404040403F
:1051700040050202020202020202020202020202CE
:1051800002202020202020202020200202020202D3
:10519000020290909090909010101010101010102B
:1051A0001010101010101010101010100202020237
:1051B000020288888888888808080808080808087B
:1051C0000808080808080808080808080202020277
:1051D00040000000515100007761726E696E6700F7
:1051E00064656275670000001B5B313B33306D0006
:1051F0001B5B306D000000001B5B313B33316D00E9
:105200001B5B313B33326D001B5B313B33336D0035
:105210001B5B313B33346D001B5B313B33356D0021
:105220001B5B313B33366D001B5B313B33376D000D
:10523000696E666F000000006572726F7200000098
:10524000636C6F636B0000006770696F74650000CA
:105250007561727400000000555342440000000064
:10526000686172646661756C7400000062616C6CE8
:105270006F63000061707000D052000000000020D9
:1052800044010000280600001C53000044010020D7
:10529000EC2B00009C0C00004052000000000000BD
:1052A00048520000000000005052000000000000C2
:1052B000585200000000000060520000000003008F
:1052C0006C52000000000000745200000000030057
:1052D0000121031B891433884F338C4F33B64F336E
:1052E000E04F0344FA4F54200040031F105133385D
:1052F0005233D85133305233E05133F05133E85107
:1053000043F851325233085233105233185233207B
:0C53100052432852045590D003000000C6
:0400000500000201F4
:00000001FF
