:020000040000FA
:10000000782800204D03000055030000570300002E
:10001000590300005B0300005D03000000000000C6
:100020000000000000000000000000005F0300006E
:10003000610300000000000063030000650300008E
:100040006703000067030000290900006703000040
:100050006703000067030000D1040000670300008D
:1000600067030000670300006703000067030000E8
:1000700067030000670300006703000067030000D8
:1000800067030000F9060000670300006703000033
:100090001D070000670300006703000067030000FE
:1000A00067030000670300006703000067030000A8
:1000B000670300006703000000000000000000006C
:1000C0006703000067030000670300006703000088
:1000D0006703000067030000670300006703000078
:1000E00067030000670300006703000000000000D2
:1000F000000000006703000000000000670300002C
:1001000000000000000000000000000000000000EF
:1001100000000000000000000000000000000000DF
:1001200000000000000000000000000000000000CF
:1001300000000000000000000000000000000000BF
:1001400000000000000000000000000000000000AF
:10015000000000000000000000000000000000009F
:10016000000000000000000000000000000000008F
:10017000000000000000000000000000000000007F
:10018000000000000000000000000000000000006F
:10019000000000000000000000000000000000005F
:1001A000000000000000000000000000000000004F
:1001B000000000000000000000000000000000003F
:1001C000000000000000000000000000000000002F
:1001D000000000000000000000000000000000001F
:1001E000000000000000000000000000000000000F
:1001F00000000000000000000000000000000000FF
:10020000DFF80CD000F034F900480047CD160000AC
:100210007828002030B4044654E8000F0D4644E826
:100220000053002BF8D1156030BC704730B4044641
:1002300054E8000F40EA010544E80053002BF7D1D1
:10024000156030BC704730B4044654E8000F00EA33
:10025000010544E80053002BF7D1156030BC70470E
:1002600030B4044654E8000F80EA010544E8005326
:10027000002BF7D1156030BC704730B4044654E809
:10028000000F00EB010544E80053002BF7D1156087
:1002900030BC704730B4044654E8000FA0EB0105B1
:1002A00044E80053002BF7D1156030BC70470000C4
:1002B00030B4044654E8000F0D4644E80053002BC8
:1002C000F8D1156030BC704730B4044654E8000FD4
:1002D00040EA010544E80053002BF7D1156030BC1B
:1002E000704730B4044654E8000F00EA010544E8C2
:1002F0000053002BF7D1156030BC704730B4044672
:1003000054E8000F80EA010544E80053002BF7D1C0
:10031000156030BC704730B4044654E8000F00EB61
:10032000010544E80053002BF7D1156030BC70473D
:1003300030B4044654E8000FA0EB010544E8005334
:10034000002BF7D1156030BC70470000064880478D
:1003500006480047FEE7FEE7FEE7FEE7FEE7FEE7AA
:10036000FEE7FEE7FEE7FEE72107000001020000CE
:100370002DE9F05F0546002092469B4688460646DA
:10038000814640241BE0284641464746224600F06D
:100390005FF853465A46C01A914110D31146184689
:1003A000224600F046F82D1A67EB01084F46224618
:1003B0000120002100F03DF817EB00094E41201EFE
:1003C000A4F10104DFDC484631462A464346BDE835
:1003D000F09F0000004870471031000040EA010320
:1003E0009B0703D009E008C9121F08C0042AFAD2EB
:1003F00003E011F8013B00F8013B521EF9D27047AF
:10040000D2B201E000F8012B491EFBD27047002256
:10041000F6E710B513460A4604461946FFF7F0FF03
:10042000204610BD421C10F8011B0029FBD1801A88
:100430007047202A04DB203A00FA02F100207047BE
:100440009140C2F1200320FA03F319439040704712
:10045000202A04DB203A21FA02F00021704721FA19
:1004600002F3D040C2F12002914008431946704780
:10047000064C074D06E0E06840F0010394E80700F1
:1004800098471034AC42F6D3FFF7BEFE103400009C
:100490003034000030B58C1810F8012B12F00F0327
:1004A00001D110F8013B120906D110F8012B03E02D
:1004B00010F8015B01F8015B5B1EF9D101E001F866
:1004C000013B521EFBD1A142E6D3002030BD00000B
:1004D0002DE9F04F00268FB0DFF8B081B1460296CB
:1004E0004FF48075012437460396284601F024FE18
:1004F00038B1D8F80403204203D0284601F012FE98
:1005000026432D1D64007F1CADB2082FEDD34FF4A0
:10051000BE74204601F010FE48B1204601F002FEF4
:1005200046F0004602AA0221002001F0E5FD584CE9
:1005300016F0FF0F15D00127002537420DD008EB2C
:100540008501D1F81005D1F81015C0F3052054F835
:100550002520C1F3014102B190477F006D1C082D99
:10056000EBD3002E7DDA0020CDF82890411E0DF14E
:10057000080B08AACDF82C9042F82010401C914698
:100580000228F9D300252E46A01910F8607F90F9B3
:10059000000027F0C008401C49D008A9404601F0DF
:1005A00076F988B34FEA971A404600F02FFE54F8C8
:1005B00020701FB1BAF1030F03D00FE0BAF1030F9F
:1005C00035D10AA84FEAD80208F00703815C4FF042
:1005D000010C0CFA03FC41EA0C01815406A8CDF889
:1005E000188001F045FD069900EB8100D0F8000766
:1005F00002A9C0F301400690404601F048F90028E6
:10060000069802D0022802D011E003280FD1BAF1D7
:10061000030F08D10698022832D00221404601F08B
:1006200000FD6D1CEDB217B151464046B847761C2F
:10063000042EA9D3002D20D004AA0221002001F00D
:100640005BFD00205A4604A952F8206051F8203082
:10065000B34217D000200AAE4FEA090351F82070C8
:1006600000E00AE042F8207056F8207043F820704D
:10067000401C0228F2D3002D84D10FB0BDE8F08FCA
:100680000321CBE7401C0228DED3F6E700600040E0
:10069000A001002000F01F020121914040098000CC
:1006A00000F1E020C0F88012704700F01F02012125
:1006B00091404009800000F1E020C0F8001170472F
:1006C00000F01F02012191404009800000F1E0206C
:1006D000C0F8001270474907090E002806DA00F03A
:1006E0000F0000F1E02080F8141D704700F1E020B9
:1006F00080F800147047000007480021C0F840113E
:10070000C0F84411C0F84811C0F84C11C0F80011ED
:10071000C0F8041102F070BA0010014002F0BEB936
:1007200030B54FF080500022D0F830110123082955
:1007300002D1D0F8344114B1082909D00BE04FF0B0
:100740008041C1F80C21C1F8102168490A6005E018
:10075000D0F8344114B1082957D059E064490968E8
:10076000644C21606249091D0968241D21606049AB
:1007700008310968241D21605D490C310968241D78
:1007800021605B4910310968241D216058491431EA
:100790000968241D2160564918310968554C2034D8
:1007A000216053491C310968241D216050492031C2
:1007B0000968241D21604E4924310968241D2160E7
:1007C0004B4928310968241D216049492C310968A9
:1007D000241D2160464930310968464C403421606F
:1007E000434934310968241D216041493831096881
:1007F000241D21603E493C310968241D21603C498B
:1008000040310968241D216005E0D0F8344114B15D
:10081000082904D006E0394C3749216005E0D0F8BA
:10082000344114B1082904D006E0354CFB21216085
:1008300005E0D0F8344114B1082908D00AE090F856
:1008400058423048016864F30301016005E0D0F8C4
:10085000344114B1082905D00EE02B494FF4007043
:10086000086002E0D0F8340130B928480168C907AF
:1008700002D06FF0010101602548016841F4700168
:100880000160BFF34F8FBFF36F8F4FF01021D1F88E
:100890000002002803DBD1F80402002822DA1D4CF4
:1008A00023601D480368002BFCD01223C1F80032DE
:1008B0000568002DFCD0C1F8043201680029FCD085
:1008C000226001680029FCD0BFF34F8F10487C38AC
:1008D0000168124A01F4E06111430160BFF34F8FD8
:1008E00000BFFDE70F490E48086030BD38050040E5
:1008F0000404001020C50040488103008C560040CD
:1009000018F50040E40E004040960240000400400C
:1009100088ED00E004E5014000E401400400FA0530
:100920000090D003000100200448017F0448002902
:10093000024901D002F075BA02F0E4B908020020C1
:100940000020004002E008C8121F08C1002AFAD1A6
:1009500070477047002001E001C1121F002AFBD13F
:100960007047022000F088B970B50024064D06E0FB
:100970006868012110F8340001F002F8641C28783E
:100980008442F5D3002070BD74000020F8B51546F0
:100990000C460646052A01D20720F8BD01F0D2F820
:1009A00018B901F0A1F80028F7D1104900204E60D5
:1009B0000C70C1E902500E4D08610DE006EBC40059
:1009C0006968009181788DF801100078094A6946BC
:1009D00001F022F80028E0D1641EE4B2EED2BDE8B6
:1009E000F840054A0021024800F050B87400002089
:1009F0003430000089130000E9120000134C01217B
:100A0000208801EB004012A101F050FD01F008FE2A
:100A100001F076FC0028FBD10F480068C00700D029
:100A200000BE2088032101EB00400CA101F03EFD37
:100A3000BFF34F8F0848E43801680D4A01F4E061C4
:100A400011430160BFF34F8F00BFFDE72801002075
:100A5000466174616C000000F0ED00E048697420AC
:100A60007765616B2068616E646C657200000000E0
:100A70000400FA050EB500210091CDE901106A4687
:100A800044F20100FFF7BAFF0EBD0000074B9B7850
:100A900023B12AB120B10068037C1BB10820704744
:100AA00007207047417442610020704748020020CF
:100AB00070B501F04FFF104800240B210470447002
:100AC0000E4D817014206C602C706C70FFF7E2FD8D
:100AD00007211420FFF7FFFD1420FFF7E6FD08486B
:100AE000046007211120FFF7F6FD0548001F00688C
:100AF000A860002070BD000048020020880000208F
:100B0000081501402DE9F843DFF8709099F802309C
:100B10005BB350B3052902D20720BDE8F8834369CF
:100B20001BB3437C012B22D00027044600258846B6
:100B30001646284600F036F8684602F045FAC0B17D
:100B4000012101700E4944600968C0E90218C0E93A
:100B500004769DF8000089F80100002000F024F8D8
:100B60001420FFF7ADFD2846D7E70820D5E70F464C
:100B7000DBE70425002000F017F8F4E74802002026
:100B8000041501400649897839B130B1416921B174
:100B900000210174022102F00FB808207047000004
:100BA0004802002000F002B800F008B872B602480F
:100BB0000168491C016070479C00002003490868D7
:100BC000401E086000D162B6704700009C00002003
:100BD00070B5054608680C46411C04D001F06FFA58
:100BE000206801F014FA6068411C02D0002101F075
:100BF00005FA28791F4901EB40102968007F002879
:100C0000A069C1F8240523D0607D227D29681043A6
:100C1000C1F86C05D4E900122868C0F80C15C0F8BA
:100C2000142522E0A068411C02D0002101F0E6F961
:100C3000E068411C04D001F042FAE06801F0E7F9F5
:100C4000D4E902122868C0F80825C0F8101570BD54
:100C5000607D217D2A680843C2F86C05D4E9001242
:100C60002868C0F81425C0F80C15207D0128D9D0BB
:100C700070BD000008020020094908B5085C00901A
:100C8000684601F0E7F9D0F80425009B012199405E
:100C900021EA0203C0F808351140C0F80C1508BD60
:100CA000F82F00000249085C012101F012BA00008F
:100CB000F82F00000249085C002101F00ABA000088
:100CC000F82F0000084908B5085C0090684601F05C
:100CD000C1F9D0F804050099C84010F0010000D017
:100CE000012080F0010008BDF82F00007CB5002431
:100CF000084E25460122305D0095002311460195DE
:100D000001F028F9641C042CF4D3BDE87C4000F009
:100D100003B80000F82F000010B500242046FFF7AC
:100D2000C1FF641C042CF9D310BD10B5002420466B
:100D3000FFF7C0FF641C042CF9D310BD10B50246A8
:100D4000064B4FF0FF3000215C5C944201D1084615
:100D500010BD491C0429F7D310BD0000FC2F000072
:100D60002DE9F0470D468146FFF7E8FF04460428C9
:100D700036D2DFF874801B481C4EA8F10C0725B34F
:100D8000012D0ED0022D2BD104EB440030444578C8
:100D9000002D25D0B968002922D02846BDE8F047AB
:100DA000084704EB4401755C0E44717849B10E4A62
:100DB0004FF40041093A8068FFF7A4FE08B987F8AC
:100DC0000390B17808F80410E2E78068FFF7DAFED4
:100DD00004EB4401314418F804008D78A842D7D0C0
:100DE000BDE8F08700300000700000207401002092
:100DF00010B50549032000F069F8002803D0BDE8CC
:100E00001040FFF737BE10BD510E000070B5002333
:100E1000042810D20D4D00EB4004012A02D1012913
:100E20000CD00022094E00EB4000304461B1012992
:100E300006D0022906D00723184670BD0E30C2B274
:100E40002A55F9E74270F7E78270F5E77401002050
:100E500070B5154C0E28217806D00F2822D11729FD
:100E600007D0491C217006E009B1491EFAE7172096
:100E700000E000202070207800F01CF805460A48A9
:100E80002178001D50F8212008480321008801EB3B
:100E9000004007A101F00EFB280003D0BDE8704020
:100EA000FFF7E8BD70BD0000000000202801002011
:100EB00025730000044A014600201279D20702D0AF
:100EC000084600F04DB870476400002070B5064633
:100ED0001E480024C0E90161B00720D50025012289
:100EE00011462846FFF792FF6D1C0446042D02D2DE
:100EF000002CF4D013E094B940F266620421144847
:100F0000FFF744FD04000AD1FFF72EFD040006D1CF
:100F10000F48104A0021001FFFF7B8FD0446F007F4
:100F200001D0FFF7E3FE74B909480B4A00210C38E1
:100F3000FFF7ACFD040006D10548084A0121083836
:100F4000FFF7A4FD0446204670BD000064000020A9
:100F50000C300000A11100003115000063090000F1
:100F60002DE9F05F6A4C054600266078B34618B15B
:100F700084F801B000F0C4FA664F4FF47A694FF478
:100F8000C87A4FF00108182D62D2DFE805F0AC0CEA
:100F90000C31404D62676B746B74BE7D7D7D7D7DD1
:100FA000ACAFB2B5BEBE0020FFF78CFE00284FF0FC
:100FB000000008D0FFF776FE022D02D14FF4E16069
:100FC00008E0484606E0FFF775FE022D01D1C82073
:100FD00000E05046410CC0034FF4FA72801841F112
:100FE0000001257052000023FFF7C2F901462AE0F4
:100FF0000020FFF767FE00284FF0000004D0FFF745
:1010000051FE4FF44870E5E7FFF754FEDFE700209C
:10101000FFF758FE00284FF0000002D0FFF742FE15
:10102000CFE7FFF747FED4E70020FFF74BFE00288D
:101030004FF0000002D0FFF735FE01E0FFF73AFE67
:10104000257041F69A1100223868FFF75BFD0646CD
:1010500046E00020FFF710FE257008E0002051E078
:1010600025703DE084F801800120FFF705FE002295
:1010700040F6CD41E8E784F801800120FFF7FCFD50
:1010800000224FF48041DFE77868FFF77BFD0646DA
:10109000D5F1110000D02EB10220FFF703FE84F835
:1010A00002B01DE0012816D980B2C8214843C117FB
:1010B000C90341EA5041C0034FF4FA72801841F16C
:1010C000000152000023FFF753F90146002278681F
:1010D000FFF718FD06460220FFF7ECFD84F80280BA
:1010E0003046BDE8F09F00F00BFAB9E700F008FACF
:1010F000B4E700F005FA04E000F002FA0020FFF780
:10110000D9FD0120FFF7D6FDAAE7FFF70EFEA7E7FE
:1011100064000020003000002DE9F041861C0C46E0
:1011200001270020FFF73EFD0F4801682160D0E94C
:101130000012891A82680446511AB51C07E000BFE4
:1011400000F07CFAD4E90001401AA168091A491C90
:101150008D42F5D82068304420600020FFF724FD40
:101160003846BDE8F08100005404002030B48268A5
:101170000468531C8360A154D0E901128A4202D34F
:1011800030BC00F0EEBD30BC70470000034803C81F
:10119000814201D101207047002070475404002093
:1011A00000780221FFF7DCBD05494FF0FF32082827
:1011B00041F8202002D3084480F8582070470000EE
:1011C000A0010020F0B54FF0FF3512B10023082632
:1011D00001E008230C260C4C05E000BF54F82370F6
:1011E0007F1C04D05B1CB342F8D32846F0BD261800
:1011F0005DB286F8305044F82310002AF5D1E1188A
:1012000081F85800F1E70000A001002002490844DD
:1012100090F9300070470000A0010020064801212D
:10122000016000228807C0F804218160D0F8041111
:101230000029FBD070470000180500402DE9F05F41
:1012400026484168F1B3DFF898B00E688146DBF8B4
:10125000004087688078E11B21F07F45ED1CB0B924
:10126000DFF880804FF48030C8F84403C8F80403E6
:101270001120FFF70FFA1120FFF717FA4FF0010ABC
:10128000C8F800A02F2000F00BFB89F802A0B5429F
:1012900000D23546124BE8193C3320F07F401860ED
:1012A000DBF800105A46091B21F07F41001B20F09B
:1012B0007F40C91C81420FD9106818602F2000F0B0
:1012C000EFFA00E004E0BDE8F05F1120FFF7F8B9A5
:1012D000BDE8F05F01F03EBBBDE8F09F8800002054
:1012E00004150140001001402DE9F04100260125C0
:1012F000144C22E06068226900EBC607387805FAD2
:1013000000F1114217D08A43226100F0E5FB02464A
:101310003878E36805FA00F1194002FA00F39942BF
:1013200009D17978012901D0012100E00021514043
:101330007A6802B19047761CF6B220788642D9D3FB
:10134000BDE8F081740000200E4910B50A784C7891
:101350000023A24212D0521CD2B20A70022A00D13B
:101360000B70084A0B780C3252F823200260886810
:10137000104420F07F408860012010BD03600020F1
:1013800010BD0000880000202DE9F041124E0746F4
:101390000125BD403068FFF7F5FB00280DD10F4C4B
:1013A0002069284207D1384600F096FB0028E06803
:1013B00005D0284304E0A8432061BDE8F081A8439C
:1013C000E060206928432061A1683068BDE8F041F1
:1013D0000022FFF797BB00003430000074000020AB
:1013E0002DE9FC5F0E008346DDE90C47C6F10000E5
:1013F00098469246814600D40846012503E000BF86
:1014000090FBFAF06D1C5045FADAA84500D9454624
:1014100024B1002E01DB780700D5641EB80702D581
:10142000B8F1000F0AD0F80708D13CB1A54205D2A7
:1014300020215846641EFFF799FEF6E7002E02DAD7
:101440004E462D2102E0780703D52B215846FFF7A1
:101450008DFE07F0030002280BD1B8F1000F08D170
:101460003CB1A54205D230215846641EFFF77EFEEE
:10147000F6E7CDE90047434652463146584601F06B
:1014800049FDBDE8FC9F000070B50E46044600799A
:1014900018494FF4A27501EB4010017F2068A1B1FB
:1014A0004FF4887101F0B0F94FF49071206801F0A9
:1014B000ABF94FF49271206801F0A6F92946206833
:1014C00001F0A2F90C49206809E04FF48E7101F097
:1014D0008AF92946206801F086F908492068C0F891
:1014E0000413206800F049FA3146BDE8704000F06E
:1014F00028BA000008020020100302008000020049
:101500000A4810B5807860B1002401E0022C06D0B2
:101510002046FFF7C7FB641C042CF7D310BD03243F
:10152000F6E7BDE81040FFF7F7BB000064000020BD
:1015300003480179C90702D00078FFF711BD704751
:10154000640000202DE9F047394E002780463D46D3
:10155000DFF8E090D6F804A057E003D00446D0F8B6
:101560001C8035E099F8002002EB4201521CD2B2F7
:1015700089F8002009EBC10199F80230091D9A424F
:1015800001D189F8005048680A780446012A12D02F
:10159000022A02D0032A3BD108E001F0DDFA00B1B3
:1015A0000127257434E00574C06900E070680028E4
:1015B000F9D170602CE0207C50BB88686060C868FE
:1015C000A0600869E0604869A061F07800B16560DA
:1015D0006268B168184B501A20F07F40984202D2DE
:1015E000A168084406E0881AA16820F07F40814283
:1015F00002D9081A206000E0256065600120A5601E
:1016000020742046E56101F089FAB8F10000A4D108
:1016100099F8001099F801008142A3D117B97168B7
:10162000514502D00120BDE8F0870020FBE7000013
:101630008800002048020020FFFF7F002DE9FE43C4
:10164000214DD5E9014704EA070005EB800605F5C1
:1016500083600C3600F0C8F805F21440804600F0B4
:10166000C3F80AE0C0F3891101EB9050641C0444F4
:1016700004EA070005EB80060C3630688107F1D0DC
:101680000020694604EA070205EB8202641CD26866
:1016900041F82020401C0228F4D3009800F00300F9
:1016A000022800980AD0C0F383100444404600F09A
:1016B00095F8002800D06C60BDE8FE83032101EBA3
:1016C000905004EB9004F1E754040020FFF7A6FDCE
:1016D000FFF7EEF908B1FFF7CDF9002000F048FF61
:1016E00008B1FFF7C7F900F0FDFD094803210088A4
:1016F00001EB004007A100F0D9FEFFF779FB00BF26
:1017000000F0FEFD0028FBD140BF20BF20BFF7E75F
:1017100028010020425350206578616D706C65206F
:10172000737461727465642E000000002DE9F04747
:10173000C7880446181D16468946B0FBF7F1B0FB72
:10174000F7F207FB12009A193A44D21CB2FBF7F2E7
:10175000DDF820A001E02468491E0029FBD13D1AD4
:101760008846B54216D818E0BAF1000F05D0211806
:1017700009EB08002A46091D04E0204409EB080192
:101780002A46001DFEF72AFE00202468761BA84486
:10179000B74201D9354600E03D46002EE4D1BDE810
:1017A000F087000030B50B46024600F00FFF63B132
:1017B0000021094C0CE000BF01EB410304EB830363
:1017C00015685B88AB4202D11160002030BD491C16
:1017D0008142F1D3052030BD0401002008B500216D
:1017E0006A46FEF77EFD08BD08B501216A46FEF790
:1017F0006BFD009808BD70B5044600252846FFF72C
:10180000D1F921686268086890420ED9401E0860CC
:101810000178238AE26801FB0325227A2168101AE5
:10182000C0B20A79824200D208710020FFF7BCF9E9
:10183000284670BD70B505460C460020FFF7B2F98A
:10184000E868298A201AB0FBF1F12A681068431C65
:1018500013600170BDE870400020FFF7A5B910B516
:1018600030B1017A42680368891AC9B21A6006E089
:101870000E2010BD03681A68541C1C601170491EAC
:10188000C9B2F7D2006800210171084610BDC20834
:1018900000F007030120895C984008407047000071
:1018A00000283ED01F49204A096800BF00BF00BF82
:1018B00000BF00BF00BF00BF00BF91422FD000BFDC
:1018C00000BF00BF00BF00BF00BF00BF00BF00BF20
:1018D00000BF00BF00BF00BF00BF00BF00BF00BF10
:1018E00000BF00BF00BF00BF00BF00BF00BF00BF00
:1018F00000BF00BF00BF00BF00BF00BF00BF00BFF0
:1019000000BF00BF00BF00BF00BF00BF00BF00BFDF
:1019100000BF00BF00BF00BF00BF00BF00BF013855
:10192000C3D17047000100200024F40000F01F0222
:10193000012191404009800000F1E020C0F88011B1
:1019400070474907090E002806DA00F00F0202F17D
:10195000E02282F8141D03E000F1E02282F8001476
:1019600000F01F02012191404009800000F1E020B9
:10197000C0F88012C0F800117047000B40B27047E9
:101980002DE9F0410E46804600F044FF204D00282E
:10199000404616D0FFF73AFC284490F858008009DA
:1019A000032802D001280AD003E0404600F07CFB67
:1019B00028B103214046BDE8F04100F032BB0221CE
:1019C000F8E700F033FF002820D04046FFF71EFC68
:1019D0000446104F4FF4807007EB840100EB840045
:1019E000D1F8102580B242F00102C1F8102500F0B4
:1019F00099FB002E0AD04046FFF708FC55F820005E
:101A0000002803D00120A040C7F80403BDE8F081FE
:101A1000A0010020006000402DE9FC41DFF8AC800F
:101A2000044608EB0400002790F930001346C01765
:101A30000E46401C01D0082744E0F27819462046A3
:101A4000FFF7C0FB0546401C3BD0B07868B1684644
:101A5000009400F00DFB009900EB8100D0F8001716
:101A600021F00201C0F8001707E00021737820463A
:101A700000910A46019100F086FAF078C0B114484E
:101A8000317800EB8500D0F81025124B1A40C0F8D1
:101A900010254FF47C524FF4403302EA042203EA4B
:101AA00001410A43D0F810150A43C0F8102509E097
:101AB00008EB0500327810F8581F41EA82110170D6
:101AC00000E004273846BDE8FC810000A0010020AA
:101AD00000600040FFC0FCFF10B500F0E5FA0028F0
:101AE00000D0012010BD000070B5144D95F86400C1
:101AF00008B1082070BD0020411E2A18401CC0B249
:101B000082F830103028F8D300242046FFF74CFB31
:101B1000641CE4B20C2CF8D307210620FFF711FF58
:101B20004FF4BE7000F0FEFA05494FF00040C1F8D6
:101B30000403012085F86400002070BDA00100208E
:101B400000600040034890F86400002800D00120A5
:101B500070470000A00100200121B1EB507F01D1AE
:101B600001207047002070472DE9F04105460079BB
:101B7000164F904607EB40140E46E07E10B1082049
:101B8000BDE8F081707F20772846FFF721F85FEAF3
:101B9000080060603169216003D0317F2846FFF77B
:101BA00073FC287907EB4010007F0028286801D0DB
:101BB000082100E00421C0F800150020E07520761F
:101BC000A0750121E176A076DAE700000802002086
:101BD0002DE9F047054600793F4E904606EB40144C
:101BE0000F46207F18B10846FFF7B6FF30B12846F0
:101BF00000F074F820B11120BDE8F0871020FBE759
:101C000084F81680A7600027A78228794FF0010882
:101C100006EB40143E46207F0028286825D04FF46C
:101C20009079494600F0F0FD4FF4AC7A51462868AF
:101C300000F0EAFD2868A17DA268C0F84425C0F83C
:101C400048152868C0F808806068F0B949462868D7
:101C500000F0D5FD80465146286800F0D0FD58EAD6
:101C60000001F3D058BBA7750FE04FF48E7A5146B0
:101C700000F0B9FD2868C0F808802146286800F007
:101C8000F5FF61684FF4807089B13046B4E7514682
:101C9000286800F0A3FD10B9A08A4845F7D1A08AB2
:101CA000484505D02146286800F0E0FF00E0814665
:101CB000A08AA17D8842EAD3A08A484501D10F2697
:101CC000D1E75146286800F089FD0028F9D028683E
:101CD000C0F80C80C7E70000080200200079044922
:101CE00001EB4010807D002800D0012070470000EB
:101CF0000802002070B5044600791149002601EB66
:101D0000401520682A7FC0F80065686888B120798E
:101D100001EB4010007F0028206801D0094901E054
:101D200008498C39C0F808132068FFF726FEFFF732
:101D3000FDFD204600F086FDEE766E6070BD000071
:101D400008020020100302000FB408B5039900290F
:101D500004D004AA00926A4600F00FF801B05DF8C2
:101D600014FB10B582680446002A05D0D4E90403A8
:101D7000216898470020A06010BD2DE9FC479146DE
:101D80000C00804676D014F8011B39B125290ED0FD
:101D90004046FFF7EBF920780028F4D198F80C00C2
:101DA000002867D04046BDE8FC47FFF7DABF0020B7
:101DB000012221782B291BD02D2902D0302908D1CE
:101DC00002E040F0010001E040F00200641C002A43
:101DD000EFD100252A290ED02178A1F130020A2A5C
:101DE00011D205EB850201EB4205641C303DF1E7A1
:101DF00040F00400EAE7D9F800100B1DC9F80030E4
:101E00000968641C0D44217800232E290BD114F895
:101E1000011FA1F130020A2A05D203EB830201EB74
:101E20004203303BF3E76C290DD068290BD06929B8
:101E300021D00BDC252918D0582931D063290ED0A8
:101E4000642915D117E014F8011FECE7702969D057
:101E5000732932D075291BD0782909D120E0D9F80F
:101E60000000011DC9F8001001784046FFF77EF917
:101E7000641C90E76CE0D9F800100A1DC9F8002036
:101E80000968CDE900500A224046FFF7A9FAEFE7BA
:101E9000D9F800100A1DC9F8002009680A2206E0D6
:101EA000D9F800100A1DC9F8002009681022CDE9F0
:101EB0000050404601F02EF8DAE7D9F8001000276C
:101EC0000A1DC9F800200E68C00705D112E040467F
:101ED000761C7F1CFFF74AF931780029F7D104E01E
:101EE000202140466D1EFFF741F9BD42C0D9002DAB
:101EF000F6D1BDE74EB13046FEF794FA074604E04E
:101F0000202140466D1EFFF731F9BD4206D9002D54
:101F1000F6D103E04046761CFFF728F93178002916
:101F2000F8D1A5E7D9F80000011DC9F8001005682F
:101F300030214046FFF71AF978214046FFF716F99D
:101F400008200021CDE90001034610222946B0E710
:101F5000BDE8FC872DE9FF411C46DDE90A781546FE
:101F60000E46684600F076F846EA450141EA8401EB
:101F700041EA072242EA0841009A00EB8200C0F8D9
:101F80000017BDE8FF812DE9FF411C46DDE90A7815
:101F900015460E46684600F06BF846EA450141EAF0
:101FA000840141EA072242EA0841009A00EB8200DC
:101FB000C0F80017BDE8FF812DE9FF411C46DDE9AF
:101FC0000A7815460E46684600F060F846EA450174
:101FD00041EA840141EA072242EA0841009A00EB03
:101FE0008200C0F80017BDE8FF811CB500210091F8
:101FF0000B4601220191FFF7DFFF1CBD1CB500223B
:102000000B46009211460192FFF7D6FF1CBD1CB58E
:10201000002100910B46012201911146FFF7CCFFF0
:102020001CBD13B50C46684600F022F8009900EB81
:102030008101D1F8002722F44032C1F8002700992D
:1020400000EB8100D0F8001741EA0441C0F8001706
:102050001CBD00000168202902D24FF0A04070474B
:1020600001F01F01016001487047000000030050AB
:102070000168202902D24FF0A040704701F01F01F3
:1020800001600148704700000003005001682029EA
:1020900002D24FF0A040704701F01F0101600148DB
:1020A000704700000003005001B56846FFF7E0FFED
:1020B000D0F810050099C84000F0010008BD01B536
:1020C0006846FFF7E3FF009A01219140C0F8081528
:1020D00008BD38B501240090684631B1FFF7BAFF5A
:1020E00000998C40C0F8084538BDFFF7B3FF009950
:1020F0008C40C0F80C4538BD1CB5094C0144D4E9EE
:102100000034CDE900346C4606E000BF54F82030BE
:10211000D3F81035401C08C28142F7D81CBD00001E
:102120002C300000034908B5084400210160006814
:10213000009008BD0060004002494058012800D0CE
:10214000002070470060004070B5184A0024D2F8A3
:102150001034194609E00D7AA54205D1641C0A2CF9
:10216000F7DB4FF0FF341FE049680029F3D1611C11
:102170001AD00472D2F8101431B149684160D2F813
:102180001014486000250BE00021C2F810044160E3
:10219000F8E700231A462946204600F021FA6D1C74
:1021A00000F014FAA842F4D8204670BD5404002070
:1021B000F0B595B01C4615460F4608461A9E00F02D
:1021C000E7FA182109A8FEF722F90E96CDE909547D
:1021D0000023082203A9384600F0F4FA0598069077
:1021E0000498ADF81C0000208DF820000398082604
:1021F00000F00300012802D002281DD03CE0039823
:102200003346850AC0F3C2008DF81E0003980FA95B
:10221000C0F380008DF81F000398C0F38314A20060
:10222000384600F0CFFA09A8009006AB22460FA965
:10223000284600F009FA1FE00398840DC0F3C2009D
:102240008DF81E000398C0F380008DF81F00082C45
:1022500001D2254600E0082533462A460FA9384614
:1022600000F0B0FA2E44641B09AB06AA29460FA859
:1022700000F028F9002CEAD1384600F092FA15B0A7
:10228000F0BD7047012000F015BD000010B50448F6
:10229000FFF730FDBDE81040002000F00BBD00004E
:1022A000A400002008B5034A00924023024AFFF729
:1022B0007FFF08BDDD29000054030020084A0129E2
:1022C00002EBC00005D0022903D0032903D0042962
:1022D00003D00020704700797047407970470000B4
:1022E0003034000010B5FFF7CDFF04210348FFF79D
:1022F0002BFF02490120487210BD0000AC000020F5
:102300002DE9FE4FFEF742FF10B10020BDE8FE8F21
:1023100063480021C0F81414D0E9014604EA06011C
:1023200000EB81014FF000090AE000BFC1F3891200
:1023300002EB9151641C0C4404EA060100EB81019C
:10234000C9688A07F2D000216A46804604EA06007E
:1023500008EB8000641CC06842F82100491C022977
:10236000F4D3009800F00300022800981CD0C0F3BA
:102370008311062900D3062161F389100090C0F370
:102380008310801C8100474800F0B9F9070075D020
:1023900000F0FEF94B4608226946384600F018FA6C
:1023A00009F10809002557E0810D50228A46B2EB59
:1023B000905F00D850210D4665F39F500090083182
:1023C000384800F09CF9070058D000F0E1F94B467E
:1023D00008226946384600F0FBF904EA0601701A43
:1023E0008000001D09F1080B854220D92C4E0C36C7
:1023F00030B1C2B208EB8101281A91460C3104E0D9
:102400003146EAB2002691463046C5B25B463846B0
:1024100000F0DEF90BEB090326B12A4631463846B7
:1024200000F0D6F90AF1030004EB90041AE008EB7F
:1024300081015B462A4638460C31F1E704EA060082
:1024400008EB80014B46042238460C31641C00F036
:10245000BFF909F104096D1C0098C0F38310A8426C
:10246000ECD85FB11048FFF7B9F9D8F810544646D8
:1024700005B140B1384600F094F97460FEF786FE6D
:1024800080F0010042E7687A012804D12A682846D2
:102490003946126890476D68002DF4D1EAE70000D4
:1024A00054040020783000006808002000231A46F9
:1024B00000F0A8BA08B5012300926A4600F0A2FA1B
:1024C00008BD00002DE9F0470E4680461C469246A6
:1024D00008293ED894F80C90002020731946104625
:1024E00000F00AFA0025B54206D218F805201AA114
:1024F0002046FFF729FC03E019A12046FFF724FC42
:102500006D1C082DEFD317A12046FFF71DFC0025F9
:10251000B54210D218F80570FDF75CFF0068C05D89
:1025200010F03E0F01D03A4600E02E220EA12046C8
:10253000FFF70AFC03E00DA12046FFF705FC6D1C28
:10254000082DE5D301222146504600F0B7F984F862
:102550000C90BDE8F08700002025303278000000A4
:10256000202020007C0000002563000020000000E7
:10257000114810B5FF218160002101604160C0F861
:102580001814C0F8141480F81C140C4800F007F953
:1025900000280FD10A480B490B4B401AC1080020F4
:1025A00005E000BF00EB400223F82200401C8842F7
:1025B000F8D3002010BD0000540400207830000043
:1025C0005034000030340000040100200248034968
:1025D000401AC0087047000050340000303400003A
:1025E0001FB51146002443B901A8FFF7DBF820B955
:1025F0000348019900EBC100847904B0204610BD66
:102600003034000013B56846FFF7CCF808B100205D
:102610001CBD0248009950F831001CBD3034000048
:1026200070B508480125D0F8104480F81C5405E026
:10263000657221682046496888476468002CF7D194
:1026400070BD0000540400202DE9FF4781460C9D19
:1026500000200C462F7B28739846164629461846BC
:1026600000F04AF9072E42D2DFE806F004090F16FF
:102670001F2A360049462846FFF766FB37E04946E1
:1026800028462268FFF760FB31E0D4E90023494681
:102690002846FFF759FB2AE0A0680090D4E9002300
:1026A00049462846FFF750FB21E0D4E90201CDE975
:1026B0000001D4E9002349462846FFF745FB16E010
:1026C00004F1080007C88DE80700D4E90023494653
:1026D0002846FFF739FB0AE004F108000FC88DE82F
:1026E0000F00D4E9002349462846FFF72DFB0022BE
:1026F0002946404600F0E2F82F73BDE8FF872DE938
:10270000F041058A80462D1F4819C01CB0FBF5F02A
:10271000C6B24046FFF76FF8041E19D000202071A2
:1027200001206071E58000272546761EC4F80080F0
:102730000BE04046FFF75FF860B16179491C6171B9
:10274000286005467F1CC0F80080B742F1D32046C0
:10275000BDE8F081204600F002F80020F8E72DE9FE
:10276000F041457901466B1E002201E00968521CC8
:102770009A42FBD30F680146002605E038460C68F4
:10278000FFF758F82146761CAE42F7D3BDE8F0813A
:1027900008B501216A46001DFDF76FFD08BDFFF772
:1027A0005EB838B50446001D01216A46FDF772FD8A
:1027B000009810F0FF0F04D12046BDE83840FFF725
:1027C000CEBF38BD38B501240094FEF7AFFF38BD49
:1027D00038B500240094FEF7A9FF38BD4058002802
:1027E00000D00120704708B50022425040580090A8
:1027F00008BDD0F80403084000D0012070474058BD
:10280000002800D00120704708B5002242504058EF
:10281000009008BD0449084490F93000082801DB05
:102820000120704700207047A0010020044908449F
:1028300090F93000082801D201207047002070472D
:10284000A001002070B5034600791B4901EB401040
:102850001968027F4FF0FF30002AD1F80C25D1F81B
:102860001465D1F80855D1F8104504D0C1F80C050D
:10287000C1F8140503E0C1F81405C1F80C05196886
:10288000C1F80805C1F81005501C02D01046FFF72A
:10289000ACFB701C02D03046FFF7A7FB601C02D0D7
:1028A0002046FFF7A2FB681C04D02846BDE8704014
:1028B000FFF79BBB70BD00000802002010B50C465E
:1028C000C17949B11AB109A12046FFF73DFA204666
:1028D000BDE81040FFF745BA007A0028F3D004485D
:1028E00004A102682046FFF72FFAECE70D0A00006A
:1028F000DC0000202573000070B50446C0790D4649
:1029000000281CD1207A50B1A179A088FFF7D6FC0D
:102910000B4951F820200BA12846FFF715FAA08893
:102920000021FFF76FFE03460549A079143951F8DD
:1029300020202846BDE8704003A1FFF705BA70BD0E
:10294000DC000020257300003C25733E2025733AEF
:102950002000000070B5012670044FF0E021002532
:10296000C1F88001084C4010C4F84803C4F80803BB
:1029700066602F20FEF794FFA660044C2F20A56010
:10298000FEF78EFFA57070BD00100140880000208A
:1029900070B50546C87D0C4600284FF48471284662
:1029A0000AD0FFF720FFD5F81805627EE168885449
:1029B000607E401C607670BDFFF715FFD5F81805E6
:1029C00070BD1FB501238DF800308DF808100192FD
:1029D000D0E90012684690471FBD000010B5084CB2
:1029E0000020D2B22070201DFFF7F2F808B1FEF7E8
:1029F00041F86078002802D021780029FAD010BD73
:102A0000A00000202DE9F843DFF88C8004469146B1
:102A100098F81C04D8F808500F461E46002838D1F4
:102A200069461846FEF778FB002832D00098C44665
:102A300000EA050108EB810252F80C1F21F00301A6
:102A4000491C401C1160E30602D541F0040101E07D
:102A500021F0040164F3C50166F3891167F39F2136
:102A6000116000EA0501220C0CEB8101401CCA60D8
:102A7000009000200BE000BF009959F8203001EAD7
:102A800005020CEB8202491CD360401C0091B0424D
:102A9000F2D3BDE8F8830000540400202DE9F84F7C
:102AA0001D4C00256846D4E901A6FEF74DFC002721
:102AB00038B30023009A61681CE0D1F800C00846D2
:102AC000944503D9ACEB02020A6015E0A2EB0C02BC
:102AD00063440760D0F80CC0C1698146BCF1000FA7
:102AE00008D006EB030828F07F48C0E9018CC9F83C
:102AF0001C5005460029E0D128466160FEF722FD02
:102B000003E02846FEF71EFD10B15046FEF796FB87
:102B1000E770BDE8F88F0000880000200D4B10B56D
:102B2000596831B102680C68A24204D8A21A0A603E
:102B3000C161586010BD0B4603E00B46C969121B0A
:102B400021B10C689442F8D3A41A0C600260C161F0
:102B5000D86110BD880000202DE9F041144E77683F
:102B60003D462C4603E0844204D02546E469002C0F
:102B7000F9D11BE0D4B1A5420BD1F869706040B91E
:102B80000C49012088600021B160F0702F20FEF711
:102B900087FE2168E069E86110B1026811440160B4
:102BA0007068874202D00120BDE8F0810020FBE779
:102BB0008800002000100140F8B5064600240D46AC
:102BC0002046FDF7EFFF684600F0FEF968B105709A
:102BD000084946609DF8000048700020FDF7E4FFBA
:102BE0001420FDF76DFD2046F8BD04240020FDF7FC
:102BF000DBFFF8E7480200202DE9F041194D6C6831
:102C0000002C2CD0184800270068A968B846401A44
:102C100020F07F462068B0420CD82146361A07447F
:102C2000E469087C20B181F8108088694969884787
:102C3000002CEFD129786878814206D1401CC0B2BF
:102C40006870022801D185F80180064869780C3047
:102C500040F82170BDE8F0411420FDF731BDBDE81A
:102C6000F0810000880000200415014070B50C467A
:102C700005464FF48E71FFF7B6FDA18AA068415C4E
:102C8000A08A401CA082C5F81C1570BD1FB500228B
:102C90008DF800208DF80810816801918275D0E9C7
:102CA0000012684690471FBD014901200870704717
:102CB000A000002010B588B0044620220E496846C6
:102CC000FDF78CFB06200090C01F0190029003903E
:102CD0004FF0EB7006900CB1084A00E00022694604
:102CE0000748FEF741FF08B1FDF7C4FE0448001F86
:102CF000447008B010BD000058300000A92C00003E
:102D0000A40000202DE9FF470C4605464FF4007152
:102D1000FFF76FFD01274FF40178002618B34FF439
:102D2000927949462846FFF759FDE0B149462846C1
:102D3000FFF759FDC5F80883A07E00B96F60022037
:102D40008DF80000D5F88004C5F880040390E07D7C
:102D50008DF80800E0680190E6752676D4E9001247
:102D60006846904727E004212846FFF742FD10B34C
:102D70004FF484712846FFF731FDE0B12146284623
:102D8000FFF706FEE07D617E884214D1207E38B1D7
:102D9000617EE268E0752069E0602676667607E08D
:102DA000A07E00B96F60C5F80883E675617EE268B1
:102DB0002046FFF706FE4FF48E7841462846FFF77F
:102DC0000DFD88B1A08AA17D884204D22146284603
:102DD000FFF74CFF08E041462846FFF704FDA17DC0
:102DE00011B12046FFF752FF4FF4A2784146284622
:102DF000FFF7F4FC002812D041462846FFF7F3FC09
:102E0000A07E00B12F60E07D002808D0E675617ECD
:102E1000E26804B02046BDE8F047FFF7D2BDBDE848
:102E2000FF872DE9FF410C464FF49277054639465E
:102E3000FFF7E5FC0026C0B139462846FFF7E4FC61
:102E400002208DF80000D5F88004C5F880040390B6
:102E5000D5F83C058DF80800E0680190E675267607
:102E6000D4E900126846904724E04FF48877394649
:102E70002846FFF7C4FCE8B139462846FFF7C4FCF2
:102E8000D5F83C05C1B2E07D884213D1207E60B107
:102E9000E268D5F8000220F02000C5F80002207E8C
:102EA000E0752069E060267601E0E675E26820467C
:102EB000FFF787FD4FF4A27739462846FFF79FFCBE
:102EC00068B139462846FFF79FFCE07D38B1E675CA
:102ED000D5F83C05E268C1B22046FFF772FD4FF419
:102EE000907631462846FFF78AFC00280FD03146FD
:102EF0002846FFF789FCA07D002808D0D5F84C05AE
:102F000004B0C1B22046BDE8F041FFF7BFBEBDE846
:102F1000FF8100002DE9F05F8346DDE90A4A99460A
:102F200090460D460846012703E000BFB0FBF8F0CD
:102F30007F1C4045FAD2B94500D94F465FEACA70B6
:102F400012D18CB15FEA8A7002D5B9F1000F01D0BD
:102F5000202607E0302605E031465846641EFEF77D
:102F600005F90CB1A742F7D35FF00106B9F1010FE3
:102F700002D9A9F1010903E0B5FBF6F0404502D3FF
:102F800006FB08F6F2E7DFF83C9000BFB5FBF6F071
:102F900000FB165519F800105846FEF7E7F8B6FB87
:102FA000F8F6002EF2D15FEACA7009D0002C07D0E3
:102FB000A74205D220215846641EFEF7D7F8F5E750
:102FC000BDE8F09F3C3000000A494A788B78521CDB
:102FD000D2B2934200D100220B78934201D100205B
:102FE00070470270487800EB400001EBC000001D04
:102FF00070470000480200200D0E0F100B0C18192E
:103000003401002054010020800100200B00030047
:10301000610D00000C000300610D000018000300AA
:10302000610D000019000300610D00000000005058
:10303000000300502802002003000000303132332A
:10304000343536373839414243444546A5220000DD
:103050008D22000083220000FFFFFFFFFFFFFFFF24
:10306000FFFFFFFFFFFFFFFF000000000000000068
:103070000000D60107010000C0000020B8000020B9
:10308000C0000020940300201800000000404040D1
:10309000404040404040414141414140404040402B
:1030A00040404040404040404040404040050202D7
:1030B0000202020202020202020202020220202096
:1030C00020202020202020020202020202029090F2
:1030D00090909090101010101010101010101010F0
:1030E0001010101010101010020202020202888844
:1030F0008888888808080808080808080808080850
:103100000808080808080808020202024000000037
:103110008D3000004253505F494E4449434154456D
:103120005F555345525F53544154455F3000000092
:103130004253505F494E4449434154455F414C45D9
:1031400052545F30000000004253505F494E4449E2
:10315000434154455F555345525F53544154455F75
:10316000310000004253505F494E444943415445A9
:103170005F414C4552545F31000000004253505FA4
:10318000494E4449434154455F555345525F53545A
:103190004154455F320000004253505F494E44495C
:1031A000434154455F414C4552545F32000000009A
:1031B0004253505F494E4449434154455F5553453E
:1031C000525F53544154455F330000004253505FF7
:1031D000494E4449434154455F414C4552545F3345
:1031E000000000004253505F494E4449434154455A
:1031F0005F434F4E4E454354454400004253505F99
:10320000494E4449434154455F414456455254490F
:1032100053494E475F4449524543544544000000DA
:103220004253505F494E4449434154455F49444CE1
:10323000450000004253505F494E444943415445C4
:103240005F555345525F53544154455F4F464600C6
:103250004253505F494E4449434154455F414C45B8
:1032600052545F4F464600004253505F494E444916
:10327000434154455F424F4E44494E4700000000D1
:103280004253505F494E4449434154455F53434183
:103290004E4E494E470000004253505F494E44494C
:1032A000434154455F4144564552544953494E4762
:1032B000000000004253505F494E44494341544589
:1032C0005F53454E545F4F4B000000004253505F28
:1032D000494E4449434154455F5243565F4F4B006A
:1032E0004253505F494E4449434154455F5553450D
:1032F000525F53544154455F4F4E00004253505F5C
:10330000494E4449434154455F53454E445F4552FD
:10331000524F52004253505F494E44494341544535
:103320005F464154414C5F4552524F5200000000ED
:103330004253505F494E4449434154455F524356BE
:103340005F4552524F5200004253505F494E44492C
:10335000434154455F4144564552544953494E47B1
:103360005F57484954454C49535400004253505FFD
:10337000494E4449434154455F414456455254499E
:1033800053494E475F534C4F570000007761726EB0
:10339000696E670064656275670000001B5B313B06
:1033A00033306D001B5B306D000000001B5B313B58
:1033B00033316D001B5B313B33326D001B5B313BA6
:1033C00033336D001B5B313B33346D001B5B313B92
:1033D00033356D001B5B313B33366D001B5B313B7E
:1033E00033376D00696E666F000000006572726FA2
:1033F000720000006770696F746500007561727417
:103400000000000062616C6C6F630000617070000E
:10341000503400000000002034010000940400003B
:10342000D03400003401002044270000540900007B
:10343000F433000000000000FC3300000000000036
:1034400004340000000000000C3400000000030001
:1034500051332032338032339832334833336C3334
:1034600033FC3133683233E43133B43233FC32333A
:10347000CC32333033331433333031336431339817
:103480003133CC3133503233343233143133483169
:10349000337C3133B0310344E03254200040031F09
:1034A0004C3033EC33338C3333E43333943333A441
:1034B00033339C3333AC3333B43333BC3333C4335F
:1034C00033CC3333D43343DC33043190D0030000A6
:0400000500000201F4
:00000001FF
