:020000040000FA
:10000000F02C0020B9060000C106000085040000A5
:10001000C5060000C7060000C90600000000000079
:10002000000000000000000000000000CB060000FF
:10003000CD06000000000000CF060000D106000041
:10004000D70A0000D3060000150D0000D3060000FB
:10005000D3060000D30600003D080000D3060000D0
:10006000D3060000D3060000D3060000D30600002C
:10007000D3060000D3060000D3060000D30600001C
:10008000D3060000E50A0000D3060000D3060000F6
:10009000090B0000D3060000D3060000D3060000C1
:1000A000D3060000D3060000D3060000D3060000EC
:1000B000D3060000D306000000000000000000008E
:1000C000D3060000D3060000D3060000D3060000CC
:1000D000D3060000D3060000D3060000310D000057
:1000E000D3060000D3060000D30600000000000085
:1000F00000000000D306000000000000D30600004E
:1001000000000000000000000000000000000000EF
:1001100000000000000000000000000000000000DF
:1001200000000000000000000000000000000000CF
:1001300000000000000000000000000000000000BF
:1001400000000000000000000000000000000000AF
:10015000000000000000000000000000000000009F
:10016000000000000000000000000000000000008F
:10017000000000000000000000000000000000007F
:10018000000000000000000000000000000000006F
:10019000000000000000000000000000000000005F
:1001A000000000000000000000000000000000004F
:1001B000000000000000000000000000000000003F
:1001C000000000000000000000000000000000002F
:1001D000000000000000000000000000000000001F
:1001E000000000000000000000000000000000000F
:1001F00000000000000000000000000000000000FF
:10020000DFF80CD000F0EAFA00480047693B000034
:10021000F02C002030B4044654E8000F0D4644E8AA
:100220000053002BF8D1156030BC704730B4044641
:1002300054E8000F40EA010544E80053002BF7D1D1
:10024000156030BC704730B4044654E8000F00EA33
:10025000010544E80053002BF7D1156030BC70470E
:1002600030B4044654E8000F80EA010544E8005326
:10027000002BF7D1156030BC704730B4044654E809
:10028000000F00EB010544E80053002BF7D1156087
:1002900030BC704730B4044654E8000FA0EB0105B1
:1002A00044E80053002BF7D1156030BC70470000C4
:1002B00030B4044654E8000F0D4644E80053002BC8
:1002C000F8D1156030BC704730B4044654E8000FD4
:1002D00040EA010544E80053002BF7D1156030BC1B
:1002E000704730B4044654E8000F00EA010544E8C2
:1002F0000053002BF7D1156030BC704730B4044672
:1003000054E8000F80EA010544E80053002BF7D1C0
:10031000156030BC704730B4044654E8000F00EB61
:10032000010544E80053002BF7D1156030BC70473D
:1003300030B4044654E8000FA0EB010544E8005334
:10034000002BF7D1156030BC7047000030B4044674
:1003500054E8000F0D4644E80053002BF8D1156017
:1003600030BC704730B4044654E8000F40EA010541
:1003700044E80053002BF7D1156030BC704730B40F
:10038000044654E8000F00EA010544E80053002B3E
:10039000F7D1156030BC704730B4044654E8000F04
:1003A00080EA010544E80053002BF7D1156030BC0A
:1003B000704730B4044654E8000F00EB010544E8F0
:1003C0000053002BF7D1156030BC704730B40446A1
:1003D00054E8000FA0EB010544E80053002BF7D1CF
:1003E000156030BC7047000030B4044654E8000F7C
:1003F0000D4644E80053002BF8D1156030BC70471F
:1004000030B4044654E8000F40EA010544E80053C4
:10041000002BF7D1156030BC704730B4044654E867
:10042000000F00EA010544E80053002BF7D11560E6
:1004300030BC704730B4044654E8000F80EA010530
:1004400044E80053002BF7D1156030BC704730B43E
:10045000044654E8000F00EB010544E80053002B6C
:10046000F7D1156030BC704730B4044654E8000F33
:10047000A0EB010544E80053002BF7D1156030BC18
:1004800070470000094B1EF0040F1CBFEFF30980FA
:100490001847EFF308800649064A884201D890427F
:1004A00002D88D464FF0000018470000010A0000F6
:1004B000F02C0020F00C002030B450E8012F93B253
:1004C000C48923448489A34228BF1B1B0489A342F7
:1004D00002BFBFF32F8F002007E0C3EA020340E80A
:1004E0000134002CE9D14FF001000A6030BC7047A4
:1004F00050E8012FC2EA024240E801210029F7D169
:10050000704730B450E8022F1FFAA2F3C488A34208
:1005100002BFBFF32F8F00200DE0C48923448489DC
:10052000A34228BF1B1BC2EA034340E80234002C4D
:10053000E8D14FF001000A6030BC704750E8022F4C
:10054000C2EA224240E802210029F7D1704703465F
:1005500053E8022FD988B2EB324F4FF0000017BF9B
:1005600092B241EA014142EA014104E05A68B2EB29
:10057000324F08BF012043E80212002AE8D1704739
:1005800030B4044654E8000F0D4644E80053002BF5
:10059000F8D1156030BC704730B4044654E8000F01
:1005A00040EA010544E80053002BF7D1156030BC48
:1005B000704730B4044654E8000F00EA010544E8EF
:1005C0000053002BF7D1156030BC704730B404469F
:1005D00054E8000F80EA010544E80053002BF7D1EE
:1005E000156030BC704730B4044654E8000F00EB8F
:1005F000010544E80053002BF7D1156030BC70476B
:1006000030B4044654E8000FA0EB010544E8005361
:10061000002BF7D1156030BC7047000030B40446A1
:1006200054E8000F0D4644E80053002BF8D1156044
:1006300030BC704730B4044654E8000F40EA01056E
:1006400044E80053002BF7D1156030BC704730B43C
:10065000044654E8000F00EA010544E80053002B6B
:10066000F7D1156030BC704730B4044654E8000F31
:1006700080EA010544E80053002BF7D1156030BC37
:10068000704730B4044654E8000F00EB010544E81D
:100690000053002BF7D1156030BC704730B40446CE
:1006A00054E8000FA0EB010544E80053002BF7D1FC
:1006B000156030BC70470000064880470648004778
:1006C000FEE7FEE7FEE7FEE7FEE7FEE7FEE7FEE702
:1006D000FEE7FEE70D0B0000010200002DE9F05FD0
:1006E0000546002092469B468846064681464024A1
:1006F0001BE0284641464746224600F05FF8534635
:100700005A46C01A914110D311461846224600F0AD
:1007100046F82D1A67EB01084F46224601200021BA
:1007200000F03DF817EB00094E41201EA4F1010432
:10073000DFDC484631462A464346BDE8F09F0000CC
:10074000004870479883000040EA01039B0703D0EC
:1007500009E008C9121F08C0042AFAD203E011F800
:10076000013B00F8013B521EF9D27047D2B201E0C2
:1007700000F8012B491EFBD270470022F6E710B5A6
:1007800013460A4604461946FFF7F0FF204610BDFF
:10079000421C10F8011B0029FBD1801A7047202A47
:1007A00004DB203A00FA02F1002070479140C2F1C8
:1007B000200320FA03F3194390407047202A04DBFA
:1007C000203A21FA02F00021704721FA02F3D040CA
:1007D000C2F120029140084319467047064C074D6C
:1007E00006E0E06840F0010394E807009847103401
:1007F000AC42F6D3FFF708FD2887000048870000C9
:1008000030B58C1810F8012B12F00F0301D110F83D
:10081000013B120906D110F8012B03E010F8015B2F
:1008200001F8015B5B1EF9D101E001F8013B521EAA
:10083000FBD1A142E6D3002030BD00002DE9F04FEE
:1008400000268FB0DFF8B081B14602964FF4807574
:10085000012437460396284605F04AFB38B1D8F8FC
:100860000403204203D0284605F038FB26432D1D03
:1008700064007F1CADB2082FEDD34FF4BE74204648
:1008800005F036FB48B1204605F028FB46F000464F
:1008900002AA0221002005F0E7FA584C16F0FF0FDB
:1008A00015D00127002537420DD008EB8501D1F87E
:1008B0001005D1F81015C0F3052054F82520C1F318
:1008C000014102B190477F006D1C082DEBD3002E33
:1008D0007DDA0020CDF82890411E0DF1080B08AA02
:1008E000CDF82C9042F82010401C91460228F9D3F4
:1008F00000252E46A01910F8607F90F9000027F01F
:10090000C008401C49D008A9404603F079FB88B3D1
:100910004FEA971A404602F095F954F820701FB13B
:10092000BAF1030F03D00FE0BAF1030F35D10AA8D3
:100930004FEAD80208F00703815C4FF0010C0CFA73
:1009400003FC41EA0C01815406A8CDF8188005F09B
:10095000FBF9069900EB8100D0F8000702A9C0F36B
:1009600001400690404603F04BFB0028069802D059
:10097000022802D011E003280FD1BAF1030F08D1E9
:100980000698022832D00221404605F090F96D1CED
:10099000EDB217B151464046B847761C042EA9D394
:1009A000002D20D004AA0221002005F05DFA0020CD
:1009B0005A4604A952F8206051F82030B34217D0AB
:1009C00000200AAE4FEA090351F8207000E00AE067
:1009D00042F8207056F8207043F82070401C02281E
:1009E000F2D3002D84D10FB0BDE8F08F0321CBE707
:1009F000401C0228DED3F6E700600040C40300205C
:100A0000044682690B480121008801EB00400AA1DD
:100A100005F034FC05F0E8FC05F056FB0028FBD19E
:100A20000948046009480068C00700D000BE20469D
:100A300000F00EF850010020486172646661756C28
:100A4000742050433A257800B8000020F0ED00E013
:100A5000BFF34F8F05480168054A01F4E061114377
:100A60000160BFF34F8F00BFFDE700000CED00E019
:100A70000400FA0500F01F020121914040098000A6
:100A800000F1E020C0F88012704700F01F02012141
:100A900091404009800000F1E020C0F8001170474B
:100AA00000F01F02012191404009800000F1E02088
:100AB000C0F8001270474907090E002806DA00F056
:100AC0000F0000F1E02080F8141D704700F1E020D5
:100AD00080F80014704710B503F04EFCBDE81040DC
:100AE00003F004BE07480021C0F84011C0F84411CB
:100AF000C0F84811C0F84C11C0F80011C0F804113A
:100B000006F0D8BD0010014006F026BD30B54FF00C
:100B100080500022D0F830110123082902D1D0F8EA
:100B2000344114B1082909D00BE04FF08041C1F8DD
:100B30000C21C1F8102168490A6005E0D0F8344161
:100B400014B1082957D059E064490968644C216000
:100B50006249091D0968241D21606049083109683E
:100B6000241D21605D490C310968241D21605B4909
:100B700010310968241D2160584914310968241D69
:100B80002160564918310968554C20342160534979
:100B90001C310968241D2160504920310968241D39
:100BA00021604E4924310968241D21604B492831B8
:100BB0000968241D216049492C310968241D2160E0
:100BC000464930310968464C40342160434934314C
:100BD0000968241D2160414938310968241D2160BC
:100BE0003E493C310968241D21603C494031096877
:100BF000241D216005E0D0F8344114B1082904D047
:100C000006E0394C3749216005E0D0F8344114B191
:100C1000082904D006E0354CFB21216005E0D0F81E
:100C2000344114B1082908D00AE090F858423048FD
:100C3000016864F30301016005E0D0F8344114B1A8
:100C4000082905D00EE02B494FF40070086002E03F
:100C5000D0F8340130B928480168C90702D06FF0D4
:100C6000010101602548016841F470010160BFF392
:100C70004F8FBFF36F8F4FF01021D1F80002002883
:100C800003DBD1F80402002822DA1D4C23601D4842
:100C90000368002BFCD01223C1F800320568002D38
:100CA000FCD0C1F8043201680029FCD02260016840
:100CB0000029FCD0BFF34F8F10487C380168124ADE
:100CC00001F4E06111430160BFF34F8F00BFFDE706
:100CD0000F490E48086030BD38050040040400107C
:100CE00020C50040488103008C56004018F50040A4
:100CF000E40E0040409602400004004088ED00E011
:100D000004E5014000E401400400FA050090D0032E
:100D10001C0100200448017F04480029024901D039
:100D200006F0E1BD06F050BD2C040020002000407C
:100D30002DE9F05F5448D0F8045300242E464FF0BC
:100D4000010913E096FAA6F0B0FA80F7B80000F5B2
:100D50008070804605F082FF28B1404605F086FF8E
:100D600009FA07F0044309FA07F08643002EE9D197
:100D700004F07AFA002869D0444AD078F0BBA00287
:100D800064D5434940F2A978C1F80080081D036882
:100D900013F0FF0C02D0036803EA0C0C40F2AA7AAD
:100DA000C1F800A0036813F0FF0301D006683340C8
:100DB00040F2AB7BC1F800B0066816F0FF0601D028
:100DC00007683E4040F2AC770F60076817EA0C07EF
:100DD00009D0D2F810C04CEA070CC2F810C0C1F814
:100DE00000800760076840F2AD770F6007681F401A
:100DF00009D0136943EA0743136100E026E0C1F814
:100E000000A00760036840F2AE730B6003683340D4
:100E10000BD0DE0701D044F40004DE0601D544F017
:100E20000104C1F800B003600068106930F00111DE
:100E300002D005F080710C4310F0011F06D0690547
:100E400004D520F0011044F480641061C4F3C0564E
:100E500024F400044F46DFF83C8009E094FAA4F043
:100E6000B0FA80F558F82500804707FA05F084436A
:100E7000002CF3D106F0D0FE002E03D0BDE8F05FC9
:100E800002F07EB9BDE8F09F0070024078000020BB
:100E900000780240FC81000002E008C8121F08C16F
:100EA000002AFAD170477047002001E001C1121FEB
:100EB000002AFBD17047022001F096BB70B50A4DA5
:100EC000686818B909A1902001F046FB002406E0EB
:100ED0006868012110F8340003F0C2FA641C287815
:100EE0008442F5D3002070BD8C0000202E2E5C2E95
:100EF0002E5C2E2E5C2E2E5C2E2E5C2E2E5C636FB6
:100F00006D706F6E656E74735C6C6962726172692C
:100F100065735C627574746F6E5C6170705F62752E
:100F200074746F6E2E630000F8B515460C460646C5
:100F3000052A01D20720F8BD03F096FB18B903F08B
:100F400065FB0028F7D1104900204E600C70C1E904
:100F500002500E4D08610DE006EBC4006968009177
:100F600081788DF801100078094A694603F0D8FAB3
:100F70000028E0D1641EE4B2EED2BDE8F840054A94
:100F80000021024800F06CB88C0000209C82000018
:100F900065330000392E000070B506460D480D4639
:100FA00001210088144601EB00400BA105F062F915
:100FB00005F01AFA05F088F80028FBD10848006807
:100FC000C00700D000BE224629463046BDE870402A
:100FD00000F014B868010020466174616C000000E4
:100FE000F0ED00E00EB5ADF80010CDE901206A4645
:100FF000002144F20100FFF7CFFF0EBD08B5012329
:101000008DF800309DF80030144B186059609A60DC
:101010006FF48041401807D001280FD1DA60D868FA
:1010200000889861D86807E01A611869806858617B
:1010300018690088986118694068D861186858680C
:101040009868D868186958699869D86972B600BFF5
:101050009DF800000028FBD162B608BDA406002060
:10106000074B9B7823B12AB120B10068037C1BB1E8
:101070000820704707207047417442610020704784
:10108000C406002070B505F031FF104800240B2184
:10109000047044700E4D817014206C602C706C7064
:1010A000FFF7E8FC07211420FFF705FD1420FFF7E8
:1010B000ECFC0848046007211120FFF7FCFC054800
:1010C000001F0068A860002070BD0000C40600205A
:1010D000A0000020081501402DE9F843DFF87090CA
:1010E00099F802305BB350B3052902D20720BDE85E
:1010F000F88343691BB3437C012B22D000270446AD
:10110000002588461646284601F064F9684606F030
:1011100047FFC0B1012101700E4944600968C0E970
:101120000218C0E904769DF8000089F8010000204B
:1011300001F07EF91420FFF7B3FC2846D7E708201A
:10114000D5E70F46DBE70425002001F071F9F4E74D
:10115000C4060020041501400649897839B130B130
:10116000416921B100210174022106F083BA0820EF
:1011700070470000C406002070B505460648446864
:1011800007E02946204601F065FD204600F02AF9D7
:101190000446002CF5D170BD2800002070B506462D
:1011A0000948062544680AE03146204601F052FD10
:1011B0000546062805D1204600F014F90446002C07
:1011C000F2D1284670BD000028000020F8B50400C8
:1011D00004D138A140F2923001F0BEF9606820B924
:1011E00034A140F2933001F0B7F96068006820B98B
:1011F00030A14FF4657001F0AFF92068006820B1AC
:101200002CA140F2953001F0A7F904F0C5F910B90E
:1012100004F0CCF920B927A140F2993001F09CF9F3
:1012200000250FE0002705E0007800F08DFC08B1F4
:101230001120F8BD3946781CC7B2304600F082F85C
:101240000028F1D12946681CC5B2204600F0A2F85A
:101250000600E7D100250DE0002703E000782146D5
:1012600000F078FC3946781CC7B2304600F06AF8C6
:101270000028F3D12946681CC5B2204600F08AF840
:101280000600E9D1194D40F2BF3607E0A04203D174
:1012900008A1304601F060F9286805682868002830
:1012A000F4D113482C60694640690090204601F053
:1012B000D1FCF8BD2E2E5C2E2E5C2E2E5C2E2E5CCC
:1012C0002E2E5C2E2E5C636F6D706F6E656E747368
:1012D0005C6C69627261726965735C757362645C8F
:1012E0006170705F757362642E6300002C000020D3
:1012F000B88000002DE9F0410E461D4617461946FC
:1013000001F0E0FC020014D0002421462B680EE01E
:10131000101990F801C0B44507D18F4203D101786C
:101320002960BDE8F081491CC9B200780444A34299
:10133000EED80020F5E70000014840687047000043
:101340002800002070B50D46040003D10649B920DD
:1013500001F002F96078A84201D8002070BDA078A1
:101360002044284470BD00009C83000070B50D46E9
:10137000040003D10649B92001F0EEF86078A842D4
:1013800001D8002070BDA0782044284470BD000022
:101390009C83000070B50D46040003D106498620E9
:1013A00001F0DAF8207AA84201D8002070BD05EBE0
:1013B00045000934204470BD9C83000070B50D4683
:1013C000040003D10649862001F0C6F8207AA8421D
:1013D00001D8002070BD05EB45000934204470BDE4
:1013E0009C83000010B5040004D104494FF4DB7065
:1013F00001F0B2F82068006810BD0000381E00003F
:1014000010B5040004D104A14FF4DB7001F0A4F87E
:101410002068006810BD00002E2E5C2E2E5C2E2E43
:101420005C2E2E5C2E2E5C2E2E5C636F6D706F6EAC
:10143000656E74735C6C69627261726965735C7508
:101440007362645C6170705F757362642E68000023
:1014500002484078002800D0012070472800002072
:1014600010B520B909A140F2574001F075F81549AF
:101470004878401C10F0FF00487004D103A140F2EE
:101480005A4001F069F8002010BD00002E2E5C2E9D
:101490002E5C2E2E5C2E2E5C2E2E5C2E2E5C636F10
:1014A0006D706F6E656E74735C6C69627261726987
:1014B00065735C757362645C6170705F75736264A0
:1014C0002E6300002800002010B520B908A140F2CA
:1014D000624001F041F8144C607820B904A140F258
:1014E000644001F039F86078401E6070002010BD43
:1014F0002E2E5C2E2E5C2E2E5C2E2E5C2E2E5C2E26
:101500002E5C636F6D706F6E656E74735C6C696278
:101510007261726965735C757362645C6170705F3F
:10152000757362642E6300002800002070B504000B
:1015300004D11CA140F2274001F00EF8606820B9E8
:1015400018A14FF4856001F007F86068006820B9C1
:1015500014A140F2294000F0FFFF04F01DF810B97B
:1015600004F024F820B90FA140F22B4000F0F4FF62
:101570002068406820B10BA140F22E4000F0ECFF43
:10158000164D40F2354608E0A04203D105A1304691
:1015900000F0E2FF286805682D1D28680028F3D1B7
:1015A0002C6070BD2E2E5C2E2E5C2E2E5C2E2E5CA2
:1015B0002E2E5C2E2E5C636F6D706F6E656E747375
:1015C0005C6C69627261726965735C757362645C9C
:1015D0006170705F757362642E63000030000020DC
:1015E00010B5040004D111A14FF4886000F0B4FFDD
:1015F00003F0D2FF10B903F0D9FF20B90BA140F2DC
:10160000424000F0A9FF17480BE0A14207D1216832
:1016100049680160206800214160084610BD0868E3
:10162000001D01680029F0D1052010BD2E2E5C2E72
:101630002E5C2E2E5C2E2E5C2E2E5C2E2E5C636F6E
:101640006D706F6E656E74735C6C696272617269E5
:1016500065735C757362645C6170705F75736264FE
:101660002E63000030000020044A127822F080022D
:10167000052A01D00820704703F050BD3C0000202F
:101680002DE9F843554C0E4603460A7806250321FA
:10169000022720784FF000084FF001090B2A78D27A
:1016A000DFE802F077060812772F5F343D474F00DE
:1016B00021706EE020B94AA140F23E3000F04CFFAC
:1016C000207840F0800019E044480021001D6A465F
:1016D000FEF7B9FD30B15148C0F80090BFF36F8FED
:1016E000BFF34F8F207830F0800004D13CA140F24E
:1016F0004A3000F031FF207800F07F002070002594
:1017000047E0184600F0EEF8054642E020B134A16B
:1017100040F2563000F020FF84F80090EFE70128F7
:1017200004D02FA140F25D3000F016FF84F8008055
:10173000E5E73B482770006810F0010FDFD021700B
:10174000DDE720F08000022804D825A140F26E30A9
:1017500000F002FF2078000601D58220CEE7277036
:10176000CDE7B07830B1802804D01DA140F27E30A2
:1017700000F0F2FE1949F07808310A6832B1C1F878
:10178000008049689047050006D000E00E2503F070
:1017900067FF2846BDE8F88306F078F910B103F03A
:1017A00022FFF6E7B0780028F3D11E480078082819
:1017B00010D11C48001D007800070BD119480830D3
:1017C000007810F0F00F05D116480C30007810F0BA
:1017D000F00FDED003F004FFDBE700003C00002048
:1017E0002E2E5C2E2E5C2E2E5C2E2E5C2E2E5C2E33
:1017F0002E5C636F6D706F6E656E74735C6C696286
:101800007261726965735C757362645C6170705F4C
:10181000757362645F636F72652E63005C70024073
:1018200038040040E00F00F002494978C14001F05F
:10183000010070473C000020024A0146D2E9000244
:1018400010470000FC02002070B50C46054603F06E
:10185000C1FEA84201D0102070BD0348D4E9001297
:10186000C0E90212002070BD3C00002070B50446A3
:101870000D46000704D00BA140F2DE3000F06CFEF4
:101880001748007820F08002052A05D0042A03D0EA
:10189000032A01D0082070BD29462046BDE87040CB
:1018A00003F03CBC2E2E5C2E2E5C2E2E5C2E2E5C6D
:1018B0002E2E5C2E2E5C636F6D706F6E656E747372
:1018C0005C6C69627261726965735C757362645C99
:1018D0006170705F757362645F636F72652E630021
:1018E0003C0000203EB5054605208DF8000003248D
:1018F0000DF1010003F08CFE9DF8010010F01F00B7
:1019000006D0012815D0022820D003282FD10CE0C2
:101910006946284605F048FB04469DF80100062C60
:10192000C0F3411022D1022821D16846FFF736FCCE
:101930001BE09DF80500694600F0AAFB04001AD0E0
:10194000062C14D1684600F049FC0EE09DF8050015
:1019500040B1802806D0694600F0B0F804000AD0F3
:10196000062C04D1684600F073F804461CB103F05D
:1019700077FE20463EBD06F089F810B103F033FE35
:10198000F7E703F02DFEF4E7FEB5C08814460E46D7
:10199000A04201D2054600E01546844207D28020CD
:1019A00003F0F4FAB4FBF0F100FB114068B1002041
:1019B0000096CDE90150002000F00CFD6946802022
:1019C000FFF754FF040002D006E00120F0E70549CC
:1019D0008020FFF739FF0446002000F029FD204653
:1019E000FEBD0000E480000008B140210160014814
:1019F000704700006003002010B503F0DFFD20B148
:101A000004A140F2672000F0A7FDBDE8104003F0FC
:101A100001B900002E2E5C2E2E5C2E2E5C2E2E5C2C
:101A20002E2E5C2E2E5C636F6D706F6E656E747300
:101A30005C6C69627261726965735C757362645C27
:101A40006170705F757362642E63000003F024B9E7
:101A5000F8B504464579807820B1012817D00328CD
:101A600018D10DE06846FFF7BFFF0646284603F091
:101A7000F9FA308002223146601CFFF785FFF8BD7D
:101A8000B4F8030030B9284603F0D2FA14E0B4F8F1
:101A9000030008B10620F8BD284604F067FF0128BE
:101AA00003D00121284604F06DFF05F00F0008283F
:101AB00002D2284603F0DEFA0020F8BD10B50C462D
:101AC00000F00AF8006820B12146BDE8104001F09E
:101AD000C1B8102010BD000010B5010600F00F04C1
:101AE00008D5092C04D309A140F21D1000F034FDE3
:101AF000144808E0092C04D304A140F2231000F09C
:101B00002BFD1048483000EBC40010BD2E2E5C2E7B
:101B10002E5C2E2E5C2E2E5C2E2E5C2E2E5C636F89
:101B20006D706F6E656E74735C6C69627261726900
:101B300065735C757362645C6170705F7573626419
:101B40002E630000B402002010B5FFF7C5FF006847
:101B500010BD000070B50D460646FFF7BDFF0446F8
:101B6000056015B16868006808E00EB1802E04D1E8
:101B700003A140F2471000F0EFFC0020606070BD50
:101B80002E2E5C2E2E5C2E2E5C2E2E5C2E2E5C2E8F
:101B90002E5C636F6D706F6E656E74735C6C6962E2
:101BA0007261726965735C757362645C6170705FA9
:101BB000757362642E63000038B50B4D04466946A8
:101BC000E86902F0DEF800280CD02168016069465F
:101BD000E86902F0F7F8014604480268002A01D0DB
:101BE0002046904738BD0000B88000004403002024
:101BF00070B5804C0546606820B97FA14FF428700D
:101C000000F0AAFC01F000F9072804D27AA140F202
:101C1000A72000F0A1FC2878062879D005DC78D22E
:101C2000DFE800F0788DB08F9DB980380528F6D2B6
:101C3000DFE800F04B0332565F007D4E012500BF08
:101C400056F8350018B145F0800003F083F86D1C9C
:101C5000EDB2092DF4D3764E0125483656F83500FD
:101C600010B1284603F076F86D1CEDB2092DF5D3BE
:101C70007048FFF7E1FD6F48FFF77EFA092006F094
:101C800087F9A06818B96A489030007A00B101203D
:101C900003F0EAFC012071E003F032FD002005F0C2
:101CA0002FFC6448401CFFF767FA6248401CFFF7AE
:101CB000C3FD0A2006F06CF9207800F03DFB0028F7
:101CC0003CD0BDE8704002F007BA2078052803D068
:101CD000062803D0072831D102204FE008204DE02C
:101CE000207803282AD103F055FD002826D00420AF
:101CF00044E02078032805D103F04CFD10B1042006
:101D000005F0FEFB03F0BEFD002817D0062035E0ED
:101D100046E068E0002006F03BF9A4684FF4E9765D
:101D20000AE02946204600F095FF1CB942A1304642
:101D300000F012FC20684468002CF2D170BD022033
:101D400000E0052005F0DCFB032006F021F9284621
:101D5000FFF772FD2846BDE87040FFF70DBA03207B
:101D600006F016F93348801CFFF766FD3148801CE9
:101D7000FFF702FA20780628AED10720BDE87040B0
:101D800005F0BEBB032005F0BBFB022006F000F906
:101D90002846FFF7F1F92846BDE87040FFF74CBD33
:101DA000A878FFF799FE0446006820B912A140F216
:101DB000663000F0D1FB606820B90FA140F26730B7
:101DC00000F0CAFBD4E90002294690470028B5D0AC
:101DD000A8780107B2D000F00F010829AED2BDE803
:101DE000704003F025B9BDE8704003A140F27730A0
:101DF00000F0B2BB280000202E2E5C2E2E5C2E2E72
:101E00005C2E2E5C2E2E5C2E2E5C636F6D706F6EC2
:101E1000656E74735C6C69627261726965735C751E
:101E20007362645C6170705F757362642E6300003E
:101E3000B4020020C98000002E2E5C2E2E5C2E2EB7
:101E40005C2E2E5C2E2E5C2E2E5C636F6D706F6E82
:101E5000656E74735C6C69627261726965735C75DE
:101E60007362645C6170705F757362642E680000F9
:101E7000FFF7A2BE38B5074C6946E06901F097FF4D
:101E8000002806D0FFF7B4FE6946E06901F084FF40
:101E9000012038BDB880000010B520B104A14FF476
:101EA000C87000F059FBBDE810400F48FFF784BE32
:101EB0002E2E5C2E2E5C2E2E5C2E2E5C2E2E5C2E5C
:101EC0002E5C636F6D706F6E656E74735C6C6962AF
:101ED0007261726965735C757362645C6170705F76
:101EE000757362642E630000B88000002DE9F04134
:101EF00007461878002416460D460B2830D2DFE836
:101F000000F0060F3C3E2F111643526467005988BB
:101F1000104601F0EBFB002854D0A869816828E046
:101F2000032156E02946384605F080F823E09878EA
:101F300000060FD5D87820B903222946384606F086
:101F400021F870680028E8D00321304600F088F8B6
:101F5000002437E0A869C06810B1D87810B106E055
:101F600006242FE002222946384606F00BF8A8691D
:101F7000C16838468847044624E0022126E0022151
:101F8000104600F06DF8C8E73846FFF7CFFA0400B6
:101F900018D13846FFF764FA040013D10021304607
:101FA00000F06EF80EE03846FFF71AFB040009D186
:101FB0003846FFF789FA040004D100214FEA0600F1
:101FC00000F04EF82046BDE8F08101211046E7E719
:101FD00001211046F4E72DE9FC4117460D4606465F
:101FE00001F008FA0446306BCDE90057694604F069
:101FF000F1FB10B11120BDE8FC81206800256FEADB
:10200000900040F30000401C02D000F0AFF90CE05B
:1020100020686FEAD00040F30000401C90F0010FF0
:1020200003D0304601F018FB05462846E3E70000E0
:1020300010B5040004D1034940F2BD1000F08CFA41
:10204000206910BDAC84000010B5040004D1034920
:1020500040F26B1000F080FA606910BD4C85000002
:10206000012208B58A40D1436A46FEF788F908BDC7
:10207000012208B58A40D1436A46FEF7CEF908BD71
:102080000A4608B5012191406A46FEF76BF908BD82
:102090002DE9F041144C07468846606820B913A129
:1020A00040F2E74000F058FA656817E02E7A002405
:1020B0000EE021462846FFF76DF90078B84205D1B9
:1020C00041462846BDE8F04100F0C4BD641CE4B2BE
:1020D000B442EED32846FFF785F90546002DE5D139
:1020E0001020BDE8F0810000280000202E2E5C2E7C
:1020F0002E5C2E2E5C2E2E5C2E2E5C2E2E5C636FA4
:102100006D706F6E656E74735C6C6962726172691A
:1021100065735C757362645C6170705F7573626433
:102120002E6300002DE9F843274D04460423842242
:102130002449E86901F012FE10B10320BDE8F883DC
:1021400002F068F8214803F0DFF90028F6D12048B2
:10215000B4B194E80E00143080E80E001D49002050
:102160000870486088601A4848217C38FEF705FBF3
:10217000174848213438FEF700FB174E002411E0C1
:1021800005F120010EC9E6E7002703E0007831469B
:10219000FFF7E0FC3946781CC7B24046FFF7D2F89B
:1021A0000028F3D12146641CE4B23046FFF7F2F870
:1021B0005FEA0008E8D1686800906946304600F0A0
:1021C00049FDBBE730020020B8800000711E00000E
:1021D00030030020280000201881000038B5044694
:1021E000807808B1062038BD6846FFF7FDFB014640
:1021F000002008800222601CFFF7C6FB38BD0000EB
:1022000070B504460D46000704D00BA14FF47E7054
:1022100000F0A2F91748007820F08002052A05D0C6
:10222000042A03D0032A01D0082070BD2946204685
:10223000BDE8704002F048BE2E2E5C2E2E5C2E2E85
:102240005C2E2E5C2E2E5C2E2E5C636F6D706F6E7E
:10225000656E74735C6C69627261726965735C75DA
:102260007362645C6170705F757362645F636F72E8
:10227000652E63003C00002010B503F08DF920B9F5
:1022800009A140F26E2000F067F915480168C1F31A
:10229000400121B1BDE810401248FFF78DBC016834
:1022A00011F0010FF2D110BD2E2E5C2E2E5C2E2EC1
:1022B0005C2E2E5C2E2E5C2E2E5C636F6D706F6E0E
:1022C000656E74735C6C69627261726965735C756A
:1022D0007362645C6170705F757362642E6300008A
:1022E00038040040BD800000034808B580680090B5
:1022F0006846FFF761FC08BDB8800000074918B1C7
:10230000052803D30020704708687047044A105C12
:102310000028FAD051F82000704700005400002037
:10232000B4810000034808B5C06800906846FFF714
:1023300043FC08BDB8800000092808D2DFE800F09F
:102340000707050707050505050001207047002060
:102350007047092808D2DFE800F0070705070707DC
:1023600007070500012070470020704708B5FFF7F8
:102370006FF820B908A140F2922000F0EDF801209A
:10238000FFF752FA002806D011480069009068460D
:10239000FFF712FC012008BD2E2E5C2E2E5C2E2E87
:1023A0005C2E2E5C2E2E5C2E2E5C636F6D706F6E1D
:1023B000656E74735C6C69627261726965735C7579
:1023C0007362645C6170705F757362642E63000099
:1023D000B880000010B504F06FFD012803D004A1FF
:1023E0001D2000F0B9F8BDE8104000F04FB8000023
:1023F0002E2E5C2E2E5C2E2E5C2E2E5C2E2E5C2E17
:102400002E5C636F6D706F6E656E74735C6C696269
:102410007261726965735C7574696C5C6170705F20
:102420007574696C5F706C6174666F726D2E630099
:1024300010B504F041FD012803D004A12B2000F0C9
:102440008BF8BDE8104000F029B800002E2E5C2E5D
:102450002E5C2E2E5C2E2E5C2E2E5C2E2E5C636F40
:102460006D706F6E656E74735C6C696272617269B7
:1024700065735C7574696C5C6170705F7574696CB0
:102480005F706C6174666F726D2E630072B6024885
:102490000168491C01607047B400002003490868C6
:1024A000401E086000D162B670470000B4000020F2
:1024B00070B5054608680C46411C04D003F0B7FC13
:1024C000206803F0EAFB6068411C02D0002103F0A1
:1024D000DBFB28791F4901EB40102968007F0028A9
:1024E000A069C1F8240523D0607D227D29681043AE
:1024F000C1F86C05D4E900122868C0F80C15C0F8C2
:10250000142522E0A068411C02D0002103F0BCFB8E
:10251000E068411C04D003F08AFCE06803F0BDFBD6
:10252000D4E902122868C0F80825C0F8101570BD5B
:10253000607D217D2A680843C2F86C05D4E9001249
:102540002868C0F81425C0F80C15207D0128D9D0C2
:1025500070BD00002C0400201CB56A46ADF80000D8
:102560000191002144F20200FEF716FD1CBD102867
:1025700002D31038C0B2704740F0800070470000AE
:1025800038B50446042803D30AA15D20FFF7E4FF11
:102590001448005D0090684603F0A2FBD0F81005D7
:1025A0000099C84010F0010000D0012080F0010027
:1025B00038BD00002E2E5C2E2E5C2E2E5C2E2E5C46
:1025C0002E2E5C2E2E5C636F6D706F6E656E747355
:1025D0005C626F617264735C626F617264732E63BC
:1025E000000000008880000038B50446042803D3AA
:1025F0000BA13620FFF7B0FF1548005D009068463C
:1026000003F06EFBD0F80425009B0121994021EADC
:102610000203C0F808351140C0F80C1538BD0000A1
:102620002E2E5C2E2E5C2E2E5C2E2E5C2E2E5C2EE4
:102630002E5C636F6D706F6E656E74735C626F613C
:102640007264735C626F617264732E6300000000D9
:102650008480000010B50446042803D305A11E2081
:10266000FFF77AFF0F480121005DBDE8104003F03D
:10267000E8BB00002E2E5C2E2E5C2E2E5C2E2E5CD7
:102680002E2E5C2E2E5C636F6D706F6E656E747394
:102690005C626F617264735C626F617264732E63FB
:1026A000000000008480000010B50446042803D315
:1026B00005A11820FFF750FF0F480021005DBDE87D
:1026C000104003F0BEBB00002E2E5C2E2E5C2E2E82
:1026D0005C2E2E5C2E2E5C2E2E5C636F6D706F6EEA
:1026E000656E74735C626F617264735C626F617259
:1026F00064732E63000000008480000038B5044637
:10270000042803D30AA11120FFF726FF1448005D17
:102710000090684603F0E4FAD0F804050099C84038
:1027200010F0010000D0012080F0010038BD000051
:102730002E2E5C2E2E5C2E2E5C2E2E5C2E2E5C2ED3
:102740002E5C636F6D706F6E656E74735C626F612B
:102750007264735C626F617264732E6300000000C8
:10276000848000007CB50024084E25460122305D9F
:10277000009500231146019503F032FA641C042CE5
:10278000F4D3BDE87C4000F003B800008480000072
:1027900010B500242046FFF75DFF641C042CF9D31C
:1027A00010BD10B500242046FFF77EFF641C042CEA
:1027B000F9D310BD10B50246064B4FF0FF30002193
:1027C0005C5C944201D1084610BD491C0429F7D332
:1027D00010BD0000888000002DE9F0470D468146BD
:1027E000FFF7E8FF0446042836D2DFF874801B4860
:1027F0001C4EA8F10C0725B3012D0ED0022D2BD1B4
:1028000004EB440030444578002D25D0B9680029F8
:1028100022D02846BDE8F047084704EB4401755C28
:102820000E44717849B10E4A4FF40041093A80686C
:10283000FEF752FC08B987F80390B17808F8041045
:10284000E2E78068FEF788FC04EB4401314418F8A5
:1028500004008D78A842D7D0BDE8F0878C800000B6
:102860002400002004020020FFF78ABE10B5134C9C
:102870000E384FF0FF310C281ED2DFE800F00609B9
:1028800017141D1D1D1D1D1D18150321002001E01D
:102890000321012000F034FE20680022BDE8104032
:1028A000A421FEF719BC0121032001E0012102202F
:1028B000BDE8104000F024BE10BD00003C800000C8
:1028C00070B50023042810D20D4D00EB4004012AFE
:1028D00002D101290CD00022094E00EB4000304407
:1028E00061B1012906D0022906D00723184670BD20
:1028F0000E30C2B22A55F9E74270F7E78270F5E769
:102900000402002070B506461E480024C0E901619B
:10291000B00720D50025012211462846FFF7D0FF39
:102920006D1C0446042D02D2002CF4D013E094B99F
:1029300040F2666204211448FEF7F6FA04000AD158
:10294000FEF7BCFA040006D10F48104A0021001F10
:10295000FEF786FB0446F00701D0FFF703FF74B9CA
:1029600009480B4A00210C38FEF77AFB040006D117
:102970000548084A01210838FEF772FB0446204644
:1029800070BD00001800002098800000D92B0000C6
:10299000CD390000B70E00002DE9F05F6A4C054606
:1029A00000266078B34618B184F801B000F0F6FF55
:1029B000664F4FF47A694FF4C87A4FF00108182D2A
:1029C00062D2DFE805F0AC0C0C31404D62676B74ED
:1029D0006B74BE7D7D7D7D7DACAFB2B5BEBE00208B
:1029E000FFF78CFE00284FF0000008D0FFF732FE02
:1029F000022D02D14FF4E16008E0484606E0FFF7FF
:102A000053FE022D01D1C82000E05046410CC00306
:102A10004FF4FA72801841F1000125705200002332
:102A2000FDF75CFE01462AE00020FFF767FE002864
:102A30004FF0000004D0FFF70DFE4FF44870E5E7BB
:102A4000FFF732FEDFE70020FFF758FE00284FF0C7
:102A5000000002D0FFF7FEFDCFE7FFF725FED4E729
:102A60000020FFF74BFE00284FF0000002D0FFF7D8
:102A7000F1FD01E0FFF718FE257041F69A110022E2
:102A80003868FEF729FB064646E00020FFF7ACFD5C
:102A9000257008E0002051E025703DE084F80180B9
:102AA0000120FFF7A1FD002240F6CD41E8E784F8C0
:102AB00001800120FFF798FD00224FF48041DFE7FD
:102AC0007868FEF749FB0646D5F1110000D02EB11B
:102AD0000220FFF7BFFD84F802B01DE0012816D9DF
:102AE00080B2C8214843C117C90341EA5041C0031D
:102AF0004FF4FA72801841F1000152000023FDF7F3
:102B0000EDFD014600227868FEF7E6FA064602204F
:102B1000FFF7CAFD84F802803046BDE8F09F00F060
:102B20003DFFB9E700F03AFFB4E700F037FF04E0FB
:102B300000F034FF0020FFF7B7FD0120FFF7B4FDE0
:102B4000AAE7FFF72EFEA7E7180000208C80000000
:102B50002DE9F041861C0C4601270020FFF73AFCC6
:102B60000F4801682160D0E90012891A8268044682
:102B7000511AB51C07E000BF00F0AEFFD4E9000118
:102B8000401AA168091A491C8D42F5D820683044C2
:102B900020600020FFF74CFC3846BDE8F0810000C3
:102BA000D008002030B482680468531C8360A154AC
:102BB000D0E901128A4202D330BC02F0BBBE30BC65
:102BC00070470000034803C8814201D101207047CB
:102BD00000207047D008002000780221FFF7FCBDDC
:102BE00005494FF0FF32082841F8202002D308445D
:102BF00080F8582070470000C4030020F0B54FF063
:102C0000FF3512B10023082601E008230C260C4CE6
:102C100005E000BF54F823707F1C04D05B1CB34256
:102C2000F8D32846F0BD26185DB286F8305044F837
:102C30002310002AF5D1E11881F85800F1E70000CF
:102C4000C40300200249084490F930007047000096
:102C5000C403002070B50D46040003D10BA1B820B9
:102C6000FFF77AFC606818B908A1B920FFF774FC77
:102C70006068006818B905A1BA20FFF76DFC6068AC
:102C8000294602682046BDE8704010472E2E5C2E73
:102C90002E5C2E2E5C2E2E5C2E2E5C2E2E5C636FF8
:102CA0006D706F6E656E74735C6C6962726172696F
:102CB00065735C757362645C6170705F7573626488
:102CC0002E63000070B50D46040003D10BA1E8206F
:102CD000FFF742FC606818B908A1E920FFF73CFC47
:102CE0006068406818B905A1EA20FFF735FC606804
:102CF000294642682046BDE8704010472E2E5C2EC3
:102D00002E5C2E2E5C2E2E5C2E2E5C2E2E5C636F87
:102D10006D706F6E656E74735C6C696272617269FE
:102D200065735C757362645C6170705F7573626417
:102D30002E63000070B5084C050009D010342168DE
:102D4000002907D008682060496828468847F6E7C8
:102D50000834F4E770BD0000B00300202DE9F05FF7
:102D600026484168F1B3DFF898B00E688146DBF879
:102D7000004087688078E11B21F07F45ED1CB0B9E9
:102D8000DFF880804FF48030C8F84403C8F80403AB
:102D90001120FDF76FFE1120FDF777FE4FF0010ABD
:102DA000C8F800A02F2001F051F989F802A0B5421F
:102DB00000D23546124BE8193C3320F07F401860B2
:102DC000DBF800105A46091B21F07F41001B20F060
:102DD0007F40C91C81420FD9106818602F2001F074
:102DE00035F900E004E0BDE8F05F1120FDF758BEC2
:102DF000BDE8F05F04F07AB8BDE8F09FA0000020C5
:102E00000415014000100140EFF30580C005C00D1E
:102E100010D0103840B2002806DA00F00F0000F1A0
:102E2000E02090F8140D03E000F1E02090F8000499
:102E3000400970470F2070472DE9F0410026012519
:102E4000144C22E06068226900EBC607387805FA66
:102E500000F1114217D08A43226101F0C5FB0246FE
:102E60003878E36805FA00F1194002FA00F3994254
:102E700009D17978012901D0012100E000215140D8
:102E80007A6802B19047761CF6B220788642D9D390
:102E9000BDE8F0818C0000200E4910B50A784C780E
:102EA0000023A24212D0521CD2B20A70022A00D1D0
:102EB0000B70084A0B780C3252F8232002608868A5
:102EC000104420F07F408860012010BD0360002086
:102ED00010BD0000A000002010B50446010600F05F
:102EE0000F00092804D306A140F2AD20FFF734FB00
:102EF0006FEA0460C10F204661F31F1010BD00008F
:102F00002E2E5C2E2E5C2E2E5C2E2E5C2E2E5C2EFB
:102F10002E5C636F6D706F6E656E74735C64726946
:102F2000766572735F6E72665C757362645C6E72F6
:102F3000665F6472765F757362642E6300000000E2
:102F400070B50546000605F00F0402D5092C09D31B
:102F500001E0092C08D307A140F29A20FFF7FCFA00
:102F6000280601D5134801E01248903800EB041000
:102F700070BD00002E2E5C2E2E5C2E2E5C2E2E5C44
:102F80002E2E5C2E2E5C636F6D706F6E656E74738B
:102F90005C647269766572735F6E72665C7573628B
:102FA000645C6E72665F6472765F757362642E63D2
:102FB00000000000DC04002010B50446010600F00B
:102FC0000F00092804D3034940F27D20FFF7C4FA1B
:102FD000204610BDD87B0000704700000C4910B59A
:102FE0000020C8708020FFF7ABFF817B03290ED043
:102FF000006800280BD18020FFF76EFF012181407F
:103000000348C943BDE810400C3000F0F3BE10BDCA
:1030100078000020812003F00BBD822003F008BD62
:10302000832003F005BD842003F002BD852003F05A
:10303000FFBC862003F0FCBC872003F0F9BC88208D
:1030400003F04ABD38B50F4C0020E070FFF778FF61
:10305000817B032901D0006818B1BDE8384002F037
:10306000C2BA0020FFF738FF012181400548C9435B
:103070000C3000F0BFFE0448C068009061686846EC
:10308000884738BD78000020C8810000012003F087
:103090005BBD022003F058BD032003F055BD0420A2
:1030A00003F052BD052003F04FBD062003F04CBDD8
:1030B000072003F049BD000038B5104D002008245A
:1030C000E8702046FFF73CFF817B032914D000689D
:1030D000002811D12046FFF7FFFE01218140C9439E
:1030E00005F10C0000F086FE0548406900908DF85F
:1030F000024069686846884738BD000078000020B3
:10310000C881000070B5154804680460BFF36F8F74
:10311000BFF34F8FBFF36F8FBFF34F8F02F0A4F851
:1031200038B10F49086920F0011200F00110144372
:10313000086101266CB194FAA4F0B0FA80F5284633
:10314000FFF715FA06FA05F18C43294604F0D0FE84
:10315000F0E7BDE8704004F05FBD00006C74024011
:103160007800002010B5054CA078FFF7B5FE0146A9
:10317000A078BDE8104004F0BBBE0000780000203D
:10318000F8B51E48D0F8001221F00401C0F8001272
:103190001B4800681B4DC6B2A878FFF79DFE0124AE
:1031A00004FA00F12889EA68C04380B21043014262
:1031B00002D0A87804F01AFE06F08000A870002063
:1031C000FFF78AFE04FA00F68020FFF785FE04FA76
:1031D00000F006430B48F1430C3000F00BFE80205A
:1031E000FFF77AFE8440A86804430748AC60006A91
:1031F0000090696868468847F8BD0000007002408A
:103200008074024078000020C881000038B500209A
:1032100000900B480068ADF802008820FFF75CFEC4
:10322000012505FA00F40820FFF756FE0549854000
:103230002C43886804438C6049686846884738BDD9
:10324000207502407800002070B50B4804680460C7
:10325000BFF36F8FBFF34F8F012609E094FAA4F0FC
:10326000B0FA80F52846FFF782F906FA05F08443A4
:10327000002CF3D170BD000068740240F8B51C4802
:103280000568284603F0FEFCBFF36F8FBFF34F8F36
:10329000184E194CE80506D501206070706A009040
:1032A000616868468847A8054FF0000705D5677034
:1032B000B06A0090616868468847680516D56078EE
:1032C000002813D003F0E8FC20B10CA140F28E409E
:1032D000FFF742F96770194901200860582003F090
:1032E000E3FCF06A0090616868468847F8BD00001A
:1032F00000740240C8810000780000202E2E5C2E51
:103300002E5C2E2E5C2E2E5C2E2E5C2E2E5C636F81
:103310006D706F6E656E74735C64726976657273DE
:103320005F6E72665C757362645C6E72665F647217
:10333000765F757362642E630000000008750240BA
:1033400038B5064C00206070A07004F0B1FD044850
:103350004068009061686846884738BD7800002062
:10336000C88100002DE9F041124E07460125BD40FD
:103370003068FDF7F1FE00280DD10F4C206928427E
:1033800007D1384601F030F90028E06805D028431D
:1033900004E0A8432061BDE8F081A843E060206913
:1033A00028432061A1683068BDE8F0410022FDF7A4
:1033B00093BE00009C8200008C000020054910B5DF
:1033C00001200860012000F033FE0028FAD10249F4
:1033D000487010BD04000040B00300207F2801DDCC
:1033E0007F2070476FF07F01884201DA08467047FE
:1033F00040B2704710B5040003D106491C20FFF706
:10340000ABF8206818B903491D20FFF7A5F820681C
:10341000083010BDF484000070B5064600F052F884
:103420000446FFF7E7FF0546206B03F05FF928B17C
:1034300003212846FEF71CFE002070BD3046BDE883
:10344000704000F009B93EB5044600F03BF805466F
:1034500020460021FDF7B2FF0121FDF787FF047828
:1034600005F11000FEF7F0FD00210091019102919D
:10347000016800914068019069462046FEF7F4F823
:103480003EBD000070B50D46060004D10C4940F267
:103490000910FFF761F825B909494FF48570FFF766
:1034A0005BF8304600F00EF800F11004FFF7A2FFC1
:1034B00002462B4621463046BDE87040FEF716BD59
:1034C000F484000010B5040003D103492B20FFF75A
:1034D00043F8204610BD0000F484000070B50C00D5
:1034E000054604D1054940F21B10FFF735F8284680
:1034F000FFF7E8FF41692160006970BDF4840000B6
:1035000070B505460C460020FEF764FF134A35B13E
:10351000012D08D0022D13D0032D17D107E01088FC
:103520002044108012E05088204450800EE0107932
:10353000012C02D020F0020007E040F0020004E07D
:103540001079012C07D020F001001071BDE8704007
:103550000020FEF76DBF40F00100F6E706000020F6
:1035600070B51C4E7078002832D1B41D2146B4F9D4
:103570000000097920B9628812B96279914227D096
:10358000144DAD1C2970FFF729FF6870B4F90200D3
:10359000FFF724FFA870042229460F48FEF71BFD01
:1035A000002815D101207070287860710020FEF786
:1035B00011FF208895F90110401A2080608895F944
:1035C0000210401A6080BDE870400020FEF730BF56
:1035D00070BD0000000000204480000006207047FD
:1035E00030B585B00D46FFF76DFF04461030FEF78D
:1035F0002BFD0268E9781170002100910191029180
:103600000168491C00914068401E01900020FEF7AF
:10361000E1FE69460020FEF729F9050008D10748B8
:1036200003A90068CDE903040020FEF70DF9054663
:103630000020FEF7FDFE05B0284630BDBC8200002C
:1036400010B50200084601D0032010BDC26A022155
:103650009047002010BD0000F0B587B00446FFF78A
:10366000C9FE054620460021FDF7A8FE0021FDF712
:103670007DFE067803212846FEF7FAFC206B03F056
:1036800035F890F001002DD01CB917493A20FEF70B
:1036900063FF04F11000FEF7CBFC07460022394619
:1036A000206B02F0B5FF18B10F496820FEF754FFF8
:1036B0000020019002900390386801907868029091
:1036C0000020FEF787FE01A93046FDF7CDFF04007C
:1036D00004D1284608216A46FCF792FE0020FEF736
:1036E000A7FE204607B0F0BDF484000010B5027AB2
:1036F00002B39200B1FBF2F302FB1311D1B941689E
:1037000019B10321FEF7ACFC14E001686FEA9101E6
:1037100041F30001491C02D0FEF728FE0AE00068D0
:103720006FEAD00040F30000401C90F0010F01D080
:10373000012010BD002010BD124810B500880322E2
:1037400002EB0040B1B1012916D002290BD00329A8
:1037500017D10D4900204870FFF702FFBDE8104067
:103760000220FEF741BFBDE8104008A140F23F1023
:10377000FEF7F2BE09A100E00CA1BDE8104002F086
:1037800079BD10BD68010020000000202E2E5C2EA7
:103790002E5C2E2E5C6D61696E2E63005345545F66
:1037A000424F4F545F50524F544F00005345545FA7
:1037B0005245504F52545F50524F544F000000003A
:1037C00010B512490220FFF79DF820B1104A40F2CF
:1037D0001521FDF707FC182200210220FFF770F8E1
:1037E00020B10B4A40F21721FDF7FCFB1922002102
:1037F0000320FFF765F820B1054A4FF40671FDF785
:10380000F1FBBDE81040FEF7ADBF00006D280000E1
:103810003C3C000010B500F0FDFC20B1104A40F225
:10382000BB11FDF7DFFB002000F038FF20B10C4A90
:1038300040F2BD11FDF7D6FB002000F03FFD00BFB8
:1038400000F00AFD0028FBD0FDF71CFC002806D084
:10385000BDE81040024A4FF4E371FDF7C3BB10BD51
:103860003C3C00002DE9FC5F0E008346DDE90C477F
:10387000C6F1000098469246814600D408460125CC
:1038800003E000BF90FBFAF06D1C5045FADAA84542
:1038900000D9454624B1002E01DB780700D5641E0F
:1038A000B80702D5B8F1000F0AD0F80708D13CB12B
:1038B000A54205D220215846641EFFF773F9F6E7AA
:1038C000002E02DA4E462D2102E0780703D52B2187
:1038D0005846FFF767F907F0030002280BD1B8F14B
:1038E000000F08D13CB1A54205D230215846641ED4
:1038F000FFF758F9F6E7CDE900474346524631460F
:10390000584604F069F8BDE8FC9F000070B50E460B
:103910000446007918494FF4A27501EB4010017F6D
:103920002068A1B14FF4887103F01AF84FF4907138
:10393000206803F015F84FF49271206803F010F836
:103940002946206803F00CF80C49206809E04FF480
:103950008E7102F0F4FF2946206802F0F0FF08495A
:103960002068C0F80413206800F076FD3146BDE8F9
:10397000704000F039BD00002C040020100302004C
:10398000800002000268134602E08A4204D01268F6
:10399000002AFAD10B600160704700000A4810B598
:1039A000807860B1002401E0022C06D02046FEF7AA
:1039B00051FE641C042CF7D310BD0324F6E7BDE8C8
:1039C0001040FEF7E5BE0000180000200348017912
:1039D000C90702D00078FEF7DFBF7047180000204B
:1039E0002DE9F047394E002780463D46DFF8E0904C
:1039F000D6F804A057E003D00446D0F81C8035E088
:103A000099F8002002EB4201521CD2B289F8002042
:103A100009EBC10199F80230091D9A4201D189F8D8
:103A2000005048680A780446012A12D0022A02D0BF
:103A3000032A3BD108E003F0EDFD00B10127257416
:103A400034E00574C06900E070680028F9D1706046
:103A50002CE0207C50BB88686060C868A060086962
:103A6000E0604869A061F07800B165606268B168A3
:103A7000184B501A20F07F40984202D2A1680844A7
:103A800006E0881AA16820F07F40814202D9081A16
:103A9000206000E0256065600120A560207420465C
:103AA000E56103F099FDB8F10000A4D199F8001088
:103AB00099F801008142A3D117B97168514502D02C
:103AC0000120BDE8F0870020FBE70000A0000020F7
:103AD000C4060020FFFF7F002DE9FE43214DD5E9FC
:103AE000014704EA070005EB800605F583600C3604
:103AF00000F079F905F21440804600F074F90AE00C
:103B0000C0F3891101EB9050641C044404EA0700DF
:103B100005EB80060C3630688107F1D0002069463D
:103B200004EA070205EB8202641CD26841F82020F7
:103B3000401C0228F4D3009800F0030002280098EB
:103B40000AD0C0F383100444404600F046F9002830
:103B500000D06C60BDE8FE83032101EB905004EBC4
:103B60009004F1E7D0080020FFF754FE002002F097
:103B7000E3FB20B127A24FF40A71FDF733FA02F0FC
:103B80008DFA28480321008801EB004026A102F0AD
:103B900071FB284A01212848FDF762FA20B11DA2D5
:103BA00040F22D21FDF71EFAFFF70AFE22483C30B5
:103BB000FEF7B8FA20B117A240F23221FDF712FA4F
:103BC0001D480830FDF702FB20B112A240F2372158
:103BD000FDF708FA18480024001D00F019FE20B176
:103BE00016A24FF4D071FDF7FDF9184DFEF742F91A
:103BF0000028FBD12878844206D0041E02D0FEF7AC
:103C00003BFB01E0FEF770FBFFF7AAFC02F05CFA59
:103C100020BFEBE72E2E5C2E2E5C2E2E5C6D616994
:103C20006E2E63006801002048656C6C6F20555350
:103C3000422100001D3D00003C8000002E2E5C2E25
:103C40002E5C2E2E5C6D61696E2E630000000020DC
:103C50002DE9F05FC7888A46191D1646B1FBF7F2B9
:103C6000B1FBF7F507FB121999193944C91CB1FBCF
:103C7000F7F104464079C9B2DDF828B0884206D28F
:103C800017499420FEF768FC01E024686D1E002DA2
:103C9000FBD1A846A7EB0905B5421AD81CE000BF26
:103CA000BBF1000F06D004EB09010AEB08002A461D
:103CB000091D05E004EB09000AEB08012A46001D76
:103CC000FCF742FD2468761B4FF00009A844B74278
:103CD00001D9354600E03D46002EE1D1BDE8F09F18
:103CE0009485000030B50B46024602F053FB63B1E9
:103CF0000021094C0CE000BF01EB410304EB8303FE
:103D000015685B88AB4202D11160002030BD491CB0
:103D10008142F1D3052030BD2001002010B50020E4
:103D2000FEF7A2FD40B103210020FFF7E9FB0120CF
:103D3000FEF79AFD20B910BD0120FEF795FD28B1D0
:103D40000321BDE810400120FFF7DABB02480068FC
:103D5000BDE81040FDF700BA3C80000010B531B15D
:103D6000B2FBF3F403FB14241CB1092010BD0E2098
:103D700010BD01600021416081608281C3810846DD
:103D800010BD70B50C460546FCF796FB002802D026
:103D900021882868084470BD10B50A8849888A427D
:103DA00003D1FCF7CBFB012010BD002010BD70B586
:103DB0000C460546FCF7A5FB002802D06188286860
:103DC000084470BD10B50A8849888A4203D1FCF7BF
:103DD0008FFB012010BD002010BD08B500216A46F0
:103DE000FCF735FC08BD08B501216A46FCF722FC4A
:103DF000009808BD08B56A46FCF773FA009808BD3C
:103E000070B5040003D113A1C620FEF7A5FB002561
:103E10002846FEF7DFFA206862680168914214D9EB
:103E2000491E01600D781CB919A18920FEF794FB89
:103E3000208AE16805FB00152068217A0278891A3A
:103E40000279C9B28A4200D201710020FEF7F0FA6D
:103E5000284670BD2E2E5C2E2E5C2E2E5C2E2E5CE7
:103E60002E2E5C2E2E5C636F6D706F6E656E74739C
:103E70005C6C69627261726965735C62616C6C6FC3
:103E8000635C6E72665F62616C6C6F632E630000D0
:103E90002E2E5C2E2E5C2E2E5C2E2E5C2E2E5C2E5C
:103EA0002E5C636F6D706F6E656E74735C6C6962AF
:103EB0007261726965735C62616C6C6F635C6E7277
:103EC000665F62616C6C6F632E63000070B50C46B8
:103ED000050003D10FA1EA20FEF73EFB1CB90DA19E
:103EE000EB20FEF739FB0020FEF774FA1DB91849E4
:103EF0009620FEF731FBE8682A68211A288AB1FB70
:103F0000F0F11068431C13600170BDE870400020A0
:103F1000FEF78EBA2E2E5C2E2E5C2E2E5C2E2E5C84
:103F20002E2E5C2E2E5C636F6D706F6E656E7473DB
:103F30005C6C69627261726965735C62616C6C6F02
:103F4000635C6E72665F62616C6C6F632E6300000F
:103F5000903E000010B5040002D0206830B901E0A6
:103F60000E2010BD17A1A020FEF7F6FA606818B960
:103F700014A1A120FEF7F0FAA06818B911A1A2209F
:103F8000FEF7EAFAE06818B90EA1A320FEF7E4FAFA
:103F9000208A18B90BA1A420FEF7DEFA207A616806
:103FA0002268401AC0B2116004E0226811684B1CFC
:103FB00013600870401EC0B2F7D22168002008715B
:103FC00010BD00002E2E5C2E2E5C2E2E5C2E2E5C44
:103FD0002E2E5C2E2E5C636F6D706F6E656E74732B
:103FE0005C6C69627261726965735C62616C6C6F52
:103FF000635C6E72665F62616C6C6F632E6300005F
:10400000C20800F007030120895C9840084070470F
:1040100000F180400068002800D00120704708B5FA
:1040200000F18040002101600068009008BD0000A0
:104030000549096840F4803001F00111814201D145
:1040400001207047002070470C04004000283ED03B
:104050001F49204A096800BF00BF00BF00BF00BF62
:1040600000BF00BF00BF91422FD000BF00BF00BF04
:1040700000BF00BF00BF00BF00BF00BF00BF00BF48
:1040800000BF00BF00BF00BF00BF00BF00BF00BF38
:1040900000BF00BF00BF00BF00BF00BF00BF00BF28
:1040A00000BF00BF00BF00BF00BF00BF00BF00BF18
:1040B00000BF00BF00BF00BF00BF00BF00BF00BF08
:1040C00000BF00BF00BF00BF00BF0138C3D17047B1
:1040D0001C0100200024F40010B50F4C207820B9FA
:1040E0000EA140F23310FEF737FA606820B90BA139
:1040F0004FF49A70FEF730FA0020FEF76BF9606813
:10410000401E6060606808B9FFF758F9BDE81040CC
:104110000020FEF78DB90000B00300202E2E5C2E8B
:104120002E5C2E2E5C2E2E5C2E2E5C2E2E5C636F53
:104130006D706F6E656E74735C64726976657273B0
:104140005F6E72665C636C6F636B5C6E72665F64FD
:1041500072765F636C6F636B2E63000070B51C4CEE
:104160000546207820B91BA14FF48970FEF7F4F9B9
:10417000607838B115B16968002088470020FEF7E3
:1041800029F913E00020FEF725F925B1104829464A
:104190000830FFF7F7FB606840B94FF48070FFF715
:1041A0003EFF01208107C1F8040308606068401CDD
:1041B00060600020FEF73CF96068002806D1BDE889
:1041C000704004A14FF49770FEF7C6B970BD0000AF
:1041D000B00300202E2E5C2E2E5C2E2E5C2E2E5C2C
:1041E0002E2E5C2E2E5C636F6D706F6E656E747319
:1041F0005C647269766572735F6E72665C636C6F25
:10420000636B5C6E72665F6472765F636C6F636B28
:104210002E63000070B50E4C0025207808B185256E
:1042200013E00021A16061602161E1604FF0E020B6
:10423000D0F80001012610F0010F03D10721002062
:1042400000F0D2F8034806602670284670BD0000D2
:10425000B003002018050040064810B5007820B9CA
:1042600005A14FF48270FEF777F913480068C0F398
:10427000004010BDB00300202E2E5C2E2E5C2E2E92
:104280005C2E2E5C2E2E5C2E2E5C636F6D706F6E1E
:10429000656E74735C647269766572735F6E726664
:1042A0005C636C6F636B5C6E72665F6472765F6397
:1042B0006C6F636B2E6300001804004070B51C4CDB
:1042C0000546207818B91BA1D520FEF745F9A0783E
:1042D00038B115B16968012088470020FEF77AF8E7
:1042E00015E00020FEF776F825B111482946103078
:1042F000FFF748FBE06850B94FF48270FFF78FFE7C
:1043000002204107C1F804031A4901200860E0684F
:10431000401CE0600020FEF78BF8E068002805D123
:10432000BDE8704003A1F120FEF716B970BD000092
:10433000B00300202E2E5C2E2E5C2E2E5C2E2E5CCA
:104340002E2E5C2E2E5C636F6D706F6E656E7473B7
:104350005C647269766572735F6E72665C636C6FC3
:10436000636B5C6E72665F6472765F636C6F636BC7
:104370002E630000080000402DE9F0414FF48077E3
:104380003846FFF745FE0124104EA50748B13846D0
:10439000FFF745FE0120C5F8080374700020FEF702
:1043A000C9FC4FF482773846FFF732FE00280BD065
:1043B0003846FFF734FE0220C5F80803B470BDE8A4
:1043C000F0410120FEF7B6BCBDE8F081B00300204B
:1043D00000F01F02012191404009800000F1E0201F
:1043E000C0F880117047000070B50D4604460829DA
:1043F00003D31049FE20FEF7AFF86807000E002C2B
:1044000006DA04F00F0101F1E02181F8140D03E058
:1044100004F1E02181F8000404F01F01012088402C
:104420006109890001F1E021C1F88002C1F80001B1
:1044300070BD0000E08300004109890001F1E02126
:10444000D1F8001100F01F0201209040014201D07C
:104450000120704700207047000B40B270470000F9
:104460002DE9F0410E468046302804D3294940F218
:10447000FF10FEF771F8404602F022FC20B92549F2
:104480004FF40070FEF768F8404602F023FC224D1E
:104490000028404616D0FEF7D5FB284490F8580077
:1044A0008009032802D001280AD003E0404601F029
:1044B000B3FC28B103214046BDE8F04101F0F7BB51
:1044C0000221F8E702F012FC002820D04046FEF757
:1044D000B9FB0446114F4FF4807007EB840100EBE9
:1044E0008400D1F8102580B242F00102C1F81025F5
:1044F00001F0F4FC002E0AD04046FEF7A3FB55F86D
:104500002000002803D00120A040C7F80403BDE824
:10451000F081000024840000C403002000600040FB
:104520002DE9FC4114460E460546302804D32A499D
:1045300040F2D110FEF710F80027284602F0C0FB29
:1045400008B1082744E0F27821462846FEF756FBDA
:104550000446401C3BD0B07868B16846009501F035
:10456000F3FB009900EB8100D0F8001721F0020165
:10457000C0F8001707E000217378284600910A462A
:10458000019101F046FBF078C0B11448317800EB9E
:104590008400D0F81025124B1A40C0F810254FF4B3
:1045A0007C524FF4403302EA052203EA01410A43F8
:1045B000D0F810150A43C0F8102509E009483278F0
:1045C000204410F8581F41EA8211017000E00427CE
:1045D0003846BDE8FC8100002484000000600040F3
:1045E000FFC0FCFFC403002010B50446302804D3EC
:1045F00005494FF41370FDF7AFFF204601F00CFCA6
:10460000002800D0012010BD2484000070B5144D96
:1046100095F8640008B1082070BD0020411E2A18DA
:10462000401CC0B282F830103028F8D30024204655
:10463000FEF7D6FA641CE4B20C2CF8D3072106204E
:10464000FFF7D2FE4FF4BE7001F048FC05494FF071
:104650000040C1F80403012085F86400002070BD0B
:10466000C403002000600040034890F86400002864
:1046700000D0012070470000C40300200121B1EBED
:10468000507F01D101207047002070470121B1EB1C
:10469000507F01D1012070470020704770B5104C49
:1046A000217809B1852070BD00B90E480E4A017805
:1046B000C1F3400111600C490078083900F0010095
:1046C00008604FF0E020D0F80001012510F0010F44
:1046D00003D107210020FFF787FE2570002070BD61
:1046E00068000020C48100008005004070B54FF0D4
:1046F0008040D0F80453354C68070DD54FF48470D2
:1047000001F050FF40B1606820B931A140F2411082
:10471000FDF722FF60688047A8060ED54FF48A7027
:1047200001F040FF48B1A06820B929A140F249102A
:10473000FDF712FFA1680020884768060ED54FF4E8
:104740008C7001F02FFF48B1A06820B920A14FF470
:10475000A870FDF701FFA1680120884728060ED543
:104760004FF48E7001F01EFF48B1E06820B918A127
:1047700040F25910FDF7F0FEE16800208847E80597
:104780000ED54FF4907001F00DFF48B1E06820B9EC
:104790000FA14FF4B070FDF7DFFEE16801208847FC
:1047A000A80511D54FF4927001F0FCFE00280BD043
:1047B000E06820B906A140F26710FDF7CDFEE16880
:1047C000BDE870400220084770BD0000680000206E
:1047D0002E2E5C2E2E5C2E2E5C2E2E5C2E2E5C2E13
:1047E0002E5C636F6D706F6E656E74735C6472695E
:1047F000766572735F6E72665C706F7765725C6E01
:1048000072665F6472765F706F7765722E63000008
:1048100000B5024600F00EF8106838B10449C860CF
:104820004FF080414FF46070C1F80403002000BDD8
:10483000680000204FF080414FF46070C1F8080319
:1048400001490020C86070476800002010B5044688
:10485000B0F5000F03D307496C20FDF77DFE4FF044
:10486000E020816982698A1A22F07F42A242F9D34C
:1048700010BD00006884000070B50B4D04460B4E5F
:1048800028680B49B0FBF6F0B1FBF0F0A04203D270
:1048900008497720FDF760FE2868B0FBF6F060431A
:1048A000BDE87040FFF7D2BF1C01002040420F005E
:1048B000FFFF7F00688400004FF0E0206FF07F4131
:1048C00041610521016170472DE9F04190460D00DD
:1048D000064603D118A1EA20FDF73EFE3079264FA7
:1048E00007EB4014E07E10B10820BDE8F081687F3E
:1048F000207729463046FDF7DBFD5FEA080060605F
:104900002969216003D0297F3046FEF7FFFF307907
:1049100007EB4010007F0028306801D0082100E03C
:104920000421C0F800150020E0752076A075012153
:10493000E176A076D9E700002E2E5C2E2E5C2E2E7E
:104940005C2E2E5C2E2E5C2E2E5C636F6D706F6E57
:10495000656E74735C647269766572735F6E72669D
:104960005C756172745C6E72665F6472765F7561AD
:1049700072742E63000000002C0400202DE9F04723
:104980000E460179DFF82881044608EB41151746E9
:10499000E87E012804D047A14FF4B970FDF7DCFD93
:1049A00027B944A140F27310FDF7D6FD26B941A105
:1049B0004FF4BA70FDF7D0FD217908EB4110007F6C
:1049C00018B13046FFF75AFE30B1204600F092F899
:1049D00020B11120BDE8F0871020FBE7AF7500275C
:1049E000AE60AF8221793E4608EB41154FF00108D9
:1049F000287F0028206825D04FF49079494601F09F
:104A0000AFFF4FF4AC7A5146206801F0A9FF20684F
:104A1000A97DAA68C0F84425C0F848152068C0F8E8
:104A200008806868F0B94946206801F094FF804624
:104A30005146206801F08FFF58EA0001F3D058BBBF
:104A4000AF750FE04FF48E7A514601F078FF206881
:104A5000C0F808802946206802F066FE69684FF4B5
:104A6000807089B13046B5E75146206801F062FF99
:104A700010B9A88A4845F7D1A88A484505D02946E3
:104A8000206802F051FE00E08146A88AA97D884294
:104A9000EAD3A88A484501D10F26D1E751462068BC
:104AA00001F048FF0028F9D02068C0F80C80C7E763
:104AB0002C0400202E2E5C2E2E5C2E2E5C2E2E5CC6
:104AC0002E2E5C2E2E5C636F6D706F6E656E747330
:104AD0005C647269766572735F6E72665C75617232
:104AE000745C6E72665F6472765F756172742E6359
:104AF000000000000079044901EB4010807D00288F
:104B000000D00120704700002C04002070B504463E
:104B100000791149002601EB401520682A7FC0F872
:104B20000065686888B1207901EB4010007F00289B
:104B3000206801D0094901E008498C39C0F8081300
:104B40002068FFF789FCFFF743FC204602F0DAF803
:104B5000EE766E6070BD00002C0400201003020091
:104B600003490248C1F8040370470000041480019F
:104B7000007002402DE9F0411D46174606460C46DE
:104B8000AA4204D213A140F2C510FDF7E5FC20684B
:104B900038B1FFF77BFD20B90EA14FF4E370FDF7AC
:104BA000DBFC6068A84204D200217160216831609A
:104BB00007E075602168401B31606060216829440E
:104BC0002160AF4203D110B10120BDE8F081002087
:104BD000FBE700002E2E5C2E2E5C2E2E5C2E2E5C13
:104BE0002E2E5C2E2E5C636F6D706F6E656E74730F
:104BF0005C647269766572735F6E72665C7573620F
:104C0000645C6E72665F6472765F757362642E6355
:104C10000000000010B50D4C207820B90CA14FF415
:104C2000D060FDF799FC00F06BFD1949D1F8040341
:104C3000C1F80803174900200860BFF36F8FBFF366
:104C40004F8FE0700120207010BD00007800002020
:104C50002E2E5C2E2E5C2E2E5C2E2E5C2E2E5C2E8E
:104C60002E5C636F6D706F6E656E74735C647269D9
:104C7000766572735F6E72665C757362645C6E7289
:104C8000665F6472765F757362642E630000000075
:104C9000007002400075024070B51A4C207801285F
:104CA00004D019A140F25F60FDF756FC4FF4006597
:104CB000284601F0E7FF244901200860BFF36F8F09
:104CC000BFF34F8F214801680905FCD5284601F044
:104CD000D9FF1F4940F2E37008604020091D0860B9
:104CE000BFF36F8FBFF34F8F174980201C310860CF
:104CF00040F2FF10A0600020E060E070A070022091
:104D0000207070BD780000202E2E5C2E2E5C2E2E82
:104D10005C2E2E5C2E2E5C2E2E5C636F6D706F6E83
:104D2000656E74735C647269766572735F6E7266C9
:104D30005C757362645C6E72665F6472765F7573D5
:104D400062642E630000000000750240007402409F
:104D5000007802403EB50546FEF72EF9044600F005
:104D60000F00092804D3254940F2C940FDF7F4FBA0
:104D700004F00F0021064FF0010401D5204901E0A5
:104D80001F49091D0A6804FA00F002430A60BFF3D4
:104D90006F8FBFF34F8F284600F084F91949C1F88F
:104DA0000403280729D0280627D40020FDF712FB8A
:104DB0002846FEF791F88440134881680C438460CC
:104DC0002846FEF7BDF8044605F00F0008280DD26E
:104DD00000200090019002906946284600F09EF95C
:104DE00020B10AA140F23570FDF7B6FB0320A07395
:104DF000BDE83E400020FDF71BBB3EBD8C4E0000D1
:104E00001075024000700240780000202E2E5C2EAB
:104E10002E5C2E2E5C2E2E5C2E2E5C2E2E5C636F56
:104E20006D706F6E656E74735C64726976657273B3
:104E30005F6E72665C757362645C6E72665F6472EC
:104E4000765F757362642E630000000010B5FEF794
:104E5000B3F8044600F00F00092804D30BA140F278
:104E6000BA40FDF779FB04F00F0122064FF0010074
:104E700001D5144A01E0134A121D1268884002420B
:104E800001D0012010BD002010BD00002E2E5C2E90
:104E90002E5C2E2E5C2E2E5C2E2E5C2E2E5C636FD6
:104EA0006D706F6E656E74735C6472697665727333
:104EB0005F6E72665C68616C5C6E72665F75736271
:104EC000642E6800107502402DE9F0410E46074639
:104ED000FEF702F8054626B91BA140F2C170FDF7A6
:104EE0003BFB0020FDF776FA274C380704D1A07869
:104EF000874201D0102421E02089E168C04380B2BC
:104F00000843012101FA05F5284201D0112415E0DA
:104F1000384601F077FD08B10F240FE03846FEF760
:104F20000FF800218160326802607268426081730C
:104F3000E0680543E5600C4602F0FAFF0020FDF74B
:104F400077FA2046BDE8F0812E2E5C2E2E5C2E2EA8
:104F50005C2E2E5C2E2E5C2E2E5C636F6D706F6E41
:104F6000656E74735C647269766572735F6E726687
:104F70005C757362645C6E72665F6472765F757393
:104F800062642E63000000007800002010B5FDF779
:104F9000D7FF808910BD000070B50C00054602D017
:104FA000601E044204D011A140F20F70FDF7D4FA44
:104FB00005F00F0008280CD31C480068C1B28029F6
:104FC00004D04FF48060A0420AD204E04FF4007095
:104FD000F9E7402C04D905A140F21170FDF7BCFAA5
:104FE0002846FDF7ADFF848170BD00002E2E5C2E9B
:104FF0002E5C2E2E5C2E2E5C2E2E5C2E2E5C636F75
:105000006D706F6E656E74735C64726976657273D1
:105010005F6E72665C757362645C6E72665F64720A
:10502000765F757362642E63000000001C75024099
:1050300010B5FDF7C1FF044600F00F00082804D3A7
:10504000064940F2F340FDF787FA054944F48070C1
:105050000860BFF36F8FBFF34F8F10BD8C4E000001
:105060001875024010B5FDF7A7FFBDE8104001F02C
:10507000C9BC000010B5FDF79FFF044600F00F000B
:10508000082804D3054940F2FB40FDF765FA0448BF
:105090000460BFF36F8FBFF34F8F10BD8C4E0000C5
:1050A0001875024070B50546000605F00F0402D5DC
:1050B000092C09D301E0092C08D307A14FF4C770CC
:1050C000FDF74AFA280601D5134801E012480930D5
:1050D000015D0120884070BD2E2E5C2E2E5C2E2E90
:1050E0005C2E2E5C2E2E5C2E2E5C636F6D706F6EB0
:1050F000656E74735C647269766572735F6E7266F6
:105100005C757362645C6E72665F6472765F757301
:1051100062642E6300000000888200002DE9F041E7
:105120000D460646FDF7D8FE044625B933A140F2E8
:105130004A70FDF711FA0020FDF74CF93F4831079E
:1051400004D181788E4201D010243EE0018980464E
:10515000C943C06889B201270143A740394201D041
:10516000112432E0304601F04DFC08B10F242CE050
:105170003046FDF7E5FE044606F00F00310600EB71
:1051800040002AD52E4901EB80062868FFF77EFAF9
:105190000028287A4FEAC07004D008B1294803E0FB
:1051A000294801E0B8B12948206095E8070086E861
:1051B00007000020C4E90160A073D8F80C10044671
:1051C0000F43C8F80C7002F0B3FE0020FDF730F971
:1051D0002046BDE8F0811E48E6E719496C3101EB35
:1051E0008006286838B1FFF751FA20B903A140F2D0
:1051F000AB70FDF7B1F91748D6E700002E2E5C2EF4
:105200002E5C2E2E5C2E2E5C2E2E5C2E2E5C636F62
:105210006D706F6E656E74735C64726976657273BF
:105220005F6E72665C757362645C6E72665F6472F8
:10523000765F757362642E630000000078000020C2
:105240006C05002075540000F15300004953000024
:10525000A9520000754B000010B5FDF7ADFEBDE88A
:10526000104001F0CFBC00000C480078082810D195
:105270000A48001D007800070BD108480830007864
:1052800010F0F00F05D105480C30007810F0F00F49
:1052900001D000207047012070470000E00F00F0AF
:1052A00000487047440600202DE9F041804616462C
:1052B0000C460868FFF7EAF920B112A140F22D2050
:1052C000FDF74AF965681F4FB54200D93546402DB4
:1052D00004D90CA140F23720FDF73EF92A463846A2
:1052E0002168FBF731FAC8E900756068401B60600F
:1052F0002068284420606068002800D00120BDE8B4
:10530000F08100002E2E5C2E2E5C2E2E5C2E2E5C4C
:105310002E2E5C2E2E5C636F6D706F6E656E7473D7
:105320005C647269766572735F6E72665C757362D7
:10533000645C6E72665F6472765F757362642E631E
:1053400000000000440600202DE9F041064690468A
:105350000D460868FFF79AF920B114A140F25320D6
:10536000FDF7FAF86C68214F4046444500D90446E1
:10537000402C04D90DA140F25D20FDF7EDF834B1C9
:10538000224638462968FBF7DFF9376001E0002044
:10539000306074606868001B68602868204428607A
:1053A00014B10120BDE8F0810020FBE72E2E5C2E19
:1053B0002E5C2E2E5C2E2E5C2E2E5C2E2E5C636FB1
:1053C0006D706F6E656E74735C647269766572730E
:1053D0005F6E72665C757362645C6E72665F647247
:1053E000765F757362642E6300000000440600203F
:1053F0002DE9F041074616460C460868FFF746F9C6
:1054000020B90CA140F2EB10FDF7A6F86568B54293
:1054100000D935462068C7E900056068401B606018
:105420002068284420606068002800D00120BDE882
:10543000F08100002E2E5C2E2E5C2E2E5C2E2E5C1B
:105440002E2E5C2E2E5C636F6D706F6E656E7473A6
:105450005C647269766572735F6E72665C757362A6
:10546000645C6E72665F6472765F757362642E63ED
:10547000000000002DE9F041074616460C4608687A
:10548000FFF704F920B910A14FF40370FDF764F899
:105490006568B54200D93546002D0FD0D4F800001C
:1054A000C7E900056068A0EB05006060206828443B
:1054B000206006D04FF00100BDE8F0814FF0000001
:1054C000EEE74FF00000F7E72E2E5C2E2E5C2E2E1E
:1054D0005C2E2E5C2E2E5C2E2E5C636F6D706F6EBC
:1054E000656E74735C647269766572735F6E726602
:1054F0005C757362645C6E72665F6472765F75730E
:1055000062642E63000000002DE9F0410446FFF7BD
:10551000ABFE08B1FFF7D0F92CB11E49087820B1D5
:105520000820BDE8F0810720FBE74C600120002443
:10553000087046024FEA040544F0800707F00F00A8
:10554000082801D3314600E040213846FFF724FD0A
:105550003846FDF7F5FC8573641C0560E4B2856090
:10556000092CE9D35FF0000404F00F00082801D3F0
:10557000314600E040212046FFF70EFD2046FDF7B2
:10558000DFFC8573641C0560E4B28560092CEBD3F5
:105590000020C6E77800002003480078022801D3E5
:1055A00001207047002070477800002002480078F2
:1055B000002800D0012070477800002010B5FFF7C8
:1055C000EBFF28B12720FEF737FF08B1012010BDFF
:1055D000002010BD0148807870470000780000204E
:1055E000502001F061BB10B5FFF73EFE58B1EFF35C
:1055F000108472B64C2001F057FB4C2001F054FB94
:1056000084F3108810BDBDE810404C2001F04CBB65
:105610000021016041601149096801700F49091DAD
:10562000096841700D49083109680C4A0C3212684A
:1056300041EA02214180094910310968074A1432C0
:10564000126841EA02218180044918310968034A3D
:105650001C32126841EA0221C18070478074024006
:10566000542001F021BB000070B5104C0546207895
:10567000022804D00EA140F28E60FCF76DFF0020DE
:1056800060701B4C15B9FFF7EFFD00B1194C1A48BB
:10569000C0F8044307212720FEF7A6FE1749012082
:1056A0000860BFF36F8FBFF34F8F70BD780000208D
:1056B0002E2E5C2E2E5C2E2E5C2E2E5C2E2E5C2E24
:1056C0002E5C636F6D706F6E656E74735C6472696F
:1056D000766572735F6E72665C757362645C6E721F
:1056E000665F6472765F757362642E63000000000B
:1056F0000714C0030714E003007002400475024061
:10570000104810B50078022804D00FA140F2AD6017
:10571000FCF722FF2720FEF78FFE002810D002F0B2
:10572000C7FB194900200860BFF36F8FBFF34F8F8D
:1057300016498020C1F8800148171549C1F80803AF
:1057400010BD0000780000202E2E5C2E2E5C2E2E28
:105750005C2E2E5C2E2E5C2E2E5C636F6D706F6E39
:10576000656E74735C647269766572735F6E72667F
:105770005C757362645C6E72665F6472765F75738B
:1057800062642E63000000000475024004E000E043
:105790000070024010B500242046FCF71BFE0C48A8
:1057A000407878B102F084FB0A480168890509D481
:1057B000094901220A600068800502D500200860BE
:1057C00000E001240020FCF733FE204610BD00005D
:1057D00078000020007402402C7502400349024802
:1057E000C1F80803704700000414800100700240F3
:1057F0003EB50446000604D511A140F64E00FCF764
:10580000ABFE2046FDF768FB0146012088401C499D
:105810008968084212D004F00F0008280ED2002038
:1058200000900190029069462046FFF777FC00281F
:1058300004D003A140F65700FCF78EFE3EBD0000E9
:105840002E2E5C2E2E5C2E2E5C2E2E5C2E2E5C2E92
:105850002E5C636F6D706F6E656E74735C647269DD
:10586000766572735F6E72665C757362645C6E728D
:10587000665F6472765F757362642E630000000079
:105880007800002010B500242046FCF7A3FD07484F
:10589000407830B101F000FA18B1054900200860E5
:1058A00001240020FCF7C4FD204610BD7800002034
:1058B0002C7502400FB438B5040003D110A11C2090
:1058C000FCF74AFE606918B90DA11D20FCF744FEE3
:1058D000206818B90AA11E20FCF73EFE606818B9BE
:1058E00007A11F20FCF738FE0599002905D006A85E
:1058F00000906A46204600F049F838BC5DF814FB79
:105900002E2E5C2E2E5C2E2E5C2E2E5C2E2E5C2ED1
:105910002E5C65787465726E616C5C667072696E1F
:1059200074665C6E72665F667072696E74662E6312
:105930000000000010B5040003D107A10B20FCF704
:105940000BFEA268002A05D0D4E904032168984719
:105950000020A06010BD00002E2E5C2E2E5C2E2E8E
:105960005C2E2E5C2E2E5C2E2E5C65787465726E1D
:10597000616C5C667072696E74665C6E72665F669E
:105980007072696E74662E63000000002DE9FC479A
:1059900091460C465FEA000804D183A14FF49F7042
:1059A000FCF7DAFDD8F8140020B97FA14FF4A070FD
:1059B000FCF7D2FDD8F8000020B97BA140F24110DD
:1059C000FCF7CAFDD8F8040020B977A14FF4A17004
:1059D000FCF7C2FD002C76D014F8011B39B1252943
:1059E0000ED04046FDF7DEF820780028F4D198F874
:1059F0000C00002867D04046BDE8FC47FFF79ABF7F
:105A00000020012221782B291BD02D2902D03029FA
:105A100008D102E040F0010001E040F00200641C07
:105A2000002AEFD100252A290ED02178A1F13002D9
:105A30000A2A11D205EB850201EB4205641C303DB8
:105A4000F1E740F00400EAE7D9F800100B1DC9F8AF
:105A500000300968641C0D44217800232E290BD1E5
:105A600014F8011FA1F130020A2A05D203EB8302C8
:105A700001EB4203303BF3E76C290DD068290BD0D2
:105A8000692921D00BDC252918D0582931D0632968
:105A90000ED0642915D117E014F8011FECE7702926
:105AA00069D0732932D075291BD0782909D120E01B
:105AB000D9F80000011DC9F8001001784046FDF733
:105AC00071F8641C90E76CE0D9F800100A1DC9F861
:105AD00000200968CDE900500A224046FDF7C2FEC9
