:020000040000FA
:10000000D02500204D0300005503000057030000D9
:10001000590300005B0300005D03000000000000C6
:100020000000000000000000000000005F0300006E
:10003000610300000000000063030000650300008E
:100040006703000067030000FD0500006703000070
:1000500067030000670300006703000067030000F8
:1000600067030000670300006703000067030000E8
:1000700067030000670300006703000067030000D8
:1000800067030000670300006703000067030000C8
:1000900067030000670300006703000067030000B8
:1000A00067030000670300006703000067030000A8
:1000B000670300006703000000000000000000006C
:1000C0006703000067030000670300006703000088
:1000D0006703000067030000670300006703000078
:1000E00067030000670300006703000000000000D2
:1000F000000000006703000000000000670300002C
:1001000000000000000000000000000000000000EF
:1001100000000000000000000000000000000000DF
:1001200000000000000000000000000000000000CF
:1001300000000000000000000000000000000000BF
:1001400000000000000000000000000000000000AF
:10015000000000000000000000000000000000009F
:10016000000000000000000000000000000000008F
:10017000000000000000000000000000000000007F
:10018000000000000000000000000000000000006F
:10019000000000000000000000000000000000005F
:1001A000000000000000000000000000000000004F
:1001B000000000000000000000000000000000003F
:1001C000000000000000000000000000000000002F
:1001D000000000000000000000000000000000001F
:1001E000000000000000000000000000000000000F
:1001F00000000000000000000000000000000000FF
:10020000DFF80CD000F0E4F800480047D509000002
:10021000D025002030B4044654E8000F0D4644E8D1
:100220000053002BF8D1156030BC704730B4044641
:1002300054E8000F40EA010544E80053002BF7D1D1
:10024000156030BC704730B4044654E8000F00EA33
:10025000010544E80053002BF7D1156030BC70470E
:1002600030B4044654E8000F80EA010544E8005326
:10027000002BF7D1156030BC704730B4044654E809
:10028000000F00EB010544E80053002BF7D1156087
:1002900030BC704730B4044654E8000FA0EB0105B1
:1002A00044E80053002BF7D1156030BC70470000C4
:1002B00030B4044654E8000F0D4644E80053002BC8
:1002C000F8D1156030BC704730B4044654E8000FD4
:1002D00040EA010544E80053002BF7D1156030BC1B
:1002E000704730B4044654E8000F00EA010544E8C2
:1002F0000053002BF7D1156030BC704730B4044672
:1003000054E8000F80EA010544E80053002BF7D1C0
:10031000156030BC704730B4044654E8000F00EB61
:10032000010544E80053002BF7D1156030BC70473D
:1003300030B4044654E8000FA0EB010544E8005334
:10034000002BF7D1156030BC70470000064880478D
:1003500006480047FEE7FEE7FEE7FEE7FEE7FEE7AA
:10036000FEE7FEE7FEE7FEE7F503000001020000FE
:1003700000487047601E000040EA01039B0703D05D
:1003800009E008C9121F08C0042AFAD203E011F8D4
:10039000013B00F8013B521EF9D27047D2B201E096
:1003A00000F8012B491EFBD270470022F6E710B57A
:1003B00013460A4604461946FFF7F0FF204610BDD3
:1003C000421C10F8011B0029FBD1801A7047000065
:1003D000064C074D06E0E06840F0010394E8070092
:1003E00098471034AC42F6D3FFF70EFFE01E000032
:1003F000001F000030B54FF080500022D0F83011BF
:100400000123082902D1D0F8344114B1082909D0B8
:100410000BE04FF08041C1F80C21C1F81021684970
:100420000A6005E0D0F8344114B1082957D059E0EA
:1004300064490968644C21606249091D0968241DEA
:100440002160604908310968241D21605D490C3133
:100450000968241D21605B4910310968241D216051
:10046000584914310968241D21605649183109681A
:10047000554C2034216053491C310968241D2160EA
:10048000504920310968241D21604E4924310968F2
:10049000241D21604B4928310968241D21604949E8
:1004A0002C310968241D2160464930310968464CC9
:1004B00040342160434934310968241D2160414999
:1004C00038310968241D21603E493C310968241DEA
:1004D00021603C4940310968241D216005E0D0F8C5
:1004E000344114B1082904D006E0394C3749216061
:1004F00005E0D0F8344114B1082904D006E0354CA9
:10050000FB21216005E0D0F8344114B1082908D05E
:100510000AE090F858423048016864F30301016032
:1005200005E0D0F8344114B1082905D00EE02B497C
:100530004FF40070086002E0D0F8340130B9284868
:100540000168C90702D06FF0010101602548016808
:1005500041F470010160BFF34F8FBFF36F8F4FF015
:100560001021D1F80002002803DBD1F80402002892
:1005700022DA1D4C23601D480368002BFCD0122397
:10058000C1F800320568002DFCD0C1F804320168C2
:100590000029FCD0226001680029FCD0BFF34F8FF6
:1005A00010487C380168124A01F4E061114301608F
:1005B000BFF34F8F00BFFDE70F490E48086030BD05
:1005C000380500400404001020C5004048810300A5
:1005D0008C56004018F50040E40E00404096024062
:1005E0000004004088ED00E004E5014000E4014023
:1005F0000400FA050090D003640000200448017F45
:1006000004480029024901D001F0EDBA01F05CBABA
:100610008C0000200020004002E008C8121F08C122
:10062000002AFAD170477047002001E001C1121F73
:10063000002AFBD170470000134C0121208801EBF8
:10064000004012A100F032FF00F0EAFF00F058FE77
:100650000028FBD10F480068C00700D000BE2088EA
:10066000032101EB00400CA100F020FFBFF34F8FEE
:100670000848E43801680D4A01F4E0611143016063
:10068000BFF34F8F00BFFDE780000020466174611B
:100690006C000000F0ED00E0486974207765616B44
:1006A0002068616E646C6572000000000400FA0549
:1006B0000EB500210091CDE901106A4644F2010017
:1006C000FFF7BAFF0EBD00F003B800F009B8000054
:1006D00072B602480168491C0160704700000020A2
:1006E00003490868401E086000D162B670470000E8
:1006F0000000002070B5054608680C46411C04D077
:1007000000F018FD206800F0FCFC6068411C02D07D
:10071000002100F0EDFC28791F4901EB4010296809
:10072000007F0028A069C1F8240523D0607D227DC8
:1007300029681043C1F86C05D4E900122868C0F894
:100740000C15C0F8142522E0A068411C02D000213D
:1007500000F0CEFCE068411C04D000F0EBFCE06847
:1007600000F0CFFCD4E902122868C0F80825C0F8D0
:10077000101570BD607D217D2A680843C2F86C05A4
:10078000D4E900122868C0F81425C0F80C15207DA3
:100790000128D9D070BD00008C0000202DE9F04167
:1007A000861C0C4601270020FFF78DFF0F480168CB
:1007B0002160D0E90012891A82680446511AB51CDA
:1007C00007E000BF00F0BEF8D4E90001401AA168BC
:1007D000091A491C8D42F5D8206830442060002059
:1007E000FFF773FF3846BDE8F0810000AC01002040
:1007F00030B482680468531C8360A154D0E90112AC
:100800008A4202D330BC00F058BB30BC70470000B5
:10081000034803C8814201D101207047002070477E
:10082000AC0100202DE9FC5F0E008346DDE90C479A
:10083000C6F1000098469246814600D4084601253C
:1008400003E000BF90FBFAF06D1C5045FADAA845B2
:1008500000D9454624B1002E01DB780700D5641E7F
:10086000B80702D5B8F1000F0AD0F80708D13CB19B
:10087000A54205D220215846641EFFF7B9FFF6E7CE
:10088000002E02DA4E462D2102E0780703D52B21F7
:100890005846FFF7ADFF07F0030002280BD1B8F16F
:1008A000000F08D13CB1A54205D230215846641E44
:1008B000FFF79EFFF6E7CDE9004743465246314633
:1008C000584601F009FABDE8FC9F000070B50E46DD
:1008D0000446007918494FF4A27501EB4010017FDE
:1008E0002068A1B14FF4887100F08EFF4FF4907131
:1008F000206800F089FF4FF49271206800F084FFB7
:100900002946206800F080FF0C49206809E04FF478
:100910008E7100F068FF2946206800F064FF0849E6
:100920002068C0F80413206800F0BFF93146BDE824
:10093000704000F09EB900008C00002010030200FF
:10094000800002002DE9FE43214DD5E9014704EA6C
:10095000070005EB800605F583600C3600F0E4F82F
:1009600005F21440804600F0DFF80AE0C0F3891178
:1009700001EB9050641C044404EA070005EB800678
:100980000C3630688107F1D00020694604EA07027E
:1009900005EB8202641CD26841F82020401C02282A
:1009A000F4D3009800F00300022800980AD0C0F3A6
:1009B00083100444404600F0B1F8002800D06C6079
:1009C000BDE8FE83032101EB905004EB9004F1E7B6
:1009D000AC0100201A4808B500270760384600F02F
:1009E000C7FD08B1FFF764FE00F07CFC144D154C08
:1009F0002D1D0126C4F80060D4F800010028FBD0AA
:100A0000C4F8007128688005286801D50E4908439C
:100A1000C11700EB91708010009066600B480321B5
:100A2000009A008801EB004009A100F043FD0E4848
:100A300000F0CEF800F064FC0028FBD1DAE70000FB
:100A400004C5004000C0004000FCFFFF8000002003
:100A500041637475616C2074656D70657261747545
:100A600072653A202564000020A107002DE9F047B7
:100A7000C7880446181D16468946B0FBF7F1B0FB3F
:100A8000F7F207FB12009A193A44D21CB2FBF7F2B4
:100A9000DDF820A001E02468491E0029FBD13D1AA1
:100AA0008846B54216D818E0BAF1000F05D02118D3
:100AB00009EB08002A46091D04E0204409EB08015F
:100AC0002A46001DFFF758FC00202468761BA84426
:100AD000B74201D9354600E03D46002EE4D1BDE8DD
:100AE000F087000030B50B46024600F06FFD63B1A1
:100AF0000021094C0CE000BF01EB410304EB830330
:100B000015685B88AB4202D11160002030BD491CE2
:100B10008142F1D3052030BD6800002008B50021D6
:100B20006A46FFF7DEFB08BD08B501216A46FFF7FC
:100B3000CBFB009808BD70B5044600252846FFF79A
:100B4000C2FD21686268086890420ED9401E0860A4
:100B50000178238AE26801FB0325227A2168101AB2
:100B6000C0B20A79824200D208710020FFF7ADFDC1
:100B7000284670BD70B505460C460020FFF7A3FD62
:100B8000E868298A201AB0FBF1F12A681068431C32
:100B900013600170BDE870400020FFF796BD10B5EE
:100BA00030B1017A42680368891AC9B21A6006E056
:100BB0000E2010BD03681A68541C1C601170491E79
:100BC000C9B2F7D2006800210171084610BD0000CB
:100BD00000283ED01F49204A096800BF00BF00BF5F
:100BE00000BF00BF00BF00BF00BF91422FD000BFB9
:100BF00000BF00BF00BF00BF00BF00BF00BF00BFFD
:100C000000BF00BF00BF00BF00BF00BF00BF00BFEC
:100C100000BF00BF00BF00BF00BF00BF00BF00BFDC
:100C200000BF00BF00BF00BF00BF00BF00BF00BFCC
:100C300000BF00BF00BF00BF00BF00BF00BF00BFBC
:100C400000BF00BF00BF00BF00BF00BF00BF013832
:100C5000C3D17047640000200024F40000F01F029C
:100C6000012191404009800000F1E020C0F880118E
:100C700070474907090E002806DA00F00F0202F15A
:100C8000E02282F8141D03E000F1E02282F8001453
:100C900000F01F02012191404009800000F1E02096
:100CA000C0F88012C0F800117047000B40B27047C6
:100CB0000121B1EB507F01D1012070470020704726
:100CC0002DE9F04105460079164F904607EB401498
:100CD0000E46E07E10B10820BDE8F081707F2077DD
:100CE0002846FFF707FD5FEA080060603169216070
:100CF00003D0317F2846FFF7E9FD287907EB401044
:100D0000007F0028286801D0082100E00421C0F8F5
:100D100000150020E0752076A0750121E176A0760F
:100D2000DAE700008C0000202DE9F0470546007945
:100D30003F4E904606EB40140F46207F18B1084600
:100D4000FFF7B6FF30B1284600F074F820B111204B
:100D5000BDE8F0871020FBE784F81680A760002725
:100D6000A78228794FF0010806EB40143E46207F09
:100D70000028286825D04FF49079494600F044FDBA
:100D80004FF4AC7A5146286800F03EFD2868A17DFA
:100D9000A268C0F84425C0F848152868C0F8088043
:100DA0006068F0B94946286800F029FD8046514640
:100DB000286800F024FD58EA0001F3D058BBA7755D
:100DC0000FE04FF48E7A514600F00DFD2868C0F810
:100DD00008802146286800F02BFE61684FF480707F
:100DE00089B13046B4E75146286800F0F7FC10B9E5
:100DF000A08A4845F7D1A08A484505D021462868F1
:100E000000F016FE00E08146A08AA17D8842EAD368
:100E1000A08A484501D10F26D1E75146286800F045
:100E2000DDFC0028F9D02868C0F80C80C7E7000076
:100E30008C0000200079044901EB4010807D0028DF
:100E400000D00120704700008C00002070B50446DF
:100E500000791149002601EB401520682A7FC0F86F
:100E60000065686888B1207901EB4010007F002898
:100E7000206801D0094901E008498C39C0F80813FD
:100E80002068FFF712FFFFF7E9FE204600F0C2FCE2
:100E9000EE766E6070BD00008C0000201003020032
:100EA0000FB408B50399002904D004AA00926A4639
:100EB00000F00FF801B05DF814FB10B5826804462D
:100EC000002A05D0D4E90403216898470020A060D7
:100ED00010BD2DE9FC4791460C00804676D014F8F1
:100EE000011B39B125290ED04046FFF781FC20783F
:100EF0000028F4D198F80C00002867D04046BDE8DF
:100F0000FC47FFF7DABF0020012221782B291BD0F4
:100F10002D2902D0302908D102E040F0010001E083
:100F200040F00200641C002AEFD100252A290ED0CF
:100F30002178A1F130020A2A11D205EB850201EBDA
:100F40004205641C303DF1E740F00400EAE7D9F8BF
:100F500000100B1DC9F800300968641C0D4421788D
:100F600000232E290BD114F8011FA1F130020A2A07
:100F700005D203EB830201EB4203303BF3E76C291C
:100F80000DD068290BD0692921D00BDC252918D078
:100F9000582931D063290ED0642915D117E014F8EF
:100FA000011FECE7702969D0732932D075291BD055
:100FB000782909D120E0D9F80000011DC9F80010F6
:100FC00001784046FFF714FC641C90E76CE0D9F808
:100FD00000100A1DC9F800200968CDE900500A2256
:100FE0004046FFF71FFCEFE7D9F800100A1DC9F8CB
:100FF000002009680A2206E0D9F800100A1DC9F885
:10100000002009681022CDE90050404600F064FE3F
:10101000DAE7D9F8001000270A1DC9F800200E6889
:10102000C00705D112E04046761C7F1CFFF7E0FBAD
:1010300031780029F7D104E0202140466D1EFFF7EA
:10104000D7FBBD42C0D9002DF6D1BDE74EB1304629
:10105000FFF7B6F9074604E0202140466D1EFFF772
:10106000C7FBBD4206D9002DF6D103E04046761CF1
:10107000FFF7BEFB31780029F8D1A5E7D9F80000C9
:10108000011DC9F80010056830214046FFF7B0FB8C
:1010900078214046FFF7ACFB08200021CDE9000194
:1010A000034610222946B0E7BDE8FC872DE9FF4141
:1010B0001C46DDE90A7815460E46684600F02CF815
:1010C00046EA450141EA840141EA072242EA084131
:1010D000009A00EB8200C0F80017BDE8FF811CB544
:1010E000002100910B4601220191FFF7DFFF1CBD9B
:1010F0001CB500220B46009211460192FFF7D6FF65
:101100001CBD1CB5002100910B4601220191114626
:10111000FFF7CCFF1CBD00000168202902D24FF070
:10112000A040704701F01F010160014870470000B6
:101130000003005001B56846FFF7EEFF009A012159
:101140009140C0F8081508BD70B5184A0024D2F8BF
:101150001034194609E00D7AA54205D1641C0A2C09
:10116000F7DB4FF0FF341FE049680029F3D1611C21
:101170001AD00472D2F8101431B149684160D2F823
:101180001014486000250BE00021C2F810044160F3
:10119000F8E700231A462946204600F021FA6D1C84
:1011A00000F014FAA842F4D8204670BDAC0100202B
:1011B000F0B595B01C4615460F4608461A9E00F03D
:1011C000E7FA182109A8FFF7F0F80E96CDE90954BF
:1011D0000023082203A9384600F0F4FA0598069087
:1011E0000498ADF81C0000208DF820000398082614
:1011F00000F00300012802D002281DD03CE0039833
:101200003346850AC0F3C2008DF81E0003980FA96B
:10121000C0F380008DF81F000398C0F38314A20070
:10122000384600F0CFFA09A8009006AB22460FA975
:10123000284600F009FA1FE00398840DC0F3C200AD
:101240008DF81E000398C0F380008DF81F00082C55
:1012500001D2254600E0082533462A460FA9384624
:1012600000F0B0FA2E44641B09AB06AA29460FA869
:1012700000F028F9002CEAD1384600F092FA15B0B7
:10128000F0BD7047012000F0F7BB000010B5044826
:10129000FFF7DCFDBDE81040002000F0EDBB0000D2
:1012A0000800002008B5034A00924023024AFFF7D5
:1012B0007FFF08BD71190000AC000020084A012919
:1012C00002EBC00005D0022903D0032903D0042972
:1012D00003D00020704700797047407970470000C4
:1012E000001F000010B5FFF7CDFF04210348FFF7F2
:1012F0002BFF02490120487210BD000010000020A1
:101300002DE9FE4FFFF784FA10B10020BDE8FE8FF3
:1013100063480021C0F81414D0E9014604EA06012C
:1013200000EB81014FF000090AE000BFC1F3891210
:1013300002EB9151641C0C4404EA060100EB8101AC
:10134000C9688A07F2D000216A46804604EA06008E
:1013500008EB8000641CC06842F82100491C022987
:10136000F4D3009800F00300022800981CD0C0F3CA
:101370008311062900D3062161F389100090C0F380
:101380008310801C8100474800F0B9F9070075D030
:1013900000F0FEF94B4608226946384600F018FA7C
:1013A00009F10809002557E0810D50228A46B2EB69
:1013B000905F00D850210D4665F39F500090083192
:1013C000384800F09CF9070058D000F0E1F94B468E
:1013D00008226946384600F0FBF904EA0601701A53
:1013E0008000001D09F1080B854220D92C4E0C36D7
:1013F00030B1C2B208EB8101281A91460C3104E0E9
:101400003146EAB2002691463046C5B25B463846C0
:1014100000F0DEF90BEB090326B12A4631463846C7
:1014200000F0D6F90AF1030004EB90041AE008EB8F
:1014300081015B462A4638460C31F1E704EA060092
:1014400008EB80014B46042238460C31641C00F046
:10145000BFF909F104096D1C0098C0F38310A8427C
:10146000ECD85FB11048FFF759FBD8F81054464646
:1014700005B140B1384600F094F97460FFF7C8F93F
:1014800080F0010042E7687A012804D12A682846E2
:101490003946126890476D68002DF4D1EAE70000E4
:1014A000AC010020C81D0000C005002000231A4622
:1014B00000F072BA08B5012300926A4600F06CFA97
:1014C00008BD00002DE9F0470E4680461C469246B6
:1014D00008293ED894F80C90002020731946104635
:1014E00000F0F2F90025B54206D218F805201AA13D
:1014F0002046FFF7D5FC03E019A12046FFF7D0FCFA
:101500006D1C082DEFD317A12046FFF7C9FC00255D
:10151000B54210D218F80570FEF72AFF0068C05DCA
:1015200010F03E0F01D03A4600E02E220EA12046D8
:10153000FFF7B6FC03E00DA12046FFF7B1FC6D1CE0
:10154000082DE5D301222146504600F09FF984F88A
:101550000C90BDE8F08700002025303278000000B4
:10156000202020007C0000002563000020000000F7
:10157000114810B5FF218160002101604160C0F871
:101580001814C0F8141480F81C140C4800F007F963
:1015900000280FD10A480B490B4B401AC108002004
:1015A00005E000BF00EB400223F82200401C884207
:1015B000F8D3002010BD0000AC010020C81D0000C1
:1015C000181F0000001F00006800002002480349A7
:1015D000401AC00870470000181F0000001F0000DC
:1015E0001FB51146002443B901A8FFF77BFA20B9C3
:1015F0000348019900EBC100847904B0204610BD76
:10160000001F000013B56846FFF76CFA08B1002010
:101610001CBD0248009950F831001CBD001F00009D
:1016200070B508480125D0F8104480F81C5405E036
:10163000657221682046496888476468002CF7D1A4
:1016400070BD0000AC0100202DE9FF4781460C9DD4
:1016500000200C462F7B28739846164629461846CC
:1016600000F032F9072E42D2DFE806F004090F1627
:101670001F2A360049462846FFF712FC37E0494644
:1016800028462268FFF70CFC31E0D4E900234946E4
:101690002846FFF705FC2AE0A0680090D4E9002363
:1016A00049462846FFF7FCFB21E0D4E90201CDE9D9
:1016B0000001D4E9002349462846FFF7F1FB16E074
:1016C00004F1080007C88DE80700D4E90023494663
:1016D0002846FFF7E5FB0AE004F108000FC88DE893
:1016E0000F00D4E9002349462846FFF7D9FB002222
:1016F0002946404600F0CAF82F73BDE8FF872DE960
:10170000F041058A80462D1F4819C01CB0FBF5F03A
:10171000C6B24046FFF70FFA041E19D00020207110
:1017200001206071E58000272546761EC4F8008000
:101730000BE04046FFF7FFF960B16179491C617128
:10174000286005467F1CC0F80080B742F1D32046D0
:10175000BDE8F081204600F002F80020F8E72DE90E
:10176000F041457901466B1E002201E00968521CD8
:101770009A42FBD30F680146002605E038460C6804
:10178000FFF7F8F92146761CAE42F7D3BDE8F081A9
:1017900008B501216A46001DFEF76FFD08BDFFF781
:1017A000FEB938B50446001D01216A46FEF772FDF8
:1017B000009810F0FF0F04D12046BDE83840FFF735
:1017C000CEBF38BD38B501240094FFF74FF938BDBE
:1017D00038B500240094FFF749F938BD4058002877
:1017E00000D00120704708B50022425040580090B8
:1017F00008BDD0F80403084000D0012070474058CD
:10180000002800D00120704708B5002242504058FF
:10181000009008BD70B5034600791B4901EB4010EC
:101820001968027F4FF0FF30002AD1F80C25D1F85B
:101830001465D1F80855D1F8104504D0C1F80C054D
:10184000C1F8140503E0C1F81405C1F80C051968C6
:10185000C1F80805C1F81005501C02D01046FFF76A
:101860003EFC701C02D03046FFF739FC601C02D0F1
:101870002046FFF734FC681C04D02846BDE87040C1
:10188000FFF72DBC70BD00008C00002010B50C4689
:10189000C17949B11AB109A12046FFF701FB2046E1
:1018A000BDE81040FFF709BB007A0028F3D00448D8
:1018B00004A102682046FFF7F3FAECE70D0A0000E6
:1018C000400000202573000070B50446C0790D4625
:1018D00000281CD1207A50B1A179A088FFF7EEFC36
:1018E0000B4951F820200BA12846FFF7D9FAA08810
:1018F0000021FFF787FE03460549A079143951F806
:1019000020202846BDE8704003A1FFF7C9BA70BD8A
:1019100040000020257300003C25733E2025733ACB
:101920002000000070B50546C87D0C4600284FF425
:10193000847128460AD0FFF756FFD5F81805627E55
:10194000E1688854607E401C607670BDFFF74BFFF5
:10195000D5F8180570BD1FB501238DF800308DF83E
:1019600008100192D0E90012684690471FBD0000A0
:1019700010B5084C0020D2B22070201DFFF7D4F91A
:1019800008B1FEF795FE6078002802D02178002982
:10199000FAD010BD040000202DE9F843DFF88C8058
:1019A0000446914698F81C04D8F808500F461E4685
:1019B000002838D169461846FEF7F0FE002832D0DC
:1019C0000098C44600EA050108EB810252F80C1F9A
:1019D00021F00301491C401C1160E30602D541F0CF
:1019E000040101E021F0040164F3C50166F38911EB
:1019F00067F39F21116000EA0501220C0CEB8101C5
:101A0000401CCA60009000200BE000BF009959F80C
:101A1000203001EA05020CEB8202491CD360401C15
:101A20000091B042F2D3BDE8F8830000AC01002081
:101A300070B50C4605464FF48E71FFF7D4FEA18AAF
:101A4000A068415CA08A401CA082C5F81C1570BD2E
:101A50001FB500228DF800208DF8081081680191D3
:101A60008275D0E90012684690471FBD01490120E8
:101A7000087070470400002010B588B0044620228A
:101A80000E496846FEF778FC06200090C01F0190C2
:101A9000029003904FF0EB7006900CB1084A00E002
:101AA000002269460748FFF70BF908B1FEF700FE70
:101AB0000448001F447008B010BD0000A81D0000BD
:101AC0006D1A0000080000202DE9FF470C4605466E
:101AD0004FF40071FFF78DFE01274FF401780026C7
:101AE00018B34FF4927949462846FFF777FEE0B1E4
:101AF00049462846FFF777FEC5F80883A07E00B95F
:101B00006F6002208DF80000D5F88004C5F88004CD
:101B10000390E07D8DF80800E0680190E675267678
:101B2000D4E900126846904727E004212846FFF7D1
:101B300060FE10B34FF484712846FFF74FFEE0B10A
:101B400021462846FFF7EEFEE07D617E884214D1F3
:101B5000207E38B1617EE268E0752069E06026761B
:101B6000667607E0A07E00B96F60C5F80883E67569
:101B7000617EE2682046FFF7EEFE4FF48E78414624
:101B80002846FFF72BFE88B1A08AA17D884204D2A7
:101B900021462846FFF74CFF08E041462846FFF75C
:101BA00022FEA17D11B12046FFF752FF4FF4A2782B
:101BB00041462846FFF712FE002812D0414628462B
:101BC000FFF711FEA07E00B12F60E07D002808D055
:101BD000E675617EE26804B02046BDE8F047FFF795
:101BE000BABEBDE8FF872DE9FF410C464FF492775E
:101BF00005463946FFF703FE0026C0B139462846A0
:101C0000FFF702FE02208DF80000D5F88004C5F829
:101C100080040390D5F83C058DF80800E068019039
:101C2000E6752676D4E900126846904724E04FF422
:101C3000887739462846FFF7E2FDE8B1394628465D
:101C4000FFF7E2FDD5F83C05C1B2E07D884213D133
:101C5000207E60B1E268D5F8000220F02000C5F8CF
:101C60000002207EE0752069E060267601E0E675DE
:101C7000E2682046FFF76FFE4FF4A2773946284608
:101C8000FFF7BDFD68B139462846FFF7BDFDE07D91
:101C900038B1E675D5F83C05E268C1B22046FFF7D9
:101CA0005AFE4FF4907631462846FFF7A8FD0028EB
:101CB0000FD031462846FFF7A7FDA07D002808D0A9
:101CC000D5F84C0504B0C1B22046BDE8F041FFF79D
:101CD000BFBEBDE8FF8100002DE9F05F8346DDE96E
:101CE0000A4A994690460D460846012703E000BF80
:101CF000B0FBF8F07F1C4045FAD2B94500D94F46F9
:101D00005FEACA7012D18CB15FEA8A7002D5B9F16C
:101D1000000F01D0202607E0302605E03146584666
:101D2000641EFEF765FD0CB1A742F7D35FF0010614
:101D3000B9F1010F02D9A9F1010903E0B5FBF6F0F1
:101D4000404502D306FB08F6F2E7DFF83C9000BFFF
:101D5000B5FBF6F000FB165519F800105846FEF7D3
:101D600047FDB6FBF8F6002EF2D15FEACA7009D043
:101D7000002C07D0A74205D220215846641EFEF74A
:101D800037FDF5E7BDE8F09F8C1D000030313233A0
:101D9000343536373839414243444546A5120000B0
:101DA0008D12000083120000FFFFFFFFFFFFFFFF07
:101DB000FFFFFFFFFFFFFFFF00000000000000002B
:101DC0000000D60107010000240000201C000020B4
:101DD00024000020EC0000201800000000404040DB
:101DE00040404040404041414141414040404040EE
:101DF000404040404040404040404040400502029A
:101E00000202020202020202020202020220202058
:101E100020202020202020020202020202029090B4
:101E200090909090101010101010101010101010B2
:101E30001010101010101010020202020202888806
:101E40008888888808080808080808080808080812
:101E500008080808080808080202020240000000FA
:101E6000DD1D00007761726E696E670064656275E2
:101E7000670000001B5B313B33306D001B5B306D36
:101E8000000000001B5B313B33316D001B5B313BBD
:101E900033326D001B5B313B33336D001B5B313BD9
:101EA00033346D001B5B313B33356D001B5B313BC5
:101EB00033366D001B5B313B33376D00696E666FE7
:101EC000000000006572726F72000000756172742C
:101ED0000000000062616C6C6F6300006170700054
:101EE000181F0000000000208C00000018060000F1
:101EF000A41F00008C0000204425000028060000DC
:101F0000CC1E000000000000D41E000000000000F5
:101F1000DC1E0000000003000000000000000000C4
:101F200000200040000000009C1D00000000000098
:101F300000000000000000000000000000000000A1
:101F40000000000000000000C41E0000641E00002D
:101F5000BC1E00006C1E00007C1E0000741E0000F1
:101F6000841E00008C1E0000941E00009C1E0000B9
:101F7000A41E0000AC1E0000B41E00000090D003A0
:101F80000000000000000000000000000000000051
:101F90000000000000000000000000000000000041
:041FA000000000003D
:0400000500000201F4
:00000001FF
