:020000040002F8
:1030000020530020E9330200F1330200F3330200C1
:10301000F5330200F7330200F9330200000000002C
:10302000000000000000000000000000FB33020070
:10303000FD33020000000000FF33020001340200F3
:103040007D37020003340200FD3A0200033402001F
:103050000334020003340200A535020003340200E9
:10306000033402000334020003340200033402007C
:10307000033402000334020003340200033402006C
:1030800003340200D5370200033402000334020087
:10309000F937020003340200FD3702000334020056
:1030A000033402000334020003340200033402003C
:1030B000033402000334020000000000000000009E
:1030C000033402000334020003340200033402001C
:1030D0000334020003340200033402000000000045
:1030E00000000000000000000000000000000000E0
:1030F00000000000000000000000000000000000D0
:1031000000000000000000000000000000000000BF
:1031100000000000000000000000000000000000AF
:10312000000000000000000000000000000000009F
:10313000000000000000000000000000000000008F
:10314000000000000000000000000000000000007F
:10315000000000000000000000000000000000006F
:10316000000000000000000000000000000000005F
:10317000000000000000000000000000000000004F
:10318000000000000000000000000000000000003F
:10319000000000000000000000000000000000002F
:1031A000000000000000000000000000000000001F
:1031B000000000000000000000000000000000000F
:1031C00000000000000000000000000000000000FF
:1031D00000000000000000000000000000000000EF
:1031E00000000000000000000000000000000000DF
:1031F00000000000000000000000000000000000CF
:10320000DFF80CD000F090F9004800477D73020011
:103210002053002030B4044654E8000F0D4644E823
:103220000053002BF8D1156030BC704730B4044611
:1032300054E8000F40EA010544E80053002BF7D1A1
:10324000156030BC704730B4044654E8000F00EA03
:10325000010544E80053002BF7D1156030BC7047DE
:1032600030B4044654E8000F80EA010544E80053F6
:10327000002BF7D1156030BC704730B4044654E8D9
:10328000000F00EB010544E80053002BF7D1156057
:1032900030BC704730B4044654E8000FA0EB010581
:1032A00044E80053002BF7D1156030BC7047000094
:1032B00030B4044654E8000F0D4644E80053002B98
:1032C000F8D1156030BC704730B4044654E8000FA4
:1032D00040EA010544E80053002BF7D1156030BCEB
:1032E000704730B4044654E8000F00EA010544E892
:1032F0000053002BF7D1156030BC704730B4044642
:1033000054E8000F80EA010544E80053002BF7D190
:10331000156030BC704730B4044654E8000F00EB31
:10332000010544E80053002BF7D1156030BC70470D
:1033300030B4044654E8000FA0EB010544E8005304
:10334000002BF7D1156030BC7047000030B4044644
:1033500054E8000F0D4644E80053002BF8D11560E7
:1033600030BC704730B4044654E8000F40EA010511
:1033700044E80053002BF7D1156030BC704730B4DF
:10338000044654E8000F00EA010544E80053002B0E
:10339000F7D1156030BC704730B4044654E8000FD4
:1033A00080EA010544E80053002BF7D1156030BCDA
:1033B000704730B4044654E8000F00EB010544E8C0
:1033C0000053002BF7D1156030BC704730B4044671
:1033D00054E8000FA0EB010544E80053002BF7D19F
:1033E000156030BC7047000006488047064800471B
:1033F000FEE7FEE7FEE7FEE7FEE7FEE7FEE7FEE7A5
:10340000FEE7FEE701380200013202002DE9F05F1D
:103410000546002092469B46884606468146402443
:103420001BE0284641464746224600F06CF85346CA
:103430005A46C01A914110D311461846224600F050
:1034400053F82D1A67EB01084F4622460120002150
:1034500000F04AF817EB00094E41201EA4F10104C8
:10346000DFDC484631462A464346BDE8F09F00006F
:1034700000487047C0C6020040EA01039B0703D022
:1034800009E008C9121F08C0042AFAD203E011F8A3
:10349000013B00F8013B521EF9D27047D2B201E065
:1034A00000F8012B491EFBD270470022F6E710B549
:1034B00013460A4604461946FFF7F0FF204610BDA2
:1034C000421C10F8011B0029FBD1801A704730B54F
:1034D00004460020034600E05B1C934203D2E05CFC
:1034E000CD5C401BF8D030BD202A04DB203A00FA26
:1034F00002F1002070479140C2F1200320FA03F34B
:10350000194390407047202A04DB203A21FA02F048
:103510000021704721FA02F3D040C2F1200291400D
:103520000843194670470000064C074D06E0E06866
:1035300040F0010394E8070098471034AC42F6D3FA
:10354000FFF762FE48CD020068CD020070B58C180E
:1035500010F8015B15F0070301D110F8013B2A11A7
:1035600006D110F8012B03E010F8016B01F8016B94
:103570005B1EF9D12B0705D40023521E0DD401F890
:10358000013BFAE710F8013BCB1A921C03E013F859
:10359000015B01F8015B521EF9D5A142D8D300208E
:1035A00070BD00002DE9F04700268CB0DFF8609177
:1035B000B0464FF48075012437460696284605F03C
:1035C00007F838B1D9F80403204203D0284604F0A4
:1035D000F5FF26432D1D64007F1CADB2082FEDD3EF
:1035E0004FF4BE74204604F0F3FF48B1204604F0C7
:1035F000E5FF46F0004606AA0121002004F0CAFFBC
:10360000444D16F0FF0F15D00127002437420DD08E
:1036100009EB8401D1F81005D1F81015C0F304208E
:1036200055F82420C1F3014102B190477F00641C8A
:10363000082CEBD3002E67DA4FF0FF30CDE908807D
:1036400000263446281910F8507F90F9000027F022
:10365000C008401C44D009A9404604F0FEF858B305
:103660004FEA9719404602F04FF855F820701FB105
:10367000B9F1030F03D00FE0B9F1030F30D108A85F
:103680004FEAD80208F00703815C4FF0010C0CFAF6
:1036900003FC41EA0C0181544FF0A04101EB88008A
:1036A000D0F8000706A9C0F3014A404604F0D5F857
:1036B00018B1BAF1020F03D012E0BAF1030F0FD123
:1036C000B9F1030F08D1BAF1020F1BD00221404615
:1036D00004F044FF761CF6B217B149464046B8479D
:1036E000641C042CAED3002E0ED06A4601210020AB
:1036F00004F050FF06990098884205D0069008987B
:1037000009909DE70321E2E70CB0BDE8F0870000D7
:1037100000600040E42A002000F01F0201219140D7
:103720004009800000F1E020C0F88012704700F0EE
:103730001F02012191404009800000F1E020C0F803
:103740000011704700F01F020121914040098000E4
:1037500000F1E020C0F8001270474907090E002868
:1037600006DA00F00F0000F1E02080F8141D704729
:1037700000F1E02080F80014704700002DE9F041CE
:103780004FF48077384604F025F90124104EA50740
:1037900048B1384604F025F90120C5F808037470D3
:1037A000002001F0D5FF4FF48277384604F012F97B
:1037B00000280BD0384604F014F90220C5F808039D
:1037C000B470BDE8F041012001F0C2BFBDE8F08156
:1037D000D02A002007480021C0F84011C0F8441149
:1037E000C0F84811C0F84C11C0F80011C0F804111D
:1037F00008F03AB90010014008F084B805F02ABC7E
:10380000F0B5AE480023021D01780125101D4FF0D0
:10381000805406290BD11678360708D10678C6F3EE
:103820000316032E06D0042E04D0052E02D006293E
:1038300007D00EE0B4F82463A14FC6F304263E601F
:1038400002E01678360704D10678C6F30316032E75
:1038500002D0062904D00FE09B4F9A4E7E670EE0FF
:103860001678360708D10678C6F30316032E06D05D
:10387000042E04D0052E02D0062907D00EE0D4F87D
:103880004462924FC6F342363E6002E01678360735
:1038900004D10678C6F30316032E02D0062906D0FB
:1038A00011E08B4E376827F0807737600EE016788E
:1038B000360708D10678C6F30316032E06D0042E69
:1038C00004D0052E02D006290AD011E04FF0804620
:1038D000C6F80C31C6F810317C4E361F336002E05A
:1038E0001678360704D10678C6F30316032E02D0E5
:1038F000062905D00CE0754F032664373E600AE0C8
:103900001678360704D10678C6F30316032E02D0C4
:1039100006290DD014E06F4F05263E606D4E7836B7
:1039200035606C4E083633603F263F1D3E6002E036
:103930001678360704D10678C6F30316052E02D092
:10394000062957D062E0644E3668644F3E60624E8E
:10395000361D36683F1D3E605F4E083636683F1D97
:103960003E605D4E0C3636683F1D3E605A4E103646
:1039700036683F1D3E60584E143636683F1D3E6027
:10398000554E18363668554F20373E60524E1C361D
:1039900036683F1D3E60504E203636683F1D3E6003
:1039A0004D4E243636683F1D3E604B4E28363668F5
:1039B0003F1D3E60484E2C3636683F1D3E60464EE9
:1039C00030363668454F40373E60434E34363668B1
:1039D0003F1D3E60404E383636683F1D3E603E4ECD
:1039E0003C3636683F1D3E603B4E403636683F1DD4
:1039F0003E6002E01678360708D10678C6F3031653
:103A0000032E06D0042E04D0052E02D0062907D09E
:103A100019E0D4F85812324A01F04F01116002E067
:103A2000117809070FD10078C0F30310032803D0E1
:103A3000042801D0052806D12A480168C90702D008
:103A40006FF00101016022487438016841F470018F
:103A50000160BFF34F8FBFF36F8F4FF01021D1F88C
:103A60000002002803DBD1F80402002822DA1E4AF3
:103A700015601E480468002CFCD01524C1F80042D3
:103A80000568002DFCD0C1F8044201680029FCD073
:103A9000136001680029FCD0BFF34F8F0C48F03849
:103AA0000168134A01F4E06111430160BFF34F8FD5
:103AB00000BFFDE710490F480860F0BDE00F00F0BF
:103AC000403501400DF0ADBA00C007403C05004054
:103AD000FCED00E0105600400404001020C500403A
:103AE000E40E00400004004004E5014000E4014011
:103AF0000400FA050090D003BC2200200448017F96
:103B000004480029024901D008F0C3B808F032B8CF
:103B10003C2B00200020004002E008C8121F08C112
:103B2000002AFAD170477047002001E001C1121F3E
:103B3000002AFBD1704700000121202803DA8140D0
:103B40000548014003E0402802DA2038814009B1ED
:103B50000120704700207047FC06FFBD10B560B122
:103B600059B102780B785208B2EB530F05D10622F7
:103B7000401C491CFFF7ABFC08B1002010BD012020
:103B800010BD800701D00020704701207047C36836
:103B90008B4206D811440069491E814201D8012098
:103BA00070470020704710B501220221002001F06B
:103BB000D3FB08B1072810D107220221012001F010
:103BC000CBFB08B1072808D100210A22084601F0E2
:103BD000C3FB08B1072800D1002010BD10B550B1BB
:103BE0000A480321008801EB004009A104F0AAFE65
:103BF00006F006FD03E00321094800F08FFC0028D1
:103C000003D0BDE8104000F0BFB810BD1C23002059
:103C1000457261736520626F6E647321000000005D
:103C20006023002070B58CB015460E4600236C460C
:103C3000C3F10F01415CE1545B1C102BF8D30D2143
:103C400004F11000FFF731FC0020C0F10F02315CDD
:103C50002244401C11740328F7D3684643DF002038
:103C6000C0F10F01214491F820102954401C032871
:103C7000F6D30CB070BD022001F066BA70B5002416
:103C8000064D06E06868012110F8340004F00EF8D3
:103C9000641C28788442F5D3002070BD08220020DF
:103CA000F8B515460C460646052A01D20720F8BD90
:103CB00004F0E2F818B904F0B1F80028F7D110497F
:103CC00000204E600C70C1E902500E4D08610DE0FD
:103CD00006EBC4006968009181788DF801100078C6
:103CE000094A694604F034F80028E0D1641EE4B2C1
:103CF000EED2BDE8F840054A0021024800F096B82F
:103D000008220020E0C30200716502007959020018
:103D1000134C0121208801EB004012A104F012FE97
:103D200004F0DAFE04F038FD0028FBD10F480068EB
:103D3000C00700D000BE2088032101EB00400CA189
:103D400004F000FEBFF34F8F0848E43801680D4AC5
:103D500001F4E06111430160BFF34F8F00BFFDE745
:103D60001C230020466174616C000000F0ED00E04F
:103D7000486974207765616B2068616E646C657258
:103D8000000000000400FA050EB500210091CDE905
:103D900001106A4644F20100FFF7BAFF0EBD0000B1
:103DA00070B502280DD1084C032508A1208805EB29
:103DB000004004F0C7FD208810A105EB004004F08E
:103DC000C1FD012070BD00001C230020506F7765ED
:103DD00072206D616E6167656D656E742077616ECE
:103DE000747320746F20726573657420746F20443F
:103DF0004655206D6F64652E00000000506F77659A
:103E000072206D616E6167656D656E7420616C6CAA
:103E10006F77656420746F20726573657420746FAA
:103E200020444655206D6F64652E0000074B9B783B
:103E300023B12AB120B10068037C1BB10820704770
:103E40000720704741744261002070477C2B00209E
:103E500070B506F03BFF104800240B21047044703D
:103E60000E4D817014206C602C706C70FFF754FC48
:103E700007211420FFF771FC1420FFF758FC0848B5
:103E8000046007211120FFF768FC0548001F006847
:103E9000A860002070BD00007C2B00201C220020A8
:103EA000081501402DE9FC47DFF8789099F80230B9
:103EB00073B368B3052902D20720BDE8FC874369C4
:103EC00033B3437C012B25D00027044600258846C8
:103ED00016468DF80050684600F038F801A807F043
:103EE000F1FFC8B1012101700F4944600968C0E9C0
:103EF0000218C0E904769DF8040089F801009DF8D5
:103F0000000000F047F81420FFF71CFC2846D4E717
:103F10000820D2E70F46D8E704259DF8000000F0FE
:103F200039F8F3E77C2B0020041501400649897815
:103F300039B130B1416921B100210174022107F08A
:103F40006FBD0820704700007C2B002030B5EFF3D8
:103F5000108172B60D4A9468012324B103700029C0
:103F600000D162B630BD93604FF0E023D3F88051AA
:103F7000074C25401560C3F88041D3F88441546054
:103F80005A17C3F8842100220270E8E7882C002029
:103F9000FC06FFBD0B498A68002A11D000280FD10A
:103FA000EFF3108072B60B684FF0E022C2F80031D8
:103FB0004B68C2F8043100228A60002800D162B642
:103FC00070470000882C00202DE9F0410646086863
:103FD0000C46411C4FF0A0474FF0010506D005FAF2
:103FE00000F1C7F80815206804F09DFA6068411CCC
:103FF00002D0002104F08EFA3079204901EB401004
:10400000A169007F00283068C0F8241525D0607DA4
:10401000227D31681043C1F86C05D4E90012306884
:10402000C0F80C15C0F8142524E0A068411C02D08B
:10403000002104F06FFAE068411C05D08540C7F804
:104040000855E06804F06FFAD4E902123068C0F84D
:104050000825C0F81015BDE8F081607D217D32682B
:104060000843C2F86C05D4E900123068C0F8142582
:10407000C0F80C15207D0128D7D0ECE73C2B0020A0
:104080002DE9F043044687B0008800F079FB8146B3
:10409000208802F0E1FC214F8046667A20880022C9
:1040A0003978A56800F0BEFBB9F1000F33D0607914
:1040B000400711D50721404605F03EFCA0B108217C
:1040C0008DF80C1021880590ADF80E10ADF8108019
:1040D00003A801F0C9FD07E02088B97800F08CFB47
:1040E00010B1404602F0A4FC03208DF800002088A7
:1040F000ADF802006079C0F380008DF80400A0796B
:10410000C0F380008DF805008DF806508DF807602B
:10411000684601F0A9FD07B0BDE8F083E821002062
:104120002DE9FC47002517880646158090F82D00DC
:104130001446894630B13A462146484600F08AFB8B
:10414000050009D1B0784FF00C0A18B32088C84692
:10415000001DB84202D95046BDE8FC87684679DFA9
:104160000028F9D12088032108F80010208819219F
:10417000401C80B2208008F800102088401C80B2CB
:10418000208000EB0801BDF8000007F0FAFD21884F
:1041900008442080F0780222C8B1218896F90330C3
:1041A00001F1030C4846BC45D5D8425421884FF054
:1041B000010C491C89B2218000F801C02188491CEA
:1041C00089B2218009F801302088401C2080706865
:1041D000B8B1218890F9003001F1030C4846BC4584
:1041E000B9D8425421880A22491C89B221804254FC
:1041F0002188491C89B2218009F801302088401C9F
:104200002080308950B1CDE900474B46062202217B
:1042100006F1080007F06EFE05009DD1308A50B10E
:10422000CDE900474B460722032106F1100007F0B5
:1042300061FE050090D1308B50B1CDE900474B466F
:104240001522142106F1180007F054FE050083D151
:10425000306A30B13B462246494601F0E3FA050098
:10426000DBD1706A30B13B462246494603F07AF909
:104270000500D2D196F82C0038B13B46224649467B
:10428000304607F013F80500C7D1307838B13B4607
:1042900022464946304603F0EFF90500BDD12846D5
:1042A0005AE7F0B50C4693B01F210726ADF8001071
:1042B000ADF80410002750B1C17849070DD56A4602
:1042C00002A9FFF72DFF002808D102AD02E000256A
:1042D000ADF800706CB1E07810B1304613B0F0BDAD
:1042E00001AA0AA92046FFF71BFF0028F6D10AAA57
:1042F00002E00022ADF80470BDF80400C3B2BDF8BE
:104300000000C1B2284672DFE8E780F82410704749
:1043100070B50D00044653D0F4B301202070002680
:10432000E670202205F17801201DFFF7A5F884F83A
:104330002460D5F89800C4F8CC00D5F89C00C4F8E7
:10434000D0004FF6FF70A4F8C800C4F82560A4F8A8
:10435000296084F82B6004F130003C210646FFF709
:10436000A4F8287884F83000A87884F83200E87837
:1043700084F83300687884F83100D5E90401C4E991
:104380001001D5E90201C4E90E01D5E90601C4E92D
:10439000120195F82D0000E012E084F85D00686AD3
:1043A000D8B104F1780104F16C0061676065696A55
:1043B00009880180686A616D80888880002008E033
:1043C0000E2070BD696A22188968095C82F878102D
:1043D000401C616D89888142F4D8A86AE8B104F173
:1043E000A400C4F8A0000C38A065A96A898881805F
:1043F000A86AA16D00880880002006E0A96A22183A
:104400008968095C82F8A410401CA16D89888142EA
:10441000F4D895F82C0084F85C00286A48B104F1BF
:10442000C4002065296A49884180286A216D008876
:104430000880686800B1606305F13C013046BDE862
:104440007040FFF72EBF10B50288102A1AD0112A2B
:104450001FD01B2A1CD1007A0C46002818D1E07806
:104460000521401CB0FBF1F201FB1201204600F0D7
:1044700055F800280CD0D4F8D010002908D0BDE899
:1044800010400847C27B012A02D18088A1F8C800E9
:1044900010BD0C46002184F8D4108088B4F8C810F0
:1044A0008842F5D120790028F2D10121DEE710B54C
:1044B0000C46022801D0032811D1607800280ED0C4
:1044C00000206070E178204600F028F8002806D02F
:1044D000D4F8D010002902D0BDE81040084710BD24
:1044E00010B5044674DF012084F8D400002084F85D
:1044F000D600062084F83300002104F13000FFF7D5
:10450000D0FE002809D1E178204600F007F818B164
:10451000D4F8D01001B18847002010BD2DE9FF4725
:10452000044600780F4638B1E770002003F0DCFE47
:10453000012628B16670D2E0082004B0BDE8F087FB
:104540000025C4F82550A4F8295084F82B50A079F0
:1045500010B1E078012806D0E07970B1E078012848
:1045600001D0022809D1D4F8CC1021B184F82C60F4
:104570000820884701E084F82C5004F1260100202F
:104580000A5C0AB1304603E0401C0628F8D300203C
:104590004FF002084FF0030A4FF00409012F06D034
:1045A000022F09D0032F0CD0042F12D10DE0A179D6
:1045B00011B108B130460DE0E17911B108B14046C2
:1045C00008E0207A08B1504604E0607A08B1484615
:1045D00000E02846E070D4F8CC1041B1032801D0A7
:1045E000042804D1607910B194F8D400A8B184F8FB
:1045F000D55000950295019503958DF800508DF8E2
:104600000850E17804F1250004F13002052958D260
:10461000DFE801F0670A131F3B0084F8D65084F8E6
:10462000D56007208847E4E7A67001908DF8006008
:10463000ADF80C50ADF80A5043E084F802800190C8
:104640008DF80060208AADF80C00A089ADF80A0052
:1046500037E0A08AADF80A00208BADF80C00607935
:1046600080B194F8D40068B994F8D60050B18DF8B0
:10467000088084F8339000211046FFF712FE00BB3B
:1046800005211AE084F802A01BE0A08BADF80A0017
:10469000208CADF80C00607988B194F8D40070B922
:1046A00094F8D60058B18DF8088084F83390002132
:1046B0001046FFF7F6FD20B90621A17001E084F84D
:1046C0000290E07830B194F82410684673DF002837
:1046D0007FF433AFD4F8CC1009B1A078884700201C
:1046E0002BE7A570F6E7000070B5040012D0014674
:1046F0001C221448FEF7C0FE1248134D05602068C6
:1047000050B17ADF002806D120680168296040682E
:10471000686005E00E2070BD0B487BDF0028FAD1F1
:1047200008484FF6FF711438084A20F8041B054961
:10473000343901600021FFF779FB0028EBD003201A
:1047400070BD0000D8240020A021002045BE02003A
:1047500002494A6C091D06F0FBBB0000F42400204E
:1047600002460248016D001D06F0DFBBF424002064
:1047700002460248416D001D06F0D7BBF42400201C
:1047800070B50A4E054600242A46301D716C06F0AD
:10479000CCFB40B12A46301DF16C06F0C6FB08B1D7
:1047A000022400E00124204670BD0000F424002013
:1047B00010B50024204607F079FB28B1641CE4B250
:1047C000182CF7D3182010BD03480122A24001681D
:1047D00011430160204610BDF424002010B50446AA
:1047E00007F064FB002803D0024800EB8400806DD2
:1047F00010BD0000F424002070B505460C460846A4
:1048000007F054FB002809D005482A4600EB840134
:10481000001D896DBDE8704006F087BB70BD0000CB
:10482000F424002070B5064615460C46084607F0ED
:104830003DFB00280AD006482B4600EB8401324697
:10484000BDE87040001D583106F0A7BB70BD0000E8
:10485000F42400207CB5054608880C4609309042B7
:1048600001D90C207CBD68466DDF0028FAD1218873
:104870000820685420881B21401C80B220802954C5
:104880002088401C80B220802844DDF8011001609F
:10489000BDF8051081802088801D80B220809DF8A1
:1048A0000010490800D0012129542088401C208094
:1048B00000207CBD10B503F0E3F8002809D10548BD
:1048C0004FF0020C00DF002803D1BDE8104003F0D8
:1048D0003BB910BD842A002020B103490860034879
:1048E00005F0C2BE0E20704704220020B5A10200D0
:1048F00010B54FF0FF3100203BDF00280BD1B12174
:104900003ADF002807D10448416901208847022086
:1049100004F00AFA002010BD682A002070B50E4C81
:10492000206841690020884720681321808876DF4D
:10493000050008D009480121008801EB004008A1CA
:1049400004F000F805E005F091FA2168086101F033
:1049500053FE284670BD0000042200201C230020C6
:104960004661696C656420746F20646973636F6E5F
:104970006E6563742047415020636F6E6E6563748B
:10498000696F6E0030B58FB005461C2101A8FEF797
:104990008CFD0024142109A80894FEF786FD9DF8DB
:1049A0002000009420F00F00401C20F0F000103098
:1049B0008DF820009DF82100029420F00F00401C8B
:1049C00020F0F00020308DF821009DF822000494A2
:1049D00020F00600801C8DF822009DF8040009AA32
:1049E00040F028008DF8040008A8CDE905400794A0
:1049F00028788DF83A000420ADF838009DF80000C2
:104A0000ADF82C4020F00F00401C20F0F0001030DA
:104A10008DF800009DF80100ADF82E4020F00F0049
:104A2000401C20F0F00020308DF801009DF80200BD
:104A30000D9420F00600801C20F0080040F01100CA
:104A40008DF802000EA809901720CDF828D0ADF8F7
:104A500030006888AB1D01A9A2DF0FB030BD000097
:104A600010B5164C86B01ECC8DE81E0020B3144C39
:104A70004FF6FF71A18000686061002060762076AB
:104A80002046FFF729FF002814D101208DF81200DD
:104A90004FF65960ADF81000A21C04A90120A0DF58
:104AA000002807D12146684662DF002802D120464F
:104AB000FFF768FF06B010BD0E20FBE7CCC3020075
:104AC000682A002010B500280FD00188204C5029FA
:104AD00026D00BDC10291DD0112906D1A188808891
:104AE000814202D14FF6FF70A08010BD512913D032
:104AF0005329FAD1C088E1888842F6D1607E002827
:104B0000F3D0FFF70BFF0028EFD06169BDE810403C
:104B1000022008478088E7E7BDE8104004F0F0BBBA
:104B200030F8061F62899142DFD141890229DCD128
:104B30000C3000F0EBFA0749207603220988BDE823
:104B4000104002EB0143024603A1184603F0FEBEEB
:104B5000682A00201C23002052656365697665641D
:104B600020696E6469636174696F6E207374617427
:104B7000652025640000000070B50546007B042414
:104B8000012810D00224287B214600F04DF80A4C61
:104B900018B1206841690320884720684169BDE851
:104BA00070400220084700F04FFF002803D00F2874
:104BB000E9D10724E7E770BD0422002070B5184949
:104BC00000250A68002A2AD04A68002A27D0012630
:104BD00008319047112822D0124C0028206810D0AC
:104BE000457685760421012000F01EF818B1206872
:104BF00041690320884720684169BDE87040022070
:104C00000847467685760121084600F00DF8002811
:104C100005D020684169032088472068457670BD2B
:104C2000842A00200422002086B00323ADF800303F
:104C300020238DF814308DF8150000220E480192C3
:104C400002928DF81610C188ADF8041002218DF87B
:104C5000061005A90491ADF80820CDF80CD0808885
:104C600001A9A6DF002804D1BDF80010032900D057
:104C70000C2006B070470000682A00200F4A03216C
:104C8000128801EB024268B101280ED00B4A0121C3
:104C90000228128801EB02420AD0032810460AD0EB
:104CA00007A109E0104610A106E010461AA103E092
:104CB000104622A100E030A103F044BE1C230020D6
:104CC000556E6B6E6F776E206576656E74206672BA
:104CD0006F6D20626C655F6466755F627574746F7A
:104CE0006E6C6573732E0000446576696365206998
:104CF0007320707265706172696E6720746F2065D1
:104D00006E74657220626F6F746C6F61646572207F
:104D10006D6F64652E0000004465766963652077D9
:104D2000696C6C20656E74657220626F6F746C6F55
:104D300061646572206D6F64652E00005265717547
:104D400065737420746F20656E74657220626F6F76
:104D5000746C6F61646572206D6F64652066616953
:104D60006C6564206173796E6368726F6E656F75D0
:104D7000736C792E000000005265717565737420A4
:104D8000746F2073656E64206120726573706F6E3E
:104D9000736520746F20636C69656E742066616949
:104DA0006C65642E0000000010B50446008888B0D1
:104DB00021281FD009DC01282FD010280FD011285E
:104DC00016D1002000F0EAFA20E03B281BD0512841
:104DD00027D056280CD1A088132176DF16E00720B3
:104DE00000F0DCFA08B1FEF7CFFF1F49A088088069
:104DF00008B010BD00200090A08869468FDF2EE02B
:104E0000FEF7C2FFF4E7A088132176DF0028EFD079
:104E100008B0BDE81040FEF7B7BFA088002166DFEC
:104E2000F4E71022A11D04A8FEF726FB9DF8101040
:104E30000029DDD09DF81800042803D0062801D0F1
:104E40000528D5D102290DD05FF001008DF80000B2
:104E50004FF4C170ADF80400A0886946A8DF0028AF
:104E6000CED1C5E70220F1E78021002010B51A4C11
:104E70000188606810290ED011292BD1401E606076
:104E800028D1FEF790FE002824D02168002921D0E7
:104E9000BDE810400847D0B900210122084600F0C3
:104EA0005BFA08B107280FD107220221012000F088
:104EB00053FA08B1072807D104220221002000F08C
:104EC0004BFA20B1072802D0216801B188476068F9
:104ED000401C606010BD0000982100202DE9F047C3
:104EE00001883B4E40F2F3194FF6FF7510291BD095
:104EF00011293ED0122954D0502946D1C188F289B7
:104F0000841D914241D1618902293ED18688304673
:104F100001F048FE050038D004F10C0000F0FAF86A
:104F2000A8B3294630464EE0C17B87880446012954
:104F30002BD1A846284601F035FE050017D02F805A
:104F400000202872234843464A460168C5F80A10E3
:104F50004068C5F80E0004F1100105F10A0001F0E7
:104F6000C3FE6872F08900280FD129462AE0042088
:104F700013E0808801F016FE040006D06068FEF79A
:104F8000D5FF08B106F0DEF82580BDE8F087FFE721
:104F90006868FEF7CBFF0028F7D0BDE8F04706F0C1
:104FA000D1B887880646384601F0FCFD0400ECD0F5
:104FB0002B464A4606F1080104F10A0001F094FE6E
:104FC000607221463846BDE8F04700F071BC000031
:104FD000D8240020A02100202DE9F04704460388B2
:104FE0003F480122A4B000F1480A102B09D0112B30
:104FF00054D01A2B70D1217AB2EB111F53D2012356
:1050000052E0D0E911218A430546011D12A805F09E
:105010009FFF442212A901A8FEF72EFADFF8C090E4
:105020000026374609F144090DF104080AE000BFE3
:1050300008EB46001D2283884946281D009705F08D
:1050400039FF761C0198B042F2D8686CA688C0433C
:1050500005F052FFA0F57F41FF3917D005EB400066
:105060000123868032465146281D05F096FF012314
:1050700032464946281D05F090FFE07B02280BD000
:1050800000231749A2884C31281D20E024B00420B9
:10509000BDE8F047FEF778BE0123F2E70023A288BF
:1050A0005146001D13E000230D490546A2885031EA
:1050B000001D05F072FF207A0221B1EB101F01D212
:1050C000012300E000230649A2885431281D24B0A2
:1050D000BDE8F04705F061BF24B0BDE8F0870000EF
:1050E000F424002010B504460748007800280AD0B0
:1050F000204601F099FB204606F06EF92046BDE8F7
:10510000104001F0E7B810BDD82100200078C0F3AE
:1051100040007047007800F0010070470149085CCA
:105120007047000004C302000649095C4FF0A0402C
:10513000D0F81005C84010F0010000D0012080F028
:105140000100704704C3020007490B5C4FF0A04107
:10515000D1F804250120984020EA0203C1F808355F
:105160001040C1F80C05704700C302000249085CFA
:10517000012103F004BA000000C302000249085CE8
:10518000002103F0FCB9000000C302000649095CDD
:105190004FF0A040D0F80405C84010F0010000D046
:1051A000012080F00100704700C302007CB500249C
:1051B000084E25460122305D0095002311460195D9
:1051C00003F069F9641C042CF4D3BDE87C4000F0C2
:1051D00003B8000000C3020010B500242046FFF70A
:1051E000C5FF641C042CF9D310BD10B50024204663
:1051F000FFF7C4FF641C042CF9D310BD10B50246A0
:10520000064B4FF0FF3000215C5C944201D1084610
:1052100010BD491C0429F7D310BD000004C30200CF
:1052200070B50C4E0C004FF0000530600BD0012023
:1052300000F06AF808B1022004E0002000F064F8F1
:1052400000B10B202070706810B9FEF7ACFC054669
:10525000284670BD9821002010B5002000F0D0F93C
:1052600008B1062806D1012000F0CAF908B10628C5
:1052700000D1002010BD00002DE9F0470D46814609
:10528000FFF7BCFF0446042836D2DFF874801B48C1
:105290001C4EA8F10C0725B3012D0ED0022D2BD1E9
:1052A00004EB440030444578002D25D0B96800292E
:1052B00022D02846BDE8F047084704EB4401755C5E
:1052C0000E44717849B10E4A4FF40041093A8068A2
:1052D000FEF7E8FD08B987F80390B17808F80410E4
:1052E000E2E78068FEF722FE04EB4401314418F83F
:1052F00004008D78A842D7D0BDE8F08708C302002B
:105300009421002078240020FFF70EBF01461048AA
:1053100010B50088042907D007290ED00A2915D115
:10532000BDE8104006F044B8132176DF0CE00028F9
:105330000CD0BDE81040FEF727BDA0F57F41FF3936
:1053400004D10448FFF7CCF80828F0D110BD0000C4
:10535000802100206023002070B50023042810D293
:105360000D4D00EB4004012A02D101290CD000228E
:10537000094E00EB4000304461B1012906D00229FA
:1053800006D00723184670BD0E30C2B22A55F9E781
:105390004270F7E78270F5E778240020044A01465E
:1053A00000201279D20702D0084600F04DB87047AD
:1053B0008821002070B506461E480024C0E901611E
:1053C000B00720D50025012211462846FFF7C4FF6B
:1053D0006D1C0446042D02D2002CF4D013E094B9C5
:1053E00040F2666204211448FEF75AFC04000AD118
:1053F000FEF744FC040006D10F48104A0021001FAC
:10540000FEF714FD0446F00701D0FFF7CFFE74B994
:1054100009480B4A00210C38FEF708FD040006D1AC
:105420000548084A01210838FEF700FD04462046D9
:1054300070BD00008821002014C302009D560200A8
:105440007D6D0200773C02002DE9F05F6A4C054655
:1054500000266078B34618B184F801B001F076FCFC
:10546000664F4FF47A694FF4C87A4FF00108182D4F
:1054700062D2DFE805F0AC0C0C31404D62676B7412
:105480006B74BE7D7D7D7D7DACAFB2B5BEBE0020B0
:10549000FFF77CFE00284FF0000008D0FFF766FE03
:1054A000022D02D14FF4E16008E0484606E0FFF724
:1054B00065FE022D01D1C82000E05046410CC0031A
:1054C0004FF4FA72801841F1000125705200002358
:1054D000FDF79CFF01462AE00020FFF757FE002859
:1054E0004FF0000004D0FFF741FE4FF44870E5E7AD
:1054F000FFF744FEDFE70020FFF748FE00284FF0EB
:10550000000002D0FFF732FECFE7FFF737FED4E707
:105510000020FFF73BFE00284FF0000002D0FFF70D
:1055200025FE01E0FFF72AFE257041F69A110022C0
:105530003868FEF7B7FC064646E00020FFF704FE99
:10554000257008E0002051E025703DE084F80180DE
:105550000120FFF7F9FD002240F6CD41E8E784F88D
:1055600001800120FFF7F0FD00224FF48041DFE7CA
:105570007868FEF7DBFC0646D5F1110000D02EB1AD
:105580000220FFF7F3FD84F802B01DE0012816D9D0
:1055900080B2C8214843C117C90341EA5041C00342
:1055A0004FF4FA72801841F1000152000023FDF718
:1055B0002DFF014600227868FEF774FC06460220A3
:1055C000FFF7DCFD84F802803046BDE8F09F01F073
:1055D000BDFBB9E701F0BAFBB4E701F0B7FB04E0AB
:1055E00001F0B4FB0020FFF7C9FD0120FFF7C6FD65
:1055F000AAE7FFF7FAFDA7E78821002008C3020009
:1056000010B5FFF78BFD032102F097FF002010BDBE
:10561000F8B5861C00208DF800000C46012768466E
:10562000FEF794FC0F4801682160D0E90012891A46
:1056300082680446511AB51C07E000BF01F056FE0F
:10564000D4E90001401AA168091A491C8D42F5D815
:105650002068304420609DF80000FEF79BFC38462F
:10566000F8BD0000FC2E002030B482680468531C92
:105670008360A154D0E901128A4202D330BC02F007
:105680000ABD30BC70470000034803C8814201D105
:105690000120704700207047FC2E00200078022176
:1056A000FFF7EABD05494FF0FF32082841F82020F6
:1056B00002D3084480F8482070470000E42A002004
:1056C000F0B54FF0FF3512B10023082601E00823A2
:1056D0000C260C4C05E000BF54F823707F1C04D04E
:1056E0005B1CB342F8D32846F0BD26185DB286F89D
:1056F000305044F82310002AF5D1E11881F8480011
:10570000F1E70000E42A00200249084490F9300043
:1057100070470000E42A002070B504464FF6FF757C
:105720000A462846AC4208D14FF480742146104600
:1057300004F01EFEA04209D070BDFF2CFCD821460B
:10574000104604F008FE08B1204670BD284670BD22
:1057500070B5084C050009D010342168002907D025
:1057600008682060496828468847F6E70834F4E767
:1057700070BD0000D02A00202DE9F05F2648416866
:10578000F1B3DFF898B00E688146DBF80040876817
:105790008078E11B21F07F45ED1CB0B9DFF88080F7
:1057A0004FF48030C8F84403C8F804031120FDF713
:1057B000B3FF1120FDF7BBFF4FF0010AC8F800A0AE
:1057C0002F2002F017F989F802A0B54200D2354621
:1057D000124BE8193C3320F07F401860DBF80010D2
:1057E0005A46091B21F07F41001B20F07F40C91C55
:1057F00081420FD9106818602F2002F0FBF800E0FA
:1058000004E0BDE8F05F1120FDF79CBFBDE8F05F4C
:1058100005F05CBABDE8F09F1C2200200415014091
:10582000001001402DE9F04117880646B81D1446C6
:105830000D46984202D90C20BDE8F081318807223C
:1058400006290AD34FF4486C4FF6FF73614501D91E
:10585000994202D17088062801D21046ECE76045D3
:1058600001D99842F9D1994203D0984201D081429E
:10587000F3D80520E85520881221401C80B22080F2
:1058800029542088401C80B220804119308806F0BD
:1058900078FA2188084480B220804119708806F087
:1058A00070FA2188084420800020C5E7FEF76CBA12
:1058B00038B54A7A0F4B62B100220A725969002941
:1058C00006D001228DF80020ADF802006846884716
:1058D00038BD0A7A62B19B684C6802461946204678
:1058E000FEF7E0FA0028F3D0BDE8384005F02ABC06
:1058F0005B68F1E7D82400207FB50C4610B1012089
:1059000004B070BD2079002638B141F61D5501283C
:105910001BD0022826D00F20F2E702960396E068FB
:105920000190694601A805F0D3F850B1029881882A
:10593000E18000882081BDF80010029805F03CF954
:1059400000E00A2002212171DAE70A4B6A460021B1
:10595000A01D05F079F838B1064908398E60CE608F
:105960000A28CDD12846CBE702488188019805F066
:1059700023F9F5E7382200202DE9F0410026012522
:10598000144C22E06068226900EBC607387805FAFB
:1059900000F1114217D08A43226102F035FA024623
:1059A0003878E36805FA00F1194002FA00F39942E9
:1059B00009D17978012901D0012100E0002151406D
:1059C0007A6802B19047761CF6B220788642D9D325
:1059D000BDE8F081082200200E4910B50A784C7805
:1059E0000023A24212D0521CD2B20A70022A00D165
:1059F0000B70084A0B780C3252F82320026088683A
:105A0000104420F07F408860012010BD036000201A
:105A100010BD00001C2200203EB5094D38CD8DE898
:105A20003800ADF8041007498DF80620ADF80200E3
:105A300000220978FEF7F6FE684600F015F93EBD33
:105A4000BCC30200E8210020114810B500880321E2
:105A500001EB00400FA102F075FF174C2068807E1B
:105A600028B10621BDE810400120FFF7DDB805F0A0
:105A7000CFF800280AD11148A0F10C010A68011FD3
:105A80009047002802D122680121917610BD0000C4
:105A90001C23002057726974696E672070656572F7
:105AA000206461746120746F2074686520626F6F78
:105AB000746C6F616465720004220020902A0020DB
:105AC000F8B507460C481C46154680780E4608B1C6
:105AD0000820F8BD684604F0E3FE58B100980121A3
:105AE00001710760310B4561C0E9024104F098FF84
:105AF0000020F8BD0420F8BD4822002010B503782E
:105B00000022072B06D2DFE803F005040610202947
:105B100030000A7010BD01230B7003898B818388CC
:105B2000CB81C06888600A7410BD02220A700289A5
:105B30008A818288CA81C2688A60807D062802D0F4
:105B40000020087410BD0120FBE703220A70C28800
:105B50008A810289CA81C068886010BD04230B70E5
:105B6000C0888881CA818A6010BD0520087010BD78
:105B700070B5064D0646002455F8241009B130468C
:105B80008847641C042CF7D370BD0000A02C0020B3
:105B900030B50446006885B00D46806800281CD0EA
:105BA00014216846FDF781FC0195A06804902079D6
:105BB00010B101280DD104E001208DF8000020690A
:105BC00004E002208DF80000E068000302906069A4
:105BD0000390206881686846884705B030BD0EB5DF
:105BE000002911D011290FD0002200920292ADF8A5
:105BF000020001910D2908D0862908D009208DF8CE
:105C00000000684600F03EF80EBD0B20F7E70A20C2
:105C1000F5E700000149096808470000B0210020AD
:105C200070B5054D06460024304655F824108847C7
:105C3000641C022CF8D370BD4CC302002DE9F04166
:105C400007460024064E074D05E000BF56F8241015
:105C500038468847641CE8788442F7DBBDE8F08169
:105C60001C2A0020D821002070B5054D06460024CE
:105C7000304655F824108847641C022CF8D370BDB8
:105C800084C302000149096808470000C8C3020034
:105C90007FB50446406858B1002003902078002664
:105CA000384D06285DD2DFE800F05C050526416925
:105CB0000120F2E7A08900F0C3F918B9E08904F0E7
:105CC00095FF80B3A089A0F54040ADF80200A07B0D
:105CD0008DF8040020780128606806D048B10420BF
:105CE0008DF80000606803901AE00028F8D00320C7
:105CF000F6E70120F4E7A08900F0A2F918B9E089DD
:105D000004F074FF78B1A089A0F54040ADF802001E
:105D1000A07B8DF80400606830B105208DF800008C
:105D2000A06802901AE01CE00220F7E7A08900F0CA
:105D300087F9B0B1E089A0B9A089FF21A0F5404062
:105D400080B2ADF802008DF80410616881B10720BF
:105D50008DF800006E70AE7003F0A6FF684603F089
:105D600081FE6878002802D06E7003F09DFF7FBD31
:105D700006218DF8001004F025F8EBE708208DF8D7
:105D80000000EBE7C421002000B5104987B0097876
:105D9000890702D4022007B000BDA0F57F41FF397A
:105DA0000FD005218DF8001001218DF80410ADF8F9
:105DB0000600684603F0DCFA28B104F021FE00205A
:105DC000E9E70420E7E70820E5E7000030220020AB
:105DD00000B50D4887B00078800702D4022007B0D4
:105DE00000BD06208DF80000684603F0C1FA40B1FE
:105DF0000648017809B10121017304F001FE002079
:105E0000EDE70820EBE7000030220020482D0020BD
:105E100010B58CB014216846FDF747FB2648007882
:105E2000810703D56846FFF7A3FE43E0C00741D1D1
:105E3000012000F029F94FF01020426900040169A7
:105E40004069531C01D0104600E048431B49002222
:105E50000861A0F54050C8601949184802F03BFAA3
:105E600000280FD101248DF8144003F0F7FA0C2814
:105E70001BD2DFE800F0061006101A1809181A12D3
:105E800016120B200CB010BD022000F0FDF801200E
:105E900000F0E0F8C6E7002000E003208DF81800CD
:105EA00003E00220FAE78DF8184005A803F060FA35
:105EB00004F0A6FD0020E5E730220020C0220020EB
:105EC00014C4020038B5040011D0694604F000FE85
:105ED00088B10A48BDF8001000EB0110818941B17A
:105EE000A27A32B1491E81810020A07238BD0520FE
:105EF00038BD062038BD0A2038BD0000282D0020FE
:105F00001FB501A9684604F09FFD04B010BD07B598
:105F100013460A466946002004F096FD0EBD07B5FB
:105F200013460A460021684604F08EFD0EBD20B1DE
:105F300019B1006808600020704705207047000014
:105F400038B50D46040015D0A5B1694604F0C0FD72
:105F500090B10A49BDF80020606801EB02129189F6
:105F6000491C9181286060680C3068600120A07233
:105F7000002038BD052038BD0A2038BD282D00205E
:105F800018B10323002206F097B8052070470223BA
:105F9000002206F091B812B1022306F08DB8052058
:105FA00070470000064A5178042906D0054B43F893
:105FB0002100491C5170002070470C2070470000E0
:105FC00030220020A02C002038B504460A480D4697
:105FD0000078800701D4022038BD54B169462846B4
:105FE00006F062F90028F7D1BDF800102180658025
:105FF00038BD052038BD00003022002010B5044611
:106000000D480078800701D4022010BD84B121889A
:1060100002290FD8094800EB011042896088121A42
:10602000032A07D406F036F900202080608010BDD6
:10603000052010BD042010BD30220020282D002096
:1060400043F6FE71A0F54040884201D80120704718
:106050000020704702490A7882430A7070470000A6
:106060003022002010B504460078182802D1FEF72F
:106070009FFB207010BD10B504460078182802D18F
:10608000FEF796FB207010BD02490A7802430A70A1
:10609000704700003022002070B5134600220646EB
:1060A0001546862905D0112901D019B170BD0125E9
:1060B00000E001220D4C73B16179FEF7B3FB2A4673
:1060C00021793046FEF7AEFB002261783046FEF7BC
:1060D000A9FB002203E06178FEF7A4FB2A462178A1
:1060E0003046BDE87040FEF79DBB0000EC2100206B
:1060F000406804F0F1BB000070B508B1012070BD2C
:10610000184C0025207B08B1257301E000F0A2F8AF
:106110002078082824D2DFE800F02304080C10239C
:10612000141EBDE8704000F01FB8BDE8704000F0DC
:106130007FB8BDE8704000F061B8BDE8704000F085
:1061400037B808496088203901EB00104068BDE885
:10615000704003F063B96560BDE8704003F06CB94E
:106160000F2070BD482D00201049F0B48A1C00207B
:106170000346A1F120050C18A67A3EB1A37205EBE7
:106180000014A68916B9A47B012C0AD0401C80B249
:106190000228F0D30B704B804B60F0BC41F61D50D1
:1061A00070471080F0BC00F043B80000482D00207C
:1061B00010B50F4CA4F12001608801EB001081891B
:1061C00061B1052020700B48022100238180016805
:1061D000BDE810400122084802F056B8416800238B
:1061E0000122054802F050F80421217010BD000082
:1061F000482D002040220020C022002038B50A4946
:10620000084803240B684268898803EB810153889E
:106210000470DB1C00201B0400909B0B034802F061
:1062200007F938BD482D002040220020C022002060
:10623000074910B54888091D04F098FC18B1BDE85D
:106240001040FFF7DBBFBDE81040FFF7B1BF000013
:10625000482D0020F0B51D481D490125067802246F
:106260008B88A0F12002082E18D2DFE806F0041770
:10627000171A212C2C160189491C0181002141800B
:1062800080F80C1002EB01131B7843B10023441873
:10629000491C89B2A3720229F4D30570F0BD012311
:1062A000F5E742685288D21C1A448A800470F0BD17
:1062B00046880D6802EB061256680E605560138121
:1062C0008C80062100E007210170F0BD482D0020E0
:1062D00040220020F0B504460088384DA5B0502873
:1062E0001ED0522802D0542828D103E0A08800F004
:1062F0006DFF23E006208DF84400A08800F0ACFB81
:10630000ADF84600A188ADF8481000F05DF9A0880E
:106310000022E978FEF786FA11A8FFF77BFC0DE072
:10632000207B01280AD1A07A012807D12089A0F575
:106330002451023902D1A08800F082FFA878FEF72C
:106340004DFAC8B114A8FEF703FA442214A968460E
:10635000FDF792F800246E460BE000BF06EB440701
:10636000A978B888FEF748FA10B1B88800F02EFF77
:10637000641C0098A042F1D86878FEF72FFAC8B1E3
:1063800014A8FEF7E5F9442214A96846FDF774F84D
:1063900000246E460BE000BF06EB44076978B8881E
:1063A000FEF72AFA10B1B88800F04AFF641C009882
:1063B000A042F1D804F0E2FE25B0F0BDA8210020F3
:1063C0003EB504464088ADF802002078A8B1012807
:1063D0001FD0022810D1207900280DD0608800F04D
:1063E0007BFAA0F57F41FF3906D00F490122C97819
:1063F000FEF718FA04F0C2FE3EBD00208DF8000042
:106400006846FFF707FC608800F066FA00F0DEFEE1
:106410003EBD01208DF80000A088ADF8040068465C
:10642000FFF7F8FB3EBD0000A821002010B5044690
:10643000007801280FD1608800F0C8FE608800F065
:1064400089F9002807D0044960880122C978BDE88D
:106450001040FEF7E7B910BDA821002010B5104C80
:1064600000202070FEF7A4F96070FEF7A1F9A0707B
:10647000FEF79EF9E070FEF79BF92071617818290C
:106480000BD0A178182908D0E178182905D0182850
:1064900003D001202070002010BD032010BD00009B
:1064A000A82100202DE9F04192B000F0A5F868463F
:1064B000FEF74EF900246D464FF6FF77DFF8348083
:1064C0000FE000BF05EB4406B08800F0C5FAB84203
:1064D00005D1B088012298F80310FEF7A3F9641CD7
:1064E000A4B20098A042EDD804F048FE12B0BDE876
:1064F000F0810000A82100200178072902D14088FE
:1065000000F09EBE7047000010B504460A4841786E
:106510002046FEF771F968B10848002101EB4102FD
:1065200000EB82025288A24201D1C8B210BD491CC0
:106530001429F3D3FF2010BDC0210020AC2500207A
:1065400070B5094D094E002404EB440005EB8000B2
:1065500071784088FEF750F920B1641C142CF3D3F5
:10656000FF2070BDE0B270BDAC250020C02100202E
:106570002DE9F041124E07460125BD403068FDF778
:10658000D5FC00280DD10F4C2069284207D1384690
:1065900001F03AFC0028E06805D0284304E0A84355
:1065A0002061BDE8F081A843E060206928432061B4
:1065B000A1683068BDE8F0410022FDF773BC00001F
:1065C000E0C30200082200201CB5054AD2E90212ED
:1065D000CDE900120022694603F011F91CBD00004C
:1065E00038C3020003484FF6FF718180012101701A
:1065F00000207047B421002010B54FF6FF7003F063
:1066000035F803498880BDE8104004F0E3BD000080
:10661000B42100202DE9FC41804600F01DFA002441
:1066200003250127A0F57F412646FF3908D06A4699
:10663000082103F0BFF818B90198841D8688056801
:1066400032462B4621464046A9DF042804D00828BC
:1066500004D00B2808D002E0112000E00020002F19
:1066600000D10B20BDE8FC810027A80701D501253A
:10667000E6E73443F5D0002426460325E0E72DE97C
:10668000FC41804600F0E8F90746A0F57F40FF385E
:106690000ED001252A466D1C0026ADB26B4608219E
:1066A000384603F0B1F8040006D0072C24D024E0CB
:1066B00043F20200BDE8FC81019903230A1D0B602F
:1066C0004046891DAADF040004D00C2C08D0052CFC
:1066D00008D008E00821384603F02EF904460CE003
:1066E000012600E000240821384603F011F900B12A
:1066F0000324002ECED100E00C242046DAE700006F
:106700001FB504460078012815D12079012812D13F
:10671000608802AA012103F04DF860B902208DF8CB
:1067200000006088ADF80200094901208DF80400DE
:10673000096868468847064808388088A0F57F4180
:10674000FF3903D0BDE81F4004F044BD1FBD000069
:10675000BC2100201CB500F07FF96A46012103F03E
:1067600029F808B100201CBD019800781CBD00006C
:106770002DE9F041084C07464FF6FF7643F203053A
:10678000324661883846A7DFA84203D16088401CA2
:106790006080F5E7BDE8F081B42100208188A1F593
:1067A0007F42FF3A03D0008808B1012070470020E3
:1067B00070473EB5027802230C46B3EB520F17D157
:1067C000B0F80110ADF80010C1788DF80210818882
:1067D000ADF8041080798DF8060002AA01A92046C0
:1067E000FDF720FA032202A96846FCF770FE08B103
:1067F00000203EBD01203EBD10B50C46FFF784FED3
:10680000FF280CD0074900EB400001EB80004168F5
:1068100021600189A180807AA071002010BD05202F
:1068200010BD0000AC25002070B5018890B0102983
:106830004FD1011D34226846FCF71EFE9DF804006E
:106840004FF6FF76032134466D46B1EB500F2AD048
:1068500003F070F99DF8040040080ED001280CD018
:10686000022820D118E00F99281D1131FDF776F983
:1068700018B100BFBDF8344015E00EAA0DA90720DD
:1068800003F030F90028EED10DE00F99281D491CC6
:10689000FFF78FFF0028EDD10EAA0DA9072003F006
:1068A00021F90028F1D1BDF80000291D00F032FFC8
:1068B000B4420ED0BDF80000214600F07EF8BDF8CD
:1068C0000000ADF8360001208DF834000DA8FFF768
:1068D000A7F910B070BD0000094A002101EB410387
:1068E00032F82330834205D101EB410002EB8000F6
:1068F00040887047491C1429F0D34FF6FF70704749
:10690000AC25002010B50D4C18200D4A60700020F9
:106910004FF6FF7100EB400302EB8303401C5980EC
:106920001428F7D3FDF744FF6070182803D0012026
:106930002070002010BD032010BD0000C0210020E9
:10694000AC25002070B504460D46401C00F0EEF961
:1069500000280ED01022691C601CFCF7B8FD48B15D
:106960005FF0000605F1110104F11100FDF7F6F8E2
:10697000304370BD0126F5E7018811B942189278BD
:106980000AB101207047491C0829F7D3002070473D
:1069900010B50C460346FFF7EFFF00280AD0188811
:1069A0002188884205D10822A11C981CFCF78FFD84
:1069B00008B1002010BD012010BD03F067BA10B56A
:1069C0000446007888B0002828D12079072825D1EE
:1069D000608801AA072102F0EDFE00281ED103F015
:1069E000A9F81DE06088BDF80010884218D004990D
:1069F0000298FFF7A7FF98B16088FFF76DFFADF829
:106A0000160000208DF814006088ADF81800BDF85D
:106A10000000ADF81A0005A8FFF702F908B010BD94
:106A200003AA6946072003F05DF80028DAD1F5E7EC
:106A300070B50446FFF750FF0546204602F0BDFE44
:106A40004FF6FF7104468D4203D014B9284603F077
:106A50001DFA204670BD000010B5FFF755FDFF2858
:106A600005D0044900EB400031F8200010BD4FF67E
:106A7000FF7010BDAC2500203EB5044603F05AF867
:106A80000EE0019920464631FFF782FF28B90199AF
:106A900020462A31FFF77CFF10B1BDF808003EBD4B
:106AA0006A4602A9072003F01DF80028E9D14FF635
:106AB000FF703EBD70B5094D0749002441602C6050
:106AC00002F0DAFA2946C870054804600467446792
:106AD00000206C6070BD00000CC402004822002041
:106AE000582D00202DE9F0410F4628B10120FFF775
:106AF000B1FA0120BDE8F081397961B10026264D57
:106B000001290DD0254C4FF002080229206822D01F
:106B100003293CD128E002F08FFC0121397134E0D7
:106B20005FF0000005EB0011097802290CD0401C31
:106B300080B20228F6D30220FFF7A6FA0120FFF761
:106B400089FA41F61D50D5E705EB0014606802F0A4
:106B500065FC267019E0014600230122104801F06F
:106B600093FBA4F804800FE002F058FC0A49226865
:106B70002031498805EB01114B6823604A60A288E7
:106B80000A81A4F804800E703E710028B2D0012062
:106B9000FFF760FA0E20ADE7282D002040220020EC
:106BA000C02200200146034802888A4200D000200B
:106BB00070470000C42400202DE9FC5F0E008346CE
:106BC000DDE90C47C6F1000098469246814600D4A4
:106BD0000846012503E000BF90FBFAF06D1C50450C
:106BE000FADAA84500D9454624B1002E01DB780722
:106BF00000D5641EB80702D5B8F1000F0AD0F80717
:106C000008D13CB1A54205D220215846641EFEF7AA
:106C10002BFDF6E7002E02DA4E462D2102E0780722
:106C200003D52B215846FEF71FFD07F0030002286D
:106C30000BD1B8F1000F08D13CB1A54205D23021EB
:106C40005846641EFEF710FDF6E7CDE900474346BF
:106C500052463146584605F09BF8BDE8FC9F0000BF
:106C600070B50E460446007918494FF4A27501EB41
:106C70004010017F2068A1B14FF4887102F092FAB0
:106C80004FF49071206802F08DFA4FF492712068F1
:106C900002F088FA2946206802F084FA0C4920683C
:106CA00009E04FF48E7102F06CFA2946206802F078
:106CB00068FA08492068C0F80413206800F0F3FF60
:106CC0003146BDE8704000F0D2BF00003C2B0020F0
:106CD00010030200800002000248406F002800D02C
:106CE00001207047582D0020F0B58488A5189442E3
:106CF00000D82246A41AC288D6189A4200D8134651
:106D0000D21A4B880788BB420CD34088834209D8EB
:106D10008888A04206D3A84204D8C888904201D3EC
:106D2000B04201D90020F0BD0120F0BD0021425C3D
:106D30000AB101207047491C1029F8D30020704780
:106D4000800701D000207047012070470A4810B525
:106D5000807860B1002401E0022C06D02046FEF7C6
:106D600005FA641C042CF7D310BD0324F6E7BDE834
:106D70001040FEF731BA0000882100200348017955
:106D8000C90702D00078FEF75FBB7047882100205A
:106D900006490120086006480168C1F30041002946
:106DA000FAD1044900208870704700000C000040B0
:106DB00018040040D02A00201721018041800021C2
:106DC000017141711B218171C17170472DE9F0473B
:106DD000234D81461F46287A0E469046084302D02E
:106DE00026B1002104E00520BDE8F0871C491031E0
:106DF000484604F033FC0446014600224846FFF7AB
:106E00004BF91FB121464846FEF7E9FE112C0FD081
:106E100005DC5CB1082C09D00D2C06D106E0862CCF
:106E200012D0A4F54050023800D003242046DBE7FE
:106E30003246E9784846FDF7F5FC4246A9784846CF
:106E4000FDF7F0FC0024F1E73246E9784846FDF70B
:106E5000E9FC4246A9784846FDF7E4FCE6E7000075
:106E6000EC2100202DE9FC4117460C00064604D019
:106E70002078C00705D0012004E000217EDFBDE8B6
:106E8000FC8102208DF804003046FFF7E5FD054641
:106E9000A0F57F40FF3808D001A800902B463A4665
:106EA0002146304600F021F806E020782146C00750
:106EB000304603D000F07DF804460BE07EDF04008E
:106EC0004FF00000009007D00022012329463046F1
:106ED00004F0FEF814B106E00122F6E79DF8041074
:106EE000304604F01FF92046C9E72DE9F04F85B080
:106EF00090468946834600259A462E4601AA0721D8
:106F000018460E9F02F056FC040008D1029D95F829
:106F10004400183510F0010601D0029D343558EABE
:106F200004004FF000080FD175B126B905F1120029
:106F3000FFF722FD40B12A4605F11201584685DFD0
:106F4000044687F8008021E00CB1052C1ED199F889
:106F50000000C0070DD003AB01220721504602F00C
:106F600053FC04000AD10721504602F047FD0400FB
:106F700004D1494658467EDF040007D00721504619
:106F800002F0C6FC10B1052800D00324CDF8008023
:106F9000387808B1012300E0002344B100225146B3
:106FA000584604F095F805B02046BDE8F08F012260
:106FB000F5E7FEB50F46064602F0F2FB0546A0F5E2
:106FC0007F40FF381ED001AB01220721284602F086
:106FD0001BFC04000AD10721284602F00FFD040023
:106FE00004D1394630467EDF040007D00721284609
:106FF00002F08EFC10B1052800D00324012000907F
:107000005CB102E003240020009000220123294605
:10701000304604F05DF82046FEBD0122F6E7000090
:107020002DE9F041134D0F46164680462978FDF7AD
:10703000E3FB00281BD04046FFF70EFD0446A0F5F9
:107040007F40FF3813D069784046FDF7D5FB38B153
:1070500033463A4621464046BDE8F04102F07ABA4E
:10706000324639464046BDE8F041FEF7D5BCBDE8A2
:10707000F0810000E82100202DE9F04391B0814625
:10708000FDF7ACFB002820D06846FDF761FB00242B
:107090006E4617E006EB44054946A888FDF7ACFBB1
:1070A00078B10B4FA888B978FDF7A6FB8046A88871
:1070B000F978FDF7A1FB0146A88801234246FFF7B6
:1070C00085FE641C0098A042E4D811B0BDE8F083AE
:1070D000EC2100202DE9F047394E002780463D463F
:1070E000DFF8E090D6F804A057E003D00446D0F8CB
:1070F0001C8035E099F8002002EB4201521CD2B20C
:1071000089F8002009EBC10199F80230091D9A4263
:1071100001D189F8005048680A780446012A12D043
:10712000022A02D0032A3BD108E004F049FC00B156
:107130000127257434E00574C06900E070680028F8
:10714000F9D170602CE0207C50BB88686060C86812
:10715000A0600869E0604869A061F07800B16560EE
:107160006268B168184B501A20F07F40984202D2F2
:10717000A168084406E0881AA16820F07F40814297
:1071800002D9081A206000E0256065600120A56032
:1071900020742046E56104F0F5FBB8F10000A4D1AD
:1071A00099F8001099F801008142A3D117B97168CC
:1071B000514502D00120BDE8F0870020FBE7000028
:1071C0001C2200207C2B0020FFFF7F00FEB5044620
:1071D0000026A0F57F40FF382FD02046FFF71AFA8F
:1071E000050013D00B2D15D0112D11D0A5F5405051
:1071F00002381CD009208DF800002046FFF72CFC37
:10720000ADF80200ADF8044002950DE0022002E066
:1072100001260CE003208DF800002046FFF71CFC3F
:10722000ADF80200ADF804406846FEF7F3FC0348F1
:10723000324681782046FDF7F5FAFEBDA8210020F0
:10724000FEB504460026FFF71AFA0546112818D0A5
:1072500003DCA5B10C2D06D115E0862D27D0A5F5B0
:10726000405002381CD009208DF800002046FFF75E
:10727000F3FBADF80200ADF8044002950DE00120EB
:1072800002E001260CE007208DF80000ADF8044074
:107290002046FFF7E1FBADF802006846FEF7BAFCB6
:1072A0000448324641782046FDF7BCFAFEBD08206E
:1072B000EAE70000A8210020F8B5054600780C4652
:1072C000002620420FD100208DF800006846FCF710
:1072D0003DFE2878204202D12043287001269DF8E7
:1072E0000000FCF757FE3046F8BD00002DE9FE43D4
:1072F000214DD5E9014704EA070005EB800605F5B5
:1073000083600C3600F050FA05F21440804600F01D
:107310004BFA0AE0C0F3891101EB9050641C04445D
:1073200004EA070005EB80060C3630688107F1D0CF
:107330000020694604EA070205EB8202641CD26859
:1073400041F82020401C0228F4D3009800F00300EC
:10735000022800980AD0C0F383100444404600F08D
:107360001DFA002800D06C60BDE8FE83032101EB0C
:10737000905004EB9004F1E7FC2E0020A8B0002010
:1073800001F052FB08B1FCF7FFFC01F0F7F9FCF744
:107390005FFD08B1FCF7F8FC01F07CFC08B1FCF7DC
:1073A000F3FC5D490320FEF705F808B1FCF7ECFC9F
:1073B00069460020FDF734FF08B1FCF7E5FC9DF8B5
:1073C000000002287DD0002501F018FE08B1FCF76E
:1073D000DBFC002469460120009401F0D5FC08B1D3
:1073E000FCF7D2FC684601F059FD08B1FCF7CCFC73
:1073F00002F05AFD9DF8080048A120F00F00401C43
:1074000020F0F00010308DF80800112202A87CDF77
:1074100008B1FCF7B9FC00945020ADF80000A020A2
:107420000194ADF80200ADF804404FF4C870ADF817
:10743000060068467ADF08B1FCF7A6FC00213C484C
:1074400000F013FA08B1FCF79FFCA0216846FCF796
:107450002CF802208DF8000001208DF80200062192
:10746000ADF810008DF87C008DF803104FF4967085
:10747000304922900591B42023902F4826902C4823
:1074800069461430FCF744FF08B1FCF77DFC28483E
:1074900001211430FCF739FF284800680090FDF7FF
:1074A00009FA08B1FCF770FC6846FDF7D9FA08B193
:1074B000FCF76AFC1C216846FBF7F7FF4FF420300D
:1074C00000E026E0CDE900404FF4702002901C4817
:1074D000059003261B488DF80C600690ADF80E4011
:1074E0008DF810406846FDF7FFF808B1FCF74CFC3A
:1074F000154816A1008806EB004001F023FA284643
:10750000FCF76CFB01F048F90028FBD101F0EAFB25
:10751000F8E7012558E700000D5302004E6F726432
:1075200069635F427574746F6E6C657373000000FD
:107530004C23002082210020B1910200FCC20200F5
:10754000D5910200AD5802001C2300204170706CE0
:1075500069636174696F6E20737461727465640A23
:107560000000000070B5144682880E46054620884B
:10757000111D0144921C994201D8FE2A01D90C2008
:1075800070BD521C32542088FF21401C80B22080E4
:1075900031542088401C80B220808119288804F052
:1075A000F0FB2188084480B22080AA8842B1A968F3
:1075B00041B13044FBF760FF2088A988084420804F
:1075C000002070BD072070BD2DE9F047C788044634
:1075D000181D16468946B0FBF7F1B0FBF7F207FB22
:1075E00012009A193A44D21CB2FBF7F2DDF820A03F
:1075F00001E02468491E0029FBD13D1A8846B542A6
:1076000016D818E0BAF1000F05D0211809EB0800D0
:107610002A46091D04E0204409EB08012A46001D02
:10762000FBF72AFF00202468761BA844B74201D943
:10763000354600E03D46002EE4D1BDE8F08700006D
:1076400030B50B46024601F01DFA63B10021094C2A
:107650000CE000BF01EB410304EB830315685B887A
:10766000AB4202D11160002030BD491C8142F1D3F0
:10767000052030BDD4220020F8B50E46017814460E
:107680000546012901D1687830B12088821C9A42D0
:107690002DD8012902D006E00720F8BD6978014401
:1076A000891C994223D8181A801E87B2ADF8007041
:1076B0002188B01C084469467DDF0028EDD1287878
:1076C000022805D1BDF80010B94201D809210AE00D
:1076D0000821012805D16878B84202D8ADF8000029
:1076E00001E0ADF80070BDF80000FE2801D90C20C3
:1076F000F8BD2288401CB0542088401C80B22080F5
:1077000031542088401C2080BDF80010084420809F
:107710000020F8BD70B505460C004FF0FF0020D0EA
:107720004FF6FF76B5421CD00E480122417828461C
:10773000FDF778F82846FEF7E7FEFF2803D1FEF7AD
:10774000FFFEFF280DD0084B00EB400203EB820147
:107750004D8023F8226022684A60A2880A81A279BB
:107760008A7270BDC0210020AC25002070B54FF694
:10777000FF750E46A84201D1002000E0401C84B2F3
:1077800008E02146304602F00EFE08B1204670BDEA
:10779000641CA4B2FF2CF4D9284670BD08B50021A2
:1077A0006A46FBF7ECFD08BD08B501216A46FBF708
:1077B000D9FD009808BD38B5044600258DF8005065
:1077C0006846FCF7C3FB21686268086890420ED9DE
:1077D000401E08600178238AE26801FB0325227AB3
:1077E0002168101AC0B20A79824200D208719DF84D
:1077F0000000FCF7CFFB284638BD38B50546002011
:107800008DF800000C466846FCF7A0FBE868298A62
:10781000201AB0FBF1F12A681068431C1360017054
:107820009DF80000FCF7B6FB38BD10B530B1017A09
:1078300042680368891AC9B21A6006E00E2010BDBA
:1078400003681A68541C1C601170491EC9B2F7D233
:10785000006800210171084610BDC20800F007034E
:107860000120895C98400840704710B560B1016103
:10787000172120F8021B20F8021B1B2100F8021B15
:10788000FFF79AFA002010BD0E2010BD2DE9F0433D
:10789000858895B00C46002D3DD10188DFF8248104
:1078A0000026DFF82491012724293CD006DC10298A
:1078B00009D011290CD023296DD150E03A290BD0E1
:1078C000552968D12AE00146204601F091FC62E08A
:1078D000A01DFFF771FA5EE02246408934F8061FCA
:1078E000814200D808466080172800D217206080A7
:1078F000106970B1607960B1D8E90010CDE903106A
:10790000ADF80E506088ADF81000136903A9104659
:1079100098476671267115B0BDE8F0830146204690
:1079200001F0B4FC37E0011D342206A8FBF7A4FDEA
:10793000BDF81800BDF81C2004EBC0014A73226991
:107940004AB3D8E90432CDE90432ADF81200487BDD
:107950008DF814002269204604A990471BE0049684
:10796000059630F8041F04EBC1020179127B8A42AC
:1079700000D21146ADF81010ADF8121000880022A8
:1079800004A990DF020006D0B9F800000F4907EB08
:10799000004000F0DBFFA07A0028BCD0E188284638
:1079A0009EDF02000BD0112AB5D0B9F8000015B047
:1079B00007EB0040BDE8F043054900F0C7BFA672E1
:1079C000E772A8E754C30200D42200204CC702008B
:1079D000C4C6020000F180400068002800D00120E9
:1079E000704708B500F180400021016000680090F8
:1079F00008BD000000283ED01F49204A096800BF8A
:107A000000BF00BF00BF00BF00BF00BF00BF91426A
:107A10002FD000BF00BF00BF00BF00BF00BF00BF2E
:107A200000BF00BF00BF00BF00BF00BF00BF00BF5E
:107A300000BF00BF00BF00BF00BF00BF00BF00BF4E
:107A400000BF00BF00BF00BF00BF00BF00BF00BF3E
:107A500000BF00BF00BF00BF00BF00BF00BF00BF2E
:107A600000BF00BF00BF00BF00BF00BF00BF00BF1E
:107A700000BF0138C3D17047BC2200200024F400AD
:107A800070B54FF010246169104D0126491C2888FB
:107A900014D06269032101EB00400DA100F056FFF4
:107AA000606913DF040007D0288814A106EB0040AA
:107AB00000F048FF204670BD002070BD06EB00407E
:107AC0001BA100F03FFF042070BD00001C2300201C
:107AD00053657474696E6720766563746F72207481
:107AE00061626C6520746F20626F6F746C6F61648B
:107AF00065723A2030782530387800004661696C2C
:107B000065642072756E6E696E672073645F736F53
:107B100066746465766963655F766563746F725FCA
:107B20007461626C655F626173655F7365740000A8
:107B30004E6F20626F6F746C6F6164657220776145
:107B40007320666F756E640070B50C4D03210C4A8E
:107B5000288801EB00400BA100F0F8FE084813DF75
:107B6000040008D02888012101EB004010A100F09A
:107B7000E9FE204670BD002070BD00001C230020DF
:107B80000030020053657474696E67207665637413
:107B90006F72207461626C6520746F206D61696E14
:107BA000206170703A20307825303878000000006D
:107BB0004661696C65642072756E6E696E672073CC
:107BC000645F736F66746465766963655F76656329
:107BD000746F725F7461626C655F626173655F731D
:107BE0006574000070B50F4C0025207808B185251C
:107BF00016E00021A16061602161E1604FF0E020AA
:107C0000D0F80001012610F0010F03D10721002058
:107C100000F02DF801F030FA08B90348066026702C
:107C2000284670BDD02A00201805004008B5002065
:107C30008DF800006846FCF789F90648C168491EBE
:107C4000C160C06808B9FFF7A3F89DF80000FCF711
:107C5000A1F908BDD02A002000F01F0201219140A7
:107C60004009800000F1E020C0F88011704749070A
:107C7000090E002806DA00F00F0202F1E02282F875
:107C8000141D03E000F1E02282F8001400F01F024E
:107C9000012191404009800000F1E020C0F88012ED
:107CA000C0F800117047000B40B270472DE9F04159
:107CB0008846054602F02EF9234E002828461AD0A1
:107CC000FDF722FD304490F848008009032802D0D7
:107CD00001280ED007E04FF0A040D0F81005E84092
:107CE00010F0010F05D003212846BDE8F04100F057
:107CF00035BC0221F8E702F019F9002822D0284605
:107D0000FDF702FD04464FF4807000EB84000F4F36
:107D100081B207EB8400D0F8102542F00102C0F8D0
:107D20001025084600F04AFCB8F1000F0AD028469A
:107D3000FDF7EAFC56F82000002803D00120A040FF
:107D4000C7F80403BDE8F081E42A00200060004089
:107D50002DE9FC41DFF8A480044608EB040000276D
:107D600090F930001346C0170E46401C01D008277A
:107D700041E0F27819462046FDF7A2FC0546401C7A
:107D800038D0B07850B14FF0A04000EB8400D0F86C
:107D9000001721F00201C0F8001707E000217378F6
:107DA000204600910A46019100F087FBF078C0B1AF
:107DB0001348317800EB8500D0F81025114B1A409C
:107DC000C0F810254FF4F8524FF4403302EA042271
:107DD00003EA01410A43D0F810150A43C0F8102500
:107DE00009E008EB0500327810F8481F41EA8211DB
:107DF000017000E004273846BDE8FC81E42A002039
:107E000000600040FFE0FCFF4FF0A041D1F81015EA
:107E1000C14011F0010000D00120704770B5144D31
:107E200095F8540008B1082070BD0020411E2A18A2
:107E3000401CC0B282F830102028F8D3002420461D
:107E4000FDF730FC641CE4B20C2CF8D307210620AB
:107E5000FFF70DFF4FF4BE7000F0B0FB05494FF087
:107E60000040C1F80403012085F85400002070BDD3
:107E7000E42A002000600040034890F854000028E5
:107E800000D0012070470000E42A00200121B1EB5E
:107E9000507F01D101207047002070472DE9F0414B
:107EA00005460079164F904607EB40140E46E07EDB
:107EB00010B10820BDE8F081707F20772846FCF7DC
:107EC00083F85FEA080060603169216003D0317F88
:107ED0002846FEF7C5FE287907EB4010007F0028F2
:107EE000286801D0082100E00421C0F80015002016
:107EF000E0752076A0750121E176A076DAE7000032
:107F00003C2B00202DE9F047054600793F4E904676
:107F100006EB40140F46207F18B10846FFF7B6FF66
:107F200030B1284600F074F820B11120BDE8F08788
:107F30001020FBE784F81680A7600027A782287925
:107F40004FF0010806EB40143E46207F00282868C9
:107F500025D04FF49079494601F024F94FF4AC7ADA
:107F60005146286801F01EF92868A17DA268C0F872
:107F70004425C0F848152868C0F808806068F0B942
:107F80004946286801F009F980465146286801F001
:107F900004F958EA0001F3D058BBA7750FE04FF47D
:107FA0008E7A514601F0EDF82868C0F80880214625
:107FB000286803F093FD61684FF4807089B1304602
:107FC000B4E75146286801F0D7F810B9A08A4845AF
:107FD000F7D1A08A484505D02146286803F07EFDE8
:107FE00000E08146A08AA17D8842EAD3A08A484564
:107FF00001D10F26D1E75146286801F0BDF80028CD
:10800000F9D02868C0F80C80C7E700003C2B00209E
:108010000079044901EB4010807D002800D0012048
:10802000704700003C2B002070B5044600791149D0
:10803000002601EB401520682A7FC0F800656868BB
:1080400088B1207901EB4010007F0028206801D022
:10805000094901E008498C39C0F808132068FFF786
:1080600022FEFFF7F9FD204601F06CFFEE766E6010
:1080700070BD00003C2B0020100302000FB408B5B7
:108080000399002904D004AA00926A4600F00FF870
:1080900001B05DF814FB10B582680446002A05D0D3
:1080A000D4E90403216898470020A06010BD2DE9A1
:1080B000FC4791460C00804676D014F8011B39B17C
:1080C00025290ED04046FDF7CFFA20780028F4D1BC
:1080D00098F80C00002867D04046BDE8FC47FFF741
:1080E000DABF0020012221782B291BD02D2902D0B4
:1080F000302908D102E040F0010001E040F0020028
:10810000641C002AEFD100252A290ED02178A1F184
:1081100030020A2A11D205EB850201EB4205641CEC
:10812000303DF1E740F00400EAE7D9F800100B1DFC
:10813000C9F800300968641C0D44217800232E29F9
:108140000BD114F8011FA1F130020A2A05D203EB6A
:10815000830201EB4203303BF3E76C290DD0682921
:108160000BD0692921D00BDC252918D0582931D012
:1081700063290ED0642915D117E014F8011FECE72C
:10818000702969D0732932D075291BD0782909D17B
:1081900020E0D9F80000011DC9F800100178404620
:1081A000FDF762FA641C90E76CE0D9F800100A1D34
:1081B000C9F800200968CDE900500A224046FEF7C0
:1081C000FBFCEFE7D9F800100A1DC9F80020096888
:1081D0000A2206E0D9F800100A1DC9F80020096833
:1081E0001022CDE90050404603F0D2FDDAE7D9F87D
:1081F000001000270A1DC9F800200E68C00705D12D
:1082000012E04046761C7F1CFDF72EFA31780029DB
:10821000F7D104E0202140466D1EFDF725FABD424E
:10822000C0D9002DF6D1BDE74EB13046FBF748F975
:10823000074604E0202140466D1EFDF715FABD42B9
:1082400006D9002DF6D103E04046761CFDF70CFA66
:1082500031780029F8D1A5E7D9F80000011DC9F847
:108260000010056830214046FDF7FEF978214046B0
:10827000FDF7FAF908200021CDE90001034610229C
:108280002946B0E7BDE8FC872DE9F0411F461546B9
:1082900004000E4616D02068B8B1C5B16068026807
:1082A000501E304215D16A432046FBF770FC80B166
:1082B00020683B462A46D0F810C031462046BDE82B
:1082C000F04160470E20BDE8F0810820FBE709205F
:1082D000F9E71020F7E720B119B101600B681146EA
:1082E00018470E20704700002DE9F04128B10168C1
:1082F00019B14969BDE8F04108470D4D0D4800240A
:10830000461B14270DE000BF04EB840005EB800042
:10831000016829B14969884710B10120BDE8F081A1
:10832000641CB6FBF7F0A042EED80020F6E7000090
:10833000C0220020D422002008B1012808D105481D
:1083400001218170017809B9407808B10020704797
:108350000120704748220020012801D0032808D1BD
:108360000449002201288A7000D00020C87002F061
:1083700003BB704748220020F0B52B4E074687B05C
:1083800030780025F0B3294C022F206FC0EBC000DD
:1083900004EB8001304602D0032F39D117E045604D
:1083A000087910B1012833D10AE0D1E90502801A19
:1083B0004FF48053984200D318461044886102E07D
:1083C0000869401C08614A69904206D020E0426872
:1083D000521C4260082A1BD945601C226846FBF7E4
:1083E0004BF8606F401E6067206F401C20670428B8
:1083F00000D125673570022F05D00D216846FDF7A5
:10840000C7FB05E001E00021F8E7707800B1757066
:10841000B07820B107B0BDE8F04000F033BE07B03F
:10842000BDE8F04002F0A8BA48220020582D0020F4
:108430002DE9F8431D46089F1646884604000DD0D6
:1084400066B1206860B135B160684068B5FBF0F195
:1084500000FB115030B10920BDE8F8830E20FBE786
:108460000820F9E74046FBF78CFB90B13046FBF75C
:1084700088FB70B12A4641462046FBF788FB40B195
:10848000009720682B463246C76841462046B847C9
:10849000E2E71020E0E770B541EA4201DDE9045669
:1084A0004FF0A04441EA830141EA052104EB80003A
:1084B00041EA0641C0F8001770BD70B541EA4201BB
:1084C000DDE904564FF0A04441EA830141EA052169
:1084D00004EB800041EA0641C0F8001770BD70B59A
:1084E00041EA4201DDE904564FF0A04441EA83012C
:1084F00041EA052104EB800041EA0641C0F800177B
:1085000070BD1CB5002100910B4601220191FFF7BF
:10851000E6FF1CBD1CB500220B46009211460192DD
:10852000FFF7DDFF1CBD1CB5002100910B460122A9
:1085300001911146FFF7D3FF1CBD4FF0A04202EBA3
:108540008000D0F8002722F44032C0F80027D0F88D
:10855000002742EA0141C0F8001770474FF0A042DF
:1085600002EB8000D0F8002722F44032C0F8002748
:10857000D0F8002742EA0141C0F8001770470122F5
:108580004FF0A043824011B1C3F808257047C3F8EB
:108590000C25704718B5084B6C4601441B680093C6
:1085A00006E000BF54F82030D3F81035401C08C254
:1085B0008142F7D818BD0000DCC30200034908B5AA
:1085C0000844002101600068009008BD0060004080
:1085D00002494058012800D0002070470060004048
:1085E00070B5184A0024D2F81034194609E00D7A03
:1085F000A54205D1641C0A2CF7DB4FF0FF341FE0C5
:1086000049680029F3D1611C1AD00472D2F8101401
:1086100031B149684160D2F81014486000250BE080
:108620000021C2F810044160F8E700231A462946E9
:10863000204600F031FA6D1C00F024FAA842F4D86C
:10864000204670BDFC2E0020F0B595B01C461546A6
:108650000F4608461A9E00F0F7FA182109A8FAF703
:1086600024FF0E96CDE909540023082203A93846B9
:1086700000F004FB059806900498ADF81C0000205B
:108680008DF820000398082600F00300012802D08E
:1086900002281DD03CE003983346850AC0F3C2008F
:1086A0008DF81E0003980FA9C0F380008DF81F00FD
:1086B0000398C0F38314A200384600F0DFFA09A83B
:1086C000009006AB22460FA9284600F019FA1FE0D9
:1086D0000398840DC0F3C2008DF81E000398C0F308
:1086E00080008DF81F00082C01D2254600E00825E7
:1086F00033462A460FA9384600F0C0FA2E44641BC0
:1087000009AB06AA29460FA800F038F9002CEAD1D7
:10871000384600F0A2FA15B0F0BD7047012003F012
:1087200001BA000010B50448FFF77EFCBDE8104018
:10873000002003F0F7B900005C22002008B5034ACE
:1087400000924023024AFFF77FFF08BD55B10200A7
:10875000FC2D0020084A012902EBC00005D00229A7
:1087600003D0032903D0042903D0002070470079E7
:10877000704740797047000068CD020010B5FFF7E0
:10878000CDFF04210348FFF72BFF02490120487267
:1087900010BD0000642200202DE9FE4FFCF774FF9D
:1087A00010B10020BDE8FE8F63480021C0F814140A
:1087B000D0E9014604EA060100EB81014FF000090F
:1087C0000AE000BFC1F3891202EB9151641C0C4412
:1087D00004EA060100EB8101C9688A07F2D0002192
:1087E0006A46804604EA060008EB8000641CC06804
:1087F00042F82100491C0229F4D3009800F003003C
:10880000022800981CD0C0F38311062900D306214A
:1088100061F389100090C0F38310801C81004748E9
:1088200000F0C9F9070075D000F00EFA4B46082297
:108830006946384600F028FA09F10809002557E092
:10884000810D50228A46B2EB905F00D850210D4630
:1088500065F39F5000900831384800F0ACF90700EC
:1088600058D000F0F1F94B4608226946384600F02E
:108870000BFA04EA0601701A8000001D09F1080BCA
:10888000854220D92C4E0C3630B1C2B208EB8101A2
:10889000281A91460C3104E03146EAB2002691468E
:1088A0003046C5B25B46384600F0EEF90BEB0903E3
:1088B00026B12A463146384600F0E6F90AF10300AF
:1088C00004EB90041AE008EB81015B462A46384627
:1088D0000C31F1E704EA060008EB80014B46042264
:1088E00038460C31641C00F0CFF909F104096D1C05
:1088F0000098C0F38310A842ECD85FB11048FEF78F
:108900004DFFD8F81054464605B140B1384600F046
:10891000A4F97460FCF7B8FE80F0010042E7687AC1
:10892000012804D12A6828463946126890476D68A4
:10893000002DF4D1EAE70000FC2E002084C50200DF
:108940001033002000231A4602F090BF08B501231F
:1089500000926A4602F08AFF08BD1CB5CDE90023EB
:1089600002236A4602F082FF1CBD3EB5069C8DE8DC
:108970001C0003236A4602F079FF3EBD2DE9F04753
:108980000E4680461C46924608293ED894F80C9024
:10899000002020731946104601F054FF0025B5420F
:1089A00006D218F805201AA12046FFF767FB03E05E
:1089B00019A12046FFF762FB6D1C082DEFD317A10C
:1089C0002046FFF75BFB0025B54210D218F8057072
:1089D000FAF74EFD0068C05D10F03E0F01D03A4638
:1089E00000E02E220EA12046FFF748FB03E00DA178
:1089F0002046FFF743FB6D1C082DE5D301222146DD
:108A0000504601F001FF84F80C90BDE8F0870000AB
:108A10002025303278000000202020007C0000005B
:108A20002563000020000000114810B5FF2181607F
:108A3000002101604160C0F81814C0F8141480F8D7
:108A40001C140C4800F007F900280FD10A480B4904
:108A50000B4B401AC108002005E000BF00EB4002AC
:108A600023F82200401C8842F8D3002010BD0000EB
:108A7000FC2E002084C50200B8CD020068CD0200A3
:108A8000D422002002480349401AC0087047000061
:108A9000B8CD020068CD02001FB51146002443B9CD
:108AA00001A8FEF7CDFD20B90348019900EBC100F4
:108AB000847904B0204610BD68CD020013B5684625
:108AC000FEF7BEFD08B100201CBD0248009950F819
:108AD00031001CBD68CD020070B508480125D0F8F2
