:020000040000FA
:10000000602A00204D030000550300005703000044
:10001000590300005B0300005D03000000000000C6
:100020000000000000000000000000005F0300006E
:10003000610300000000000063030000650300008E
:100040006703000019050000D10B000067030000E2
:1000500067030000670300006703000067030000F8
:1000600067030000250B00006D0B00006703000014
:1000700067030000670300006703000067030000D8
:1000800067030000670300006703000067030000C8
:1000900049070000670300006703000067030000D2
:1000A00067030000670300006703000067030000A8
:1000B000670300006703000000000000000000006C
:1000C0006703000067030000670300006703000088
:1000D00067030000670300006703000000000000E2
:1000E0000000000000000000000000000000000010
:1000F0000000000000000000000000000000000000
:1001000000000000000000000000000000000000EF
:1001100000000000000000000000000000000000DF
:1001200000000000000000000000000000000000CF
:1001300000000000000000000000000000000000BF
:1001400000000000000000000000000000000000AF
:10015000000000000000000000000000000000009F
:10016000000000000000000000000000000000008F
:10017000000000000000000000000000000000007F
:10018000000000000000000000000000000000006F
:10019000000000000000000000000000000000005F
:1001A000000000000000000000000000000000004F
:1001B000000000000000000000000000000000003F
:1001C000000000000000000000000000000000002F
:1001D000000000000000000000000000000000001F
:1001E000000000000000000000000000000000000F
:1001F00000000000000000000000000000000000FF
:10020000DFF80CD000F0F0F8004800473D31000066
:10021000602A002030B4044654E8000F0D4644E83C
:100220000053002BF8D1156030BC704730B4044641
:1002300054E8000F40EA010544E80053002BF7D1D1
:10024000156030BC704730B4044654E8000F00EA33
:10025000010544E80053002BF7D1156030BC70470E
:1002600030B4044654E8000F80EA010544E8005326
:10027000002BF7D1156030BC704730B4044654E809
:10028000000F00EB010544E80053002BF7D1156087
:1002900030BC704730B4044654E8000FA0EB0105B1
:1002A00044E80053002BF7D1156030BC70470000C4
:1002B00030B4044654E8000F0D4644E80053002BC8
:1002C000F8D1156030BC704730B4044654E8000FD4
:1002D00040EA010544E80053002BF7D1156030BC1B
:1002E000704730B4044654E8000F00EA010544E8C2
:1002F0000053002BF7D1156030BC704730B4044672
:1003000054E8000F80EA010544E80053002BF7D1C0
:10031000156030BC704730B4044654E8000F00EB61
:10032000010544E80053002BF7D1156030BC70473D
:1003300030B4044654E8000FA0EB010544E8005334
:10034000002BF7D1156030BC70470000064880478D
:1003500006480047FEE7FEE7FEE7FEE7FEE7FEE7AA
:10036000FEE7FEE7FEE7FEE72908000001020000C5
:1003700000487047346F000040EA01039B0703D038
:1003800009E008C9121F08C0042AFAD203E011F8D4
:10039000013B00F8013B521EF9D27047D2B201E096
:1003A00000F8012B491EFBD270470022F6E710B57A
:1003B00013460A4604461946FFF7F0FF204610BDD3
:1003C000421C10F8011B0029FBD1801A704730B580
:1003D00004460020034600E05B1C934203D2E05C2D
:1003E000CD5C401BF8D030BD064C074D06E0E06800
:1003F00040F0010394E8070098471034AC42F6D36C
:10040000FFF702FFB46F0000D46F000003F060B884
:100410002DE9F74F354D4FF48039174680460024BB
:10042000C5F80893324EB07800281CBF3148FFF75A
:10043000EDFFB8F1000F04BF2F48FFF7E7FF70682A
:1004400000281CBF2D48FFF7E1FFC6F80480DFF845
:10045000B0B038004FF0000A4FF00107ABF10408CC
:100460002FD0012808BFD8F8004006D0022813BFBB
:10047000244825480468FFF7C9FFB770C5F840A1B4
:100480000198204480B2C8F80000D8F800806F645A
:10049000DBF80060D5F8400100281CBF1B48FFF7BF
:1004A000B5FF444514D8A64228BFB04598BF1848A8
:1004B00002D800BFFFF7AAFFC5F8049303B0BDE858
:1004C000F08F6F64DBF800402F64C5F840A1D4E7DB
:1004D00046452CBF00200120B44294BF01210021D9
:1004E000884208BF0B48E7D1E4E7000000A00040C5
:1004F000CC000020730004007500040076000400A6
:1005000044A500408900040048A500409B00040069
:10051000B0000400C90004002DE9F05F7D4C2069A3
:100520006778401C2061607D00281CBF7A48FFF777
:100530006DFF204621780025784C794E4FF0030A54
:100540004FF002094FF0FF3B4FF00108032947D15C
:10055000D4F80C11002943D0012F06D0022F38D037
:10056000BDE8F05F6F48FFF751BF074600690228FA
:100570001CBF6D48FFF74AFF87F80090B869401C20
:10058000B861C4F80052C4F808B3C4F80C51C4F8F8
:100590000051C4F81051C4F80451C4F828514FF068
:1005A000E020C0F8809287F801A07D603D7530683A
:1005B000017D49B15D490968B975C4F81C51C4F899
:1005C00018805B4A04211160C068002843D1BDE84F
:1005D000F09F006901281CBF5648FFF717FF89E00C
:1005E000032F7DD00821012F38D0022F79D04278F7
:1005F000514B002703EB0212137B002B1EBFD4F8D4
:100600000C31002B0127927A0270C4F80052032AA1
:1006100074D0C4F808B3C4F80C514FF0E02180F84E
:1006200001A0C1F8809200BFC4F80051C4F8105175
:10063000C4F804514560057530680069002818BF8A
:100640008047002F08BFBDE8F09F30688068002811
:1006500008BFBDE8F09FBDE8F05F00470269012ACE
:1006600028D0022A18BFBDE8F09FC4F80C51C4F886
:100670001051C4F80051C4F82851D4F8002282F077
:100680000802C4F80022C4F80883C4F8041380F8F0
:1006900000A045600575C4F80451C4F808513068DD
:1006A0000069002818BF8047306880680028D2D1D0
:1006B000BDE8F09FC4F80051C4F80451C4F80851D3
:1006C000C4F80C51C4F81051C4F808B3C4F804833A
:1006D0003168097D11B1194A04211160C06802E036
:1006E00013E007E00AE0164908600B20C4F8000296
:1006F000BDE8F09FBDE8F05F04F06CBF6FF008024A
:10070000C4F80823C4F804138EE7BDE8F05F0D4871
:10071000FFF77CBE4C070020B3010A000010004028
:10072000D4000020CC010A00C2010A004815004094
:1007300008F50140C7010A00806E000004F5014081
:1007400004150040F8010A002DE9F041012080F372
:100750001088344DD5F88400002700285DD0D5F8E6
:10076000800000EB400005EB8000017961F3070495
:10077000417961F30F24817961F31744C17961F301
:100780001F6481688289C08962F30F0660F31F4687
:10079000D5F88400401EC5F88400D5F88000401CC0
:1007A000C5F88000D5F880000A2833D2002080F3F5
:1007B00010882B68324620469847012080F3108825
:1007C000D5F8840048B3D5F8800000EB400005EB75
:1007D0008000017961F30704417961F30F24817985
:1007E00061F31744C17961F31F6481688289C0890C
:1007F00062F30F0660F31F46D5F88400401EC5F86B
:100800008400D5F88000401CC5F88000D5F8800031
:100810000A28CBD3C5F88070C8E7002080F3108881
:10082000BDE8F08170070020F0B5AE480023021D3E
:1008300001780125101D4FF0805406290BD1167840
:10084000360708D10678C6F30316032E06D0042E09
:1008500004D0052E02D0062907D00EE0B4F8246398
:10086000A14FC6F304263E6002E01678360704D195
:100870000678C6F30316032E02D0062904D00FE033
:100880009B4F9A4E7E670EE01678360708D10678A1
:10089000C6F30316032E06D0042E04D0052E02D074
:1008A000062907D00EE0D4F84462924FC6F34236D0
:1008B0003E6002E01678360704D10678C6F30316C8
:1008C000032E02D0062906D011E08B4E376827F0A0
:1008D000807737600EE01678360708D10678C6F3C1
:1008E0000316032E06D0042E04D0052E02D00629AE
:1008F0000AD011E04FF08046C6F80C31C6F810312E
:100900007C4E361F336002E01678360704D1067835
:10091000C6F30316032E02D0062905D00CE0754F4E
:10092000032664373E600AE01678360704D106785D
:10093000C6F30316032E02D006290DD014E06F4F24
:1009400005263E606D4E783635606C4E0836336055
:100950003F263F1D3E6002E01678360704D1067838
:10096000C6F30316052E02D0062957D062E0644E66
:100970003668644F3E60624E361D36683F1D3E60ED
:100980005F4E083636683F1D3E605D4E0C36366859
:100990003F1D3E605A4E103636683F1D3E60584E31
:1009A000143636683F1D3E60554E18363668554F32
:1009B00020373E60524E1C3636683F1D3E60504E1A
:1009C000203636683F1D3E604D4E243636683F1D4A
:1009D0003E604B4E283636683F1D3E60484E2C36F2
:1009E00036683F1D3E60464E30363668454F4037CC
:1009F0003E60434E343636683F1D3E60404E3836CA
:100A000036683F1D3E603E4E3C3636683F1D3E60B8
:100A10003B4E403636683F1D3E6002E01678360792
:100A200008D10678C6F30316032E06D0042E04D090
:100A3000052E02D0062907D019E0D4F85812324A00
:100A400001F04F01116002E0117809070FD1007821
:100A5000C0F30310032803D0042801D0052806D1D1
:100A60002A480168C90702D06FF0010101602248DD
:100A70007438016841F470010160BFF34F8FBFF318
:100A80006F8F4FF01021D1F80002002803DBD1F85E
:100A90000402002822DA1E4A15601E480468002C51
:100AA000FCD01524C1F800420568002DFCD0C1F827
:100AB000044201680029FCD0136001680029FCD0C1
:100AC000BFF34F8F0C48F0380168134A01F4E0611E
:100AD00011430160BFF34F8F00BFFDE710490F487E
:100AE0000860F0BDE00F00F0403501400DF0ADBAF8
:100AF00000C007403C050040FCED00E010560040FF
:100B00000404001020C50040E40E00400004004032
:100B100004E5014000E401400400FA050090D00320
:100B2000940000200E4800220178142905D2491CA7
:100B3000C9B201700A2901D302E00270022101E06A
:100B40006FF00101074803680B44036043681944D0
:100B50004160012141720448C0F8402102F014BCF8
:100B600006000020140100200090004070B5144ED3
:100B70004FF48030C6F808030025C6F84051114CE8
:100B80006068002804BF1048FFF740FCA570626849
:100B90000123656073640D480168001F006814300C
:100BA000B1F5804F04D2B0F5404F88BF637004D8D0
:100BB00081422CBF012000206070BDE870401047CA
:100BC00000A00040CC000020EC00040044A5004040
:100BD0000448017F04480029024901D005F0B9BF4B
:100BE00005F028BF200100200020004002E008C8D6
:100BF000121F08C1002AFAD170477047002001E097
:100C000001C1121F002AFBD170470000134C0121C3
:100C1000208801EB004012A105F032F805F0E2F85F
:100C200004F058FF0028FBD10F480068C00700D02F
:100C300000BE2088032101EB00400CA105F020F844
:100C4000BFF34F8F0848E43801680D4A01F4E061B2
:100C500011430160BFF34F8F00BFFDE70801002083
:100C6000466174616C000000F0ED00E0486974209A
:100C70007765616B2068616E646C657200000000CE
:100C80000400FA050EB500210091CDE901106A4675
:100C900044F20100FFF7BAFF0EBD00F003B800F008
:100CA00009B8000072B602480168491C016070472B
:100CB0001400002003490868401E086000D162B695
:100CC00070470000140000202DE9F0410646086836
:100CD0000C46411C4FF0A0474FF0010506D005FA25
:100CE00000F1C7F80815206803F02CFA6068411C71
:100CF00002D0002103F01DFA3079204901EB4010A9
:100D0000A169007F00283068C0F8241525D0607DD7
:100D1000227D31681043C1F86C05D4E900123068B7
:100D2000C0F80C15C0F8142524E0A068411C02D0BE
:100D3000002103F0FEF9E068411C05D08540C7F8AA
:100D40000855E06803F0FEF9D4E902123068C0F8F3
:100D50000825C0F81015BDE8F081607D217D32685E
:100D60000843C2F86C05D4E900123068C0F81425B5
:100D7000C0F80C15207D0128D7D0ECE72001002019
:100D80002DE9F04151488CB00068514C012802D047
:100D90005048006828B960680078202898BF012072
:100DA00000D900204C4F032100263970266000280E
:100DB00076D04A48056800684949086003A8CDE92B
:100DC00000044848026801232946184605F076F9D0
:100DD000002839D0012813D0022839D0032818BFA1
:100DE000414801D0FFF712FB2068002865D00120A0
:100DF00060753E482061042038700CB0BDE8F08179
:100E0000039800281CBF3A48FFF700FB284605F06E
:100E1000B9FA002804BF3748FFF7F8FA4FF0020884
:100E200078680023807D8DF800808DF801508DF862
:100E30000200ADF808300193ADF80A308DF80330A8
:100E4000684605F0ADF8CFE72B48FFF7DFFACBE7B0
:100E50000398002804BF2948FFF7D8FA284605F070
:100E600091FA002804BF2648FFF7D0FA4FF0020C91
:100E700078680022039B807D8DF800C08DF80150BA
:100E80008DF802004FF00108ADF808200193ADF88D
:100E90000A208DF80380684605F082F8A4E7FFE792
:100EA000002300961A4619461846019605F006F9E1
:100EB000042818BF134895D196E704F099FA66758F
:100EC000266100F021F80CB0BDE8F081001400406C
:100ED0002807002034150040B80000200814004006
:100EE0002C1500400C140040CC050900B10F000087
:100EF000BC050900BD050900C1050900C4050900BC
:100F0000C5050900D305090070B504F071FA204C3D
:100F10000025204E0120256130701F480168A4F192
:100F2000500221F0FF0112691143016005F02EFA11
:100F300008B305F02BFA032818BF184802D000BFE9
:100F4000FFF764FA022004F029FC002004F08CFC76
:100F500005F01CFA03281CBF1148FFF757FA307838
:100F600001281CBF0F48FFF751FA022030700E48CD
:100F7000C4E9030570BD05F051F80228E2D305F07D
:100F80008BFA6060002808BF0848DBD1D8E7000072
:100F900028070020B8000020301500408405090013
:100FA0008C05090096050900810D00007F050900E8
:100FB000024905200870FFF7A7BF0000B800002015
:100FC0000649095C4FF0A040D0F81005C84010F069
:100FD000010000D0012080F001007047186E000071
:100FE000FFF7EEBF10B50024800701D501F008F827
:100FF000204610BD014908707047000078000020AD
:10100000FFFFFFFFFFFFFFFFFFFFFFFFFFFFFFFFF0
:10101000FFFFFFFFFFFFFFFFFFFFFFFFFFFFFFFFE0
:10102000FFFFFFFFFFFFFFFFFFFFFFFFFFFFFFFFD0
:10103000FFFFFFFFFFFFFFFFFFFFFFFFFFFFFFFFC0
:102000007CB50024064E25460022305D0323009552
:102010001146019502F060F8641C042CF4D37CBDD9
:10202000186E00002DE9F041861C0C4601270020A7
:10203000FEF733FE0F4801682160D0E90012891ACB
:1020400082680446511AB51C07E000BF00F0A4FEE8
:10205000D4E90001401AA168091A491C8D42F5D83B
:102060002068304420600020FEF719FE3846BDE8A5
:10207000F08100007002002030B482680468531CB4
:102080008360A154D0E901128A4202D330BC01F02E
:102090002ABF30BC70470000034803C8814201D109
:1020A0000120704700207047700200202DE9F043A6
:1020B000484883B00068012802D04748006830B91A
:1020C000464840680078202898BF012600D900269D
:1020D000434C0125606920B901F0F2FE002808BFD9
:1020E000656104F053F901281CBF3E48FEF78EF9E4
:1020F0003D4D6868007D00281CBF3C48FEF786F90E
:1021000003F076F9002E04BF03B0BDE8F08301218F
:10211000084604F099F8052845D2DFE800F00341AD
:10212000224141004FF0000904F020F90646B4F8BE
:102130000C80E78904F020F9014668680023827D5D
:102140008DF800908DF80110ADF808808DF8022010
:102150000196ADF80A708DF80330684603F020FF51
:1021600021E04FF0000904F001F90646B4F80C80B4
:10217000E78904F001F9014668680123827D8DF842
:1021800000908DF80110ADF808808DF802200196BE
:10219000ADF80A708DF80330684603F001FF02E0E5
:1021A0001348FEF733F901F01FFA2061114800F1DE
:1021B0006802416961602378022B03D0002908BFBF
:1021C000806800D0C068106003B00020BDE8F04314
:1021D00001F03CBA001400403415004028070020EC
:1021E0000C070020AD060900B8000020AE0609006B
:1021F000CD060900D80600202DE9F0411B4C1C4EED
:102200004FF00005217960784FF0030881434FF0CB
:10221000010707D02571318808EB014015A103F0B3
:102220002FFD01E000B12771E1782078814307D0CC
:10223000E570318808EB014015A103F021FD01E0B4
:1022400000B1E7706179A078814307D0657131886A
:1022500008EB014014A103F013FD01E000B1677128
:1022600003F038FC0028FBD1BDE8F081000000201D
:102270000801002053797374656D20616464726590
:102280007373206E6F742072656365697665640090
:10229000486F7374204944206E6F742072656365C3
:1022A000697665640000000044796E204B657920F2
:1022B0006E6F742072656365697665640000000066
:1022C00030B5294D83B0687E002804BF03B030BD0F
:1022D00001F09EFD002401280BD001F0DDFD234814
:1022E000007F10B9012081074860002004F072F9D6
:1022F0006C6003F07DF8AC706C7605208DF8000002
:102300008DF80140ADF808408DF802400194ADF819
:102310000A408DF80340684603F042FE1448154910
:1023200004700320086004F031F8012818BF022867
:1023300015D003281CBF03B030BD009400231A46FB
:1023400019461846019403F0B9FE042804BF03B0EF
:1023500030BD094803B0BDE83040FEF757B8002152
:10236000084603F071FFF0E70C070020D8060020B4
:10237000B800002008F50140E801090002490A8878
:1023800002808978817070476C6E00002DE9F04101
:102390008AB020270026099701F0F2FF054602F0D7
:1023A00007F8804602F0ACF9C82002F051F9052088
:1023B00002F07EF9002001F0B1FF01F04FFF002094
:1023C0008DF8200004460022012108A800F06EFBD1
:1023D00030B1002002F0A2F9641CE4B2642CF2D304
:1023E000C82000F011F901208DF8200001460022DC
:1023F00008A800F05BFB08B31E480078F0B100208D
:1024000001F0C0FF00281DDD09AA694600200997D8
:1024100001F044FFB0B19DF80000082812D1154822
:10242000DDF801100C38C0F803100DF1010000F0C8
:102430009FFB002000F046FA012603E04FF496705F
:1024400000F0E2F84FF4AF7000F0DEF802F058F957
:10245000002001F063FF002001F070FF284602F029
:10246000F7F8404602F024F901F0F8FE0AB03046D1
:10247000BDE8F0818A000020002207E010F8013B4F
:10248000FF2B01D000207047521CD2B28A42F5D3F4
:1024900001207047F0B50746204889B015460078FE
:1024A0000E4698B1012814D0022834D110221C49BC
:1024B00004A8FDF761FF1B490D2204A8FDF75CFF8E
:1024C0000024164A6846521C21460DE01022144989
:1024D000F3E71022124904A8FDF74EFF04A800F00C
:1024E000CDF8EDE7052C02D2135D035500E0015550
:1024F000641CE4B2102CF5D301F04EFA04A801F0EC
:102500005DFA6946084601F01DFA2B466A463146D7
:10251000384600F08DFB09B0F0BD000078000020C7
:102520006F6E0000B006002070B50C4605460D2900
:1025300010D800F025F808B1012070BD06480078D9
:1025400040B900F07DF928B121462846BDE8704029
:1025500000F016B8002070BD7E00002001460D225C
:102560000148FDF709BF0000B006002003490268DA
:10257000C1F8012000794871704700007800002000
:10258000F0B50746081D89B0C6B206208DF81000C8
:1025900004AC0D46601CFFF7F1FE2A463946201DAB
:1025A000FDF7EAFE174D287808B1002000E0022070
:1025B000FEF720FD701EC2B2611C601CFFF76AFFAF
:1025C00001200090002301AA314604A800F084FAFB
:1025D00018B99DF804000B2802D0002009B0F0BD06
:1025E00001AC0322A01DA11DFFF754FFA01D00F0A8
:1025F00013FB0028F2D0287810B9601CFFF7B6FF53
:102600000120EBE77E00002010B5044601F0CEFE6D
:102610006043BDE81040400001F02CB8F0B54E23F7
:10262000B3FBF2F5022303704F23841804F8013C36
:1026300081B10123541E0BE003F003068E5DB6FB4F
:10264000F5F705FB176605FB0366C6545B1CDBB29A
:10265000A342F1DB01210DE04318445C13F8013C77
:10266000E31ADBB2052B03D2C3F105032344435421
:10267000491CC9B29142EFD3F0BD00000349D1F823
:1026800007200260C97A0171704700007E000020B7
:1026900010B588B000216FF0010002AAFF23535447
:1026A000491C09B20529FADB40F6817241F27E012C
:1026B000895CFF2917D00F20B0EB111F01D00C0946
:1026C00001E001F00F04214604A800F0F0F8052213
:1026D00002A905A8FDF77BFE10B1204608B010BD89
:1026E0004FF0FF30FAE7521E12B2002ADEDAF5E7A9
:1026F000F0B52F4D87B000262878012701ACB0B186
:1027000003208DF80400601CFFF738FE0020FEF760
:1027100071FC0322611C601CFFF7BCFE002303AAAE
:10272000042101A8009700F0D7F9A0B117E002201A
:102730008DF804000521601C00F086F901220621B5
:1027400001A800F0B3F950B1601CFFF70FFF2F7024
:10275000002007B0F0BD9DF80C00092802D02E70B3
:102760000320F6E703AC0922601C611CFFF792FE10
:10277000601C00F051FAC0B19DF8100020B1012892
:1027800005D0022800D12E709DF81000E1E7601DF1
:1027900000F076F90D21074800F056F90548FFF7DB
:1027A000DDFE012000F08EF8EDE72E700220D0E76C
:1027B0007E000020BD06002041F6FF700078FF2853
:1027C00001D0012070470020704740F6817041F22F
:1027D0007E01095CFF2905D00F20B0EB111F07D047
:1027E00008097047401E00B20028F0DA0E2070473A
:1027F00001F00F00704700003EB5104C0020207023
:10280000FFF7DAFF98B94FF4805090F87E00FF2868
:102810000DD0FFF7DAFF01460E2808D2684600F017
:1028200046F80098C4F8030001A800F029F9BDE8B3
:102830003E400248C01C00F09BB900007E00002012
:1028400010B58AB004208DF80400012001460090E4
:10285000002306AA01A800F03FF930BB9DF818003C
:102860000A2822D10DF11900FFF780FE05208DF80E
:10287000040001AC601CFFF781FD0D21201D00F05C
:10288000E3F8201DFFF76AFE0120FEF7B3FB1022DC
:10289000611C601CFFF7FEFD0122112101A800F060
:1028A00005F910B101200AB010BD0020FBE701EBD3
:1028B000C10101F580510A6802604A684260097AE4
:1028C000017270472DE9FE4300265E4FB046344644
:1028D00000285ED00025E94629466846FFF7E7FF55
:1028E00058490422C91C6846FDF771FD38B955499D
:1028F0000522C91D09F10400FDF769FD80B16D1CB9
:10290000EDB20E2DE8D3002529466846FFF7CFFF2C
:102910004C490422C91C6846FDF759FD10B10CE072
:102920002C4632E0052109F10400FFF7A5FD20B196
:10293000D7F807000190F87A13E06D1CEDB20E2D68
:10294000E2D3002529466846FFF7B1FF0921684612
:10295000FFF792FD48B157F8030F00907868019097
:10296000387A8DF808002C4631E06D1CEDB20E2D42
:10297000E8D3B8F1000F07D004EBC4006946092280
:1029800000F5805003F08CFB3EB3FFF715FF28B332
:1029900056E0002421466846FFF789FF29490422B2
:1029A000C91C6846FDF713FD0028EED0641CE4B294
:1029B0000E2CEFD3002421466846FFF778FF042150
:1029C0006846FFF759FD20B1D7F8030000900126B3
:1029D000D2E7641CE4B20E2CEDD331E0FFF7F5FE34
:1029E000A0422DD00E2C2BD04FF48051002040F669
:1029F00081720F2591F87E10531C04E041F27E0194
:102A00009042095C0DD0CE43360706D0B5EB111FBE
:102A10000AD164F31F11C9B20AE001F0F0012143A9
:102A200006E044F0E00103E0401C00B29842E5DB20
:102A300041F27E02104403F015FB0120BDE8FE8345
:102A40000020FBE77E000020F0B50B4B0025C3F80B
:102A5000005101241C602A46084E09E0D3F8007199
:102A6000002FFBD037688754C3F80051521CD2B2F4
:102A70008A42F3D35C60F0BD00D0004008D500402E
:102A800003490268C1F807200079C8727047000046
:102A90007E00002010B5044601F0B8FB00E030BF16
:102AA00001F07EFCB0EB440FF9D310BD10B5094C1A
:102AB000134600226270A2700A460146184601F0D1
:102AC0004BFB08B910BD30BF60780028FBD0A07860
:102AD00010BD00007E0000202DE9FC4780460A2042
:102AE0000A9D009016460F46284601F017FE012465
:102AF00001F0A6FB01F00EFD0028FBD101F04EFC19
:102B000081461E2001F0B4FD01F0A8FB2A4639469B
:102B10004046FFF7CBFFE0B10224284601F0FEFD5E
:102B200007208DF804000A20FFF7B4FF2A46012190
:102B300001A8FFF7BBFF60B1284601F023FC40B1BC
:102B4000202000906A463146284601F0A7FB00B1DC
:102B5000002401F075FB00BF01F0DCFC0028FBD174
:102B6000484601F085FD01F079FB2046BDE8FC8771
:102B70002DE9FF41054601F0CDFC264C0646EDB39C
:102B800028786978EA7800EB0120A978090401EB3C
:102B90000261471801F0B4FD204601F0F9FC50B184
:102BA0000021084601F0DEFC28B1384601F000FDA6
:102BB00008B1012402E0012407E037B121460846AC
:102BC00001F0D0FC08B1012700E00027641CE4B24A
:102BD000082CF2D301F0C8FB0446C2B2294668466D
:102BE000FFF71CFD87B12146684601F0F1FC58B1A2
:102BF0000120002E05D001F031FB00E007E030B1EC
:102C0000012004B0BDE8F0810020002EF9D00020A2
:102C1000F7E700000405070B10B503220349FDF791
:102C2000D6FB08B1002010BD012010BD6C6E000065
:102C300070B5002409E000BF11F8015B12F8016BC8
:102C40007540641C00F8015BE4B29C42F4D370BD93
:102C50002DE9FC5F0E008346DDE90C47C6F100005C
:102C600098469246814600D40846012503E000BFFD
:102C700090FBFAF06D1C5045FADAA84500D945469C
:102C800024B1002E01DB780700D5641EB80702D5F9
:102C9000B8F1000F0AD0F80708D13CB1A54205D21F
:102CA00020215846641EFFF7E7F9F6E7002E02DA06
:102CB0004E462D2102E0780703D52B215846FFF719
:102CC000DBF907F0030002280BD1B8F1000F08D19F
:102CD0003CB1A54205D230215846641EFFF7CCF91D
:102CE000F6E7CDE90047434652463146584603F0E1
:102CF000A9FFBDE8FC9F000070B50E4604460079B0
:102D000018494FF4A27501EB4010017F2068A1B172
:102D10004FF4887103F082FC4FF49071206803F047
:102D20007DFC4FF49271206803F078FC29462068FE
:102D300003F074FC0C49206809E04FF48E7103F035
:102D40005CFC2946206803F058FC08492068C0F85C
:102D50000413206800F0FBFC3146BDE8704000F031
:102D6000DABC0000200100201003020080000200F5
:102D70000022027002214254491CC9B20829FAD328
:102D80007047002202700421817003214254491CC3
:102D9000C9B20829FAD370472DE9FE43214DD5E980
:102DA000014704EA070005EB800605F583600C3651
:102DB00000F09CFB05F21440804600F097FB0AE00F
:102DC000C0F3891101EB9050641C044404EA07002D
:102DD00005EB80060C3630688107F1D0002069468B
:102DE00004EA070205EB8202641CD26841F8202045
:102DF000401C0228F4D3009800F003000228009839
:102E00000AD0C0F383100444404600F069FB002858
:102E100000D06C60BDE8FE83032101EB905004EB11
:102E20009004F1E7700200202DE9F05FB048002621
:102E30000660B04803250560AF4806604FF0010901
:102E4000C0F80090AD48016821F48071016001680C
:102E500021F00F0141F006010160016821F47021A9
:102E600041F440310160041D206820F000702060B2
:102E7000206840F080702060206820F0FF0040F063
:102E800020002060206820F47F4020604FF0E02187
:102E90000220C1F8800200F0B3FF99490860091FC1
:102EA0009848086098480560984802F043FC9849A3
:102EB000984D4860687F216821F4E02141EA004094
:102EC00020600023D5F820C019461822C8002CFA2B
:102ED00000F0C0B2002400F0010744EAC714C0F3B8
:102EE000400744EA8714C0F3800744EA4714C0F35C
:102EF000C00744EA0714C0F3001744EAC704C0F34C
:102F0000401744EA8704C0F3801744EA470444EAC0
:102F1000D0104C4202EBC404A0400343481CC1B291
:102F20000429D3D37C4803600023D5F824C0194674
:102F3000C8002CFA00F0C0B2002400F0010744EAF7
:102F4000C714C0F3400744EA8717C0F3800447EA78
:102F50004414C0F3C00744EA0714C0F3001744EA5E
:102F6000C704C0F3401744EA8704C0F3801744EA5B
:102F7000470444EAD0104C4202EBC404A04003438F
:102F8000481CC1B20429D3D3644803600024071D40
:102F9000DFF88CB14FF0FF0A07F104082819082C5C
:102FA00090F8280058D2A107C90E0AFA01F2D243BC
:102FB000042C26D23B681A403A60002200F001033C
:102FC00042EAC312C0F3400342EA8312C0F3800313
:102FD00042EA4312C0F3C00342EA0312C0F30013F3
:102FE00042EAC302C0F3401342EA8302C0F38013F3
:102FF00042EA430242EAD010884039680843386008
:103000002DE0D8F800301A40C8F80020002200F067
:10301000010342EAC312C0F3400342EA8312C0F341
:10302000800342EA4312C0F3C00342EA0312C0F332
:10303000001342EAC302C0F3401342EA8302C0F322
:10304000801342EA430242EAD0108840D8F80010C8
:103050000843C8F8000002E05846FDF7D7F9641CA1
:10306000082C9BDB2F4995F8300008602E4995F815
:1030700031000A6822F0FF020A60002804BF0868D5
:1030800008600AD0294B1A1F012814D002281BD02F
:10309000032823D02648FDF7B9F995F832002549D1
:1030A000002804BF0E60BDE8F09F012808BFC1F8EA
:1030B0000090BDE8F09F086840F001000860C3F888
:1030C00000A040F2071007E0086840F00200086026
:1030D0004FF6FF70186018481060DEE7086840F08F
:1030E000030008606FF07F4018601660D5E70000AD
:1030F00014F5014008F50140FC1F00401415004084
:103100001CF501400411004004F50140280700208F
:10311000B8000020D80600201C15004020150040F3
:10312000380309000C150040341500403C150040E0
:10313000C1030900101500402110010000210220E8
:10314000FDF750FF002002F0F5FD08B1FDF79AFDF4
:1031500002F0B2FC39480321008801EB004038A19D
:1031600002F08EFD02F0B6FC0028FBD1012000F039
:10317000DDF810B90020FDF785FD00F0CFF8002044
:1031800001F036F928B901F0F5F800F50340FDF734
:1031900079FD962001F05CFA28B901F0EBF800F512
:1031A0000340FDF76FFD002001F038FA28B901F067
:1031B000E1F800F50340FDF765FD4FF4FC7001F008
:1031C00067FA28B901F0D6F800F50340FDF75AFD7B
:1031D000002001F04DFA28B901F0CCF800F50340C9
:1031E000FDF750FDFFF754FA00221C4910F1020FC1
:1031F00005D00123B0F1FF3F04D00B7003E00A704B
:103200004A7001E00A704B70FFF7F6FA01F026F8F9
:1032100028B901F0AFF800F50340FDF733FD0120B8
:10322000FDF7DEFE08B103F0F9FA0020FDF7D8FE45
:1032300008B103F081FAFEF7DFFFF0E70801002094
:103240004465736B746F7020656D756C61746F721B
:10325000206578616D706C65000000000000002042
:103260002DE9F047C7880446181D16468946B0FB6D
:10327000F7F1B0FBF7F207FB12009A193A44D21C9F
:10328000B2FBF7F2DDF820A001E02468491E002916
:10329000FBD13D1A8846B54216D818E0BAF1000FA6
:1032A00005D0211809EB08002A46091D04E0204436
:1032B00009EB08012A46001DFDF75EF8002024688E
:1032C000761BA844B74201D9354600E03D46002EA2
:1032D000E4D1BDE8F087000030B50B46024602F0AD
:1032E00057FD63B10021094C0CE000BF01EB410325
:1032F00004EB830315685B88AB4202D111600020A8
:1033000030BD491C8142F1D3052030BDF0000020C2
:103310000148407A70470000140100200248012152
:10332000C16001607047000000900040134A002116
:103330001160516051721172114901224A60CA60D4
:10334000931EC1F808331304C1F80433C1F80022F6
:103350000C4A042111600B49303110B14FF4FA507E
:1033600001E04FF47A6008604FF0E0214FF4007004
:10337000C1F88002C1F8000101207047140100204B
:103380000090004010950040704700000B4910B5B8
:103390004A7A8AB1022202708A8842700B88C2F38C
:1033A000032242EA031484701A09C27000200860E4
:1033B00048604872012010BD002010BD140100209B
:1033C0002DE9F0470E46C0F30729C3B2010E40F3C2
:1033D00007400024170C40421FFA82F8062B67D2E0
:1033E000DFE803F00319314B475E002918BF0121C4
:1033F000254667F30F0461F3070560F31F4468F384
:103400001F45304601F070FA224629464846BDE87D
:10341000F04700F00BBF29488068407E002804BFB9
:103420002748FCF7F3FF304601F05EFA214664F3CB
:10343000070167F30F0468F31F4122464846BDE8C1
:10344000F04700F0E9BE002918BF012161F307042D
:1034500060F31F4439B1002E04BF1A48FCF7D6FFB1
:10346000304601F041FA21464846BDE8F04700F0F9
:10347000BEBF01F055F8BDE8F08713484168491C0C
:1034800041600178002908BFBDE8F0878168002904
:103490001EBF491E8160BDE8F08701F03FFB18B1F7
:1034A000BDE8F04700F0D8BEBDE8F04701F04EB9E6
:1034B000BDE8F0470548FCF7A9BF000098000020D0
:1034C000D2030500E0030500CC060020000405003F
:1034D00002490F220A70C86070470000980000205F
:1034E00008B500216A46FCF7FCFE08BD08B50121BD
:1034F0006A46FCF7E9FE009808BD70B50446002551
:103500002846FDF7CAFB21686268086890420ED918
:10351000401E08600178238AE26801FB0325227AB5
:103520002168101AC0B20A79824200D208710020C4
:10353000FDF7B5FB284670BD70B505460C4600206A
:10354000FDF7ABFBE868298A201AB0FBF1F12A6885
:103550001068431C13600170BDE870400020FDF747
:103560009EBB10B530B1017A42680368891AC9B2AE
:103570001A6006E00E2010BD03681A68541C1C6017
:103580001170491EC9B2F7D20068002101710846C6
:1035900010BD0000094841684A1C011F42600968CB
:1035A0000B689A4238BF70470022426003685B1C78
:1035B000036049688B4228BF02607047C400002046
:1035C00070B5074C251F206829684968884224BFC8
:1035D0000448FCF71BFF286821688068405C70BDC8
:1035E000C4000020B20001000148006870470000DC
:1035F000C40000200148406870470000C40000205B
:1036000010B5040004BF0548FCF700FF0448002182
:103610000460001D0160416010BD00002A0001002F
:10362000C000002010B50446054800684068A0426C
:103630009CBF0448FCF7EAFE0348046010BD00008C
:10364000C0000020B9000100C400002010B50446ED
:10365000054800680068A0429CBF0448FCF7D6FEFD
:103660000348446010BD0000C0000020C5000100F8
:10367000C400002000283ED01F49204A096800BF2E
:1036800000BF00BF00BF00BF00BF00BF00BF91422E
:103690002FD000BF00BF00BF00BF00BF00BF00BFF2
:1036A00000BF00BF00BF00BF00BF00BF00BF00BF22
:1036B00000BF00BF00BF00BF00BF00BF00BF00BF12
:1036C00000BF00BF00BF00BF00BF00BF00BF00BF02
:1036D00000BF00BF00BF00BF00BF00BF00BF00BFF2
:1036E00000BF00BF00BF00BF00BF00BF00BF00BFE2
:1036F00000BF0138C3D17047940000200024F400BB
:1037000000F01F02012191404009800000F1E020FB
:10371000C0F8801170474907090E002806DA00F04A
:103720000F0202F1E02282F8141D03E000F1E02212
:1037300082F8001400F01F0201219140400980002E
:1037400000F1E020C0F88012C0F800117047000BB3
:1037500040B270470121B1EB507F01D10120704789
:10376000002070472DE9F04105460079164F90463C
:1037700007EB40140E46E07E10B10820BDE8F08152
:10378000707F20772846FDF79FFA5FEA08006060A7
:103790003169216003D0317F2846FFF7ADFA2879DF
:1037A00007EB4010007F0028286801D0082100E0C6
:1037B0000421C0F800150020E0752076A0750121D5
:1037C000E176A076DAE70000200100202DE9F0473D
:1037D000054600793F4E904606EB40140F46207F89
:1037E00018B10846FFF7B6FF30B1284600F074F86C
:1037F00020B11120BDE8F0871020FBE784F8168087
:10380000A7600027A78228794FF0010806EB401433
:103810003E46207F0028286825D04FF490794946FD
:1038200002F0FCFE4FF4AC7A5146286802F0F6FE36
:103830002868A17DA268C0F84425C0F8481528680A
:10384000C0F808806068F0B94946286802F0E1FED7
:1038500080465146286802F0DCFE58EA0001F3D0A9
:1038600058BBA7750FE04FF48E7A514602F0C5FEA3
:103870002868C0F808802146286803F08FF861683E
:103880004FF4807089B13046B4E75146286802F0A1
:10389000AFFE10B9A08A4845F7D1A08A484505D0A7
:1038A0002146286803F07AF800E08146A08AA17DCD
:1038B0008842EAD3A08A484501D10F26D1E7514674
:1038C000286802F095FE0028F9D02868C0F80C801E
:1038D000C7E70000200100200079044901EB4010F7
:1038E000807D002800D001207047000020010020CA
:1038F00070B5044600791149002601EB4015206897
:103900002A7FC0F80065686888B1207901EB401013
:10391000007F0028206801D0094901E008498C395E
:10392000C0F808132068FFF712FFFFF7E9FE2046F2
:1039300002F07AFEEE766E6070BD0000200100207D
:103940001003020070B5124D06464FF0807468688F
:10395000814202D01022FCF70FFD0E490020C1F871
:10396000000101220A6001E0641E0ED0D1F800219E
:10397000002AF9D0C1F80001A9688E4203D01022B4
:103980003046FCF7F9FC012070BD002070BD00003E
:103990000800002000E000400549064801F110023F
:1039A000C0E90012103282600348016001207047B4
:1039B000400100200800002004E5004001460248C4
:1039C00010220068FCF7D8BC080000202DE9F05F49
:1039D0008046102824BF4348FCF718FDB8F1100FAB
:1039E00024BF4148FCF712FD08EB48063F49885DBB
:1039F000002808BFBDE8F09F3D4A701802EB860B17
:103A0000054610F8022F5BF822400278521C027023
:103A100090F800C00022BCF1030F28BF0270885D3F
:103A2000401E8855002C08BFBDE8F09FDFF8C4A0F9
:103A3000314FDFF8C890544504BF3148FCF7E6FC2D
:103A40003868062824BF2F48FCF7E0FC00203968BE
:103A500000290BD959F82030A34203D12A48FCF79A
:103A6000D5FC0FE0401CC0B28842F3D327490020A8
:103A700000EB001201EB4202A24206D0401CC0B291
:103A80000628F5D32248FCF7C1FC386859F8200015
:103A900050451CBF1F48FCF7B9FC386849F8204066
:103AA000401C3860B8F1100F24BF0F48FCF7AEFC83
:103AB0000E48815D002908BFBDE8F09FA978AB786A
:103AC0005BF82140A91C5B1CAB70AB78032B24BFB7
:103AD00000220A70815D491E8155002CABD1BDE8E2
:103AE000F09F0000D7000300A60003008C08002010
:103AF000BC080020ADDEADDEEC0000207C0900201B
:103B0000DB00030085000300F60003009409002099
:103B1000860003008800030070B51B4E0446306821
:103B2000062824BF1948FCF771FC00213268184DA3
:103B3000002A0BD955F82130A34203D11548FCF7D0
:103B400065FC0FE0481CC1B29142F3D3124A002138
:103B500001EB011002EB4003A34206D0481CC1B2A6
:103B60000629F5D30D48FCF751FC30680C4955F88F
:103B7000200088421CBF0B48FCF748FC306845F821
:103B80002040401C306070BDEC0000208500030028
:103B90007C090020F6000300940900208600030041
:103BA000ADDEADDE8800030001480068704700000C
:103BB000EC00002010B50446102824BF0348FCF791
:103BC00025FC04EB44000249085C10BDC80003005A
:103BD0008C08002030B40020144A014600EB40035A
:103BE00003EB020C8CF801108CF80210D154401C2D
:103BF0001028F3D30E4C002104F1180C5FF0DE0204
:103C000001EB01100CEB400344F8213000201D189B
:103C10001A54801C6A702228F9D3491C0629EFD354
:103C200004490620086030BC704700008C08002062
:103C30007C090020EC00002070B500240546102807
:103C400024BF1148FCF7E2FB05EB45030F4AD05CAB
:103C5000C0B1991802F1300011F802CF00EB8300D7
:103C600050F82C4091F800C00CF1010C81F800C014
:103C700091F800C0BCF1030F24BF00200870D05C95
:103C8000401ED054204670BDA60003008C080020C2
:103C900070B50D460446102924BF2348FCF7B6FB37
:103CA0000022224816460068002888BF20490BD908
:103CB00051F822C0A44503D11E48FCF7A7FB0FE032
:103CC000521CD2B28242F3D31B48002202EB0211F3
:103CD00000EB4103A34206D0511CCAB2062AF5D319
:103CE0001648FCF793FB164B05EB4502985C03283E
:103CF00024BF002070BD1348D11800EB820011F8DA
:103D000001CF40F82C4091F800C00CF1010C81F873
:103D100000C091F800C0BCF1030F28BF0E70985C82
:103D2000401C9854012070BD8F000300EC0000205F
:103D30007C090020F6000300940900209000030095
:103D40008C080020BC08002010B50446102824BFB1
:103D50000948FCF75BFB04EB440008490A5C002AB5
:103D600004BF002010BD064A02EB800208448078A0
:103D700052F8200010BD0000B70003008C0800209E
:103D8000BC080020184B10B51968002449B3174A25
:103D9000DFF85CC002EB810050F8044C40F804CC22
:103DA000481E4FF0000118600CD000BF52F821C02F
:103DB000A44503D10F48FCF729FB0FE0491CC9B209
:103DC0008142F3D30C48002101EB011200EB4203C6
:103DD000A34206D0491CC9B20629F5D30748FCF70F
:103DE00015FB204610BD0000EC0000207C090020DF
:103DF000ADDEADDEF6000300940900207D00030077
:103E00000048704748A000400048704740A100406B
:103E10000148007870470000CC00002070B5124EB9
:103E200001247460F4601148002505607464104832
:103E3000006800281CBF0F48FCF7E8FA4FF0FF307D
:103E4000C6F80803C6F840510B49042008600B4827
:103E5000456004704570857008154FF0E021C1F889
:103E60008002C1F8000170BD00A0004008A500401C
:103E700044A500403500040010A50040CC000020FF
:103E800003490120086003490020087070470000C2
:103E900000A00040CC000020074801214160C16023
:103EA000064800224FF0E02C426042708B02CCF8B2
:103EB000803282700170704700A00040CC0000206A
:103EC0000148407870470000CC0000200FB408B5CE
:103ED0000399002904D004AA00926A4600F00FF862
:103EE00001B05DF814FB10B582680446002A05D0C5
:103EF000D4E90403216898470020A06010BD2DE993
:103F0000FC4791460C00804676D014F8011B39B16D
:103F100025290ED04046FEF7AFF820780028F4D1CE
:103F200098F80C00002867D04046BDE8FC47FFF732
:103F3000DABF0020012221782B291BD02D2902D0A5
:103F4000302908D102E040F0010001E040F0020019
:103F5000641C002AEFD100252A290ED02178A1F176
:103F600030020A2A11D205EB850201EB4205641CDE
:103F7000303DF1E740F00400EAE7D9F800100B1DEE
:103F8000C9F800300968641C0D44217800232E29EB
:103F90000BD114F8011FA1F130020A2A05D203EB5C
:103FA000830201EB4203303BF3E76C290DD0682913
:103FB0000BD0692921D00BDC252918D0582931D004
:103FC00063290ED0642915D117E014F8011FECE71E
:103FD000702969D0732932D075291BD0782909D16D
:103FE00020E0D9F80000011DC9F800100178404612
:103FF000FEF742F8641C90E76CE0D9F800100A1D47
:10400000C9F800200968CDE900500A224046FEF7B1
:104010001FFEEFE7D9F800100A1DC9F80020096853
:104020000A2206E0D9F800100A1DC9F80020096824
:104030001022CDE90050404602F004FEDAE7D9F83C
:10404000001000270A1DC9F800200E68C00705D11E
:1040500012E04046761C7F1CFEF70EF831780029EE
:10406000F7D104E0202140466D1EFEF705F8BD4261
:10407000C0D9002DF6D1BDE74EB13046FCF7A0F90E
:10408000074604E0202140466D1EFDF7F5FFBD42C6
:1040900006D9002DF6D103E04046761CFDF7ECFF73
:1040A00031780029F8D1A5E7D9F80000011DC9F839
:1040B0000010056830214046FDF7DEFF78214046BC
:1040C000FDF7DAFF08200021CDE9000103461022A8
:1040D0002946B0E7BDE8FC8770B541EA4201DDE959
:1040E00004564FF0A04441EA830141EA052104EB64
:1040F000800041EA0641C0F8001770BD70B541EA82
:104100004201DDE904564FF0A04441EA830141EA4F
:10411000052104EB800041EA0641C0F8001770BD9C
:104120001CB5002100910B4601220191FFF7E6FF2B
:104130001CBD1CB500220B46009211460192FFF7F0
:10414000DDFF1CBD1CB5002100910B460122019131
:104150001146FFF7D3FF1CBD2DE9F041294C16464F
:1041600088460746082804D3042020700020BDE8B4
:10417000F081B8F1000F06D0202E09D9062020705A
:104180000020BDE8F081032020700020BDE8F08110
:1041900000F0CAFB032804D3092020700020BDE8EA
:1041A000F081384600F0B2FB032804D30A202070C7
:1041B0000020BDE8F08100F0A1FB022804D2082015
:1041C00020700020BDE8F08100F004FD0546067077
:1041D0004078324640F0010068704146A81CFCF768
:1041E000CBF8F8B2294600F0ADFC00281CBF012036
:1041F000BDE8F0810448FCF709F90F202070002089
:10420000BDE8F08198000020F6000500014900207B
:1042100048607047CC0600200348C160026101215C
:1042200041700021817070477E0000200348C1600A
:104230000261012141708170704700007E00002002
:1042400010B500F06BFC18B1BDE8104000F004B8E8
:10425000BDE8104000F07ABA704700000C48816851
:1042600061B10C490968090C0CD10B49096811F0BE
:10427000FF0F07D11121017000207047022101704A
:104280000020704710B500F09FFA012010BD00001B
:10429000980000201C150040241500402DE9F04135
:1042A00016460F46044600F031FB1A4D60B187B147
:1042B000204600F08DFC0078316881420ED2062045
:1042C00028700020BDE8F0810B2028700020BDE898
:1042D000F081032028700020BDE8F081204600F026
:1042E00027FC040018BF14F102000BD0227801460D
:1042F00038463260FCF740F8204600F0F5FA01201D
:10430000BDE8F0810448FCF781F80F2028700020F8
:10431000BDE8F081980000201E01050010B50828B6
:1043200004D3054904200870002010BDC0B200F07D
:10433000B7FA012010BD000098000020094910B50F
:104340008A68527E1AB10C200870002010BD08281F
:1043500003D304200870002010BDC0B200F0AAFAF8
:10436000012010BD980000200148406870470000FF
:104370009800002001480078704700009800002055
:1043800000F0BEBA082804D3034904200870401F77
:10439000704700F0BBBA00009800002000F0B8BAE7
:1043A0000148406870470000CC06002000F0B6BA13
:1043B00010B5012400F0BAFAF02808BF052414D083
:1043C00008DC90B1042808BF00240ED0EC2808BFF8
:1043D00006240AE0F42808BF042406D0F82808BF01
:1043E000032402D0FC2808BF0224204610BD7047D9
:1043F0002DE9F047434C8046002543482570E56091
:10440000056045608560414800F096FA0127A0608C
:10441000002872D0407E0226626804F11001012853
:1044200008BF26701FD0102A1BD8100019D038489A
:10443000FBF7A2FF3648616800F0EAFB4FF0010984
:10444000B8F1000F12D0B8F1010F08BF022011D04F
:10445000B8F1020F1CBF052020704FF0000009D0FA
:104460000BE0072020704FF00009E9E7012000F081
:10447000FDFB01E000F0FAFB012000EA090804203E
:1044800000F0B2FBA1680020497E00291CBF267005
:10449000284602D100F0B6FB3846A16800EA0808B9
:1044A0000020497E00291CBF2670284602D100F05A
:1044B000EFFC3846A16800EA08080120497E00297F
:1044C0001CBF2670284602D100F0BCFB3846A1680C
:1044D00000EA08080020497E002918BF267002D192
:1044E00000F0E0FC3D4605EA0805012000F0C6F9B1
:1044F000002D1CBF0120BDE8F08727700020BDE81B
:10450000F087000098000020CC060020C133000096
:10451000A800002001488068407E70479800002075
:104520007047000010B50446082804D30C49042045
:104530000870002010BD00F0F7F903280EDA2046BD
:1045400000F0E4F9032809DA00F0D8F9C0F1060018
:10455000C0F10600022824BF012010BD002010BDBC
:1045600098000020094A10B593685B7E1BB10220B9
:104570001070002010BD082803D304201070002004
:1045800010BD00F02DFC012010BD0000980000209F
:10459000064910B58A68527E1AB1022008700020C0
:1045A00010BD00F0A5FB012010BD00009800002008
:1045B000064910B58A68527E1AB1022008700020A0
:1045C00010BD00F0D1FB012010BD000098000020BC
:1045D00010B5114CA268527E012A11D0102913D8AF
:1045E00091B1A8B10A466160014604F11000FBF7E1
:1045F000C3FE04F11000616800F00AFB012010BD49
:1046000002202070002010BD07202070002010BD67
:1046100003202070002010BD980000200B4910B529
:104620008B68024600205B7E1BB1022008700020D0
:1046300010BD3AB1012A08BF012003D00E20087036
:10464000002010BD00F0DEFA012010BD980000200F
:10465000064910B58A68527E1AB1022008700020FF
:1046600010BD00F0FDFA012010BD000098000020F0
:10467000064910B58A68527E1AB1022008700020DF
:1046800010BD00F0F9FB012010BD000098000020D3
:10469000064910B58A68527E1AB1022008700020BF
:1046A00010BD00F0EFFB012010BD000098000020BD
:1046B000124910B58B68024600205B7E1BB10220B8
:1046C0000870002010BD072A14D2DFE802F0040FA2
:1046D00006080A0C0E00042008E0FC2006E0F82082
:1046E00004E0F42002E0F02000E0EC2000F0D0FB39
:1046F000012010BD0E200870002010BD9800002081
:1047000010B5FFF707FF002806D0FFF799FD30BF6F
:10471000FFF700FF0028FBD110BD000038B50446AC
:10472000012181F31088202505E06A4606492046CC
:104730000095FFF7B3FD2046FFF724FE0028F4DCC8
:10474000002080F3108838BD9006002010B50120AD
:1047500080F310881748417E002927D0817829BB33
:1047600001248470FFF754FB01281FD101F024FFBE
:1047700000281CBF1048FBF749FE002264210F48A7
:10478000FBF746FE0E48007F70B90E48046000211A
:104790000007C0F80011046000BF00BF00BF00BFE9
:1047A000D0F800110029FBD0FFF76AFB002080F34E
:1047B000108810BD0C070020310609009565000027
:1047C000D80600201405004070B5234D687E0028EF
:1047D00018BF70BDFEF728FB204CA068002804BF5E
:1047E0001F48FBF713FE6068002804BF1D48FBF755
:1047F0000DFE01F0DBFE00281CBF1B48FBF706FE88
:10480000002001F0E7FE01246C76FFF701FB012890
:1048100018BF70BD01F0D0FE00281CBF1348FBF785
:10482000F5FD002264211248FBF7F2FD1148007FDC
:1048300070B91148046000210007C0F8001104603D
:1048400000BF00BF00BF00BFD0F800110029FBD09F
:10485000BDE87040FFF714BB0C07002040070020A4
:104860005D0209005E0209006502090031060900C7
:1048700095650000D80600201405004010B50446D8
:1048800004484068002804BF0348FBF7BFFD034805
:10489000047510BDB8000020FB03090028070020A4
:1048A00010B5012181F3108801F038FD002080F35C
:1048B000108810BD10B50446012181F31088084905
:1048C0000A78002A1FBF487E00280648FBF79EFD95
:1048D000204601F027FD002080F3108810BD000065
:1048E0000C070020F902090010B5012181F310889E
:1048F00001F032FD002080F3108810BD01F02EBDC4
:104900000148408B70470000D806002001F03ABDF6
:104910000148406970470000D806002001484068FF
:1049200070470000D806002001F036BD014890F81D
:1049300030007047D80600202DE9F04705460120D9
:1049400080F310886B4E4FF003090024707086F8D6
:104950000090B4707460B460B481F481346107462F
:104960007461347606F11C007476046044608460DF
:10497000C460046100F118080475C8F80840C8F85C
:104980000440FFF74BFA284601F052FB01F006FD08
:10499000002001F017FE06F13400FEF731FE564804
:1049A00080F80044554880F800445549202081F89B
:1049B0000004012087F310883178A6F1340501291D
:1049C00028D07070707E20B1FFF722FA012803D042
:1049D00020E002F091F91DE001F0EEFD00281CBF7F
:1049E0004848FBF713FD002264214748FBF710FD00
:1049F000287F68B9454807600007C0F80041076094
:104A000000BF00BF00BF00BFD0F800110029FBD0DD
:104A1000FFF736FA002080F31088FF202861042178
:104A200069773B4828623B48686285F82870022015
:104A300085F8290085F82A9085F82B10052185F83E
:104A40002C10062185F82D10072185F82E1008213D
:104A500085F82F1085F8304085F8310085F83270E0
:104A60001E2169614FF416716960E8603278022A8C
:104A700006D07168002904BFA968C8F8001001D0E9
:104A8000C8F800000F21A960022A05D07268002A28
:104A900008BFC8F8001001D0C8F8000000206883E3
:104AA0000120287668760020287701F0EFFC692045
:104AB0002860707801281CBF1748FBF7A7FC3770E7
:104AC000B4707460B460B481F4813461746134761C
:104AD0007476FEF7A9F94FF0E0204FF48061C0F83A
:104AE00080128902C0F8801284F310880148BDE862
:104AF000F08700000C0700200AE000E001E000E081
:104B000014E000E03106090095650000140500403E
:104B100004070A0D05080B0E3B0209000348407EFE
:104B200000280CBF01200020704700000C07002067
:104B300010B5012181F3108801F066FC002181F39A
:104B4000108810BD10B5012282F3108801F05FFCBF
:104B500000282ED01948817831BB407E20B3FFF762
:104B600057F9012820D101F027FD00281CBF144867
:104B7000FBF74CFC002264211248FBF749FC124869
:104B8000007F78B911480121016000220007C0F8B8
:104B90000021016000BF00BF00BF00BFD0F80011BE
:104BA0000029FBD0FFF76CF9002080F3108801206A
:104BB00010BD002080F3108810BD00000C070020FD
:104BC0003106090095650000D80600201405004054
:104BD00001F02EBC10B5012080F3108801F02BFCF1
:104BE000002181F3108810BD0449487704490A6800
:104BF00022F4E02242EA004008607047D806002014
:104C0000181500400149087670470000D8060020BA
:104C100070B50C00054604BF0748FBF7F7FB002DF5
:104C200004BF0648FBF7F2FB0548C0E90145BDE8B3
:104C300070400020FEF7F6BC480309004903090054
:104C4000400700200449002881F83200034914BFBE
:104C50000128086070470000D806002010150040A9
:104C60000149488370470000D806002010B5012193
:104C700081F3108819490A7882422BD04870487E07
:104C800020B1FFF7C5F8012803D023E002F034F883
:104C900020E001F091FC00281CBF1148FBF7B6FB97
:104CA000002264210F48FBF7B3FB0F48007F78B95F
:104CB0000E480121016000220007C0F800210160B8
:104CC00000BF00BF00BF00BFD0F800110029FBD01B
:104CD000FFF7D6F8002080F3108810BD0C070020E5
:104CE0003106090095650000D80600201405004033
:104CF0001B4930B400231A464FF0180C0862D1004B
:104D000020FA01F1C9B2002401F0010544EAC514FA
:104D1000C1F3400544EA8514C1F3800544EA451413
:104D2000C1F3C00544EA0514C1F3001544EAC50403
:104D3000C1F3401544EA8504C1F3801544EA4504F3
:104D400044EAD11154420CEBC404A1400B43511C62
:104D5000CAB2042AD3D30348036030BC70470000B2
:104D6000D80600201C1500401B4930B400231A4609
:104D70004FF0180C4862D10020FA01F1C9B20024AA
:104D800001F0010544EAC514C1F3400544EA851465
:104D9000C1F3800544EA4514C1F3C00544EA051493
:104DA000C1F3001544EAC504C1F3401544EA850483
:104DB000C1F3801544EA450444EAD11154420CEB96
:104DC000C404A1400B43511CCAB2042AD3D30348E4
:104DD000036030BC70470000D8060020201500405A
:104DE00008283ED2204AFF2302444FF0000C82F8EC
:104DF00028108207D20E03FA02F201F001034CEAF6
:104E0000C313C1F3400C43EA8C13C1F3800C43EA93
:104E10004C1CC1F3C0034CEA031CC1F300134CEA61
:104E2000C30CC1F340134CEA830CC1F380134CEA6A
:104E3000430343EAD1118307DB0ED2439940042890
:104E400007D20A4803681A400260026811430160F1
:104E50007047074803681A40026002681143016006
:104E600070470448FBF7D2BAD8060020241500404A
:104E700028150040380309000149486170470000C7
:104E8000D80600200149486070470000D80600207D
:104E9000024981F83000024908607047D8060020B6
:104EA0000C1500400149087770470000D806002023
:104EB00070B51148114C4068407D28B1012000F0C8
:104EC000D3FCA089401CA0810D49002630460E600D
:104ED0000C494A680968551A01F07CFB6069A842D0
:104EE00024BF0948FBF792FA60690122291A074892
:104EF000FBF78EFA666170BDB80000200C07002039
:104F000014F50140D80600205206090095650000FE
:104F10002DE9F04FF74CDFF8E083F84F606983B07C
:104F200004F1340A4FF001090025A4F1340610B948
:104F3000FEF7C6FFD0B1606800281CBF401E60604D
:104F40002078022804D06168002908BFB16800D029
:104F5000F168CAF80010A178002900F0FC81FEF782
:104F600019FB03B0BDE8F04FFDF7AAB9207801287E
:104F700002D0022806D00CE000F06CFC002840F0C3
:104F8000268206E098F80000042818BF032800F0E5
:104F90001E82FEF7FFFA606800281CBF401E60609A
:104FA0002078022804D06068002808BFB06800D0CC
:104FB000F068CAF80000A078F0B1FDF781F900BFF1
:104FC00001F02CF80228C0F0C0814FF0000C032241
:104FD0008DF800208DF801C0ADF808C08DF80250A2
:104FE000CDF804C0ADF80AC08DF80350684600F053
:104FF000D7FF03B0BDE8F08F01F07EFE88B100203E
:10500000766801F0E7FA6069B04224BFBC48FBF75C
:10501000FDF960690122311ABA48FBF7F9F96561B7
:10502000CEE72078002800F0418101281AD002281C
:1050300000F02081B448FBF7E9F9707E0128BFD168
:1050400020780228BCD061680029B9D14FF0804790
:10505000002800F06B81012800F03481AB48FBF799
:10506000D5F9ADE700F0C4F901F090F9DFF8A0A29E
:105070000AF1040B28B3708B00287DD0A1898142EE
:105080007AD30121002001F0DFF84FF0010801F090
:105090006DF90746B4F80CA0B4F80EB001F06CF945
:1050A0008DF800808DF80100ADF808A08DF8025051
:1050B0000197ADF80AB08DF80350684600F070FF14
:1050C000A9E000F0ABFF02287BD32078022801D0B2
:1050D000606818B1FEF78EFA80B39CE02069FEF795
:1050E000A1FA0020FEF7B2FA01F0F8F9002868D022
:1050F000A581E58101F040F98649086001F03CF99D
:1051000009FA00F18448026822F0FF0211430160AD
:1051100001F02CF98149086001F022F97F494860CB
:105120007F48C860FEF74CFA386001F02FF901287B
:1051300079D001F02BF9022860D05CE0FFE7307EE7
:1051400050B301F0CBF9E0B3A581E58101F014F98A
:105150007049086001F010F909FA00F16E48026820
:1051600022F0FF021143016001F000F96B49086071
:1051700001F0F6F8694900E056E048606848C86008
:10518000FEF71EFA386001F001F9012868D001F03D
:10519000FDF8022862D02EE0FEF726FA2169884247
:1051A00039D101F09BF960B1A581E58101F0E4F806
:1051B0005849086001F0E0F809FA00F15648026821
:1051C00000E028E022F0FF021143016001F0CEF878
:1051D0005249086001F0C4F8504948605048C8601E
:1051E000FEF7EEF9386001F0D1F8012838D001F06F
:1051F000CDF8022832D04B48FBF708F92EE000BF6B
:1052000000F0CCFAFEF700FECAF80000D8F804005F
:105210004068CBF800000120376801F0DBF96069D5
:10522000B8421FD349E01BE0FEF74AFE00281CBF2E
:105230003D48FBF7EBF8FEF7C3F93968884202D026
:10524000E089401CE081FEF7BBF9386001F09EF870
:10525000012805D001F09AF80228CCD10020CFE730
:105260000120CDE760690122391A2648FBF7D0F802
:105270006561E2E64FF0000AFEF7A2F9396888425C
:1052800004D0FEF79DF938604FF0010A98F800103D
:10529000AAF10100084208BFFBF736FE002077683C
:1052A00001F098F96069B842DCD306E00020776825
:1052B00001F090F96069B842D4D31148FBF7A6F821
:1052C000D0E700BF01F062F800287FF479AE01F06A
:1052D0005BF900287FF474AEFEF79AFD01283FF4D5
:1052E0006FAEFEF7D9FD307F18B900BFC7F8049044
:1052F00026E025E00C070020B8000020081500403B
:1053000052060900956500005C0409007604090056
:1053100010F501402C1500403015004028070020F2
:10532000AD200000230609000E050900FEF770FD00
:1053300001283FF445AEFEF7AFFD307F0028D5D001
:10534000002001F047F965603AE603B02548BDE862
:10535000F04FFBF75BB8022809D0FEF71BF90020DD
:10536000766801F037F96069B04223D225E098F8F9
:105370000000042818BF032829D0FEF70BF94FF0CE
:105380000009FEF71DF93968884204D0FEF718F9C4
:1053900038604FF0010998F80010A9F101000842A7
:1053A00008BFFBF7B1FD0020766801F013F96069D2
:1053B000B04202D30C48FBF729F860690122311A88
:1053C0000A48FBF725F8656103B0BDE8F08F706807
:1053D0004108616103B00122BDE8F04F0348FBF7CB
:1053E00017B80000900409005206090095650000F6
:1053F00030B44FF0E02401204FF0020C0021C4F83B
:1054000080C1C4F880C2714A851EC2F80853C2F830
:105410000012C2F81011106190616D4B18780128CC
:1054200008BF06205AD0022816BF032802200120F8
:105430007ED0401E00BF00BF00BF00BF00BF00BF46
:1054400000BF00BF00BF00BF00BF00BF00BF00BF64
:1054500000BF00BF00BF00BF00BF00BF00BF00BF54
:1054600000BF00BF00BF00BF00BF00BF00BF00BF44
:1054700000BF00BF00BF00BF00BF00BF00BF00BF34
:1054800000BF00BF00BF00BF00BF00BF00BF00BF24
:1054900000BF00BF00BF00BF00BF00BF00BF00BF14
:1054A00000BF00BFC5D100BFC2F810111970C2F80B
:1054B0000012C2F80853C2F80C1103205870C4F847
:1054C00080C2C2F80011C2F81011C2F8041159606C
:1054D00019755975C4F800C130BC7047401E00BF33
:1054E00000BF00BF00BF00BF00BF00BF00BF00BFC4
:1054F00000BF00BF00BF00BF00BF00BF00BF00BFB4
:1055000000BF00BF00BF00BF00BF00BF00BF00BFA3
:1055100000BF00BF00BF00BF00BF00BF00BF00BF93
:1055200000BF00BF00BF00BF00BF00BF00BF00E062
:1055300011E000BF00BF00BF00BF00BF00BF00BF41
:1055400000BF00BF00BF00BF00BF00BF00BF00BF63
:1055500000BFC3D1A8E7401E00BF00BF00BF00BF0F
:1055600000BF00BF00BF00BF00BF00BF00BF00BF43
:1055700000BF00BF00BF00BF00BF00BF00BF00BF33
:1055800000BF00BF00BF00BF00BF00BF00BF00BF23
:1055900000BF00BF00BF00BF00BF00BF00BF00BF13
:1055A00000BF00BF00BF00BF00BF00BF00BF00BF03
:1055B00000BF00BF00BF00BF00BF00BF00BF00BFF3
:1055C00000BF00BF00BF00BFC5D16DE700100040A5
:1055D0004C0700202DE9F0474A48022200250369C4
:1055E000494C4FF001084FF0E027012B0AD0474EFD
:1055F000022B31681CD0032B67D0BDE8F04744482C
:10560000FAF704BFC4F80C51C4F80051C4F81051A3
:10561000C4F80851C4F80451C7F880220820C4F81F
:105620000403C4F808830720C4F80002BDE8F0872B
:105630004FF0040980F8009083695B1C8361C7F810
:105640008022C4F80C51C4F80051C4F81051C4F8B9
:105650000451C4F82851097D89B12E490968817522
:105660002D48006810F0040F04BF2C48FAF7CEFE56
:10567000C4F81C51C4F818802948C0F80090D4F828
:10568000000100281CBF2748FAF7C0FED4F80C011F
:1056900000281CBF2448FAF7B9FED7F8000210F022
:1056A000020F1CBF2148FAF7B1FE3068C06800281D
:1056B00018BF80473068417D002908BFBDE8F087EA
:1056C00000681B490860BDE8F087C4F80C51C4F8B5
:1056D0001051C4F80051C4F80451C4F82851C4F85A
:1056E000005205704FF0FF32C4F8082303224270C5
:1056F000456005750869002808BFBDE8F087BDE86A
:10570000F04700474C07002000100040D400002064
:105710003D030A004815004000F50140EC020A0074
:1057200008F50140F3020A00F4020A00F5020A003B
:105730000415004070B5134902254FF0E0260860BB
:105740000024C6F8805111490F480860091F10480D
:10575000086006F5C076FFF74BFE0E480321047083
:105760004170446004610475447584750A48016899
:1057700021F0010141F08071016046F8805C05482C
:1057800070BD0000D40000201410004024F501403A
:10579000041100404C070020741700402DE9F04729
:1057A00006462448244C0027DFF8908000EB0615BD
:1057B0006775781EC8F808034FF0E02102204FF00B
:1057C000010AC1F88002DFF878906670032ED9F8DC
:1057D00000000268A2604068C4E90307A761296865
:1057E000616019D2297A41F00101C8F80012EB7A00
:1057F000144933B108600868002808BF124806D071
:1058000007E00A600868002808BF104801D1FAF7CD
:10581000FDFD687AC8F80403D9F80000007D28B1BE
:10582000022E03D10A49A7750420086084F815A048
:10583000BDE8F087806E00004C070020001000409B
:10584000D4000020041500402A010A0025010A00A6
:1058500004F501400348D0F80401012818BF0020D6
:1058600070470000001000402DE9F041214C074630
:105870002148657800EB0516607D01281CBF1F4894
:10588000FAF7C4FD207D00281CBF1D48FAF7BEFDB5
:105890000120002120756175032D09D2002F04BF5E
:1058A00031680860022D12BF012DB07A207002E02D
:1058B0001448FAF7ABFD14480068007D002808BFC3
:1058C000BDE8F081022D18BFBDE8F0810F480068E7
:1058D00010F0040F04BF0E48FAF798FD0D48006859
:1058E000002818BFBDE8F0810B48BDE8F041FAF789
:1058F0008DBD00004C070020806E000042010A00B0
:1059000043010A005C010A00D400002004F50140B4
:1059100062010A000415004063010A0070B5184ACC
:105920000024D2F81034194609E00D7AA54205D1B9
:10593000641C0A2CF7DB4FF0FF341FE04968002994
:10594000F3D1611C1AD00472D2F8101431B1496835
:105950004160D2F81014486000250BE00021C2F825
:1059600010044160F8E700231A462946204600F05B
:1059700019FA6D1C00F00CFAA842F4D8204670BD4C
:1059800070020020F0B595B01C4615460F4608463B
:105990001A9E00F0DFFA182109A8FAF706FD0E9604
:1059A000CDE909540023082203A9384600F0ECFA97
:1059B000059806900498ADF81C0000208DF8200092
:1059C0000398082600F00300012802D002281DD009
:1059D0003CE003983346850AC0F3C2008DF81E00F0
:1059E00003980FA9C0F380008DF81F000398C0F33F
:1059F0008314A200384600F0C7FA09A8009006AB4D
:105A000022460FA9284600F001FA1FE00398840DF2
:105A1000C0F3C2008DF81E000398C0F380008DF81B
:105A20001F00082C01D2254600E0082533462A46EF
:105A30000FA9384600F0A8FA2E44641B09AB06AA49
:105A400029460FA800F020F9002CEAD1384600F0D2
:105A50008AFA15B0F0BD7047012000F0C3BF000006
:105A600010B50448FDF744FFBDE81040002000F0E9
:105A7000B9BF00001C00002008B5034A0092402373
:105A8000024AFFF77FFF08BDDD68000070010020BB
:105A9000084A012902EBC00005D0022903D00329DE
:105AA00003D0042903D00020704700797047407963
:105AB00070470000D46F000010B5FFF7CDFF042140
:105AC0000348FFF72BFF02490120487210BD000078
:105AD000240000202DE9FE4FFCF7DEFA10B1002073
:105AE000BDE8FE8F63480021C0F81414D0E90146D8
:105AF00004EA060100EB81014FF000090AE000BF53
:105B0000C1F3891202EB9151641C0C4404EA0601B2
:105B100000EB8101C9688A07F2D000216A468046FD
:105B200004EA060008EB8000641CC06842F821000B
:105B3000491C0229F4D3009800F0030002280098C1
:105B40001CD0C0F38311062900D3062161F389100C
:105B50000090C0F38310801C8100474800F0B1F929
:105B6000070075D000F0F6F94B4608226946384622
:105B700000F010FA09F10809002557E0810D5022C4
:105B80008A46B2EB905F00D850210D4665F39F50D6
:105B900000900831384800F094F9070058D000F020
:105BA000D9F94B4608226946384600F0F3F904EA71
:105BB0000601701A8000001D09F1080B854220D9EA
:105BC0002C4E0C3630B1C2B208EB8101281A914636
:105BD0000C3104E03146EAB2002691463046C5B2A7
:105BE0005B46384600F0D6F90BEB090326B12A468E
:105BF0003146384600F0CEF90AF1030004EB900478
:105C00001AE008EB81015B462A4638460C31F1E781
:105C100004EA060008EB80014B46042238460C31AA
:105C2000641C00F0B7F909F104096D1C0098C0F379
:105C30008310A842ECD85FB11048FDF751FCD8F8AA
:105C40001054464605B140B1384600F08CF97460F6
:105C5000FCF722FA80F0010042E7687A012804D1BB
:105C60002A6828463946126890476D68002DF4D19D
:105C7000EAE7000070020020586E00008406002051
:105C800000231A4600F03EBE2DE9F0470E4680463E
:105C90001C46924608293ED894F80C9000202073A8
:105CA0001946104600F01AFD0025B54206D218F834
:105CB00005201AA12046FEF709F903E019A12046A4
:105CC000FEF704F96D1C082DEFD317A12046FEF74F
:105CD000FDF80025B54210D218F80570FAF748FB18
:105CE0000068C05D10F03E0F01D03A4600E02E2261
:105CF0000EA12046FEF7EAF803E00DA12046FEF7CC
:105D0000E5F86D1C082DE5D301222146504600F030
:105D1000C7FC84F80C90BDE8F087000020253032E5
:105D200078000000202020007C0000002563000097
:105D300020000000114810B5FF21816000210160A2
:105D40004160C0F81814C0F8141480F81C140C48F2
:105D500000F007F900280FD10A480B490B4B401AF5
:105D6000C108002005E000BF00EB400223F822003C
:105D7000401C8842F8D3002010BD000070020020B3
:105D8000586E0000EC6F0000D46F0000F00000209F
:105D900002480349401AC00870470000EC6F000039
:105DA000D46F00001FB51146002443B901A8FDF7C8
:105DB00093FA20B90348019900EBC100847904B03B
:105DC000204610BDD46F000013B56846FDF784FA75
:105DD00008B100201CBD0248009950F831001CBDDC
:105DE000D46F000070B508480125D0F8104480F841
:105DF0001C5405E06572216820464968884764683C
:105E0000002CF7D170BD0000700200202DE9FF4783
:105E100081460C9D00200C462F7B28739846164621
:105E20002946184600F05AFC072E42D2DFE806F059
:105E300004090F161F2A360049462846FEF746F881
:105E400037E0494628462268FEF740F831E0D4E9B9
:105E5000002349462846FEF739F82AE0A06800905A
:105E6000D4E9002349462846FEF730F821E0D4E97A
:105E70000201CDE90001D4E9002349462846FEF796
:105E800025F816E004F1080007C88DE80700D4E9FA
:105E9000002349462846FEF719F80AE004F10800F5
:105EA0000FC88DE80F00D4E9002349462846FEF7C5
:105EB0000DF800222946404600F0F2FB2F73BDE8A2
:105EC000FF872DE9F041058A80462D1F4819C01C27
:105ED000B0FBF5F0C6B24046FDF70FFB041E19D02B
:105EE0000020207101206071E58000272546761E84
:105EF000C4F800800BE04046FDF7FFFA60B161791D
:105F0000491C6171286005467F1CC0F80080B742BB
:105F1000F1D32046BDE8F081204600F002F80020D1
:105F2000F8E72DE9F041457901466B1E002201E0BA
:105F30000968521C9A42FBD30F680146002605E00F
:105F400038460C68FDF7F8FA2146761CAE42F7D3C6
:105F5000BDE8F08108B501216A46001DFAF78DF908
:105F600008BDFDF7FEBA38B50446001D01216A469A
:105F7000FAF790F9009810F0FF0F04D12046BDE821
:105F80003840FFF7CEBF38BD38B501240094FDF787
:105F900067F938BD38B500240094FDF761F938BDC4
:105FA00070B51B4C05462068002804BF1948FAF755
:105FB0002DFAD4F884000A2824BF1748FAF726FAE5
:105FC000E06F00EB400004EB8001287808716878EE
:105FD0004871A8788871E878C871686888602889ED
:105FE00088816889C881D4F88400401CC4F8840082
:105FF000E06F401CE067E16F00200A2928BFE067DE
:106000004FF480104FF0E021C1F8000270BD000095
:106010007007002034000B0035000B000348D0F857
:106020008400C0F10A00C0B2704700007007002071
:1060300010B5040004BF0948FAF7E8F908490C60F4
:106040000020C867C1F88000C1F884004FF0E0214B
:106050004FF48010C1F8000110BD000029000B00B2
:106060007007002010B500F003029043D200FF2417
:10607000944003689140A343CA18074B012119605B
:1060800006490C68002CFCD0026008680028FCD08F
:106090000020186010BD000004E5014000E401404C
:1060A000F0B515460E460746002404E0315D381968
:1060B000FFF7D8FF641CAC42F8D3F0BD2DE9FF4FC9
:1060C000584D83B00327DDE910B9E86F4FF00008A1
:1060D0000C464646002804BF5348FAF797F928783B
:1060E00003281CBF5148FAF791F9E86F417811F085
:1060F000010F69D195F89200002818BF4FF0000AEF
:1061000062D00398002808BF042767D0059A30465C
:1061100062F31700C1F3410161F31F6005EB8401D5
:10612000896BCBF80060C9F800600190884257D0B5
:10613000E86F002804BF3E48FAF768F904F1080147
:10614000E86F0091FDF7A4FD00281ABF4FF0010889
:10615000EE674FF000080AEA080AB8F1000F3FD0D6
:10616000009805EB800101988861069918EA010FF3
:1061700035D03048005D80B32046FDF71BFD002878
:1061800004BF2D48FAF742F92046FDF755FD00906F
:1061900068B195F89000274620B12869B84208BF39
:1061A00000F04CF9E81980F880602248C655009844
:1061B000CBF80000BBF1000F08BF204807D0002833
:1061C00008BF1F4803D004E04FF0010A99E7FAF72F
:1061D0001DF918480227065502E000E017E00127E4
:1061E000BAF1000F08BFC9F800600DD02046FDF7D6
:1061F000ABFDC9F80000002807BF1248C9F800002D
:1062000001210C4818BF0155B8F1000F03D1E86F08
:10621000FDF782FCEE672E7000F010F907B03846EB
:10622000BDE8F08FF80700205B010C005C010C005A
:106230006F020C00D800002091010C009A010C00A4
:1062400096010C00500800202DE9F0412B4C05462A
:106250000F46207801281EBF02282948FAF7D6F8F1
:106260000026002D08BF4FF0040826D02078012812
:106270001CBF2448FAF7CAF8E068002804BF224887
:10628000FAF7C4F8E0680078002808BF4FF000086B
:1062900013D0E06F6568002804BF1C48FAF7B6F811
:1062A00005F10801E06FFDF7F3FC00280ABF18486C
:1062B000E667FAF7ABF84FF00208C7B16568284601
:1062C000FDF7BAFC07000CD094F8900020B12069CB
:1062D000A84208BF00F0B2F8601980F880600D484D
:1062E0004655A068B8421CBF0B48FAF78FF82670D5
:1062F00000F0A4F84046BDE8F0810000F807002057
:10630000FC000C0002010C0003010C006F020C00E9
:106310000E010C00D80000201E010C000830FDF713
:1063200055BB000070B50A4D044695F8900020B1A9
:106330002969A14208BF00F081F800202919054A07
:1063400081F8800010552046BDE87040FDF73EBB47
:10635000F8070020D8000020FDF7DEBBFDF724BCC5
:106360000148C06870470000F807002001488068B5
:1063700070470000F807002001484068704700009F
:10638000F80700200830FDF715BC00000148007830
:1063900070470000F8070020FDF70CBC70B5FDF752
:1063A00019FC0021164BDFF85CC00846024603EBDF
:1063B000810460F31F62A26101F10802044603EB4D
:1063C000820560F31F64AC615C181A4484F8800095
:1063D00082F880000CF80100491C0829E6D31870E7
:1063E00058609860D8601861586183F8900083F80D
:1063F000910083F85800D867012083F8920070BD9F
:10640000F8070020D80000200830FDF715BC70B553
:106410000E4604460025FDF7C7FB38B1214630463D
:10642000FDF736FC10B100F009F80125284670BDD3
:106430000830FDF789BCFDF7A5BC00002DE9F0414F
:10644000114C2078002806BF94F890000028BDE881
:10645000F0810825012600276069FDF7ABFB18B124
:1064600084F89060606920616069401C6061082860
:1064700008BF676194F89000002818BFBDE8F0815C
:106480006D1EE9D1BDE8F081F8070020014981F8CF
:1064900092007047F807002070B50E4D287800284C
:1064A0001CBF0D48F9F7B2FFE86F10B9FDF76AFCA1
:1064B000E86704000CD0FF2020706078FF2240F0D5
:1064C000060060702021A01CF9F768FF03202870E7
:1064D000204670BDF80700203B010C0070B5264C2B
:1064E000207800281CBF2548F9F790FF94F8900009
:1064F000002538B320696060FDF726FCA060002805
:1065000004BF1F48F9F782FFA068407810F0010F20
:1065100008D194F8920000281CBF0220E56001D049
:10652000207013E060680830FDF744FB032809D2AF
:10653000E06F10B9FDF726FCE067E060002818BFA7
:106540000120EDD12078002808BF70BDA068002888
:1065500004BF0C48F9F75AFF2069606004EB800122
:10656000C87E401CC876A1684A7860F342024A702F
:1065700084F89050012070BDF8070020C3000C0083
:10658000C9000C00E7000C00014890F8900070472B
:10659000F807002004480178817041780170001DDF
:1065A00050F8210000470000E0000020014800787A
:1065B00070470000E000002001484078704700006C
:1065C000E0000020024988704870087070470000A1
:1065D000E000002010B50446022824BF0248F9F765
:1065E00015FF0248447010BD2A000D00E000002095
:1065F0004058002800D00120704708B500224250C2
:106600004058009008BDD0F80403084000D0012095
:1066100070474058002800D00120704708B500227C
:1066200042504058009008BD70B5034600791B49A0
:1066300001EB40101968027F4FF0FF30002AD1F8BB
:106640000C25D1F81465D1F80855D1F8104504D0BF
:10665000C1F80C05C1F8140503E0C1F81405C1F830
:106660000C051968C1F80805C1F81005501C02D0C6
:106670001046FDF755FD701C02D03046FDF750FD69
:10668000601C02D02046FDF74BFD681C04D0284654
:10669000BDE87040FDF744BD70BD00002001002042
:1066A00010B50C46C17949B11AB109A12046FDF7D0
:1066B0000DFC2046BDE81040FDF715BC007A00280F
:1066C000F3D0044804A102682046FDF7FFFBECE785
:1066D0000D0A0000540000202573000070B5044628
:1066E000C0790D4600281CD1207A50B1A179A0882C
:1066F000FFF7CEF90B4951F820200BA12846FDF7F2
:10670000E5FBA0880021FFF75FFB03460549A07960
:10671000143951F820202846BDE8704003A1FDF748
:10672000D5BB70BD54000020257300003C25733E8E
:106730002025733A200000007CB56846FCF721FB59
:10674000294C20786178084302D1FBF71FFE607066
:10675000607821784FF0010688434FF000050BD098
:10676000FBF7C6FF012831D0022801D0032801D150
:10677000257065700028F3D02078A178884305D073
:1067800008216846FBF7D0FE18B3A6702078A178E0
:10679000084228D008216846FBF7C6FE134A0321A9
:1067A0000028108801EB004015D011A1FFF768FA0E
:1067B0000020FAF715FC0028FAD16846FCF7D8FA51
:1067C00008216846FBF7B0FE40B108E0267066700D
:1067D000D2E72570DAE70BA1FFF752FAA570FFF7B1
:1067E00079F90028FBD17CBD0000002008010020C1
:1067F0004B6579626F6172642073656E74204F4BD4
:10680000000000004B6579626F6172642073656EF1
:1068100074204641494C45440000000008B5FCF78F
:1068200077FD00281ED06846FCF7B0FD002819D07F
:106830000220FDF777FE0028FAD0042269460220E4
:10684000FDF78AFC084903220028088802EB004073
:1068500001D006A100E009A1FFF712FAFFF73AF90B
:106860000028FBD108BD0000080100204D6F7573A2
:10687000652073656E74204F4B0000004D6F75737B
:10688000652073656E74204641494C454400000004
:1068900070B50546C87D0C4600284FF48471284623
:1068A0000AD0FFF7AAFED5F81805627EE168885481
:1068B000607E401C607670BDFFF79FFED5F818051E
:1068C00070BD1FB501238DF800308DF808100192BE
:1068D000D0E90012684690471FBD000010B5084C73
:1068E0000020D2B22070201DFCF770FF08B1FAF72B
:1068F000C9F96078002802D021780029FAD010BDAB
:10690000180000202DE9F843DFF88C8004469146FA
:1069100098F81C04D8F808500F461E46002838D1B5
:1069200069461846FBF77EFB002832D00098C44623
:1069300000EA050108EB810252F80C1F21F0030167
:10694000491C401C1160E30602D541F0040101E03E
:1069500021F0040164F3C50166F3891167F39F21F7
:10696000116000EA0501220C0CEB8101401CCA6099
:10697000009000200BE000BF009959F8203001EA98
:1069800005020CEB8202491CD360401C0091B0420E
:10699000F2D3BDE8F88300007002002070B50C4609
:1069A00005464FF48E71FFF728FEA18AA068415C6E
:1069B000A08A401CA082C5F81C1570BD1FB500221E
:1069C0008DF800208DF80810816801918275D0E95A
:1069D0000012684690471FBD0149012008707047AA
:1069E0001800002010B588B0044620220E496846E1
:1069F000F9F7C2FC06200090C01F0190029003909E
:106A00004FF0EB7006900CB1084A00E00022694696
:106A10000748FCF7A7FE08B1FAF734F90448001F4D
:106A2000447008B010BD0000386E0000D969000045
:106A30001C0000202DE9FF470C4605464FF400716D
:106A4000FFF7E1FD01274FF40178002618B34FF45A
:106A5000927949462846FFF7CBFDE0B149462846E2
:106A6000FFF7CBFDC5F80883A07E00B96F60022058
:106A70008DF80000D5F88004C5F880040390E07D0F
:106A80008DF80800E0680190E6752676D4E90012DA
:106A90006846904727E004212846FFF7B4FD10B36D
