:020000040000FA
:10000000D82A00201D04000025040000B1020000D1
:10001000290400002B0400002D0400000000000053
:100020000000000000000000000000002F0400009D
:10003000310400000000000033040000350400001B
:100040003B08000037040000790A00003704000074
:100050003704000037040000A10500003704000049
:1000600037040000370400003704000037040000A4
:100070003704000037040000370400003704000094
:10008000370400004908000037040000370400006E
:100090006D0800003704000037040000370400003A
:1000A0003704000037040000370400003704000064
:1000B00037040000370400000000000000000000CA
:1000C0003704000037040000370400003704000044
:1000D000370400003704000037040000950A0000D0
:1000E000370400003704000037040000000000005F
:1000F000000000003704000000000000370400008A
:1001000000000000000000000000000000000000EF
:1001100000000000000000000000000000000000DF
:1001200000000000000000000000000000000000CF
:1001300000000000000000000000000000000000BF
:1001400000000000000000000000000000000000AF
:10015000000000000000000000000000000000009F
:10016000000000000000000000000000000000008F
:10017000000000000000000000000000000000007F
:10018000000000000000000000000000000000006F
:10019000000000000000000000000000000000005F
:1001A000000000000000000000000000000000004F
:1001B000000000000000000000000000000000003F
:1001C000000000000000000000000000000000002F
:1001D000000000000000000000000000000000001F
:1001E000000000000000000000000000000000000F
:1001F00000000000000000000000000000000000FF
:10020000DFF80CD000F09CF9004800470122000004
:10021000D82A002030B4044654E8000F0D4644E8C4
:100220000053002BF8D1156030BC704730B4044641
:1002300054E8000F40EA010544E80053002BF7D1D1
:10024000156030BC704730B4044654E8000F00EA33
:10025000010544E80053002BF7D1156030BC70470E
:1002600030B4044654E8000F80EA010544E8005326
:10027000002BF7D1156030BC704730B4044654E809
:10028000000F00EB010544E80053002BF7D1156087
:1002900030BC704730B4044654E8000FA0EB0105B1
:1002A00044E80053002BF7D1156030BC70470000C4
:1002B000094B1EF0040F1CBFEFF309801847EFF342
:1002C00008800649064A884201D8904202D88D46E5
:1002D0004FF000001847000065070000D82A0020F2
:1002E000D80A002030B4044654E8000F0D4644E814
:1002F0000053002BF8D1156030BC704730B4044671
:1003000054E8000F40EA010544E80053002BF7D100
:10031000156030BC704730B4044654E8000F00EA62
:10032000010544E80053002BF7D1156030BC70473D
:1003300030B4044654E8000F80EA010544E8005355
:10034000002BF7D1156030BC704730B4044654E838
:10035000000F00EB010544E80053002BF7D11560B6
:1003600030BC704730B4044654E8000FA0EB0105E0
:1003700044E80053002BF7D1156030BC70470000F3
:1003800030B4044654E8000F0D4644E80053002BF7
:10039000F8D1156030BC704730B4044654E8000F03
:1003A00040EA010544E80053002BF7D1156030BC4A
:1003B000704730B4044654E8000F00EA010544E8F1
:1003C0000053002BF7D1156030BC704730B40446A1
:1003D00054E8000F80EA010544E80053002BF7D1F0
:1003E000156030BC704730B4044654E8000F00EB91
:1003F000010544E80053002BF7D1156030BC70476D
:1004000030B4044654E8000FA0EB010544E8005363
:10041000002BF7D1156030BC7047000006488047BC
:1004200006480047FEE7FEE7FEE7FEE7FEE7FEE7D9
:10043000FEE7FEE7FEE7FEE77108000001020000AC
:100440002DE9F05F0546002092469B468846064609
:10045000814640241BE0284641464746224600F09C
:100460005FF853465A46C01A914110D311461846B8
:10047000224600F046F82D1A67EB01084F46224647
:100480000120002100F03DF817EB00094E41201E2D
:10049000A4F10104DFDC484631462A464346BDE864
:1004A000F09F0000004870471465000040EA010317
:1004B0009B0703D009E008C9121F08C0042AFAD21A
:1004C00003E011F8013B00F8013B521EF9D27047DE
:1004D000D2B201E000F8012B491EFBD27047002286
:1004E000F6E710B513460A4604461946FFF7F0FF33
:1004F000204610BD421C10F8011B0029FBD1801AB8
:100500007047202A04DB203A00FA02F100207047ED
:100510009140C2F1200320FA03F319439040704741
:10052000202A04DB203A21FA02F00021704721FA48
:1005300002F3D040C2F120029140084319467047AF
:10054000064C074D06E0E06840F0010394E8070020
:1005500098471034AC42F6D3FFF756FEBC67000054
:10056000DC67000030B58C1810F8012B12F00F0377
:1005700001D110F8013B120906D110F8012B03E05C
:1005800010F8015B01F8015B5B1EF9D101E001F895
:10059000013B521EFBD1A142E6D3002030BD00003A
:1005A0002DE9F04F00268FB0DFF8B081B1460296FA
:1005B0004FF48075012437460396284603F0D6FF92
:1005C00038B1D8F80403204203D0284603F0C4FF12
:1005D00026432D1D64007F1CADB2082FEDD34FF4D0
:1005E000BE74204603F0C2FF48B1204603F0B4FFBA
:1005F00046F0004602AA0221002003F073FF584C87
:1006000016F0FF0F15D00127002537420DD008EB5B
:100610008501D1F81005D1F81015C0F3052054F864
:100620002520C1F3014102B190477F006D1C082DC8
:10063000EBD3002E7DDA0020CDF82890411E0DF17D
:10064000080B08AACDF82C9042F82010401C9146C7
:100650000228F9D300252E46A01910F8607F90F9E2
:10066000000027F0C008401C49D008A9404602F00D
:100670005BF888B34FEA971A404601F045F854F802
:1006800020701FB1BAF1030F03D00FE0BAF1030FCE
:1006900035D10AA84FEAD80208F00703815C4FF071
:1006A000010C0CFA03FC41EA0C01815406A8CDF8B8
:1006B000188003F087FE069900EB8100D0F8000750
:1006C00002A9C0F301400690404602F02DF8002830
:1006D000069802D0022802D011E003280FD1BAF107
:1006E000030F08D10698022832D00221404603F0B9
:1006F0001CFE6D1CEDB217B151464046B847761C42
:10070000042EA9D3002D20D004AA0221002003F03A
:10071000E9FE00205A4604A952F8206051F8203022
:10072000B34217D000200AAE4FEA090351F82070F7
:1007300000E00AE042F8207056F8207043F820707C
:10074000401C0228F2D3002D84D10FB0BDE8F08FF9
:100750000321CBE7401C0228DED3F6E7006000400F
:10076000AC010020044682690B480121008801EB9E
:1007700000400AA104F0C0F804F084F903F0E2FF9D
:100780000028FBD10948046009480068C00700D070
:1007900000BE204600F00EF8080100204861726497
:1007A0006661756C742050433A2578007000002013
:1007B000F0ED00E0BFF34F8F05480168054A01F4F2
:1007C000E06111430160BFF34F8F00BFFDE7000000
:1007D0000CED00E00400FA0500F01F020121914039
:1007E0004009800000F1E020C0F88012704700F05E
:1007F0001F02012191404009800000F1E020C0F873
:100800000011704700F01F02012191404009800053
:1008100000F1E020C0F8001270474907090E0028D7
:1008200006DA00F00F0000F1E02080F8141D704798
:1008300000F1E02080F80014704710B502F01EF9B6
:10084000BDE8104002F0D4BA07480021C0F84011BA
:10085000C0F84411C0F84811C0F84C11C0F800119C
:10086000C0F8041104F050BE0010014004F09EBD19
:1008700030B54FF080500022D0F830110123082904
:1008800002D1D0F8344114B1082909D00BE04FF05F
:100890008041C1F80C21C1F8102168490A6005E0C7
:1008A000D0F8344114B1082957D059E06449096897
:1008B000644C21606249091D0968241D216060495A
:1008C00008310968241D21605D490C310968241D27
:1008D00021605B4910310968241D21605849143199
:1008E0000968241D2160564918310968554C203487
:1008F000216053491C310968241D21605049203171
:100900000968241D21604E4924310968241D216095
:100910004B4928310968241D216049492C31096857
:10092000241D2160464930310968464C403421601D
:10093000434934310968241D21604149383109682F
:10094000241D21603E493C310968241D21603C4939
:1009500040310968241D216005E0D0F8344114B10C
:10096000082904D006E0394C3749216005E0D0F869
:10097000344114B1082904D006E0354CFB21216034
:1009800005E0D0F8344114B1082908D00AE090F805
:1009900058423048016864F30301016005E0D0F873
:1009A000344114B1082905D00EE02B494FF40070F2
:1009B000086002E0D0F8340130B928480168C9075E
:1009C00002D06FF0010101602548016841F4700117
:1009D0000160BFF34F8FBFF36F8F4FF01021D1F83D
:1009E0000002002803DBD1F80402002822DA1D4CA3
:1009F00023601D480368002BFCD01223C1F800328D
:100A00000568002DFCD0C1F8043201680029FCD033
:100A1000226001680029FCD0BFF34F8F10487C385A
:100A20000168124A01F4E06111430160BFF34F8F86
:100A300000BFFDE70F490E48086030BD3805004093
:100A40000404001020C50040488103008C5600407B
:100A500018F50040E40E00404096024000040040BB
:100A600088ED00E004E5014000E401400400FA05DF
:100A70000090D003D40000200448017F04480029DE
:100A8000024901D004F059BE04F0C8BD1402002090
:100A9000002000402DE9F05F5448D0F804530024B2
:100AA0002E464FF0010913E096FAA6F0B0FA80F74F
:100AB000B80000F58070804604F03CFA28B140464A
:100AC00004F040FA09FA07F0044309FA07F08643F4
:100AD000002EE9D102F006FF002869D0444AD07800
:100AE000F0BBA00264D5434940F2A978C1F8008068
:100AF000081D036813F0FF0C02D0036803EA0C0C16
:100B000040F2AA7AC1F800A0036813F0FF0301D0F5
:100B10000668334040F2AB7BC1F800B0066816F0BF
:100B2000FF0601D007683E4040F2AC770F600768CF
:100B300017EA0C0709D0D2F810C04CEA070CC2F82B
:100B400010C0C1F800800760076840F2AD770F6001
:100B500007681F4009D0136943EA0743136100E0A7
:100B600026E0C1F800A00760036840F2AE730B6096
:100B7000036833400BD0DE0701D044F40004DE06E6
:100B800001D544F00104C1F800B0036000681069A9
:100B900030F0011102D005F080710C4310F0011FFC
:100BA00006D0690504D520F0011044F4806410617A
:100BB000C4F3C05624F400044F46DFF83C8009E03B
:100BC00094FAA4F0B0FA80F558F82500804707FAA7
:100BD00005F08443002CF3D104F0BEFE002E03D0B8
:100BE000BDE8F05F00F0A6BFBDE8F09F00700240D6
:100BF00030000020007802409863000002E008C83E
:100C0000121F08C1002AFAD170477047002001E086
:100C100001C1121F002AFBD17047022000F068BA00
:100C200070B50A4D686818B909A1902000F018FA4B
:100C3000002406E06868012110F8340001F092FFFA
:100C4000641C28788442F5D3002070BD4400002045
:100C50002E2E5C2E2E5C2E2E5C2E2E5C2E2E5C2ECE
:100C60002E5C636F6D706F6E656E74735C6C696221
:100C70007261726965735C627574746F6E5C6170C9
:100C8000705F627574746F6E2E630000F8B5154660
:100C90000C460646052A01D20720F8BD02F066F888
:100CA00018B902F035F80028F7D1104900204E603D
:100CB0000C70C1E902500E4D08610DE006EBC40056
:100CC0006968009181788DF801100078094A6946B9
:100CD00001F0A8FF0028E0D1641EE4B2EED2BDE826
:100CE000F840054A0021024800F06CB8440000209A
:100CF00038640000191D0000ED17000070B50646AD
:100D00000D480D4601210088144601EB00400BA15F
:100D100003F0EEFD03F0B6FE03F014FD0028FBD156
:100D200008480068C00700D000BE22462946304669
:100D3000BDE8704000F014B82001002046617461E5
:100D40006C000000F0ED00E00EB5ADF80010CDE94C
:100D500001206A46002144F20100FFF7CFFF0EBDDB
:100D600008B501238DF800309DF80030144B186051
:100D700059609A606FF48041401807D001280FD164
:100D8000DA60D86800889861D86807E01A61186945
:100D90008068586118690088986118694068D8614E
:100DA000186858689868D868186958699869D8693F
:100DB00072B600BF9DF800000028FBD162B608BDE6
:100DC0008C040020074B9B7823B12AB120B1006826
:100DD000037C1BB1082070470720704741744261B3
:100DE00000207047AC04002070B504F037FA1048BA
:100DF00000240B21047044700E4D817014206C602F
:100E00002C706C70FFF7E8FC07211420FFF705FD3C
:100E10001420FFF7ECFC0848046007211120FFF7BD
:100E2000FCFC0548001F0068A860002070BD0000A1
:100E3000AC04002058000020081501402DE9F843BB
:100E4000DFF8709099F802305BB350B3052902D2F5
:100E50000720BDE8F88343691BB3437C012B22D0F4
:100E600000270446002588461646284600F036F836
:100E7000684605F0C5F9C0B1012101700E49446012
:100E80000968C0E90218C0E904769DF8000089F8F5
:100E90000100002000F050F81420FFF7B3FC2846B2
:100EA000D7E70820D5E70F46DBE70425002000F050
:100EB00043F8F4E7AC0400200415014006498978A2
:100EC00039B130B1416921B100210174022104F02E
:100ED000FBBA082070470000AC04002010B504F0F5
:100EE00075F9012803D004A11D2000F0B9F8BDE870
:100EF000104000F04FB800002E2E5C2E2E5C2E2EDF
:100F00005C2E2E5C2E2E5C2E2E5C636F6D706F6ED1
:100F1000656E74735C6C69627261726965735C752D
:100F200074696C5C6170705F7574696C5F706C6122
:100F300074666F726D2E630010B504F047F90128D6
:100F400003D004A12B2000F08BF8BDE8104000F086
:100F500029B800002E2E5C2E2E5C2E2E5C2E2E5CD0
:100F60002E2E5C2E2E5C636F6D706F6E656E7473CB
:100F70005C6C69627261726965735C7574696C5CE2
:100F80006170705F7574696C5F706C6174666F72AC
:100F90006D2E630072B602480168491C01607047FB
:100FA0006C00002003490868401E086000D162B64A
:100FB000704700006C00002070B5054608680C46BC
:100FC000411C04D003F071FA206803F0A4F96068B2
:100FD000411C02D0002103F095F928791F4901EB4B
:100FE00040102968007F0028A069C1F8240523D09B
:100FF000607D227D29681043C1F86C05D4E9001298
:101000002868C0F80C15C0F8142522E0A068411C1F
:1010100002D0002103F076F9E068411C04D003F00F
:1010200044FAE06803F077F9D4E902122868C0F8BE
:101030000825C0F8101570BD607D217D2A68084321
:10104000C2F86C05D4E900122868C0F81425C0F86D
:101050000C15207D0128D9D070BD0000140200209D
:101060001CB56A46ADF800000191002144F202006F
:10107000FFF744FE1CBD102802D31038C0B27047E1
:1010800040F080007047000038B50446042803D3C0
:101090000AA15D20FFF7E4FF1448005D0090684658
:1010A00003F05CF9D0F810050099C84010F0010079
:1010B00000D0012080F0010038BD00002E2E5C2EF3
:1010C0002E5C2E2E5C2E2E5C2E2E5C2E2E5C636FE4
:1010D0006D706F6E656E74735C626F617264735C69
:1010E000626F617264732E63000000002863000069
:1010F00038B50446042803D30BA13620FFF7B0FF10
:101100001548005D0090684603F028F9D0F80425E2
:10111000009B0121994021EA0203C0F808351140E3
:10112000C0F80C1538BD00002E2E5C2E2E5C2E2E25
:101130005C2E2E5C2E2E5C2E2E5C636F6D706F6E9F
:10114000656E74735C626F617264735C626F61720E
:1011500064732E63000000002463000010B5044691
:10116000042803D305A11E20FFF77AFF0F480121B1
:10117000005DBDE8104003F0A2B900002E2E5C2EE9
:101180002E5C2E2E5C2E2E5C2E2E5C2E2E5C636F23
:101190006D706F6E656E74735C626F617264735CA8
:1011A000626F617264732E630000000024630000AC
:1011B00010B50446042803D305A11820FFF750FFFB
:1011C0000F480021005DBDE8104003F078B9000031
:1011D0002E2E5C2E2E5C2E2E5C2E2E5C2E2E5C2E49
:1011E0002E5C636F6D706F6E656E74735C626F61A1
:1011F0007264735C626F617264732E63000000003E
:101200002463000038B50446042803D30AA1112042
:10121000FFF726FF1448005D0090684603F09EF833
:10122000D0F804050099C84010F0010000D001205A
:1012300080F0010038BD00002E2E5C2E2E5C2E2E7C
:101240005C2E2E5C2E2E5C2E2E5C636F6D706F6E8E
:10125000656E74735C626F617264735C626F6172FD
:1012600064732E6300000000246300007CB500243A
:10127000084E25460122305D009500231146019558
:1012800002F0ECFF641C042CF4D3BDE87C4000F0B9
:1012900003B800002463000010B500242046FFF7C7
:1012A0005DFF641C042CF9D310BD10B5002420464A
:1012B000FFF77EFF641C042CF9D310BD10B5024665
:1012C000064B4FF0FF3000215C5C944201D1084690
:1012D00010BD491C0429F7D310BD0000286300008D
:1012E0002DE9F0470D468146FFF7E8FF0446042844
:1012F00036D2DFF874801B481C4EA8F10C0725B3CA
:10130000012D0ED0022D2BD104EB44003044457842
:10131000002D25D0B968002922D02846BDE8F04725
:10132000084704EB4401755C0E44717849B10E4ADC
:101330004FF40041093A8068FFF780FD08B987F84B
:101340000390B17808F80410E2E78068FFF7B6FD73
:1013500004EB4401314418F804008D78A842D7D03A
:10136000BDE8F0872C6300001C0000206C01002009
:10137000FFF78ABE70B50023042810D20D4D00EB94
:101380004004012A02D101290CD00022094E00EBB1
:101390004000304461B1012906D0022906D007235C
:1013A000184670BD0E30C2B22A55F9E74270F7E711
:1013B0008270F5E76C0100200C2802D10149012060
:1013C000887170470000002070B506461E48002452
:1013D000C0E90161B00720D5002501221146284649
:1013E000FFF7C8FF6D1C0446042D02D2002CF4D078
:1013F00013E094B940F2666204211448FFF746FCFA
:1014000004000AD1FFF70CFC040006D10F48104A73
:101410000021001FFFF7D6FC0446F00701D0FFF7BC
:1014200025FF74B909480B4A00210C38FFF7CAFCA4
:10143000040006D10548084A01210838FFF7C2FC1C
:101440000446204670BD00001000002038630000F4
:101450009D160000351F00001B0C00002DE9F05FF9
:101460006A4C054600266078B34618B184F801B08E
:1014700000F048FD664F4FF47A694FF4C87A4FF098
:101480000108182D62D2DFE805F0AC0C0C31404D9C
:1014900062676B746B74BE7D7D7D7D7DACAFB2B5D4
:1014A000BEBE0020FFF7AEFE00284FF0000008D0BF
:1014B000FFF754FE022D02D14FF4E16008E04846E8
:1014C00006E0FFF775FE022D01D1C82000E050466E
:1014D000410CC0034FF4FA72801841F100012570ED
:1014E00052000023FEF7ACFF01462AE00020FFF780
:1014F00089FE00284FF0000004D0FFF72FFE4FF4C4
:101500004870E5E7FFF754FEDFE70020FFF77AFEBB
:1015100000284FF0000002D0FFF720FECFE7FFF7D2
:1015200047FED4E70020FFF76DFE00284FF00000D3
:1015300002D0FFF713FE01E0FFF73AFE257041F6F7
:101540009A1100223868FFF779FC064646E0002031
:10155000FFF7CEFD257008E0002051E025703DE04A
:1015600084F801800120FFF7C3FD002240F6CD4141
:10157000E8E784F801800120FFF7BAFD00224FF46C
:101580008041DFE77868FFF799FC0646D5F1110046
:1015900000D02EB10220FFF7E1FD84F802B01DE07B
:1015A000012816D980B2C8214843C117C90341EAAE
:1015B0005041C0034FF4FA72801841F1000152000B
:1015C0000023FEF73DFF014600227868FFF736FC56
:1015D00006460220FFF7ECFD84F802803046BDE8A5
:1015E000F09F00F08FFCB9E700F08CFCB4E700F04E
:1015F00089FC04E000F086FC0020FFF7D9FD012003
:10160000FFF7D6FDAAE7FFF750FEA7E7100000207E
:101610002C6300002DE9F041861C0C4601270020B8
:10162000FFF75CFC0F4801682160D0E90012891ABD
:1016300082680446511AB51C07E000BF00F098FD0F
:10164000D4E90001401AA168091A491C8D42F5D855
:101650002068304420600020FFF76EFC3846BDE86B
:10166000F0810000B806002030B482680468531C82
:101670008360A154D0E901128A4202D330BC02F047
:1016800097BC30BC70470000034803C8814201D1B9
:101690000120704700207047B80600200078022122
:1016A000FFF71EBE05494FF0FF32082841F8202001
:1016B00002D3084480F8582070470000AC01002095
:1016C000F0B54FF0FF3512B10023082601E00823E2
:1016D0000C260C4C05E000BF54F823707F1C04D08E
:1016E0005B1CB342F8D32846F0BD26185DB286F8DD
:1016F000305044F82310002AF5D1E11881F8580041
:10170000F1E70000AC0100200249084490F93000E4
:1017100070470000AC01002070B5084C050009D0EE
:1017200010342168002907D00868206049682846DD
:101730008847F6E70834F4E770BD00009801002000
:101740002DE9F05F26484168F1B3DFF898B00E68E4
:101750008146DBF8004087688078E11B21F07F45F7
:10176000ED1CB0B9DFF880804FF48030C8F8440336
:10177000C8F804031120FFF72FF81120FFF737F8FE
:101780004FF0010AC8F800A02F2000F0F3FF89F8FD
:1017900002A0B54200D23546124BE8193C3320F086
:1017A0007F401860DBF800105A46091B21F07F418A
:1017B000001B20F07F40C91C81420FD910681860BF
:1017C0002F2000F0D7FF00E004E0BDE8F05F11201B
:1017D000FFF718B8BDE8F05F03F040BDBDE8F09F2B
:1017E0005800002004150140001001402DE9F0418F
:1017F00000260125144C22E06068226900EBC60730
:10180000387805FA00F1114217D08A43226101F0BD
:101810006DFA02463878E36805FA00F1194002FAD9
:1018200000F3994209D17978012901D0012100E022
:10183000002151407A6802B19047761CF6B22078B8
:101840008642D9D3BDE8F081440000200E4910B58E
:101850000A784C780023A24212D0521CD2B20A70ED
:10186000022A00D10B70084A0B780C3252F8232060
:1018700002608868104420F07F408860012010BD1D
:101880000360002010BD00005800002010B5044681
:10189000010600F00F00092804D306A140F2AD2094
:1018A000FFF7DEFB6FEA0460C10F204661F31F10F3
:1018B00010BD00002E2E5C2E2E5C2E2E5C2E2E5C7B
:1018C0002E2E5C2E2E5C636F6D706F6E656E747362
:1018D0005C647269766572735F6E72665C75736262
:1018E000645C6E72665F6472765F757362642E63A9
:1018F0000000000070B50546000605F00F0402D593
:10190000092C09D301E0092C08D307A140F29A2041
:10191000FFF7A6FB280601D5134801E012489038CE
:1019200000EB041070BD00002E2E5C2E2E5C2E2EBF
:101930005C2E2E5C2E2E5C2E2E5C636F6D706F6E97
:10194000656E74735C647269766572735F6E7266DD
:101950005C757362645C6E72665F6472765F7573E9
:1019600062642E6300000000C402002010B504462B
:10197000010600F00F00092804D3034940F27D203E
:10198000FFF76EFB204610BD18590000704700009D
:101990000C4910B50020C8708020FFF7ABFF817B99
:1019A00003290ED0006800280BD18020FFF76EFFBE
:1019B000012181400348C943BDE810400C3000F0CC
:1019C000ACBD10BD30000020812003F09DB9822005
:1019D00003F09AB9832003F097B9842003F094B9F7
:1019E000852003F091B9862003F08EB9872003F09B
:1019F0008BB9882003F0DCB938B50F4C0020E070BB
:101A0000FFF778FF817B032901D0006818B1BDE89A
:101A1000384002F030B90020FFF738FF0121814043
:101A20000548C9430C3000F078FD0448C0680090B8
:101A300061686846884738BD300000206463000054
:101A4000012003F0EDB9022003F0EAB9032003F00E
:101A5000E7B9042003F0E4B9052003F0E1B906205A
:101A600003F0DEB9072003F0DBB9000038B5104DF4
:101A700000200824E8702046FFF73CFF817B032903
:101A800014D00068002811D12046FFF7FFFE012185
:101A90008140C94305F10C0000F03FFD0548406955
:101AA00000908DF8024069686846884738BD00009C
:101AB000300000206463000070B5154804680460BD
:101AC000BFF36F8FBFF34F8FBFF36F8FBFF34F8F96
:101AD00001F008FF38B10F49086920F0011200F049
:101AE00001101443086101266CB194FAA4F0B0FA15
:101AF00080F52846FFF7BFFA06FA05F18C43294620
:101B000004F096F8F0E7BDE8704003F025BF000050
:101B10006C7402403000002010B5054CA078FFF72F
:101B2000B5FE0146A078BDE8104004F081B8000081
:101B300030000020F8B51E48D0F8001221F0040152
:101B4000C0F800121B4800681B4DC6B2A878FFF70A
:101B50009DFE012404FA00F12889EA68C04380B29E
:101B60001043014202D0A87803F0E0FF06F08000A5
:101B7000A8700020FFF78AFE04FA00F68020FFF725
:101B800085FE04FA00F006430B48F1430C3000F0E8
:101B9000C4FC8020FFF77AFE8440A868044307480D
:101BA000AC60006A0090696868468847F8BD00002C
:101BB0000070024080740240300000206463000026
:101BC00038B5002000900B480068ADF8020088206E
:101BD000FFF75CFE012505FA00F40820FFF756FE2A
:101BE000054985402C43886804438C6049686846F1
:101BF000884738BD207502403000002070B50B4882
:101C000004680460BFF36F8FBFF34F8F012609E0B4
:101C100094FAA4F0B0FA80F52846FFF72CFA06FAF9
:101C200005F08443002CF3D170BD000068740240BD
:101C3000F8B51C480568284603F090F9BFF36F8F8C
:101C4000BFF34F8F184E194CE80506D50120607080
:101C5000706A0090616868468847A8054FF00007E1
:101C600005D56770B06A0090616868468847680566
:101C700016D56078002813D003F07AF920B10CA1B2
:101C800040F28E40FFF7ECF96770194901200860B7
:101C9000582003F075F9F06A00906168684688473B
:101CA000F8BD0000007402406463000030000020B2
:101CB0002E2E5C2E2E5C2E2E5C2E2E5C2E2E5C2E5E
:101CC0002E5C636F6D706F6E656E74735C647269A9
:101CD000766572735F6E72665C757362645C6E7259
:101CE000665F6472765F757362642E630000000045
:101CF0000875024038B5064C00206070A07003F0F3
:101D000077FF04484068009061686846884738BD9E
:101D100030000020646300002DE9F041124E0746B8
:101D20000125BD403068FFF7C9F800280DD10F4CE0
:101D30002069284207D1384600F0D8FF0028E06823
:101D400005D0284304E0A8432061BDE8F081A84302
:101D5000E060206928432061A1683068BDE8F04157
:101D60000022FFF76BB80000386400004400002038
:101D700010B500F0D1FD20B1134A40F2D631FEF784
:101D8000E3FF002001F00CF820B10F4A4FF4767108
:101D9000FEF7DAFF002000F063FD002000F010FEE7
:101DA00000F02EFD0028FBD000F0D8FD0028F7D071
:101DB000FFF71AF8002806D0BDE81040024A40F2AA
:101DC000E231FEF7C1BF10BD542300002DE9FC5FD6
:101DD0000E008346DDE90C47C6F1000098469246A6
:101DE000814600D40846012503E000BF90FBFAF0CD
:101DF0006D1C5045FADAA84500D9454624B1002E9D
:101E000001DB780700D5641EB80702D5B8F1000FD2
:101E10000AD0F80708D13CB1A54205D22021584686
:101E2000641EFFF721FCF6E7002E02DA4E462D2154
:101E300002E0780703D52B215846FFF715FC07F081
:101E4000030002280BD1B8F1000F08D13CB1A54224
:101E500005D230215846641EFFF706FCF6E7CDE9AF
:101E60000047434652463146584603F0DFFCBDE882
:101E7000FC9F000070B50E460446007918494FF4E7
:101E8000A27501EB4010017F2068A1B14FF4887169
:101E900002F0F6FE4FF49071206802F0F1FE4FF46C
:101EA0009271206802F0ECFE2946206802F0E8FEFC
:101EB0000C49206809E04FF48E7102F0D0FE2946EB
:101EC000206802F0CCFE08492068C0F8041320689E
:101ED00000F044FE3146BDE8704000F007BE00004F
:101EE0001402002010030200800002000268134662
:101EF00002E08A4204D01268002AFAD10B60016025
:101F0000704700000A4810B5807860B1002401E0F5
:101F1000022C06D02046FFF721F9641C042CF7D3CD
:101F200010BD0324F6E7BDE81040FFF7B5B9000087
:101F30001000002003480179C90702D00078FFF79C
:101F40008DBA7047100000202DE9F047394E002768
:101F500080463D46DFF8E090D6F804A057E003D075
:101F60000446D0F81C8035E099F8002002EB4201CD
:101F7000521CD2B289F8002009EBC10199F8023055
:101F8000091D9A4201D189F8005048680A78044630
:101F9000012A12D0022A02D0032A3BD108E003F022
:101FA00063FA00B10127257434E00574C06900E0CC
:101FB00070680028F9D170602CE0207C50BB8868E4
:101FC0006060C868A0600869E0604869A061F07856
:101FD00000B165606268B168184B501A20F07F400C
:101FE000984202D2A168084406E0881AA16820F04D
:101FF0007F40814202D9081A206000E025606560B8
:102000000120A56020742046E56103F00FFAB8F1C5
:102010000000A4D199F8001099F801008142A3D1E1
:1020200017B97168514502D00120BDE8F087002042
:10203000FBE7000058000020AC040020FFFF7F00F9
:1020400070B52E4804682E4D03262EA1288806EB75
:10205000004002F04DFC2CB928882EA106EB004070
:1020600002F046FCE00705D028882CA106EB0040D2
:1020700002F03EFCA00705D528882BA106EB004006
:1020800002F036FC600705D5288829A106EB004040
:1020900002F02EFC200705D5288827A106EB00407A
:1020A00002F026FCE00305D5288826A106EB0040B7
:1020B00002F01EFCA00305D5288824A106EB0040F1
:1020C00002F016FC600305D5288823A106EB00402A
:1020D00002F00EFC200305D5288821A106EB004064
:1020E00002F006FCE00207D528881FA106EB00409D
:1020F000BDE8704002F0FCBB70BD00000004004071
:1021000020010020526573657420726561736F6EE3
:10211000733A00002D204E4F4E4500002D205245B1
:1021200053455450494E00002D20444F47000000B5
:102130002D205352455100002D204C4F434B5550FC
:10214000000000002D204F46460000002D204C507E
:10215000434F4D50000000002D2044494600000030
:102160002D204E46430000002D20564255530000BE
:102170002DE9FE43214DD5E9014704EA070005EBAF
:10218000800605F583600C3600F0C0F905F21440B6
:10219000804600F0BBF90AE0C0F3891101EB9050D2
:1021A000641C044404EA070005EB80060C36306822
:1021B0008107F1D00020694604EA070205EB82029C
:1021C000641CD26841F82020401C0228F4D30098F7
:1021D00000F00300022800980AD0C0F383100444E2
:1021E000404600F08DF9002800D06C60BDE8FE8309
:1021F000032101EB905004EB9004F1E7B8060020B6
:10220000FFF7B6FD52490220FFF7DEF820B151A2D8
:102210004FF47B71FEF798FD0C2200210120FFF79F
:10222000A9F820B14BA240F2F231FEF78DFD00205B
:1022300002F0D0FB02F070FA01F070FB08B149A285
:1022400000E04AA24C4D03264CA1288806EB004032
:1022500002F052FB01F062FB08B142A200E043A28F
:1022600028884BA106EB004002F046FBFFF7E8FE92
:102270004C49086808604C4801F09CFC20B135A22C
:102280004FF48761FEF760FD4021002001F0C2F9A4
:102290004021802001F0BEF9FEF7E8FF0220FEF7A2
:1022A00087FF0320FEF784FF404800F033FE20B193
:1022B00028A240F24B41FEF747FD3D4CA079B0B15A
:1022C00028883CA106EB004002F012FB02F03AFA2B
:1022D0000028FBD10220FEF741FF0320FEF73EFF5E
:1022E000394901200860BFF34F8F20BFFDE76078B8
:1022F000617988420AD0607930B101F093FD607055
:1023000020B1FEF7C9FF01E000206070207890B195
:102310000020FFF72DF870B1607820B1A07850B19F
:1023200001F0EEFD07E0288828A106EB004002F04E
:10233000DFFA00F0B9F802F005FA0220FEF70EFF0E
:1023400020BF40BF20BF0220FEF732FFB6E70000EB
:10235000B91300002E2E5C2E2E5C2E2E5C6D616952
:102360006E2E6300656E61626C6564006469736102
:10237000626C65640000000020010020555342207B
:102380006572726174612031303420257300000061
:1023900055534220657272617461203135342025B5
:1023A0007300000000040040715C00004062000007
:1023B00000000020476F696E6720746F2073797387
:1023C00074656D204F4646000005004020202054D3
:1023D0005820706F696E7465720000002DE9F05F1F
:1023E000C7888A46191D1646B1FBF7F2B1FBF7F50F
:1023F00007FB121999193944C91CB1FBF7F10446BE
:102400004079C9B2DDF828B0884206D21749942035
:10241000FEF726FE01E024686D1E002DFBD1A846C4
:10242000A7EB0905B5421AD81CE000BFBBF1000FAD
:1024300006D004EB09010AEB08002A46091D05E055
:1024400004EB09000AEB08012A46001DFEF72EF8EE
:102450002468761B4FF00009A844B74201D93546DD
:1024600000E03D46002EE1D1BDE8F09F2866000067
:1024700030B50B46024602F0DBFA63B10021094C8D
:102480000CE000BF01EB410304EB830315685B889C
:10249000AB4202D11160002030BD491C8142F1D312
:1024A000052030BDD800002013480178002922D033
:1024B000017900291FD1C17811F0030106D001294B
:1024C00007D0022908D003290CD108E04FF420617D
:1024D00007E04FF4202104E04FF4764101E04FF48F
:1024E0007601C160C178491CC170012101710349A5
:1024F000812001F051B970470000002018630000EE
:1025000008B500216A46FDF754FF08BD08B5012152
:102510006A46FDF741FF009808BD08B56A46FDF719
:1025200092FE009808BD000070B5040003D113A10D
:10253000C620FEF795FD00252846FEF7CFFC206853
:1025400062680168914214D9491E01600D781CB976
:1025500019A18920FEF784FD208AE16805FB00159A
:102560002068217A0278891A0279C9B28A4200D297
:1025700001710020FEF7E0FC284670BD2E2E5C2E77
:102580002E5C2E2E5C2E2E5C2E2E5C2E2E5C636F0F
:102590006D706F6E656E74735C6C69627261726986
:1025A00065735C62616C6C6F635C6E72665F6261C6
:1025B0006C6C6F632E6300002E2E5C2E2E5C2E2E14
:1025C0005C2E2E5C2E2E5C2E2E5C636F6D706F6EFB
:1025D000656E74735C6C69627261726965735C626A
:1025E000616C6C6F635C6E72665F62616C6C6F6372
:1025F0002E63000070B50C46050003D10FA1EA2040
:10260000FEF72EFD1CB90DA1EB20FEF729FD0020E1
:10261000FEF764FC1DB918499620FEF721FDE86815
:102620002A68211A288AB1FBF0F11068431C136054
:102630000170BDE870400020FEF77EBC2E2E5C2E9F
:102640002E5C2E2E5C2E2E5C2E2E5C2E2E5C636F4E
:102650006D706F6E656E74735C6C696272617269C5
:1026600065735C62616C6C6F635C6E72665F626105
:102670006C6C6F632E630000B825000010B5040079
:1026800002D0206830B901E00E2010BD17A1A020B3
:10269000FEF7E6FC606818B914A1A120FEF7E0FC83
:1026A000A06818B911A1A220FEF7DAFCE06818B9F9
:1026B0000EA1A320FEF7D4FC208A18B90BA1A420F8
:1026C000FEF7CEFC207A61682268401AC0B2116021
:1026D00004E0226811684B1C13600870401EC0B2F1
:1026E000F7D221680020087110BD00002E2E5C2E4C
:1026F0002E5C2E2E5C2E2E5C2E2E5C2E2E5C636F9E
:102700006D706F6E656E74735C6C69627261726914
:1027100065735C62616C6C6F635C6E72665F626154
:102720006C6C6F632E630000C20800F00703012089
:10273000895C98400840704700F18040006800289C
:1027400000D00120704708B500F1804000210160F1
:102750000068009008BD00000549096840F4803019
:1027600001F00111814201D1012070470020704722
:102770000C04004000283ED01F49204A096800BFD1
:1027800000BF00BF00BF00BF00BF00BF00BF91423D
:102790002FD000BF00BF00BF00BF00BF00BF00BF01
:1027A00000BF00BF00BF00BF00BF00BF00BF00BF31
:1027B00000BF00BF00BF00BF00BF00BF00BF00BF21
:1027C00000BF00BF00BF00BF00BF00BF00BF00BF11
:1027D00000BF00BF00BF00BF00BF00BF00BF00BF01
:1027E00000BF00BF00BF00BF00BF00BF00BF00BFF1
:1027F00000BF0138C3D17047D40000200024F4008A
:10280000064810B5007820B905A140F24110FEF746
:1028100027FCBDE810400120FFF79EBF9801002073
:102820002E2E5C2E2E5C2E2E5C2E2E5C2E2E5C2EE2
:102830002E5C636F6D706F6E656E74735C6472692D
:10284000766572735F6E72665C636C6F636B5C6EF1
:1028500072665F6472765F636C6F636B2E630000F9
:1028600070B51C4C0546207820B91BA14FF4897027
:10287000FEF7F6FB607838B115B16968002088472B
:102880000020FEF72BFB13E00020FEF727FB25B10D
:10289000104829460830FFF729FB606840B94FF41B
:1028A0008070FFF750FF01208107C1F80403086022
:1028B0006068401C60600020FEF73EFB60680028F6
:1028C00006D1BDE8704004A14FF49770FEF7C8BB75
:1028D00070BD0000980100202E2E5C2E2E5C2E2E46
:1028E0005C2E2E5C2E2E5C2E2E5C636F6D706F6ED8
:1028F000656E74735C647269766572735F6E72661E
:102900005C636C6F636B5C6E72665F6472765F6350
:102910006C6F636B2E63000070B50E4C0025207841
:1029200008B1852513E00021A16061602161E160AB
:102930004FF0E020D0F80001012610F0010F03D184
:102940000721002000F0D2F80348066026702846D0
:1029500070BD00009801002018050040064810B521
:10296000007820B905A14FF48270FEF779FB134877
:102970000068C0F3004010BD980100202E2E5C2E90
:102980002E5C2E2E5C2E2E5C2E2E5C2E2E5C636F0B
:102990006D706F6E656E74735C6472697665727368
:1029A0005F6E72665C636C6F636B5C6E72665F64B5
:1029B00072765F636C6F636B2E63000018040040D7
:1029C00070B51C4C0546207818B91BA1D520FEF720
:1029D00047FBA07838B115B169680120884700200D
:1029E000FEF77CFA15E00020FEF778FA25B11148D1
:1029F00029461030FFF77AFAE06850B94FF4827038
:102A0000FFF7A1FE02204107C1F804031A49012083
:102A10000860E068401CE0600020FEF78DFAE06886
:102A2000002805D1BDE8704003A1F120FEF718BBD6
:102A300070BD0000980100202E2E5C2E2E5C2E2EE4
:102A40005C2E2E5C2E2E5C2E2E5C636F6D706F6E76
:102A5000656E74735C647269766572735F6E7266BC
:102A60005C636C6F636B5C6E72665F6472765F63EF
:102A70006C6F636B2E630000080000402DE9F0418D
:102A80004FF480773846FFF757FE0124104EA50714
:102A900048B13846FFF757FE0120C5F808037470A7
:102AA0000020FEF739FE4FF482773846FFF744FEE8
:102AB00000280BD03846FFF746FE0220C5F8080371
:102AC000B470BDE8F0410120FEF726BEBDE8F081FC
:102AD0009801002000F01F02012191404009800070
:102AE00000F1E020C0F880117047000070B50D467D
:102AF0000446082903D31049FE20FEF7B1FA6807FF
:102B0000000E002C06DA04F00F0101F1E02181F83B
:102B1000140D03E004F1E02181F8000404F01F012A
:102B2000012088406109890001F1E021C1F880029B
:102B3000C1F8000170BD00005C650000410989001A
:102B400001F1E021D1F8001100F01F0201209040B6
:102B5000014201D00120704700207047000B40B2B5
:102B6000704700002DE9F0410E468046302804D31E
:102B7000294940F2FF10FEF773FA404602F00CFAC2
:102B800020B925494FF40070FEF76AFA404602F07A
:102B90000DFA224D0028404616D0FEF7B5FD284418
:102BA00090F858008009032802D001280AD003E0D9
:102BB000404601F06FFC28B103214046BDE8F041DA
:102BC00001F0B3BB0221F8E702F0FCF9002820D0A5
:102BD0004046FEF799FD0446114F4FF4807007EB15
:102BE000840100EB8400D1F8102580B242F001028C
:102BF000C1F8102501F0B0FC002E0AD04046FEF7C7
:102C000083FD55F82000002803D00120A040C7F81C
:102C10000403BDE8F0810000A0650000AC010020C5
:102C2000006000402DE9FC4114460E460546302860
:102C300004D32A4940F2D110FEF712FA00272846A1
:102C400002F0AAF908B1082744E0F27821462846A4
:102C5000FEF736FD0446401C3BD0B07868B16846AC
:102C6000009501F0AFFB009900EB8100D0F8001750
:102C700021F00201C0F8001707E000217378284610
:102C800000910A46019101F002FBF078C0B11448AE
:102C9000317800EB8400D0F81025124B1A40C0F8B0
:102CA00010254FF47C524FF4403302EA052203EA28
:102CB00001410A43D0F810150A43C0F8102509E075
:102CC00009483278204410F8581F41EA82110170F7
:102CD00000E004273846BDE8FC810000A065000044
:102CE00000600040FFC0FCFFAC01002010B50446AE
:102CF000302804D305494FF41370FEF7B1F920468C
:102D000001F0C8FB002800D0012010BDA065000024
:102D100070B5144D95F8640008B1082070BD00200E
:102D2000411E2A18401CC0B282F830103028F8D357
:102D300000242046FEF7B6FC641CE4B20C2CF8D349
:102D400007210620FFF7D2FE4FF4BE7001F004FC0D
:102D500005494FF00040C1F80403012085F86400E4
:102D6000002070BDAC01002000600040034890F8D6
:102D70006400002800D0012070470000AC01002052
:102D80000121B1EB507F01D1012070470020704735
:102D90000121B1EB507F01D1012070470020704725
:102DA00070B5104C217809B1852070BD00B90E486E
:102DB0000E4A0178C1F3400111600C4900780839CE
:102DC00000F0010008604FF0E020D0F8000101257C
:102DD00010F0010F03D107210020FFF787FE2570B7
:102DE000002070BD200000206063000080050040CE
:102DF00070B54FF08040D0F80453354C68070DD5BE
:102E00004FF4847001F01CFF40B1606820B931A11B
:102E100040F24110FEF724F960688047A8060ED5FD
:102E20004FF48A7001F00CFF48B1A06820B929A1C5
:102E300040F24910FEF714F9A1680020884768069F
:102E40000ED54FF48C7001F0FBFE48B1A06820B99C
:102E500020A14FF4A870FEF703F9A168012088476C
:102E600028060ED54FF48E7001F0EAFE48B1E068F6
:102E700020B918A140F25910FEF7F2F8E1680020DD
:102E80008847E8050ED54FF4907001F0D9FE48B19F
:102E9000E06820B90FA14FF4B070FEF7E1F8E168E7
:102EA00001208847A80511D54FF4927001F0C8FEA3
:102EB00000280BD0E06820B906A140F26710FEF7A9
:102EC000CFF8E168BDE870400220084770BD0000FF
:102ED000200000202E2E5C2E2E5C2E2E5C2E2E5CD2
:102EE0002E2E5C2E2E5C636F6D706F6E656E74732C
:102EF0005C647269766572735F6E72665C706F7720
:102F000065725C6E72665F6472765F706F77657211
:102F10002E63000000B5024600F00EF8106838B1CC
:102F20000449C8604FF080414FF46070C1F8040359
:102F3000002000BD200000204FF080414FF4607061
:102F4000C1F8080301490020C86070472000002034
:102F500010B50446B0F5000F03D307496C20FEF707
:102F60007FF84FF0E020816982698A1A22F07F425F
:102F7000A242F9D310BD0000E465000070B50B4D0E
:102F800004460B4E28680B49B0FBF6F0B1FBF0F09D
:102F9000A04203D208497720FEF762F82868B0FB08
:102FA000F6F06043BDE87040FFF7D2BFD4000020C8
:102FB00040420F00FFFF7F00E46500004FF0E0207B
:102FC0006FF07F4141610521016170472DE9F041BA
:102FD00090460D00064603D118A1EA20FEF740F8FE
:102FE0003079264F07EB4014E07E10B10820BDE891
:102FF000F081687F207729463046FDF7DDFF5FEAE4
:10300000080060602969216003D0297F3046FEF7FF
:1030100031FF307907EB4010007F0028306801D085
:10302000082100E00421C0F800150020E07520769A
:10303000A0750121E176A076D9E700002E2E5C2E46
:103040002E5C2E2E5C2E2E5C2E2E5C2E2E5C636F44
:103050006D706F6E656E74735C64726976657273A1
:103060005F6E72665C756172745C6E72665F6472CC
:10307000765F756172742E630000000014020020F8
:103080002DE9F0470E460179DFF82881044608EB68
:1030900041151746E87E012804D047A14FF4B970C6
:1030A000FDF7DEFF27B944A140F27310FDF7D8FF0A
:1030B00026B941A14FF4BA70FDF7D2FF217908EB90
:1030C0004110007F18B13046FFF75AFE30B120465C
:1030D00000F092F820B11120BDE8F0871020FBE746
:1030E000AF750027AE60AF8221793E4608EB4115EF
:1030F0004FF00108287F0028206825D04FF49079F0
:10310000494601F0BDFD4FF4AC7A5146206801F00C
:10311000B7FD2068A97DAA68C0F84425C0F8481505
:103120002068C0F808806868F0B94946206801F056
:10313000A2FD80465146206801F09DFD58EA00013D
:10314000F3D058BBAF750FE04FF48E7A514601F0C3
:1031500086FD2068C0F808802946206802F00EFA33
:1031600069684FF4807089B13046B5E751462068F0
:1031700001F070FD10B9A88A4845F7D1A88A4845E2
:1031800005D02946206802F0F9F900E08146A88AB6
:10319000A97D8842EAD3A88A484501D10F26D1E704
:1031A0005146206801F056FD0028F9D02068C0F88B
:1031B0000C80C7E7140200202E2E5C2E2E5C2E2ED3
:1031C0005C2E2E5C2E2E5C2E2E5C636F6D706F6EEF
:1031D000656E74735C647269766572735F6E726635
:1031E0005C756172745C6E72665F6472765F756145
:1031F00072742E63000000000079044901EB401056
:10320000807D002800D001207047000014020020BB
:1032100070B5044600791149002601EB401520687D
:103220002A7FC0F80065686888B1207901EB4010FA
:10323000007F0028206801D0094901E008498C3945
:10324000C0F808132068FFF789FCFFF743FC20460D
:1032500001F0C4FEEE766E6070BD00001402002026
:10326000100302002DE9F0411D46174606460C46A4
:10327000AA4204D213A140F2C510FDF7F1FE206866
:1032800038B1FFF785FD20B90EA14FF4E370FDF7CB
:10329000E7FE6068A84204D20021716021683160B5
:1032A00007E075602168401B316060602168294437
:1032B0002160AF4203D110B10120BDE8F0810020B0
:1032C000FBE700002E2E5C2E2E5C2E2E5C2E2E5C3C
:1032D0002E2E5C2E2E5C636F6D706F6E656E747338
:1032E0005C647269766572735F6E72665C75736238
:1032F000645C6E72665F6472765F757362642E637F
:103300000000000010B50D4C207820B90CA14FF43E
:10331000D060FDF7A5FE00F03BFD1949D1F804038C
:10332000C1F80803174900200860BFF36F8FBFF38F
:103330004F8FE0700120207010BD00003000002091
:103340002E2E5C2E2E5C2E2E5C2E2E5C2E2E5C2EB7
:103350002E5C636F6D706F6E656E74735C64726902
:10336000766572735F6E72665C757362645C6E72B2
:10337000665F6472765F757362642E63000000009E
:10338000007002400075024070B51A4C2078012888
:1033900004D019A140F25F60FDF762FE4FF40065B2
:1033A000284601F0DBFD244901200860BFF36F8F40
:1033B000BFF34F8F214801680905FCD5284601F06D
:1033C000CDFD1F4940F2E37008604020091D0860F0
:1033D000BFF36F8FBFF34F8F174980201C310860F8
:1033E00040F2FF10A0600020E060E070A0700220BA
:1033F000207070BD300000202E2E5C2E2E5C2E2EF4
:103400005C2E2E5C2E2E5C2E2E5C636F6D706F6EAC
:10341000656E74735C647269766572735F6E7266F2
:103420005C757362645C6E72665F6472765F7573FE
:1034300062642E63000000000075024000740240C8
:103440000078024070B50546FEF790FA044600F099
:103450000F00092804D30F4940F2DA40FDF700FEBF
:1034600004F00F0122064FF0010001D50A4A01E0E5
:10347000094A121D1368884083431360BFF36F8F9E
:10348000BFF34F8F284600F04BF90449C1F80803F9
:1034900070BD0000D8350000107502400070024079
:1034A0003EB50546FEF762FA044600F00F00092813
:1034B00004D3254940F2C940FDF7D2FD04F00F00C6
:1034C00021064FF0010401D5204901E01F49091DE3
:1034D0000A6804FA00F002430A60BFF36F8FBFF37B
:1034E0004F8F284600F01CF91949C1F8040328073A
:1034F00029D0280627D40020FDF7F0FC2846FEF747
:10350000C5F98440134881680C4384602846FEF75F
:10351000F1F9044605F00F0008280DD200200090B4
:10352000019002906946284600F036F920B10AA1C0
:1035300040F23570FDF794FD0320A073BDE83E40D6
:103540000020FDF7F9BC3EBDD835000010750240E3
:1035500000700240300000202E2E5C2E2E5C2E2E9D
:103560005C2E2E5C2E2E5C2E2E5C636F6D706F6E4B
:10357000656E74735C647269766572735F6E726691
:103580005C757362645C6E72665F6472765F75739D
:1035900062642E630000000010B5FEF7E7F90446F0
:1035A00000F00F00092804D30BA140F2BA40FDF748
:1035B00057FD04F00F0122064FF0010001D5144A17
:1035C00001E0134A121D12688840024201D0012016
:1035D00010BD002010BD00002E2E5C2E2E5C2E2E65
:1035E0005C2E2E5C2E2E5C2E2E5C636F6D706F6ECB
:1035F000656E74735C647269766572735F6E726611
:103600005C68616C5C6E72665F757362642E6800E4
:103610001075024070B50C00054602D0601E0442D1
:1036200004D011A140F20F70FDF71AFD05F00F0054
:1036300008280CD31C480068C1B2802904D04FF47C
:103640008060A0420AD204E04FF40070F9E7402CF9
:1036500004D905A140F21170FDF702FD2846FEF7DE
:1036600049F9848170BD00002E2E5C2E2E5C2E2E1A
:103670005C2E2E5C2E2E5C2E2E5C636F6D706F6E3A
:10368000656E74735C647269766572735F6E726680
:103690005C757362645C6E72665F6472765F75738C
:1036A00062642E63000000001C75024010B5FEF736
:1036B0005DF9044600F00F00082804D3064940F2E3
:1036C000F340FDF7CDFC054944F480700860BFF37A
:1036D0006F8FBFF34F8F10BDD835000018750240B3
:1036E00010B5FEF743F9BDE8104001F0F7BA00004D
:1036F00010B5FEF73BF9044600F00F00082804D38C
:10370000054940F2FB40FDF7ABFC04480460BFF301
:103710006F8FBFF34F8F10BDD83500001875024072
:1037200070B50546000605F00F0402D5092C09D333
:1037300001E0092C08D307A14FF4C770FDF790FCF6
:10374000280601D5134801E012480930015D012027
:10375000884070BD2E2E5C2E2E5C2E2E5C2E2E5C94
:103760002E2E5C2E2E5C636F6D706F6E656E7473A3
:103770005C647269766572735F6E72665C757362A3
:10378000645C6E72665F6472765F757362642E63EA
:1037900000000000246400002DE9F0410D460646BB
:1037A000FEF774F8044625B933A140F24A70FDF7DC
:1037B00057FC0020FDF792FB3F48310704D1817888
:1037C0008E4201D010243EE001898046C943C06882
:1037D00089B201270143A740394201D0112432E0C8
:1037E000304601F07BFA08B10F242CE03046FEF79A
:1037F00081F8044606F00F00310600EB40002AD5A0
:103800002E4901EB80062868FFF7C2FA0028287AC3
:103810004FEAC07004D008B1294803E0294801E00C
:10382000B8B12948206095E8070086E80700002025
:10383000C4E90160A073D8F80C1004460F43C8F81F
:103840000C7002F0C5FB0020FDF776FB2046BDE8BA
:10385000F0811E48E6E719496C3101EB80062868C3
:1038600038B1FFF795FA20B903A140F2AB70FDF72C
:10387000F7FB1748D6E700002E2E5C2E2E5C2E2E6E
:103880005C2E2E5C2E2E5C2E2E5C636F6D706F6E28
:10389000656E74735C647269766572735F6E72666E
:1038A0005C757362645C6E72665F6472765F75737A
:1038B00062642E63000000003000002054030020EA
:1038C000213B00009D3A0000F53900005539000009
:1038D0006532000010B5FEF749F8BDE8104001F070
:1038E000FDBA00000C480078082810D10A48001DD5
:1038F000007800070BD108480830007810F0F00F6E
:1039000005D105480C30007810F0F00F01D00020F0
:103910007047012070470000E00F00F00C4800786D
:10392000082810D10A48001D007800070BD108486C
:103930000830007810F0F00F05D105480C30007801
:1039400010F0F00F01D000207047012070470000F8
:10395000E00F00F02DE9F041804616460C4608685D
:10396000FFF716FA20B112A140F22D20FDF778FBE7
:1039700065681F4FB54200D93546402D04D90CA1CA
:1039800040F23720FDF76CFB2A4638462168FCF7E9
:103990008DFDC8E900756068401B606020682844A0
:1039A00020606068002800D00120BDE8F0810000A0
:1039B0002E2E5C2E2E5C2E2E5C2E2E5C2E2E5C2E41
:1039C0002E5C636F6D706F6E656E74735C6472698C
:1039D000766572735F6E72665C757362645C6E723C
:1039E000665F6472765F757362642E630000000028
:1039F0002C0400202DE9F041064690460D4608684B
:103A0000FFF7C6F920B114A140F25320FDF728FBBF
:103A10006C68214F4046444500D90446402C04D9E7
:103A20000DA140F25D20FDF71BFB34B12246384664
:103A30002968FCF73BFD376001E0002030607460CE
:103A40006868001B686028682044286014B1012061
:103A5000BDE8F0810020FBE72E2E5C2E2E5C2E2E82
:103A60005C2E2E5C2E2E5C2E2E5C636F6D706F6E46
:103A7000656E74735C647269766572735F6E72668C
:103A80005C757362645C6E72665F6472765F757398
:103A900062642E63000000002C0400202DE9F04138
:103AA000074616460C460868FFF772F920B90CA1C4
:103AB00040F2EB10FDF7D4FA6568B54200D93546FF
:103AC0002068C7E900056068401B606020682844E2
:103AD00020606068002800D00120BDE8F08100006F
:103AE0002E2E5C2E2E5C2E2E5C2E2E5C2E2E5C2E10
:103AF0002E5C636F6D706F6E656E74735C6472695B
:103B0000766572735F6E72665C757362645C6E720A
:103B1000665F6472765F757362642E6300000000F6
:103B20002DE9F041074616460C460868FFF730F9C4
:103B300020B910A14FF40370FDF792FA6568B54201
:103B400000D93546002D0FD0D4F80000C7E9000594
:103B50006068A0EB0500606020682844206006D003
:103B60004FF00100BDE8F0814FF00000EEE74FF0AC
:103B70000000F7E72E2E5C2E2E5C2E2E5C2E2E5C87
:103B80002E2E5C2E2E5C636F6D706F6E656E74737F
:103B90005C647269766572735F6E72665C7573627F
:103BA000645C6E72665F6472765F757362642E63C6
:103BB000000000002DE9F0410446FFF793FE08B134
:103BC000FFF7FCF92CB11E49087820B10820BDE8A8
:103BD000F0810720FBE74C600120002408704602BA
:103BE0004FEA040544F0800707F00F00082801D3CE
:103BF000314600E040213846FFF70CFD3846FDF71E
:103C000079FE8573641C0560E4B28560092CE9D3F4
:103C10005FF0000404F00F00082801D3314600E0F3
:103C200040212046FFF7F6FC2046FDF763FE857332
:103C3000641C0560E4B28560092CEBD30020C6E764
:103C40003000002003480078022801D3012070478B
:103C5000002070473000002010B5FFF7F3FF28B1B7
:103C60002720FEF76BFF08B1012010BD002010BD1A
:103C7000502001F085B910B5FFF734FE58B1EFF3CD
:103C8000108472B64C2001F07BF94C2001F078F9D9
:103C900084F3108810BDBDE810404C2001F070B9CD
:103CA0000021016041601149096801700F49091D37
:103CB000096841700D49083109680C4A0C321268D4
:103CC00041EA02214180094910310968074A14324A
:103CD000126841EA02218180044918310968034AC7
:103CE0001C32126841EA0221C18070478074024090
:103CF000542001F045B9000070B5104C05462078FD
:103D0000022804D00EA140F28E60FDF7A9F9002030
:103D100060701B4C15B9FFF7E5FD00B1194C1A484E
:103D2000C0F8044307212720FEF7E0FE17490120D1
:103D30000860BFF36F8FBFF34F8F70BD300000205E
:103D40002E2E5C2E2E5C2E2E5C2E2E5C2E2E5C2EAD
:103D50002E5C636F6D706F6E656E74735C647269F8
:103D6000766572735F6E72665C757362645C6E72A8
:103D7000665F6472765F757362642E630000000094
:103D80000714C0030714E0030070024004750240EA
:103D9000104810B50078022804D00FA140F2AD60A1
:103DA000FDF75EF92720FEF7C9FE002810D001F0CC
:103DB0001FFF194900200860BFF36F8FBFF34F8FBB
:103DC00016498020C1F8800148171549C1F8080339
:103DD00010BD0000300000202E2E5C2E2E5C2E2EFA
:103DE0005C2E2E5C2E2E5C2E2E5C636F6D706F6EC3
:103DF000656E74735C647269766572735F6E726609
:103E00005C757362645C6E72665F6472765F757314
:103E100062642E63000000000475024004E000E0CC
:103E20000070024010B500242046FDF757F80C48FA
:103E3000407878B101F0DCFE0A480168890509D4B0
:103E4000094901220A600068800502D50020086047
:103E500000E001240020FDF76FF8204610BD0000AF
:103E600030000020007402402C7502403EB504462C
:103E7000000604D511A140F64E00FDF7F1F82046EA
:103E8000FDF704FD0146012088401C49896808426D
:103E900012D004F00F0008280ED2002000900190EC
:103EA000029069462046FFF777FC002804D003A162
:103EB00040F65700FDF7D4F83EBD00002E2E5C2ED4
:103EC0002E5C2E2E5C2E2E5C2E2E5C2E2E5C636FB6
:103ED0006D706F6E656E74735C6472697665727313
:103EE0005F6E72665C757362645C6E72665F64724C
:103EF000765F757362642E6300000000300000205E
:103F000010B500242046FCF7E9FF0748407830B19F
:103F100001F02EF818B105490020086001240020A6
:103F2000FDF70AF8204610BD300000202C75024035
:103F30000FB438B5040003D110A11C20FDF790F890
:103F4000606918B90DA11D20FDF78AF8206818B91D
:103F50000AA11E20FDF784F8606818B907A11F2088
:103F6000FDF77EF80599002905D006A800906A465D
:103F7000204600F049F838BC5DF814FB2E2E5C2E6C
:103F80002E5C2E2E5C2E2E5C2E2E5C2E2E5C6578EA
:103F90007465726E616C5C667072696E74665C6E7C
:103FA00072665F667072696E74662E630000000050
:103FB00010B5040003D107A10B20FDF751F8A2684A
:103FC000002A05D0D4E90403216898470020A060A6
:103FD00010BD00002E2E5C2E2E5C2E2E5C2E2E5C34
:103FE0002E2E5C2E2E5C65787465726E616C5C663C
:103FF0007072696E74665C6E72665F667072696E0E
:1040000074662E63000000002DE9FC4791460C46C3
:104010005FEA000804D183A14FF49F70FDF720F8F8
:10402000D8F8140020B97FA14FF4A070FDF718F85C
:10403000D8F8000020B97BA140F24110FDF710F83C
:10404000D8F8040020B977A14FF4A170FDF708F863
:10405000002C76D014F8011B39B125290ED040462A
:10406000FDF702FB20780028F4D198F80C00002816
:1040700067D04046BDE8FC47FFF79ABF0020012209
:1040800021782B291BD02D2902D0302908D102E01C
:1040900040F0010001E040F00200641C002AEFD172
:1040A00000252A290ED02178A1F130020A2A11D246
:1040B00005EB850201EB4205641C303DF1E740F061
:1040C0000400EAE7D9F800100B1DC9F800300968B0
:1040D000641C0D44217800232E290BD114F8011FF4
:1040E000A1F130020A2A05D203EB830201EB42035D
:1040F000303BF3E76C290DD068290BD0692921D01A
:104100000BDC252918D0582931D063290ED0642919
:1041100015D117E014F8011FECE7702969D0732955
:1041200032D075291BD0782909D120E0D9F80000B8
:10413000011DC9F8001001784046FDF795FA641C8E
:1041400090E76CE0D9F800100A1DC9F80020096852
:10415000CDE900500A224046FDF738FEEFE7D9F8D6
:1041600000100A1DC9F8002009680A2206E0D9F8E3
:1041700000100A1DC9F8002009681022CDE900507E
:10418000404601F053FBDAE7D9F8001000270A1D7A
:10419000C9F800200E68C00705D112E04046761C21
:1041A0007F1CFDF761FA31780029F7D104E0202166
:1041B00040466D1EFDF758FABD42C0D9002DF6D11C
:1041C000BDE74EB13046FCF795F9074604E02021E3
:1041D00040466D1EFDF748FABD4206D9002DF6D1C6
:1041E00003E04046761CFDF73FFA31780029F8D10C
:1041F000A5E7D9F80000011DC9F8001005683021B5
:104200004046FDF731FA78214046FDF72DFA0820A7
:104210000021CDE90001034610222946B0E7BDE8A0
:10422000FC8700002E2E5C2E2E5C2E2E5C2E2E5C2B
:104230002E2E5C2E2E5C65787465726E616C5C66E9
:104240007072696E74665C6E72665F667072696EBB
:1042500074665F666F726D61742E63002DE9FF41B5
:104260001C46DDE90A7815460E46684600F076F8E9
:1042700046EA450141EA840141EA072242EA08414F
:10428000009A00EB8200C0F80017BDE8FF812DE91D
:10429000FF411C46DDE90A7815460E46684600F0E7
:1042A00091F846EA450141EA840141EA072242EADF
:1042B0000841009A00EB8200C0F80017BDE8FF81BA
:1042C0002DE9FF411C46DDE90A7815460E46684691
:1042D00000F0ACF846EA450141EA840141EA0722D0
:1042E00042EA0841009A00EB8200C0F80017BDE8DE
:1042F000FF811CB5002100910B4601220191FFF7BF
:10430000DFFF1CBD1CB500220B4600921146019236
:10431000FFF7D6FF1CBD1CB5002100910B46012202
:1043200001911146FFF7CCFF1CBD13B50C46684642
:1043300000F048F8009900EB8101D1F8002722F441
:104340004032C1F80027009900EB8100D0F8001737
:1043500041EA0441C0F800171CBD000010B5044636
:104360000068302804D308A14FF4D570FCF778FE1C
:104370002068202802D24FF0A04010BD00F01F009E
:1043800020600F4810BD00002E2E5C2E2E5C2E2EBD
:104390005C2E2E5C2E2E5C2E2E5C636F6D706F6E0D
:1043A000656E74735C647269766572735F6E726653
:1043B0005C68616C5C6E72665F6770696F2E680026
:1043C0000003005010B504460068302804D308A14B
:1043D0004FF4D570FCF744FE2068202802D24FF03D
:1043E000A04010BD00F01F0020600F4810BD00006D
:1043F0002E2E5C2E2E5C2E2E5C2E2E5C2E2E5C2EF7
:104400002E5C636F6D706F6E656E74735C64726941
:10441000766572735F6E72665C68616C5C6E726604
:104420005F6770696F2E68000003005010B5044686
:104430000068302804D308A14FF4D570FCF710FEB3
:104440002068202802D24FF0A04010BD00F01F00CD
:1044500020600F4810BD00002E2E5C2E2E5C2E2EEC
:104460005C2E2E5C2E2E5C2E2E5C636F6D706F6E3C
:10447000656E74735C647269766572735F6E726682
:104480005C68616C5C6E72665F6770696F2E680055
:104490000003005001B56846FFF794FFD0F81005FF
:1044A0000099C84000F0010008BD01B56846FFF75B
:1044B000BDFF009A01219140C0F8081508BD38B52C
:1044C00001240090684631B1FFF748FF00998C4005
:1044D000C0F8084538BDFFF741FF00998C40C0F88F
:1044E0000C4538BD7CB5154604460C4A6618022EAC
:1044F000D2E90002CDE9000204D909A140F2C220AC
:10450000FCF7AEFD694605E051F82400D0F810052F
:10451000641C01C5A642F7D87CBD000058630000AA
:104520002E2E5C2E2E5C2E2E5C2E2E5C2E2E5C2EC5
:104530002E5C636F6D706F6E656E74735C64726910
:10454000766572735F6E72665C68616C5C6E7266D3
:104550005F6770696F2E6800034908B50844002141
:1045600001600068009008BD0060004002494058AA
:10457000012800D0002070470060004070B5184A44
:104580000024D2F81034194609E00D7AA54205D16D
:10459000641C0A2CF7DB4FF0FF341FE04968002948
:1045A000F3D1611C1AD00472D2F8101431B14968E9
:1045B0004160D2F81014486000250BE00021C2F8D9
:1045C00010044160F8E700231A462946204600F00F
:1045D00039FA6D1C00F02CFAA842F4D8204670BDC0
:1045E000B8060020F0B595B01C4615460F460846A3
:1045F0001A9E00F0FFFA182109A8FBF770FF0E962B
:10460000CDE909540023082203A9384600F00CFB29
:10461000059806900498ADF81C0000208DF8200045
:104620000398082600F00300012802D002281DD0BC
:104630003CE003983346850AC0F3C2008DF81E00A3
:1046400003980FA9C0F380008DF81F000398C0F3F2
:104650008314A200384600F0E7FA09A8009006ABE0
:1046600022460FA9284600F021FA1FE00398840D86
:10467000C0F3C2008DF81E000398C0F380008DF8CF
:104680001F00082C01D2254600E0082533462A46A3
:104690000FA9384600F0C8FA2E44641B09AB06AADD
:1046A00029460FA800F040F9002CEAD1384600F066
:1046B000AAFA15B0F0BD7047012000F083BF0000DA
:1046C00010B50448FEF7A4FDBDE81040002000F03E
:1046D00079BF00007800002008B5034A009240230B
:1046E000024AFFF77FFF08BDE5520000B805002031
:1046F000084A012902EBC00005D0022903D0032992
:1047000003D0042903D00020704700797047407916
:1047100070470000DC67000010B5FFF7CDFF0421F3
:104720000648FFF72BFF002803DA05492220FCF793
:1047300097FC02490120487210BD00008000002053
:10474000C46600002DE9FE4FFCF79EFF10B100206B
:10475000BDE8FE8F63480021C0F81414D0E901467B
:1047600004EA060100EB81014FF000090AE000BFF6
:10477000C1F3891202EB9151641C0C4404EA060156
:1047800000EB8101C9688A07F2D000216A468046A1
:1047900004EA060008EB8000641CC06842F82100AF
:1047A000491C0229F4D3009800F003000228009865
:1047B0001CD0C0F38311062900D3062161F38910B0
:1047C0000090C0F38310801C8100474800F0C9F9B5
:1047D000070075D000F00EFA4B46082269463846AD
:1047E00000F028FA09F10809002557E0810D502250
:1047F0008A46B2EB905F00D850210D4665F39F507A
:1048000000900831384800F0ACF9070058D000F0AB
:10481000F1F94B4608226946384600F00BFA04EAE3
:104820000601701A8000001D09F1080B854220D98D
:104830002C4E0C3630B1C2B208EB8101281A9146D9
:104840000C3104E03146EAB2002691463046C5B24A
:104850005B46384600F0EEF90BEB090326B12A4619
:104860003146384600F0E6F90AF1030004EB900403
:104870001AE008EB81015B462A4638460C31F1E725
:1048800004EA060008EB80014B46042238460C314E
:10489000641C00F0CFF909F104096D1C0098C0F305
:1048A0008310A842ECD85FB11048FDF729FED8F874
:1048B0001054464605B140B1384600F0A4F9746082
:1048C000FCF7E2FE80F0010042E7687A012804D19B
:1048D0002A6828463946126890476D68002DF4D141
:1048E000EAE70000B80600207C640000CC0A002043
:1048F00000231A4600F00EBD08B5012300926A4657
:1049000000F008FD08BD1CB5CDE9002302236A466E
:1049100000F000FD1CBD3EB5069C8DE81C00032385
:104920006A4600F0F7FC3EBD2DE9F0470E46804692
:104930001C46924608293ED894F80C90002020731B
:104940001946104600F014FC0025B54206D218F8AE
:1049500005201AA12046FFF7EBFA03E019A1204633
:10496000FFF7E6FA6D1C082DEFD317A12046FFF7DD
:10497000DFFA0025B54210D218F80570FBF792FD5A
:104980000068C05D10F03E0F01D03A4600E02E22D4
:104990000EA12046FFF7CCFA03E00DA12046FFF759
:1049A000C7FA6D1C082DE5D301222146504600F0C0
:1049B00051FB84F80C90BDE8F087000020253032D0
:1049C00078000000202020007C000000256300000B
:1049D00020000000114810B5FF2181600021016016
:1049E0004160C0F81814C0F8141480F81C140C4866
:1049F00000F007F900280FD10A480B490B4B401A69
:104A0000C108002005E000BF00EB400223F82200AF
:104A1000401C8842F8D3002010BD0000B8060020DA
:104A20007C64000014680000DC670000D8000020EF
:104A300002480349401AC00870470000146800008B
:104A4000DC6700001FB51146002443B901A8FDF73B
:104A50000FFD20B90348019900EBC100847904B02F
:104A6000204610BDDC67000013B56846FDF700FD69
:104A700008B100201CBD0248009950F831001CBD4F
:104A8000DC67000070B508480125D0F8104480F8B4
:104A90001C5405E0657221682046496888476468AF
:104AA000002CF7D170BD0000B80600202DE9FF47AB
:104AB00081460C9D00200C462F7B28739846164695
:104AC0002946184600F054FB072E42D2DFE806F0D4
:104AD00004090F161F2A360049462846FFF728FA10
:104AE00037E0494628462268FFF722FA31E0D4E948
:104AF000002349462846FFF71BFA2AE0A0680090E9
:104B0000D4E9002349462846FFF712FA21E0D4E908
:104B10000201CDE90001D4E9002349462846FFF708
:104B200007FA16E004F1080007C88DE80700D4E989
:104B3000002349462846FFF7FBF90AE004F1080084
:104B40000FC88DE80F00D4E9002349462846FFF737
:104B5000EFF900222946404600F07CFA2F73BDE8A9
:104B6000FF872DE9F041058A80462D1F4819C01C9A
:104B7000B0FBF5F0C6B24046FDF7D6FC041E19D0D6
:104B80000020207101206071E58000272546761EF7
:104B9000C4F800800BE04046FDF7C6FC60B16179C7
:104BA000491C6171286005467F1CC0F80080B7422F
:104BB000F1D32046BDE8F081204600F002F8002045
:104BC000F8E72DE9F041457901466B1E002201E02E
:104BD0000968521C9A42FBD30F680146002605E083
:104BE00038460C68FDF706FD2146761CAE42F7D329
:104BF000BDE8F08108B501216A46001DFBF7A5FB61
:104C000008BDFDF73BBD38B50446001D01216A46CD
:104C1000FBF7A8FB009810F0FF0F04D12046BDE879
:104C20003840FFF7CEBF38BD38B501240094FDF7FA
:104C3000D5FB38BD38B500240094FDF7CFFB38BD57
:104C400000F180410868002210B101200A6070471D
:104C5000104670474058002800D00120704708B522
:104C6000002242504058009008BDD0F8040308408C
:104C700000D0012070474058002800D00120704724
:104C800008B5002242504058009008BD30B50506D6
:104C900000F00F030E4C03EB830004EB80000AD5F9
:104CA000082B03D30B480160001D09E0C0F8001673
:104CB000C0F8042630BD082B04D307480160001D4E
:104CC000026030BDC0F80017C0F8042730BD0000F6
:104CD00000700240A0760240A077024000F00F0171
:104CE00008290DD2020607494FEA007001EB9060D7
:104CF00002D5D0F8200401E0D0F84404012800D007
:104D0000002070470070024010B50446000604D42D
:104D100016A140F27730FCF7A3F904F00F00082841
:104D200004D312A14FF45E70FCF79AF9200704D166
:104D30000EA140F27930FCF793F91C490020C870AD
:104D40002046FCF7D7FD817B03290ED000680028A0
:104D50000BD12046FCF79AFD012181401348C9433D
:104D6000BDE810400C30FDF7D8BB10BD2E2E5C2ED8
:104D70002E5C2E2E5C2E2E5C2E2E5C2E2E5C636FF7
:104D80006D706F6E656E74735C6472697665727354
:104D90005F6E72665C757362645C6E72665F64728D
:104DA000765F757362642E6300000000300000209F
:104DB00038B50446000604D4164940F29230FCF798
:104DC0004FF904F00F00082804D2124940F2933042
:104DD000FCF746F9104D0020E8702046FCF78AFDEC
:104DE000817B032914D00068002811D12046FCF7EC
:104DF0004DFD01218140C94305F10C00FDF78DFBFC
:104E00000648806800908DF80240696868468847C7
:104E100038BD000018590000300000206463000015
:104E200038B50446000604D51AA14FF47370FCF798
:104E300017F904F00F00082804D316A140F2CD3072
:104E4000FCF70EF9200704D112A140F2CE30FCF796
:104E500007F9204D0020E8702046FCF74BFD817BD0
:104E6000032913D0006888B92046FCF70FFD012103
:104E70008140C94305F10C00FDF74FFB164800695E
:104E800000908DF80240696868468847BDE8384060
:104E900000F062BD2E2E5C2E2E5C2E2E5C2E2E5C23
:104EA0002E2E5C2E2E5C636F6D706F6E656E74734C
:104EB0005C647269766572735F6E72665C7573624C
:104EC000645C6E72665F6472765F757362642E6393
:104ED00000000000300000206463000070B505464B
:104EE000000605F00F0402D5092C09D301E0092CB6
:104EF0000BD30D4940F26640FCF7B2F8280604D502
:104F0000094940F26740FCF7ABF8082C05D3074885
:104F10000068C10300D5002070BD054901EB840085
:104F2000D0F8A00470BD0000D8350000C074024065
:104F30000070024002494058002800D0012070470C
:104F4000007002400449084400210160BFF36F8FE4
:104F5000BFF34F8F704700000070024003490860A4
:104F6000BFF36F8FBFF34F8F704700000074024094
:104F700002480068002800D0012070472C750240CC
:104F80000449084401210160BFF36F8FBFF34F8FC5
:104F900070470000007002400349084490F9300057
:104FA000C017401C70470000AC01002004490844B1
:104FB00090F93000082801DB01207047002070477D
:104FC000AC0100200449084490F93000082801D2BF
:104FD0000120704700207047AC01002070B50346E7
:104FE00000791B4901EB40101968027F4FF0FF3038
:104FF000002AD1F80C25D1F81465D1F80855D1F85C
:10500000104504D0C1F80C05C1F8140503E0C1F83F
:105010001405C1F80C051968C1F80805C1F8100598
:10502000501C02D01046FFF764F9701C02D03046C5
:10503000FFF75FF9601C02D02046FFF75AF9681CA1
:1050400004D02846BDE87040FFF753B970BD00009A
:105050001402002010B50C46C17949B11AB109A15A
:105060002046FEF765FF2046BDE81040FEF7A0BFD2
:10507000007A0028F3D0044804A102682046FEF715
:1050800057FFECE70D0A0000B00000202573000078
:10509000244910B50988032202EB014250B10128CE
:1050A00014D002282CD0BDE810401FA140F2C1301E
:1050B000FBF7D6BF104620A1FFF71AFCFEF7C2FD92
:1050C00000282DD1BDE81040FEF75EB910461FA1A3
:1050D000FFF70EFC2249002008700871FEF7BCFDA6
:1050E00008B1FEF755FEFEF7ADFD08B1FEF70AF96F
:1050F0000020FCF733F8BDE810400120FCF72EB883
:10510000104618A1FFF7F4FB0120FCF751F8FEF759
:10511000A3FD002804D1BDE810400120FEF7ECBD3E
:1051200010BD0000200100202E2E5C2E2E5C2E2EA5
:105130005C6D61696E2E630055534220706F776518
:105140007220646574656374656400005553422081
:10515000706F7765722072656D6F76656400000010
:105160000000002055534220726561647900000000
:1051700070B50446C0790D4600281CD1207A50B184
:10518000A179A088FFF7B4FA0B4951F820200BA1B0
:105190002846FEF7CDFEA0880021FFF765FC0346F8
:1051A0000549A079143951F820202846BDE87040FF
:1051B00003A1FEF7BDBE70BDB00000202573000046
:1051C0003C25733E2025733A20000000EFF3058054
:1051D000C005C00D01D001207047EFF3148040F3EB
:1051E0000000401C704700000EB50023009301939F
:1051F0000293C088904200D20246CDE9001269466F
:105200008020FEF7C9FA02000CD00748012100886F
:1052100001EB004005A1FFF76FFB0CA14FF4C97033
:10522000FBF71EFF0EBD0000200100205472616ECE
:1052300073666572207374617274696E672066614B
:10524000696C65643A202564000000002E2E5C2EF7
:105250002E5C2E2E5C6D61696E2E630070B501268A
:1052600070044FF0E0210025C1F88001084C401087
:10527000C4F84803C4F8080366602F20FDF77AFAE3
:10528000A660044C2F20A560FDF774FAA57070BDD0
:10529000001001405800002070B50546C87D0C463E
:1052A00000284FF4847128460AD0FFF7D8FCD5F8BF
:1052B0001805627EE1688854607E401C607670BD8F
:1052C000FFF7CDFCD5F8180570BD1FB501238DF88B
:1052D00000308DF808100192D0E90012684690471E
:1052E0001FBD000010B5094C0020D2B22070201D57
:1052F000FDF7C6FE18B1064A3221FBF725FD60789E
:10530000002802D021780029FAD010BD74000020B6
:10531000706600002DE9F843DFF88C800446914662
:1053200098F81C04D8F808500F461E46002838D1BB
:1053300069461846FCF76EF9002832D00098C4463A
:1053400000EA050108EB810252F80C1F21F003016D
:10535000491C401C1160E30602D541F0040101E044
:1053600021F0040164F3C50166F3891167F39F21FD
:10537000116000EA0501220C0CEB8101401CCA609F
:10538000009000200BE000BF009959F8203001EA9E
:1053900005020CEB8202491CD360401C0091B04214
:1053A000F2D3BDE8F8830000B80600202DE9F84FDD
:1053B0001D4C00256846D4E901A6FCF747FA0027F2
:1053C00038B30023009A61681CE0D1F800C0084699
:1053D000944503D9ACEB02020A6015E0A2EB0C0283
:1053E00063440760D0F80CC0C1698146BCF1000F6E
:1053F00008D006EB030828F07F48C0E9018CC9F803
:105400001C5005460029E0D128466160FCF79CFD50
:1054100003E02846FCF798FD10B15046FCF790F9E0
:10542000E770BDE8F88F0000580000200D4B10B564
:10543000596831B102680C68A24204D8A21A0A6005
:10544000C161586010BD0B4603E00B46C969121BD1
:1054500021B10C689442F8D3A41A0C600260C161B7
:10546000D86110BD580000202DE9F041144E776836
:105470003D462C4603E0844204D02546E469002CD6
:10548000F9D11BE0D4B1A5420BD1F869706040B9E5
:105490000C49012088600021B160F0702F20FDF7D9
:1054A00069F92168E069E86110B10268114401609E
:1054B0007068874202D00120BDE8F0810020FBE740
:1054C0005800002000100140F8B5064600240D46A3
:1054D0002046FBF703FD684600F092FE68B10570B8
:1054E000084946609DF8000048700020FBF724FD45
:1054F0001420FBF787F92046F8BD04240020FBF7B1
:105500001BFDF8E7AC0400202DE9F041194D6C6853
:10551000002C2CD0184800270068A968B846401A0B
:1055200020F07F462068B0420CD82146361A074446
:10553000E469087C20B181F810808869496988474E
:10554000002CEFD129786878814206D1401CC0B286
:105550006870022801D185F80180064869780C300E
:1055600040F82170BDE8F0411420FBF74BB9BDE8CD
:10557000F0810000580000200415014070B50C4671
:1055800005464FF48E71FFF76AFBA18AA068415C63
:10559000A08A401CA082C5F81C1570BD1FB5002252
:1055A0008DF800208DF80810816801918275D0E98E
:1055B0000012684690471FBD0149012008707047DE
:1055C0007400002010B588B0044620220F496846B8
:1055D000FAF76CFF06200090C01F01900290039024
:1055E0004FF0EB7006900CB1094A00E000226946CA
:1055F0000848FDF7EBFC18B1074A2221FBF7A4FB92
:105600000448001F447008B010BD00005C64000036
:10561000B955000078000020706600002DE9FF47B2
:105620000C4605464FF40071FFF71FFB01274FF4AE
:105630000178002618B34FF4927949462846FFF7BF
:1056400009FBE0B149462846FFF709FBC5F8088386
:10565000A07E00B96F6002208DF80000D5F88004AC
:10566000C5F880040390E07D8DF80800E0680190A3
:10567000E6752676D4E900126846904727E00421B3
:105680002846FFF7F2FA10B34FF484712846FFF76B
:10569000E1FAE0B121462846FFF7FEFDE07D617E9C
:1056A000884214D1207E38B1617EE268E0752069BD
:1056B000E0602676667607E0A07E00B96F60C5F8E8
:1056C0000883E675617EE2682046FFF7FEFD4FF431
:1056D0008E7841462846FFF7BDFA88B1A08AA17DA1
:1056E000884204D221462846FFF748FF08E0414699
:1056F0002846FFF7B4FAA17D11B12046FFF74EFF0F
:105700004FF4A27841462846FFF7A4FA002812D0A9
:1057100041462846FFF7A3FAA07E00B12F60E07D46
:10572000002808D0E675617EE26804B02046BDE836
:10573000F047FFF7CABDBDE8FF872DE9FF410C46E2
:105740004FF4927705463946FFF795FA0026C0B127
:1057500039462846FFF794FA02208DF80000D5F864
:105760008004C5F880040390D5F83C058DF8080046
:10577000E0680190E6752676D4E900126846904705
:1057800024E04FF4887739462846FFF774FAE8B1E9
:1057900039462846FFF774FAD5F83C05C1B2E07DDA
:1057A000884213D1207E60B1E268D5F8000220F073
:1057B0002000C5F80002207EE0752069E0602676B2
:1057C00001E0E675E2682046FFF77FFD4FF4A2771F
:1057D00039462846FFF74FFA68B139462846FFF7A1
:1057E0004FFAE07D38B1E675D5F83C05E268C1B204
:1057F0002046FFF76AFD4FF4907631462846FFF7C2
:105800003AFA00280FD031462846FFF739FAA07D32
:10581000002808D0D5F84C0504B0C1B22046BDE838
:10582000F041FFF7BBBEBDE8FF8100002DE9F05F4E
:105830008346DDE90A4A994690460D460846012707
:1058400003E000BFB0FBF8F07F1C4045FAD2B94539
:1058500000D94F465FEACA7012D18CB15FEA8A70F4
:1058600002D5B9F1000F01D0202607E0302605E06F
:1058700031465846641EFBF7F7FE0CB1A742F7D33A
:105880005FF00106B9F1010F02D9A9F1010903E0A6
:10589000B5FBF6F0404502D306FB08F6F2E7DFF869
:1058A0003C9000BFB5FBF6F000FB165519F8001050
:1058B0005846FBF7D9FEB6FBF8F6002EF2D15FEAA8
:1058C000CA7009D0002C07D0A74205D22021584623
:1058D000641EFBF7C9FEF5E7BDE8F09F40640000D9
:1058E00070B50446010600F00F0502D5092D09D355
:1058F00001E0092D08D308A140F28A20FBF7B0FB94
:10590000200601D5042000E0282000EB8500BDE83A
:105910007040FFF735BB00002E2E5C2E2E5C2E2E25
:105920005C2E2E5C2E2E5C2E2E5C636F6D706F6E67
:10593000656E74735C647269766572735F6E7266AD
:105940005C757362645C6E72665F6472765F7573B9
:1059500062642E63000000002DE9F04F5E4D89B0B7
:10596000E878002850D181464FF0010A48E000BF96
:1059700090FAA0F0B0FA80F08046FBF77CFB064678
:10598000FBF7B8FF0446006820B954A14FF4A060AB
:10599000FBF766FB300612D5D4E90031A28902A8D4
:1059A0009847002843D1C4F80090802E3FD15B482F
:1059B000D0F8001241F00401C0F8001237E0304680
:1059C000FDF788FFD4E9007183460346A28902A847
:1059D000B84707460298D0B1039959451DD2022015
:1059E000A0730AFA08F0C1433B480C30FCF795FD60
:1059F0004B48006B00908DF80260696868468847E4
:105A0000D5E902100840B3D109B0BDE8F08F039882
:105A100050B132A140F2235004E0594504D02FA1E7
:105A200040F23150FBF71CFB0FB9C4F8009085F829
:105A300003A0A9680AFA08F08143A960A068039945
:105A40000844A060DDE902123046FFF71FF9FDF7B8
:105A500049FF80B34FF482742046FFF773FA304653
:105A6000FFF73EFF0220FDF789FA2046FFF762FAB2
:105A70000028F1D01E20FDF781FA2A4D02E0022015
:105A8000FDF77CFA28688006F9D50120FDF776FA43
:105A9000300606F00F0002D5092809D301E00928D5
:105AA0000AD3214940F26510FBF7DAFA300603D534
:105AB0001B499C3102E00AE01949AE3106F00F00A3
:105AC00031F81000FFF736FA0028C5D09CE73046C1
:105AD000FFF706FF98E70000300000202E2E5C2E16
