:020000040000FA
:10000000102600204D030000550300005703000098
:10001000590300005B0300005D03000000000000C6
:100020000000000000000000000000005F0300006E
:10003000610300000000000063030000650300008E
:10004000670300006703000041070000670300002A
:1000500067030000670300006703000067030000F8
:1000600067030000670300006703000067030000E8
:1000700067030000F503000067030000670300004A
:1000800067030000670300006703000067030000C8
:1000900067030000670300006703000067030000B8
:1000A00067030000670300006703000067030000A8
:1000B000670300006703000000000000000000006C
:1000C0006703000067030000670300006703000088
:1000D00067030000670300006703000000000000E2
:1000E0000000000000000000000000000000000010
:1000F0000000000000000000000000000000000000
:1001000000000000000000000000000000000000EF
:1001100000000000000000000000000000000000DF
:1001200000000000000000000000000000000000CF
:1001300000000000000000000000000000000000BF
:1001400000000000000000000000000000000000AF
:10015000000000000000000000000000000000009F
:10016000000000000000000000000000000000008F
:10017000000000000000000000000000000000007F
:10018000000000000000000000000000000000006F
:10019000000000000000000000000000000000005F
:1001A000000000000000000000000000000000004F
:1001B000000000000000000000000000000000003F
:1001C000000000000000000000000000000000002F
:1001D000000000000000000000000000000000001F
:1001E000000000000000000000000000000000000F
:1001F00000000000000000000000000000000000FF
:10020000DFF80CD000F0E4F800480047290B0000AC
:100210001026002030B4044654E8000F0D4644E890
:100220000053002BF8D1156030BC704730B4044641
:1002300054E8000F40EA010544E80053002BF7D1D1
:10024000156030BC704730B4044654E8000F00EA33
:10025000010544E80053002BF7D1156030BC70470E
:1002600030B4044654E8000F80EA010544E8005326
:10027000002BF7D1156030BC704730B4044654E809
:10028000000F00EB010544E80053002BF7D1156087
:1002900030BC704730B4044654E8000FA0EB0105B1
:1002A00044E80053002BF7D1156030BC70470000C4
:1002B00030B4044654E8000F0D4644E80053002BC8
:1002C000F8D1156030BC704730B4044654E8000FD4
:1002D00040EA010544E80053002BF7D1156030BC1B
:1002E000704730B4044654E8000F00EA010544E8C2
:1002F0000053002BF7D1156030BC704730B4044672
:1003000054E8000F80EA010544E80053002BF7D1C0
:10031000156030BC704730B4044654E8000F00EB61
:10032000010544E80053002BF7D1156030BC70473D
:1003300030B4044654E8000FA0EB010544E8005334
:10034000002BF7D1156030BC70470000064880478D
:1003500006480047FEE7FEE7FEE7FEE7FEE7FEE7AA
:10036000FEE7FEE7FEE7FEE74504000001020000AD
:10037000004870478C22000040EA01039B0703D02D
:1003800009E008C9121F08C0042AFAD203E011F8D4
:10039000013B00F8013B521EF9D27047D2B201E096
:1003A00000F8012B491EFBD270470022F6E710B57A
:1003B00013460A4604461946FFF7F0FF204610BDD3
:1003C000421C10F8011B0029FBD1801A7047000065
:1003D000064C074D06E0E06840F0010394E8070092
:1003E00098471034AC42F6D3FFF70EFF10230000FD
:1003F000302300001CB510480E4903680022002B72
:1004000016D0D1F8081311F0010F11D00260006866
:1004100001900A4800688DF800006946084801F01C
:1004200027FB074801F00EFB002801D000F046FD35
:100430001CBD000000D0004000D1004008D50040A5
:10044000A4210000F0B5AE480023021D017801256B
:10045000101D4FF0805406290BD11678360708D1AD
:100460000678C6F30316032E06D0042E04D0052EFC
:1004700002D0062907D00EE0B4F82463A14FC6F3DA
:1004800004263E6002E01678360704D10678C6F3EB
:100490000316032E02D0062904D00FE09B4F9A4E7C
:1004A0007E670EE01678360708D10678C6F3031685
:1004B000032E06D0042E04D0052E02D0062907D024
:1004C0000EE0D4F84462924FC6F342363E6002E03A
:1004D0001678360704D10678C6F30316032E02D029
:1004E000062906D011E08B4E376827F080773760F9
:1004F0000EE01678360708D10678C6F30316032EE9
:1005000006D0042E04D0052E02D006290AD011E010
:100510004FF08046C6F80C31C6F810317C4E361FBD
:10052000336002E01678360704D10678C6F3031666
:10053000032E02D0062905D00CE0754F0326643740
:100540003E600AE01678360704D10678C6F3031633
:10055000032E02D006290DD014E06F4F05263E6011
:100560006D4E783635606C4E083633603F263F1D41
:100570003E6002E01678360704D10678C6F303160B
:10058000052E02D0062957D062E0644E3668644FCB
:100590003E60624E361D36683F1D3E605F4E083637
:1005A00036683F1D3E605D4E0C3636683F1D3E602E
:1005B0005A4E103636683F1D3E60584E1436366827
:1005C0003F1D3E60554E18363668554F20373E6009
:1005D000524E1C3636683F1D3E60504E20363668FF
:1005E0003F1D3E604D4E243636683F1D3E604B4EEB
:1005F000283636683F1D3E60484E2C3636683F1D13
:100600003E60464E30363668454F40373E60434E7A
:10061000343636683F1D3E60404E383636683F1DE2
:100620003E603E4E3C3636683F1D3E603B4E403697
:1006300036683F1D3E6002E01678360708D106781E
:10064000C6F30316032E06D0042E04D0052E02D0C6
:10065000062907D019E0D4F85812324A01F04F01A8
:10066000116002E0117809070FD10078C0F3031080
:10067000032803D0042801D0052806D12A480168A0
:10068000C90702D06FF00101016022487438016887
:1006900041F470010160BFF34F8FBFF36F8F4FF0D4
:1006A0001021D1F80002002803DBD1F80402002851
:1006B00022DA1E4A15601E480468002CFCD015245E
:1006C000C1F800420568002DFCD0C1F80442016861
:1006D0000029FCD0136001680029FCD0BFF34F8FC4
:1006E0000C48F0380168134A01F4E06111430160DD
:1006F000BFF34F8F00BFFDE710490F480860F0BD02
:10070000E00F00F0403501400DF0ADBA00C00740E9
:100710003C050040FCED00E01056004004040010D1
:1007200020C50040E40E00400004004004E5014004
:1007300000E401400400FA050090D00368000020A6
:100740000448017F04480029024901D001F055BC4A
:1007500001F0C4BBCC0000200020004002E008C82B
:10076000121F08C1002AFAD170477047002001E02B
:1007700001C1121F002AFBD170470000134C012158
:10078000208801EB004012A100F0CCFF01F07CF8C2
:1007900000F09EFE0028FBD10F480068C00700D083
:1007A00000BE2088032101EB00400CA100F0BAFF3D
:1007B000BFF34F8F0848E43801680D4A01F4E06147
:1007C00011430160BFF34F8F00BFFDE79000002091
:1007D000466174616C000000F0ED00E0486974202F
:1007E0007765616B2068616E646C65720000000063
:1007F0000400FA050EB500210091CDE901106A460A
:1008000044F20100FFF7BAFF0EBD00F003B800F09C
:1008100009B8000072B602480168491C01607047BF
:100820000400002003490868401E086000D162B639
:1008300070470000040000202DE9F04106460868DA
:100840000C46411C4FF0A0474FF0010506D005FAB9
:1008500000F1C7F80815206800F054FD6068411CDD
:1008600002D0002100F045FD3079204901EB401015
:10087000A169007F00283068C0F8241525D0607D6C
:10088000227D31681043C1F86C05D4E9001230684C
:10089000C0F80C15C0F8142524E0A068411C02D053
:1008A000002100F026FDE068411C05D08540C7F816
:1008B0000855E06800F026FDD4E902123068C0F85F
:1008C0000825C0F81015BDE8F081607D217D3268F3
:1008D0000843C2F86C05D4E900123068C0F814254A
:1008E000C0F80C15207D0128D7D0ECE7CC00002003
:1008F0002DE9F041861C0C4601270020FFF785FFFB
:100900000F4801682160D0E90012891A8268044604
:10091000511AB51C07E000BF00F0BEF8D4E9000191
:10092000401AA168091A491C8D42F5D82068304444
:1009300020600020FFF76BFF3846BDE8F081000023
:10094000EC01002030B482680468531C8360A15419
:10095000D0E901128A4202D330BC00F0B6BB30BCF1
:1009600070470000034803C8814201D1012070474D
:1009700000207047EC0100202DE9FC5F0E0083464B
:10098000DDE90C47C6F1000098469246814600D446
:100990000846012503E000BF90FBFAF06D1C5045AE
:1009A000FADAA84500D9454624B1002E01DB7807C4
:1009B00000D5641EB80702D5B8F1000F0AD0F807B9
:1009C00008D13CB1A54205D220215846641EFFF74C
:1009D000B9FFF6E7002E02DA4E462D2102E0780735
:1009E00003D52B215846FFF7ADFF07F0030002287F
:1009F0000BD1B8F1000F08D13CB1A54205D230218E
:100A00005846641EFFF79EFFF6E7CDE900474346D0
:100A100052463146584601F069FBBDE8FC9F000094
:100A200070B50E460446007918494FF4A27501EBE3
:100A30004010017F2068A1B14FF4887101F0AFF838
:100A40004FF49071206801F0AAF84FF49271206879
:100A500001F0A5F82946206801F0A1F80C492068AA
:100A600009E04FF48E7101F089F82946206801F001
:100A700085F808492068C0F80413206800F0BFF921
:100A80003146BDE8704000F09EB90000CC00002067
:100A900010030200800002002DE9FE43214DD5E93C
:100AA000014704EA070005EB800605F583600C3674
:100AB00000F0E4F805F21440804600F0DFF80AE0A8
:100AC000C0F3891101EB9050641C044404EA070050
:100AD00005EB80060C3630688107F1D000206946AE
:100AE00004EA070205EB8202641CD26841F8202068
:100AF000401C0228F4D3009800F00300022800985C
:100B00000AD0C0F383100444404600F0B1F8002836
:100B100000D06C60BDE8FE83032101EB905004EB34
:100B20009004F1E7EC01002086B0002000F054FEB4
:100B300008B1FFF75FFE00F0BDFC002000F074F983
:100B400008B1FFF757FE174D03266F46102404A87F
:100B500000F060F99DF81000102800D804462146E6
:100B6000384600F08DF908B1FFF744FE28880EA141
:100B700006EB004000F0D6FD2888224606EB004038
:100B8000694600F07BFD28880BA106EB004000F0D1
:100B9000C9FD00BF00F09CFC0028FBD1074800F015
:100BA000C1F8D2E79000002052616E646F6D20564C
:100BB0006563746F723A000000000000A0860100B7
:100BC0002DE9F047C7880446181D16468946B0FB34
:100BD000F7F1B0FBF7F207FB12009A193A44D21C66
:100BE000B2FBF7F2DDF820A001E02468491E0029DD
:100BF000FBD13D1A8846B54216D818E0BAF1000F6D
:100C000005D0211809EB08002A46091D04E02044FC
:100C100009EB08012A46001DFFF7AEFB00202468FF
:100C2000761BA844B74201D9354600E03D46002E68
:100C3000E4D1BDE8F087000030B50B46024600F075
:100C4000F9FD63B10021094C0CE000BF01EB410349
:100C500004EB830315685B88AB4202D1116000206E
:100C600030BD491C8142F1D3052030BD6C0000200D
:100C700008B500216A46FFF734FB08BD08B501211D
:100C80006A46FFF721FB009808BD70B504460025B1
:100C90002846FFF7BAFD21686268086890420ED9BD
:100CA000401E08600178238AE26801FB0325227A4E
:100CB0002168101AC0B20A79824200D2087100205D
:100CC000FFF7A5FD284670BD70B505460C4600200F
:100CD000FFF79BFDE868298A201AB0FBF1F12A682A
:100CE0001068431C13600170BDE870400020FFF7DE
:100CF0008EBD10B530B1017A42680368891AC9B255
:100D00001A6006E00E2010BD03681A68541C1C60AF
:100D10001170491EC9B2F7D200680021017108465E
:100D200010BD000000283ED01F49204A096800BFBE
:100D300000BF00BF00BF00BF00BF00BF00BF9142A7
:100D40002FD000BF00BF00BF00BF00BF00BF00BF6B
:100D500000BF00BF00BF00BF00BF00BF00BF00BF9B
:100D600000BF00BF00BF00BF00BF00BF00BF00BF8B
:100D700000BF00BF00BF00BF00BF00BF00BF00BF7B
:100D800000BF00BF00BF00BF00BF00BF00BF00BF6B
:100D900000BF00BF00BF00BF00BF00BF00BF00BF5B
:100DA00000BF0138C3D17047680000200024F40060
:100DB00000F01F02012191404009800000F1E02075
:100DC000C0F8801170474907090E002806DA00F0C4
:100DD0000F0202F1E02282F8141D03E000F1E0228C
:100DE00082F8001400F01F020121914040098000A8
:100DF00000F1E020C0F88012C0F800117047000B2D
:100E000040B270470121B1EB507F01D10120704702
:100E10000020704710B50446024800F09CFE207088
:100E200010BD0000A421000010B5114C217809B1BB
:100E3000852010BD00B90F480088A4F80100607833
:100E4000C00704D00C48016841F0010101600B4863
:100E5000D0F8001221F00101C0F80012A1780D2095
:100E6000FFF7B1FF00F01AF801202070002010BD3C
:100E700000000020A021000004D5004000D0004068
:100E80000A4610B50146044800F048FE044600F04A
:100E900005F8204610BD0000A4210000064908B551
:100EA000002204480A60096800910121C0F8041377
:100EB000016008BD00D0004000D10040034901207E
:100EC000C1F80803091D08607047000000D0004009
:100ED0002DE9F04105460079164F904607EB401486
:100EE0000E46E07E10B10820BDE8F081707F2077CB
:100EF0002846FFF7A1FC5FEA0800606031692160C5
:100F000003D0317F2846FFF78BFD287907EB40108F
:100F1000007F0028286801D0082100E00421C0F8E3
:100F200000150020E0752076A0750121E176A076FD
:100F3000DAE70000CC0000202DE9F04705460079F3
:100F40003F4E904606EB40140F46207F18B10846EE
:100F5000FFF758FF30B1284600F074F820B1112097
:100F6000BDE8F0871020FBE784F81680A760002713
:100F7000A78228794FF0010806EB40143E46207FF7
:100F80000028286825D04FF49079494600F007FEE4
:100F90004FF4AC7A5146286800F001FE2868A17D24
:100FA000A268C0F84425C0F848152868C0F8088031
:100FB0006068F0B94946286800F0ECFD804651466B
:100FC000286800F0E7FD58EA0001F3D058BBA77588
:100FD0000FE04FF48E7A514600F0D0FD2868C0F83B
:100FE00008802146286800F02DFF61684FF480706A
:100FF00089B13046B4E75146286800F0BAFD10B90F
:10100000A08A4845F7D1A08A484505D021462868DE
:1010100000F018FF00E08146A08AA17D8842EAD353
:10102000A08A484501D10F26D1E75146286800F033
:10103000A0FD0028F9D02868C0F80C80C7E70000A0
:10104000CC0000200079044901EB4010807D00288D
:1010500000D0012070470000CC00002070B504468D
:1010600000791149002601EB401520682A7FC0F85D
:101070000065686888B1207901EB4010007F002886
:10108000206801D0094901E008498C39C0F80813EB
:101090002068FFF7B4FEFFF78BFE204600F086FDC8
:1010A000EE766E6070BD0000CC00002010030200E0
:1010B0000FB408B50399002904D004AA00926A4627
:1010C00000F00FF801B05DF814FB10B5826804461B
:1010D000002A05D0D4E90403216898470020A060C5
:1010E00010BD2DE9FC4791460C00804676D014F8DF
:1010F000011B39B125290ED04046FFF723FC20788B
:101100000028F4D198F80C00002867D04046BDE8CC
:10111000FC47FFF7DABF0020012221782B291BD0E2
:101120002D2902D0302908D102E040F0010001E071
:1011300040F00200641C002AEFD100252A290ED0BD
:101140002178A1F130020A2A11D205EB850201EBC8
:101150004205641C303DF1E740F00400EAE7D9F8AD
:1011600000100B1DC9F800300968641C0D4421787B
:1011700000232E290BD114F8011FA1F130020A2AF5
:1011800005D203EB830201EB4203303BF3E76C290A
:101190000DD068290BD0692921D00BDC252918D066
:1011A000582931D063290ED0642915D117E014F8DD
:1011B000011FECE7702969D0732932D075291BD043
:1011C000782909D120E0D9F80000011DC9F80010E4
:1011D00001784046FFF7B6FB641C90E76CE0D9F855
:1011E00000100A1DC9F800200968CDE900500A2244
:1011F0004046FFF7C1FBEFE7D9F800100A1DC9F818
:10120000002009680A2206E0D9F800100A1DC9F872
:10121000002009681022CDE90050404600F066FF2A
:10122000DAE7D9F8001000270A1DC9F800200E6877
:10123000C00705D112E04046761C7F1CFFF782FBF9
:1012400031780029F7D104E0202140466D1EFFF7D8
:1012500079FBBD42C0D9002DF6D1BDE74EB1304675
:10126000FFF7AEF8074604E0202140466D1EFFF769
:1012700069FBBD4206D9002DF6D103E04046761C3D
:10128000FFF760FB31780029F8D1A5E7D9F8000015
:10129000011DC9F80010056830214046FFF752FBD8
:1012A00078214046FFF74EFB08200021CDE90001E0
:1012B000034610222946B0E7BDE8FC8770B541EA35
:1012C0004201DDE904564FF0A04441EA830141EABE
:1012D000052104EB800041EA0641C0F8001770BD0B
:1012E0001CB5002100910B4601220191FFF7E6FF9A
:1012F0001CBD1CB500220B46009211460192FFF75F
:10130000DDFF1CBD1CB5002100910B46012201919F
:101310001146FFF7D3FF1CBD70B5184A0024D2F860
:101320001034194609E00D7AA54205D1641C0A2C37
:10133000F7DB4FF0FF341FE049680029F3D1611C4F
:101340001AD00472D2F8101431B149684160D2F851
:101350001014486000250BE00021C2F81004416021
:10136000F8E700231A462946204600F06DFA6D1C66
:1013700000F060FAA842F4D8204670BDEC010020CD
:10138000F0B595B01C4615460F4608461A9E00F06B
:1013900033FB182109A8FFF708F80E96CDE9095488
:1013A0000023082203A9384600F040FB0598069068
:1013B0000498ADF81C0000208DF820000398082642
:1013C00000F00300012802D002281DD03CE0039861
:1013D0003346850AC0F3C2008DF81E0003980FA99A
:1013E000C0F380008DF81F000398C0F38314A2009F
:1013F000384600F01BFB09A8009006AB22460FA957
:10140000284600F055FA1FE00398840DC0F3C2008F
:101410008DF81E000398C0F380008DF81F00082C83
:1014200001D2254600E0082533462A460FA9384652
:1014300000F0FCFA2E44641B09AB06AA29460FA84B
:1014400000F074F9002CEAD1384600F0DEFA15B04D
:10145000F0BD7047012000F019BD000010B5044830
:10146000FFF7FCFDBDE81040002000F00FBD0000BC
:101470000C00002008B5034A00924023024AFFF7FF
:101480007FFF08BD851D0000EC000020084A0129EF
:1014900002EBC00005D0022903D0032903D00429A0
:1014A00003D00020704700797047407970470000F2
:1014B0003023000010B5FFF7CDFF04210348FFF7EC
:1014C0002BFF02490120487210BD000014000020CB
:1014D0002DE9FE4FFFF746FA10B10020BDE8FE8F60
:1014E00063480021C0F81414D0E9014604EA06015B
:1014F00000EB81014FF000090AE000BFC1F389123F
:1015000002EB9151641C0C4404EA060100EB8101DA
:10151000C9688A07F2D000216A46804604EA0600BC
:1015200008EB8000641CC06842F82100491C0229B5
:10153000F4D3009800F00300022800981CD0C0F3F8
:101540008311062900D3062161F389100090C0F3AE
:101550008310801C8100474800F005FA070075D011
:1015600000F04AFA4B4608226946384600F064FA11
:1015700009F10809002557E0810D50228A46B2EB97
:10158000905F00D850210D4665F39F5000900831C0
:10159000384800F0E8F9070058D000F02DFA4B4623
:1015A00008226946384600F047FA04EA0601701A34
:1015B0008000001D09F1080B854220D92C4E0C3605
:1015C00030B1C2B208EB8101281A91460C3104E017
:1015D0003146EAB2002691463046C5B25B463846EF
:1015E00000F02AFA0BEB090326B12A4631463846A9
:1015F00000F022FA0AF1030004EB90041AE008EB71
:1016000081015B462A4638460C31F1E704EA0600C0
:1016100008EB80014B46042238460C31641C00F074
:101620000BFA09F104096D1C0098C0F38310A8425D
:10163000ECD85FB11048FFF71BFBD8F810544646B2
:1016400005B140B1384600F0E0F97460FFF78AF95F
:1016500080F0010042E7687A012804D12A68284610
:101660003946126890476D68002DF4D1EAE7000012
:10167000EC010020F4210000000600202DE9F843D1
:10168000274C0746154694F81C048846002845D187
:10169000E81C80086946A668FFF72AF900283DD0B3
:1016A000009800EA060104EB8101401C009051F80B
:1016B0000C0F20F00300801C0860FA0602D540F0F1
:1016C000040001E020F0040067F3C5004FF6C0728B
:1016D000904365F39F50086000983A0C00EA0601B9
:1016E00004EB8101401CCA600090A1683040091AD7
:1016F0008E00361DB54204EB800002D82A464146D2
:1017000009E0324641460C30FEF736FEA81B82B295
:10171000034808EB06010C30FEF72EFEBDE8F88307
:10172000EC01002000231A4600F040BB2DE9F047F1
:101730000E4680461C46924608293ED894F80C90E6
:10174000002020731946104600F08AFA0025B542A1
:1017500006D218F805201AA12046FFF7A9FC03E0DD
:1017600019A12046FFF7A4FC6D1C082DEFD317A18B
:101770002046FFF79DFC0025B54210D218F80570F1
:10178000FEF7F6FD0068C05D10F03E0F01D03A464E
:1017900000E02E220EA12046FFF78AFC03E00DA1F7
:1017A0002046FFF785FC6D1C082DE5D3012221465C
:1017B000504600F037FA84F80C90BDE8F08700003E
:1017C0002025303278000000202020007C0000001E
:1017D0002563000020000000114810B5FF21816042
:1017E000002101604160C0F81814C0F8141480F89A
:1017F0001C140C4800F007F900280FD10A480B49C7
:101800000B4B401AC108002005E000BF00EB40026E
:1018100023F82200401C8842F8D3002010BD0000AD
:10182000EC010020F42100005023000030230000D0
:101830006C00002002480349401AC00870470000AD
:1018400050230000302300001FB51146002443B987
:1018500001A8FFF7F1F920B90348019900EBC10095
:10186000847904B0204610BD3023000013B56846CB
:10187000FFF7E2F908B100201CBD0248009950F8BA
:1018800031001CBD3023000070B508480125D0F898
:10189000104480F81C5405E06572216820464968B0
:1018A00088476468002CF7D170BD0000EC0100206F
:1018B0002DE9FF4781460C9D00200C462F7B2873A5
:1018C000984616462946184600F0CAF9072E42D215
:1018D000DFE806F004090F161F2A3600494628469D
:1018E000FFF7E6FB37E0494628462268FFF7E0FBB2
:1018F00031E0D4E9002349462846FFF7D9FB2AE026
:10190000A0680090D4E9002349462846FFF7D0FBA1
:1019100021E0D4E90201CDE90001D4E900234946E0
:101920002846FFF7C5FB16E004F1080007C88DE85C
:101930000700D4E9002349462846FFF7B9FB0AE02F
:1019400004F108000FC88DE80F00D4E900234946D0
:101950002846FFF7ADFB00222946404600F062F919
:101960002F73BDE8FF872DE9F041058A80462D1FC2
:101970004819C01CB0FBF5F0C6B24046FFF785F928
:10198000041E19D00020207101206071E58000271D
:101990002546761EC4F800800BE04046FFF775F937
:1019A00060B16179491C6171286005467F1CC0F8EF
:1019B0000080B742F1D32046BDE8F081204600F018
:1019C00002F80020F8E72DE9F041457901466B1E49
:1019D000002201E00968521C9A42FBD30F680146BD
:1019E000002605E038460C68FFF76EF92146761CA4
:1019F000AE42F7D3BDE8F08108B501216A46001D6B
:101A0000FEF73BFC08BDFFF774B938B50446001D6E
:101A100001216A46FEF73EFC009810F0FF0F04D14A
:101A20002046BDE83840FFF7CEBF38BD38B50124A9
:101A30000094FFF7C5F838BD38B500240094FFF7CF
:101A4000BFF838BD01680A6849688068884201D9D2
:101A5000491C00E00021914201D101207047002083
:101A600070478068884201D9481C70470020704741
:101A70002DE9F04104464FF000080E464046FEF7BF
:101A8000C4FE2046FFF7DEFF070009D0207C38B1F6
:101A90004FF004080020FEF7BAFE4046BDE8F08192
:101AA0002068456841682046FFF7DBFF21684860F1
:101AB00037B1206801682046FFF7D3FF216808602E
:101AC000E268012A14D0022A16D0042A19D0082A62
:101AD0001CD06068314605FB0200FEF74DFC204635
:101AE00000F01FF921688A688242D3D28860D1E76A
:101AF000616830784855F2E76168308821F8150050
:101B0000EDE76168306841F82500E8E7D6E90001B3
:101B1000626802EBC502C2E90001E0E72DE9F0418D
:101B200007464FF0000415000E46204611D0FEF780
:101B30006CFE384600F0F5F8A84205D32A46314637
:101B4000384600F0BBF800E005240020FEF75FFEF9
:101B50002046BDE8F08110B504460020FEF755FE92
:101B6000204600F0DEF804460020FEF750FE204636
:101B700010BD4058002800D00120704708B5002251
:101B800042504058009008BDD0F80403084000D0EF
:101B9000012070474058002800D00120704708B548
:101BA000002242504058009008BD000070B5034626
:101BB00000791B4901EB40101968027F4FF0FF309C
:101BC000002AD1F80C25D1F81465D1F80855D1F8C0
:101BD000104504D0C1F80C05C1F8140503E0C1F8A4
:101BE0001405C1F80C051968C1F80805C1F81005FD
:101BF000501C02D01046FFF773FB701C02D0304619
:101C0000FFF76EFB601C02D02046FFF769FB681CE3
:101C100004D02846BDE87040FFF762BB70BD0000ED
:101C2000CC00002010B50C46C17949B11AB109A108
:101C30002046FFF73DFA2046BDE81040FFF745BAC1
:101C4000007A0028F3D0044804A102682046FFF778
:101C50002FFAECE70D0A0000440000202573000075
:101C600070B50446C0790D4600281CD1207A50B1C9
:101C7000A179A088FFF70AFC0B4951F820200BA19D
:101C80002846FFF715FAA0880021FFF7EFFD03466D
:101C90000549A079143951F820202846BDE8704044
:101CA00003A1FFF705BA70BD4400002025730000B2
:101CB0003C25733E2025733A200000002DE9F041B9
:101CC000044600681746884605684068854201D882
:101CD000461B02E0A068461B761CE2686068B742BB
:101CE00005FB02010CD87A434046FEF745FBA1688C
:101CF000E819884200D9002021680860BDE8F08119
:101D000002FB06F52A464046FEF736FBE268BE1B9C
:101D1000724308EB05006168FEF72EFB2068066041
:101D2000ECE701680A684968914201D3881A704754
:101D30008068801A0844401C704770B50546C87D0D
:101D40000C4600284FF4847128460AD0FFF716FF8E
:101D5000D5F81805627EE1688854607E401C607684
:101D600070BDFFF70BFFD5F8180570BD1FB5012337
:101D70008DF800308DF808100192D0E90012684605
:101D800090471FBD10B5084C0020D2B22070201D16
:101D9000FFF7D2F808B1FEF72DFD6078002802D0D9
:101DA00021780029FAD010BD080000202DE9F84361
:101DB000DFF88C800446914698F81C04D8F8085047
:101DC0000F461E46002838D169461846FEF790FD9A
:101DD000002832D00098C44600EA050108EB8102D1
:101DE00052F80C1F21F00301491C401C1160E3064E
:101DF00002D541F0040101E021F0040164F3C501C2
:101E000066F3891167F39F21116000EA0501220C36
:101E10000CEB8101401CCA60009000200BE000BF69
:101E2000009959F8203001EA05020CEB8202491CA6
:101E3000D360401C0091B042F2D3BDE8F8830000AB
:101E4000EC01002070B50C4605464FF48E71FFF78B
:101E500095FEA18AA068415CA08A401CA082C5F8BA
:101E60001C1570BD1FB500228DF800208DF80810DC
:101E7000816801918275D0E90012684690471FBDC4
:101E800001490120087070470800002010B588B093
:101E9000044620220E496846FEF76EFA062000909E
:101EA000C01F0190029003904FF0EB7006900CB1B0
:101EB000084A00E0002269460748FFF709F808B120
:101EC000FEF798FC0448001F447008B010BD0000E5
:101ED000D4210000811E00000C0000202DE9FF47E6
:101EE0000C4605464FF40071FFF74EFE01274FF4F4
:101EF0000178002618B34FF4927949462846FFF737
:101F000038FEE0B149462846FFF738FEC5F8088399
:101F1000A07E00B96F6002208DF80000D5F8800423
:101F2000C5F880040390E07D8DF80800E06801901A
:101F3000E6752676D4E900126846904727E004212A
:101F40002846FFF721FE10B34FF484712846FFF7AF
:101F500010FEE0B121462846FFF7EFFEE07D617EEE
:101F6000884214D1207E38B1617EE268E075206934
:101F7000E0602676667607E0A07E00B96F60C5F85F
:101F80000883E675617EE2682046FFF7EFFE4FF4B6
:101F90008E7841462846FFF7ECFD88B1A08AA17DE6
:101FA000884204D221462846FFF74CFF08E041460C
:101FB0002846FFF7E3FDA17D11B12046FFF752FF50
:101FC0004FF4A27841462846FFF7D3FD002812D0EF
:101FD00041462846FFF7D2FDA07E00B12F60E07D8C
:101FE000002808D0E675617EE26804B02046BDE8AE
:101FF000F047FFF7BBBEBDE8FF872DE9FF410C4668
:102000004FF4927705463946FFF7C4FD0026C0B16C
:1020100039462846FFF7C3FD02208DF80000D5F8A9
:102020008004C5F880040390D5F83C058DF80800BD
:10203000E0680190E6752676D4E90012684690477C
:1020400024E04FF4887739462846FFF7A3FDE8B12E
:1020500039462846FFF7A3FDD5F83C05C1B2E07D1F
:10206000884213D1207E60B1E268D5F8000220F0EA
:102070002000C5F80002207EE0752069E060267629
:1020800001E0E675E2682046FFF770FE4FF4A277A4
:1020900039462846FFF77EFD68B139462846FFF7E6
:1020A0007EFDE07D38B1E675D5F83C05E268C1B249
:1020B0002046FFF75BFE4FF4907631462846FFF747
:1020C00069FD00280FD031462846FFF768FDA07D46
:1020D000002808D0D5F84C0504B0C1B22046BDE8B0
:1020E000F041FFF7BFBEBDE8FF8100002DE9F05FC2
:1020F0008346DDE90A4A994690460D46084601277F
:1021000003E000BFB0FBF8F07F1C4045FAD2B945B0
:1021100000D94F465FEACA7012D18CB15FEA8A706B
:1021200002D5B9F1000F01D0202607E0302605E0E6
:1021300031465846641EFEF705FC0CB1A742F7D3A2
:102140005FF00106B9F1010F02D9A9F1010903E01D
:10215000B5FBF6F0404502D306FB08F6F2E7DFF8E0
:102160003C9000BFB5FBF6F000FB165519F80010C7
:102170005846FEF7E7FBB6FBF8F6002EF2D15FEA11
:10218000CA7009D0002C07D0A74205D2202158469A
:10219000641EFEF7D7FBF5E7BDE8F09FB82100000D
:1021A00000070000C00000209C000020200000006C
:1021B0000100000000000000303132333435363782
:1021C0003839414243444546751400005D1400000F
:1021D00053140000FFFFFFFFFFFFFFFFFFFFFFFFA4
:1021E000FFFFFFFF00000000000000000000D6011C
:1021F0000701000028000020200000202800002007
:102200002C010020180000000040404040404040A9
:1022100040404141414141404040404040404040B9
:10222000404040404040404040050202020202025D
:1022300002020202020202020220202020202020AC
:1022400020202002020202020202909090909090C0
:10225000101010101010101010101010101010107E
:1022600010101010020202020202888888888888F2
:1022700008080808080808080808080808080808DE
:1022800008080808020202024000000009220000BB
:102290007761726E696E6700646562756700000041
:1022A0001B5B313B33306D001B5B306D0000000069
:1022B0001B5B313B33316D001B5B313B33326D00B7
:1022C0001B5B313B33336D001B5B313B33346D00A3
:1022D0001B5B313B33356D001B5B313B33366D008F
:1022E0001B5B313B33376D00696E666F0000000089
:1022F0006572726F72000000726E670075617274B1
:102300000000000062616C6C6F630000617070001F
:1023100050230000000000209C0000005C0700002B
:10232000EC2300009C000020742500006C070000D6
:10233000F822000000000000FC2200000000000065
:1023400004230000000000000C2300000000030034
:10235000000000000000000000000000002000401D
:1023600000000000C8210000000000000000000084
:10237000000000000000000000000000000000005D
:1023800000000000F022000090220000E82200007F
:1023900098220000A8220000A0220000B022000025
:1023A000B8220000C0220000C8220000D022000095
:1023B000D8220000E02200000090D00300000000BE
:1023C000000000000000000000000000000000000D
:1023D00000000000000000000000000000000000FD
:0C23E000000000000000000000000000F1
:0400000500000201F4
:00000001FF
